{"bytecode":"6080604052620f1b30600855620f69506009556200001c6200049c565b600c80546001600160a01b0319166001600160a01b039290921691909117905562000046620004b4565b600d80546001600160a01b0319166001600160a01b039290921691909117905562000070620004cc565b600e80546001600160a01b0319166001600160a01b03929092169190911790556200009a620004e4565b600f80546001600160a01b0319166001600160a01b0392909216919091179055620000c4620004fc565b601080546001600160a01b0319166001600160a01b0392909216919091179055620000ee62000514565b601180546001600160a01b03929092166001600160a01b031992831617905560128054821673d074cdae76496d81fab83023fee4d8631898bbaf17905560138054909116737642604866b546b8ab759fcefb0c5c24b296b9251790556209eb10601455620927c060155561c3506016819055611388601855601955600019601a55620b1008601b553480156200018357600080fd5b507304068da6c83afcfa0e13ba15a6696662335d5b757321be370d5312f44cb42ce377bc9b8a0cef1a4c8381816040518060400160405280600c81526020016b13115591549051d1551154d560a21b815250604051806040016040528060048152602001631d195cdd60e21b815250600860016000819055506200020c6200052c60201b60201c565b600180546001600160a01b0319166001600160a01b0392831617908190556040519116906000907f8be0079c531659141344cd1fd0a4f28419497f9722a3daafe3b4186f6b6457e0908290a382516200026d906005906020860190620009d9565b50815162000283906006906020850190620009d9565b506007805460ff90921660ff199092169190911790555050600a80546001600160a01b038085166001600160a01b031992831617909255600b8054928416929091169190911790556000620002d762000530565b604080516001808252818301909252919250606091906020808301908036833701905050905062000307620004e4565b816000815181106200031557fe5b6001600160a01b03928316602091820292909201810191909152604051631853304760e31b8152600481018281528451602483015284519386169363c29982389386938392604490910191858101910280838360005b83811015620003855781810151838201526020016200036b565b5050505090500192505050600060405180830381600087803b158015620003ab57600080fd5b505af1158015620003c0573d6000803e3d6000fd5b505050506040513d6000823e601f3d908101601f191682016040526020811015620003ea57600080fd5b81019080805160405193929190846401000000008211156200040b57600080fd5b9083019060208201858111156200042157600080fd5b82518660208202830111640100000000821117156200043f57600080fd5b82525081516020918201928201910280838360005b838110156200046e57818101518382015260200162000454565b505050509050016040525050505050505050620004906200054860201b60201c565b50504260175562000a75565b732b4c76d0dc16be1c31d4c1dc53bf9b45987fc75c90565b73ec7178f4c41f346b2721907f5cf7628e388a7a5890565b73841fad6eae12c286d1fd18d1d525dffa75c7effe90565b73e45ac34e528907d0a0239ab5db507688070b20bf90565b73e0654c8e6fd4d733349ac7e09f6f23da256bf47590565b7330872e4fc4edbfd7a352bfc2463eb4fae9c0908690565b3390565b73260e596dabe3afc463e75b6cc05d8c46acacfb0990565b6012546001600160a01b03163314806200057c57506200056762000664565b6001600160a01b0316336001600160a01b0316145b6200058657600080fd5b620005b662000594620004e4565b600a546001600160a01b03169060001962000673602090811b62001f8217901c565b620005e6620005c462000797565b600b546001600160a01b03169060001962000673602090811b62001f8217901c565b620005f462000594620007af565b62000602620005c4620007af565b6200063262000610620007af565b600e546001600160a01b03169060001962000673602090811b62001f8217901c565b6200066262000640620007af565b6010546001600160a01b03169060001962000673602090811b62001f8217901c565b565b6001546001600160a01b031690565b801580620006fd575060408051636eb1769f60e11b81523060048201526001600160a01b03848116602483015291519185169163dd62ed3e91604480820192602092909190829003018186803b158015620006cd57600080fd5b505afa158015620006e2573d6000803e3d6000fd5b505050506040513d6020811015620006f957600080fd5b5051155b6200073a5760405162461bcd60e51b815260040180806020018281038252603681526020018062003fb76036913960400191505060405180910390fd5b604080516001600160a01b038416602482015260448082018490528251808303909101815260649091019091526020810180516001600160e01b0390811663095ea7b360e01b1790915262000792918591620007c716565b505050565b735aa53f03197e08c4851cad8c92c7922da5857e5d90565b73f491e7b69e4244ad4002bc14e878a34207e38c2990565b620007e6826001600160a01b03166200099c60201b620020951760201c565b62000838576040805162461bcd60e51b815260206004820152601f60248201527f5361666545524332303a2063616c6c20746f206e6f6e2d636f6e747261637400604482015290519081900360640190fd5b60006060836001600160a01b0316836040518082805190602001908083835b60208310620008785780518252601f19909201916020918201910162000857565b6001836020036101000a0380198251168184511680821785525050505050509050019150506000604051808303816000865af19150503d8060008114620008dc576040519150601f19603f3d011682016040523d82523d6000602084013e620008e1565b606091505b50915091508162000939576040805162461bcd60e51b815260206004820181905260248201527f5361666545524332303a206c6f772d6c6576656c2063616c6c206661696c6564604482015290519081900360640190fd5b80511562000996578080602001905160208110156200095757600080fd5b5051620009965760405162461bcd60e51b815260040180806020018281038252602a81526020018062003f8d602a913960400191505060405180910390fd5b50505050565b6000813f7fc5d2460186f7233c927e7db2dcc703c0e500b653ca82273b7bfad8045d85a4708115801590620009d15750808214155b949350505050565b828054600181600116156101000203166002900490600052602060002090601f016020900481019282601f1062000a1c57805160ff191683800117855562000a4c565b8280016001018555821562000a4c579182015b8281111562000a4c57825182559160200191906001019062000a2f565b5062000a5a92915062000a5e565b5090565b5b8082111562000a5a576000815560010162000a5f565b6135088062000a856000396000f3fe608060405234801561001057600080fd5b50600436106103fc5760003560e01c806394c04ced11610215578063c3b49f3d11610125578063e6e7114b116100b8578063f2fde38b11610087578063f2fde38b146108d2578063f8c1e75e146108f8578063f8f079bb14610900578063f9da3f7514610908578063feb6848a14610910576103fc565b8063e6e7114b146108b2578063eb61c72a146108ba578063ecf70858146108c2578063f1a392da146108ca576103fc565b8063d2d9a69d116100f4578063d2d9a69d14610857578063dd62ed3e14610874578063de5f6268146108a2578063e43e7b94146108aa576103fc565b8063c3b49f3d146107f8578063c7b9d53014610800578063cad20a2914610826578063cec10c111461082e576103fc565b8063ae263a1d116101a8578063b6b55f2511610177578063b6b55f25146107a0578063bf428341146107bd578063c089f572146107e0578063c1e32a3d146107e8578063c2442f93146107f0576103fc565b8063ae263a1d14610765578063b2ad2f0f1461076d578063b4aafb6014610775578063b574d2871461077d576103fc565b8063a9059cbb116101e4578063a9059cbb14610721578063a9b0ca381461074d578063a9c19c6614610755578063aced16611461075d576103fc565b806394c04ced146106bc57806395d89b41146106e5578063a457c2d7146106ed578063a877cc5514610719576103fc565b8063668ecbf21161031057806377c7b8fc116102a3578063853828b611610272578063853828b6146106945780638ad56bff1461069c5780638bc7e8c4146106a45780638da5cb5b146106ac5780638f32d59b146106b4576103fc565b806377c7b8fc146106745780637845790c1461067c57806381117ff214610684578063827907b41461068c576103fc565b80637137ef99116102df5780637137ef9914610636578063715018a61461063e578063748747e61461064657806377af8ceb1461066c576103fc565b8063668ecbf2146105f857806368bde41f146106005780636c1a35be1461060857806370a0823114610610576103fc565b8063313ce5671161039357806339bb9c241161036257806339bb9c24146105bb5780633ad184e4146105c35780634d54e307146105cb57806354b1a6d8146105e85780635627f7b5146105f0576103fc565b8063313ce567146105615780633268cc561461057f578063379afccc14610587578063395093511461058f576103fc565b80631fe4a686116103cf5780631fe4a686146104e057806323b872dd146105045780632cf4e4ee1461053a5780632e1a7d4d14610542576103fc565b806306fdde0314610401578063095ea7b31461047e57806311d1a392146104be57806318160ddd146104d8575b600080fd5b610409610918565b6040805160208082528351818301528351919283929083019185019080838360005b8381101561044357818101518382015260200161042b565b50505050905090810190601f1680156104705780820380516001836020036101000a031916815260200191505b509250505060405180910390f35b6104aa6004803603604081101561049457600080fd5b506001600160a01b0381351690602001356109ae565b604080519115158252519081900360200190f35b6104c66109cc565b60408051918252519081900360200190f35b6104c6610a77565b6104e8610a7d565b604080516001600160a01b039092168252519081900360200190f35b6104aa6004803603606081101561051a57600080fd5b506001600160a01b03813581169160208101359091169060400135610a8c565b6104c6610b13565b61055f6004803603602081101561055857600080fd5b5035610b25565b005b610569610d24565b6040805160ff9092168252519081900360200190f35b6104e8610d2d565b61055f610d45565b6104aa600480360360408110156105a557600080fd5b506001600160a01b038135169060200135610df4565b6104c6610e42565b6104e8610e48565b6104c6600480360360208110156105e157600080fd5b5035610e60565b6104c6610e8f565b6104c6610e95565b6104e8610f22565b6104e8610f3a565b6104e8610f52565b6104c66004803603602081101561062657600080fd5b50356001600160a01b0316610f6a565b6104c6610f85565b61055f610fc0565b61055f6004803603602081101561065c57600080fd5b50356001600160a01b0316611063565b61055f611104565b6104c66111d4565b6104c6611205565b61055f61128d565b6104c6611540565b61055f611545565b6104c661155e565b6104c66115b0565b6104e86115b6565b6104aa6115c5565b61055f600480360360608110156106d257600080fd5b50803590602081013590604001356115eb565b610409611657565b6104aa6004803603604081101561070357600080fd5b506001600160a01b0381351690602001356116b8565b61055f611720565b6104aa6004803603604081101561073757600080fd5b506001600160a01b038135169060200135611762565b6104c6611776565b6104c661177c565b6104e8611818565b61055f611827565b6104e8611934565b6104c661194c565b61055f6004803603604081101561079357600080fd5b5080359060200135611952565b61055f600480360360208110156107b657600080fd5b50356119b6565b61055f600480360360408110156107d357600080fd5b5080359060200135611b52565b6104c6611b97565b6104e8611b9d565b6104e8611bb5565b6104c6611bcd565b61055f6004803603602081101561081657600080fd5b50356001600160a01b0316611c49565b6104c6611cea565b61055f6004803603606081101561084457600080fd5b5080359060208101359060400135611d01565b61055f6004803603602081101561086d57600080fd5b5035611d72565b6104c66004803603604081101561088a57600080fd5b506001600160a01b0381358116916020013516611db5565b61055f611de0565b6104e8611e62565b6104c6611e7a565b6104c6611e91565b6104c6611ea5565b6104c6611eab565b61055f600480360360208110156108e857600080fd5b50356001600160a01b0316611eb1565b6104c6611f13565b6104c6611f19565b6104e8611f1f565b6104c6611f37565b60058054604080516020601f60026000196101006001881615020190951694909404938401819004810282018101909252828152606093909290918301828280156109a45780601f10610979576101008083540402835291602001916109a4565b820191906000526020600020905b81548152906001019060200180831161098757829003601f168201915b5050505050905090565b60006109c26109bb6120cc565b84846120d0565b5060015b92915050565b600a54604080516370a0823160e01b8152306004820152905160009283926001600160a01b03909116916370a0823191602480820192602092909190829003018186803b158015610a1c57600080fd5b505afa158015610a30573d6000803e3d6000fd5b505050506040513d6020811015610a4657600080fd5b505190506000610a54610f85565b90506000610a6f82610a6985620f42406121bc565b9061221c565b935050505090565b60045490565b6012546001600160a01b031681565b6000610a9984848461225e565b610b0984610aa56120cc565b610b04856040518060600160405280602881526020016133bc602891396001600160a01b038a16600090815260036020526040812090610ae36120cc565b6001600160a01b0316815260208101919091526040016000205491906123b0565b6120d0565b5060019392505050565b600080610b1f30612447565b91505090565b600080546001019081905581610b82576040805162461bcd60e51b815260206004820152601f60248201527f7769746864726177206d7573742062652067726561746572207468616e203000604482015290519081900360640190fd5b6000610b8d33610f6a565b905080831115610bdb576040805162461bcd60e51b8152602060048201526014602482015273696e73756666696369656e742062616c616e636560601b604482015290519081900360640190fd5b6000610be5610f85565b90506000610bfe610bf4610a77565b610a6984886121bc565b9050610c0a33866124cf565b600a54604080516370a0823160e01b815230600482015290516000926001600160a01b0316916370a08231916024808301926020929190829003018186803b158015610c5557600080fd5b505afa158015610c69573d6000803e3d6000fd5b505050506040513d6020811015610c7f57600080fd5b5051905081811015610caf576000610c96836125bf565b9050610ca283826125de565b9250610cad83612620565b505b600a54610cc6906001600160a01b03163384612629565b505050506000548114610d20576040805162461bcd60e51b815260206004820152601f60248201527f5265656e7472616e637947756172643a207265656e7472616e742063616c6c00604482015290519081900360640190fd5b5050565b60075460ff1690565b73f491e7b69e4244ad4002bc14e878a34207e38c2990565b6012546001600160a01b0316331480610d765750610d616115b6565b6001600160a01b0316336001600160a01b0316145b610d7f57600080fd5b610d9e610d8a610e48565b600a546001600160a01b0316906000611f82565b610dbd610da9611934565b600b546001600160a01b0316906000611f82565b610dc8610d8a610d2d565b610dd3610da9610d2d565b610df2610dde610d2d565b600e546001600160a01b0316906000611f82565b565b60006109c2610e016120cc565b84610b048560036000610e126120cc565b6001600160a01b03908116825260208083019390935260409182016000908120918c16815292529020549061267b565b60085481565b73e45ac34e528907d0a0239ab5db507688070b20bf90565b600080610e6b6126d5565b90506000610e7761155e565b9050610e8782610a6986846121bc565b949350505050565b60095481565b600a5460009081906001600160a01b03166370a08231610eb3610e48565b6040518263ffffffff1660e01b815260040180826001600160a01b0316815260200191505060206040518083038186803b158015610ef057600080fd5b505afa158015610f04573d6000803e3d6000fd5b505050506040513d6020811015610f1a57600080fd5b505191505090565b7330872e4fc4edbfd7a352bfc2463eb4fae9c0908690565b73260e596dabe3afc463e75b6cc05d8c46acacfb0990565b732b4c76d0dc16be1c31d4c1dc53bf9b45987fc75c90565b6001600160a01b031660009081526002602052604090205490565b600080610f9061177c565b90506000610f9c611bcd565b90506000610fa8611cea565b90506000610fb4611205565b92909301030191505090565b610fc86115c5565b611019576040805162461bcd60e51b815260206004820181905260248201527f4f776e61626c653a2063616c6c6572206973206e6f7420746865206f776e6572604482015290519081900360640190fd5b6001546040516000916001600160a01b0316907f8be0079c531659141344cd1fd0a4f28419497f9722a3daafe3b4186f6b6457e0908390a3600180546001600160a01b0319169055565b6012546001600160a01b0316331480611094575061107f6115b6565b6001600160a01b0316336001600160a01b0316145b61109d57600080fd5b6001600160a01b0381166110b057600080fd5b601380546001600160a01b0383166001600160a01b0319909116811790915560408051918252517f2f202ddb4a2e345f6323ed90f8fc8559d770a7abbbeee84dde8aca3351fe71549181900360200190a150565b6012546001600160a01b031633148061113557506111206115b6565b6001600160a01b0316336001600160a01b0316145b61113e57600080fd5b61115e611149610e48565b600a546001600160a01b031690600019611f82565b61117e611169611934565b600b546001600160a01b031690600019611f82565b611189611149610d2d565b611194611169610d2d565b6111b461119f610d2d565b600e546001600160a01b031690600019611f82565b610df26111bf610d2d565b6010546001600160a01b031690600019611f82565b6000806111df610f85565b905060006111eb610a77565b90506111fe81610a6984620f42406121bc565b9250505090565b600b54604080516370a0823160e01b81523060048201529051600092611288926001600160a01b03909116916370a0823191602480820192602092909190829003018186803b15801561125757600080fd5b505afa15801561126b573d6000803e3d6000fd5b505050506040513d602081101561128157600080fd5b5051610e60565b905090565b6013546001600160a01b03163314806112b057506012546001600160a01b031633145b806112d357506112be6115b6565b6001600160a01b0316336001600160a01b0316145b6112dc57600080fd5b60006112e6611cea565b905060006112f261177c565b90506112fc612727565b6000611306611e7a565b905060145481111561136c57600061134e61131f611cea565b611348620f4240610a69600854611342620f4240610a69620b71b061134261177c565b906121bc565b906125de565b905061135981612799565b611362816127a2565b61136a6127ff565b505b60155481101561153b57600061139f620f4240610a6961138a61177c565b611342611395611e7a565b620b71b0906125de565b905060006113ac826128af565b600b54604080516370a0823160e01b8152306004820152905192935061142f926001600160a01b03909216916370a0823191602480820192602092909190829003018186803b1580156113fe57600080fd5b505afa158015611412573d6000803e3d6000fd5b505050506040513d602081101561142857600080fd5b50516128e3565b600a54604080516370a0823160e01b815230600482015290516001600160a01b03909216916370a0823191602480820192602092909190829003018186803b15801561147a57600080fd5b505afa15801561148e573d6000803e3d6000fd5b505050506040513d60208110156114a457600080fd5b50518210156114bb576114b682612930565b611538565b600a54604080516370a0823160e01b81523060048201529051611538926001600160a01b0316916370a08231916024808301926020929190829003018186803b15801561150757600080fd5b505afa15801561151b573d6000803e3d6000fd5b505050506040513d602081101561153157600080fd5b5051612930565b50505b505050565b600290565b600061155033610f6a565b905061155b81610b25565b50565b600a54600c54604080516370a0823160e01b81526001600160a01b0392831660048201529051600093849316916370a08231916024808301926020929190829003018186803b158015610ef057600080fd5b60185481565b6001546001600160a01b031690565b6001546000906001600160a01b03166115dc6120cc565b6001600160a01b031614905090565b6012546001600160a01b031633148061161c57506116076115b6565b6001600160a01b0316336001600160a01b0316145b61162557600080fd5b81620b71b01161163457600080fd5b8082101561164157600080fd5b8281101561164e57600080fd5b50601455601555565b60068054604080516020601f60026000196101006001881615020190951694909404938401819004810282018101909252828152606093909290918301828280156109a45780601f10610979576101008083540402835291602001916109a4565b60006109c26116c56120cc565b84610b04856040518060600160405280602581526020016134ae60259139600360006116ef6120cc565b6001600160a01b03908116825260208083019390935260409182016000908120918d168152925290205491906123b0565b6012546001600160a01b0316331480611751575061173c6115b6565b6001600160a01b0316336001600160a01b0316145b61175a57600080fd5b610df2612727565b60006109c261176f6120cc565b848461225e565b60155481565b600f54604080516370a0823160e01b8152306004820152905160009283926001600160a01b03909116916370a0823191602480820192602092909190829003018186803b1580156117cc57600080fd5b505afa1580156117e0573d6000803e3d6000fd5b505050506040513d60208110156117f657600080fd5b50519050610b1f670de0b6b3a7640000610a69611811612939565b84906121bc565b6013546001600160a01b031681565b6013546001600160a01b031633148061184a57506012546001600160a01b031633145b8061186d57506118586115b6565b6001600160a01b0316336001600160a01b0316145b61187657600080fd5b61187e612727565b600a54604080516370a0823160e01b815230600482015290516000926001600160a01b0316916370a08231916024808301926020929190829003018186803b1580156118c957600080fd5b505afa1580156118dd573d6000803e3d6000fd5b505050506040513d60208110156118f357600080fd5b505190506000611901610f85565b90506000611921620f4240610a69601954856121bc90919063ffffffff16565b90508083111561153b5761153b8161297b565b735aa53f03197e08c4851cad8c92c7922da5857e5d90565b601b5481565b6012546001600160a01b0316331480611983575061196e6115b6565b6001600160a01b0316336001600160a01b0316145b61198c57600080fd5b61c35082111561199b57600080fd5b620b71b08111156119ab57600080fd5b601991909155601b55565b600080546001019081905581611a13576040805162461bcd60e51b815260206004820152601e60248201527f6465706f736974206d7573742062652067726561746572207468616e20300000604482015290519081900360640190fd5b601a54821115611a2257600080fd5b6000611a2c610f85565b600a54604080516323b872dd60e01b81523360048201523060248201526044810187905290519293506001600160a01b03909116916323b872dd916064808201926020929091908290030181600087803b158015611a8957600080fd5b505af1158015611a9d573d6000803e3d6000fd5b505050506040513d6020811015611ab357600080fd5b5060009050611ac0610a77565b611ad757611ad0846127106121bc565b9050611af0565b611aed82610a69611ae6610a77565b87906121bc565b90505b611afa3382612b26565b50506000548114610d20576040805162461bcd60e51b815260206004820152601f60248201527f5265656e7472616e637947756172643a207265656e7472616e742063616c6c00604482015290519081900360640190fd5b6012546001600160a01b0316331480611b835750611b6e6115b6565b6001600160a01b0316336001600160a01b0316145b611b8c57600080fd5b600891909155600955565b60165481565b73ec7178f4c41f346b2721907f5cf7628e388a7a5890565b73841fad6eae12c286d1fd18d1d525dffa75c7effe90565b600a54604080516370a0823160e01b815230600482015290516000926001600160a01b0316916370a08231916024808301926020929190829003018186803b158015611c1857600080fd5b505afa158015611c2c573d6000803e3d6000fd5b505050506040513d6020811015611c4257600080fd5b5051905090565b6012546001600160a01b0316331480611c7a5750611c656115b6565b6001600160a01b0316336001600160a01b0316145b611c8357600080fd5b6001600160a01b038116611c9657600080fd5b601280546001600160a01b0383166001600160a01b0319909116811790915560408051918252517f352ececae6d7d1e6d26bcf2c549dfd55be1637e9b22dc0cf3b71ddb36097a6b49181900360200190a150565b600080611cf630612447565b9050610b1f81610e60565b6012546001600160a01b0316331480611d325750611d1d6115b6565b6001600160a01b0316336001600160a01b0316145b611d3b57600080fd5b611388831115611d4a57600080fd5b61c350821115611d5957600080fd5b620186a0811115611d6957600080fd5b50601655601855565b6012546001600160a01b0316331480611da35750611d8e6115b6565b6001600160a01b0316336001600160a01b0316145b611dac57600080fd5b61155b81612620565b6001600160a01b03918216600090815260036020908152604080832093909416825291909152205490565b600a54604080516370a0823160e01b815233600482015290516000926001600160a01b0316916370a08231916024808301926020929190829003018186803b158015611e2b57600080fd5b505afa158015611e3f573d6000803e3d6000fd5b505050506040513d6020811015611e5557600080fd5b5051905061155b816119b6565b73e0654c8e6fd4d733349ac7e09f6f23da256bf47590565b600080611e85611cea565b90506000610a5461177c565b600080610b1f611e9f611540565b30612c0c565b601a5481565b60175481565b611eb96115c5565b611f0a576040805162461bcd60e51b815260206004820181905260248201527f4f776e61626c653a2063616c6c6572206973206e6f7420746865206f776e6572604482015290519081900360640190fd5b61155b81612c9d565b60145481565b60195481565b732b2929e785374c651a81a63878ab22742656dcdd90565b600b54604080516370a0823160e01b815230600482015290516000926001600160a01b0316916370a08231916024808301926020929190829003018186803b158015611c1857600080fd5b801580612008575060408051636eb1769f60e11b81523060048201526001600160a01b03848116602483015291519185169163dd62ed3e91604480820192602092909190829003018186803b158015611fda57600080fd5b505afa158015611fee573d6000803e3d6000fd5b505050506040513d602081101561200457600080fd5b5051155b6120435760405162461bcd60e51b81526004018080602001828103825260368152602001806134786036913960400191505060405180910390fd5b604080516001600160a01b038416602482015260448082018490528251808303909101815260649091019091526020810180516001600160e01b031663095ea7b360e01b17905261153b908490612d3e565b6000813f7fc5d2460186f7233c927e7db2dcc703c0e500b653ca82273b7bfad8045d85a4708115801590610e875750141592915050565b3390565b6001600160a01b0383166121155760405162461bcd60e51b815260040180806020018281038252602481526020018061342a6024913960400191505060405180910390fd5b6001600160a01b03821661215a5760405162461bcd60e51b81526004018080602001828103825260228152602001806133536022913960400191505060405180910390fd5b6001600160a01b03808416600081815260036020908152604080832094871680845294825291829020859055815185815291517f8c5be1e5ebec7d5bd14f71427d1e84f3dd0314c0f7b2291e5b200ac8c7c3b9259281900390910190a3505050565b6000826121cb575060006109c6565b828202828482816121d857fe5b04146122155760405162461bcd60e51b815260040180806020018281038252602181526020018061339b6021913960400191505060405180910390fd5b9392505050565b600061221583836040518060400160405280601a81526020017f536166654d6174683a206469766973696f6e206279207a65726f000000000000815250612ef6565b6001600160a01b0383166122a35760405162461bcd60e51b81526004018080602001828103825260258152602001806134056025913960400191505060405180910390fd5b6001600160a01b0382166122e85760405162461bcd60e51b81526004018080602001828103825260238152602001806132e86023913960400191505060405180910390fd5b61232581604051806060016040528060268152602001613375602691396001600160a01b03861660009081526002602052604090205491906123b0565b6001600160a01b038085166000908152600260205260408082209390935590841681522054612354908261267b565b6001600160a01b0380841660008181526002602090815260409182902094909455805185815290519193928716927fddf252ad1be2c89b69c2b068fc378daa952ba7f163c4a11628f55a4df523b3ef92918290030190a3505050565b6000818484111561243f5760405162461bcd60e51b81526004018080602001828103825283818151815260200191508051906020019080838360005b838110156124045781810151838201526020016123ec565b50505050905090810190601f1680156124315780820380516001836020036101000a031916815260200191505b509250505060405180910390fd5b505050900390565b6000612451611934565b6001600160a01b03166395dd9193836040518263ffffffff1660e01b815260040180826001600160a01b0316815260200191505060206040518083038186803b15801561249d57600080fd5b505afa1580156124b1573d6000803e3d6000fd5b505050506040513d60208110156124c757600080fd5b505192915050565b6001600160a01b0382166125145760405162461bcd60e51b81526004018080602001828103825260218152602001806133e46021913960400191505060405180910390fd5b6125518160405180606001604052806022815260200161330b602291396001600160a01b03851660009081526002602052604090205491906123b0565b6001600160a01b03831660009081526002602052604090205560045461257790826125de565b6004556040805182815290516000916001600160a01b038516917fddf252ad1be2c89b69c2b068fc378daa952ba7f163c4a11628f55a4df523b3ef9181900360200190a35050565b600080612215620f4240610a69601854866121bc90919063ffffffff16565b600061221583836040518060400160405280601e81526020017f536166654d6174683a207375627472616374696f6e206f766572666c6f7700008152506123b0565b61155b81612f5b565b604080516001600160a01b038416602482015260448082018490528251808303909101815260649091019091526020810180516001600160e01b031663a9059cbb60e01b17905261153b908490612d3e565b600082820183811015612215576040805162461bcd60e51b815260206004820152601b60248201527f536166654d6174683a206164646974696f6e206f766572666c6f770000000000604482015290519081900360640190fd5b600b54600c54604080516370a0823160e01b81526001600160a01b0392831660048201529051600093849316916370a08231916024808301926020929190829003018186803b158015610ef057600080fd5b600061273e601754426125de90919063ffffffff16565b90506000612756603c611342818161016d60186121bc565b9050600061277d82610a69620f4240610a69612770610a77565b601654611342908a6121bc565b905061279061278a6115b6565b82612b26565b50504260175550565b61155b81612fbe565b60006127ac6126d5565b905060006127b861155e565b905060006127e0620f4240610a6984610a69600854611342898b6121bc90919063ffffffff16565b90506127f984826127ef61301f565b30426078016130a5565b50505050565b600b54604080516370a0823160e01b815230600482015290516000926001600160a01b0316916370a08231916024808301926020929190829003018186803b15801561284a57600080fd5b505afa15801561285e573d6000803e3d6000fd5b505050506040513d602081101561287457600080fd5b50519050806128835750610df2565b600061288e30612447565b9050808210156128a6576128a182613178565b610d20565b610d2081613178565b6000806128ba6126d5565b905060006128c661155e565b905060006128d882610a6987866121bc565b9050610e87816131c5565b60006128ed6126d5565b905060006128f961155e565b9050600061292183610a69620f4240610a69600854611342888b6121bc90919063ffffffff16565b90506127f984826127ef6131ce565b61155b81613237565b6000612943610e48565b6001600160a01b031663182df0f56040518163ffffffff1660e01b815260040160206040518083038186803b158015611c1857600080fd5b60056000805b82811015612a9757600a54604080516370a0823160e01b815230600482015290516000926001600160a01b0316916370a08231916024808301926020929190829003018186803b1580156129d457600080fd5b505afa1580156129e8573d6000803e3d6000fd5b505050506040513d60208110156129fe57600080fd5b50519050612a0c81866125de565b9250612a1783612930565b6000612a35620f4240610a69601b54876121bc90919063ffffffff16565b9050612a40816128af565b50600b54604080516370a0823160e01b81523060048201529051612a8d926001600160a01b0316916370a08231916024808301926020929190829003018186803b1580156113fe57600080fd5b5050600101612981565b50600a54604080516370a0823160e01b815230600482015290516000926001600160a01b0316916370a08231916024808301926020929190829003018186803b158015612ae357600080fd5b505afa158015612af7573d6000803e3d6000fd5b505050506040513d6020811015612b0d57600080fd5b50519050612b1b81856125de565b91506127f982612930565b6001600160a01b038216612b81576040805162461bcd60e51b815260206004820152601f60248201527f45524332303a206d696e7420746f20746865207a65726f206164647265737300604482015290519081900360640190fd5b600454612b8e908261267b565b6004556001600160a01b038216600090815260026020526040902054612bb4908261267b565b6001600160a01b03831660008181526002602090815260408083209490945583518581529351929391927fddf252ad1be2c89b69c2b068fc378daa952ba7f163c4a11628f55a4df523b3ef9281900390910190a35050565b6000612c16611f1f565b6001600160a01b03166393f1a40b84846040518363ffffffff1660e01b815260040180838152602001826001600160a01b031681526020019250505060206040518083038186803b158015612c6a57600080fd5b505afa158015612c7e573d6000803e3d6000fd5b505050506040513d6020811015612c9457600080fd5b50519392505050565b6001600160a01b038116612ce25760405162461bcd60e51b815260040180806020018281038252602681526020018061332d6026913960400191505060405180910390fd5b6001546040516001600160a01b038084169216907f8be0079c531659141344cd1fd0a4f28419497f9722a3daafe3b4186f6b6457e090600090a3600180546001600160a01b0319166001600160a01b0392909216919091179055565b612d50826001600160a01b0316612095565b612da1576040805162461bcd60e51b815260206004820152601f60248201527f5361666545524332303a2063616c6c20746f206e6f6e2d636f6e747261637400604482015290519081900360640190fd5b60006060836001600160a01b0316836040518082805190602001908083835b60208310612ddf5780518252601f199092019160209182019101612dc0565b6001836020036101000a0380198251168184511680821785525050505050509050019150506000604051808303816000865af19150503d8060008114612e41576040519150601f19603f3d011682016040523d82523d6000602084013e612e46565b606091505b509150915081612e9d576040805162461bcd60e51b815260206004820181905260248201527f5361666545524332303a206c6f772d6c6576656c2063616c6c206661696c6564604482015290519081900360640190fd5b8051156127f957808060200190516020811015612eb957600080fd5b50516127f95760405162461bcd60e51b815260040180806020018281038252602a81526020018061344e602a913960400191505060405180910390fd5b60008183612f455760405162461bcd60e51b81526020600482018181528351602484015283519092839260449091019190850190808383600083156124045781810151838201526020016123ec565b506000838581612f5157fe5b0495945050505050565b6000600a815b818110156127f95782612fb6576000612f7b61131f611cea565b9050848110612f9257612f8d85612799565b600193505b84811015612fb457612fa381612799565b612fac816127a2565b612fb46127ff565b505b600101612f61565b612fc6610e48565b6001600160a01b031663852a12e3826040518263ffffffff1660e01b815260040180828152602001915050600060405180830381600087803b15801561300b57600080fd5b505af1158015611538573d6000803e3d6000fd5b6040805160028082526060808301845292839291906020830190803683375050600a5482519293506001600160a01b03169183915060009061305d57fe5b6001600160a01b039283166020918202929092010152600b5482519116908290600190811061308857fe5b6001600160a01b0390921660209283029190910190910152905090565b6130ad610d2d565b6001600160a01b03166338ed173986868686866040518663ffffffff1660e01b81526004018086815260200185815260200180602001846001600160a01b03168152602001838152602001828103825285818151815260200191508051906020019060200280838360005b83811015613130578181015183820152602001613118565b505050509050019650505050505050600060405180830381600087803b15801561315957600080fd5b505af115801561316d573d6000803e3d6000fd5b505050505050505050565b613180611934565b6001600160a01b0316630e752702826040518263ffffffff1660e01b815260040180828152602001915050600060405180830381600087803b15801561300b57600080fd5b610d2081613284565b6040805160028082526060808301845292839291906020830190803683375050600b5482519293506001600160a01b03169183915060009061320c57fe5b6001600160a01b039283166020918202929092010152600a5482519116908290600190811061308857fe5b61323f610e48565b6001600160a01b031663a0712d68826040518263ffffffff1660e01b815260040180828152602001915050600060405180830381600087803b15801561300b57600080fd5b600061328e611934565b6001600160a01b031663c5ebeaec836040518263ffffffff1660e01b815260040180828152602001915050602060405180830381600087803b1580156132d357600080fd5b505af11580156124b1573d6000803e3d6000fdfe45524332303a207472616e7366657220746f20746865207a65726f206164647265737345524332303a206275726e20616d6f756e7420657863656564732062616c616e63654f776e61626c653a206e6577206f776e657220697320746865207a65726f206164647265737345524332303a20617070726f766520746f20746865207a65726f206164647265737345524332303a207472616e7366657220616d6f756e7420657863656564732062616c616e6365536166654d6174683a206d756c7469706c69636174696f6e206f766572666c6f7745524332303a207472616e7366657220616d6f756e74206578636565647320616c6c6f77616e636545524332303a206275726e2066726f6d20746865207a65726f206164647265737345524332303a207472616e736665722066726f6d20746865207a65726f206164647265737345524332303a20617070726f76652066726f6d20746865207a65726f20616464726573735361666545524332303a204552433230206f7065726174696f6e20646964206e6f7420737563636565645361666545524332303a20617070726f76652066726f6d206e6f6e2d7a65726f20746f206e6f6e2d7a65726f20616c6c6f77616e636545524332303a2064656372656173656420616c6c6f77616e63652062656c6f77207a65726fa2646970667358221220c8106a417e5ec9c82d23d820fc38b902e886786302e62872411104a6f1e81ebe64736f6c634300060c00335361666545524332303a204552433230206f7065726174696f6e20646964206e6f7420737563636565645361666545524332303a20617070726f76652066726f6d206e6f6e2d7a65726f20746f206e6f6e2d7a65726f20616c6c6f77616e6365","bytecodeSha1":"da39a3ee5e6b4b0d3255bfef95601890afd80709","type":"contract","abi":[{"inputs":[],"stateMutability":"nonpayable","type":"constructor","name":"constructor"},{"anonymous":false,"inputs":[{"indexed":true,"internalType":"address","name":"owner","type":"address"},{"indexed":true,"internalType":"address","name":"spender","type":"address"},{"indexed":false,"internalType":"uint256","name":"value","type":"uint256"}],"name":"Approval","type":"event"},{"anonymous":false,"inputs":[{"indexed":true,"internalType":"address","name":"previousOwner","type":"address"},{"indexed":true,"internalType":"address","name":"newOwner","type":"address"}],"name":"OwnershipTransferred","type":"event"},{"anonymous":false,"inputs":[{"indexed":true,"internalType":"address","name":"from","type":"address"},{"indexed":true,"internalType":"address","name":"to","type":"address"},{"indexed":false,"internalType":"uint256","name":"value","type":"uint256"}],"name":"Transfer","type":"event"},{"anonymous":false,"inputs":[{"indexed":false,"internalType":"address","name":"newKeeper","type":"address"}],"name":"UpdatedKeeper","type":"event"},{"anonymous":false,"inputs":[{"indexed":false,"internalType":"address","name":"newStrategist","type":"address"}],"name":"UpdatedStrategist","type":"event"},{"inputs":[{"internalType":"address","name":"owner","type":"address"},{"internalType":"address","name":"spender","type":"address"}],"name":"allowance","outputs":[{"internalType":"uint256","name":"","type":"uint256"}],"stateMutability":"view","type":"function"},{"inputs":[{"internalType":"address","name":"spender","type":"address"},{"internalType":"uint256","name":"amount","type":"uint256"}],"name":"approve","outputs":[{"internalType":"bool","name":"","type":"bool"}],"stateMutability":"nonpayable","type":"function"},{"inputs":[],"name":"approveContracts","outputs":[],"stateMutability":"nonpayable","type":"function"},{"inputs":[],"name":"balanceDebt","outputs":[{"internalType":"uint256","name":"","type":"uint256"}],"stateMutability":"view","type":"function"},{"inputs":[],"name":"balanceLend","outputs":[{"internalType":"uint256","name":"","type":"uint256"}],"stateMutability":"view","type":"function"},{"inputs":[{"internalType":"address","name":"account","type":"address"}],"name":"balanceOf","outputs":[{"internalType":"uint256","name":"","type":"uint256"}],"stateMutability":"view","type":"function"},{"inputs":[],"name":"balanceReserves","outputs":[{"internalType":"uint256","name":"","type":"uint256"}],"stateMutability":"view","type":"function"},{"inputs":[],"name":"balanceShort","outputs":[{"internalType":"uint256","name":"","type":"uint256"}],"stateMutability":"view","type":"function"},{"inputs":[],"name":"balanceShortBaseEq","outputs":[{"internalType":"uint256","name":"","type":"uint256"}],"stateMutability":"view","type":"function"},{"inputs":[],"name":"borrowPlatform","outputs":[{"internalType":"address","name":"","type":"address"}],"stateMutability":"view","type":"function"},{"inputs":[],"name":"cRatioDeploy","outputs":[{"internalType":"uint256","name":"","type":"uint256"}],"stateMutability":"view","type":"function"},{"inputs":[],"name":"calcCollateral","outputs":[{"internalType":"uint256","name":"","type":"uint256"}],"stateMutability":"view","type":"function"},{"inputs":[],"name":"calcPoolValueInToken","outputs":[{"internalType":"uint256","name":"","type":"uint256"}],"stateMutability":"view","type":"function"},{"inputs":[],"name":"calcReserves","outputs":[{"internalType":"uint256","name":"","type":"uint256"}],"stateMutability":"view","type":"function"},{"inputs":[],"name":"collatLower","outputs":[{"internalType":"uint256","name":"","type":"uint256"}],"stateMutability":"view","type":"function"},{"inputs":[],"name":"collatUpper","outputs":[{"internalType":"uint256","name":"","type":"uint256"}],"stateMutability":"view","type":"function"},{"inputs":[],"name":"compLpAddress","outputs":[{"internalType":"address","name":"","type":"address"}],"stateMutability":"view","type":"function"},{"inputs":[],"name":"compTokenAddress","outputs":[{"internalType":"address","name":"","type":"address"}],"stateMutability":"view","type":"function"},{"inputs":[],"name":"comptrollerAddress","outputs":[{"internalType":"address","name":"","type":"address"}],"stateMutability":"view","type":"function"},{"inputs":[{"internalType":"uint256","name":"_amount","type":"uint256"}],"name":"convertShortToBaseLP","outputs":[{"internalType":"uint256","name":"","type":"uint256"}],"stateMutability":"view","type":"function"},{"inputs":[],"name":"countLpPooled","outputs":[{"internalType":"uint256","name":"","type":"uint256"}],"stateMutability":"view","type":"function"},{"inputs":[],"name":"decimals","outputs":[{"internalType":"uint8","name":"","type":"uint8"}],"stateMutability":"view","type":"function"},{"inputs":[{"internalType":"address","name":"spender","type":"address"},{"internalType":"uint256","name":"subtractedValue","type":"uint256"}],"name":"decreaseAllowance","outputs":[{"internalType":"bool","name":"","type":"bool"}],"stateMutability":"nonpayable","type":"function"},{"inputs":[],"name":"deployStrat","outputs":[],"stateMutability":"nonpayable","type":"function"},{"inputs":[{"internalType":"uint256","name":"_amount","type":"uint256"}],"name":"deposit","outputs":[],"stateMutability":"nonpayable","type":"function"},{"inputs":[],"name":"depositAll","outputs":[],"stateMutability":"nonpayable","type":"function"},{"inputs":[],"name":"depositLimit","outputs":[{"internalType":"uint256","name":"","type":"uint256"}],"stateMutability":"view","type":"function"},{"inputs":[],"name":"farmAddress","outputs":[{"internalType":"address","name":"","type":"address"}],"stateMutability":"view","type":"function"},{"inputs":[],"name":"farmLP","outputs":[{"internalType":"address","name":"","type":"address"}],"stateMutability":"view","type":"function"},{"inputs":[],"name":"farmPid","outputs":[{"internalType":"uint256","name":"","type":"uint256"}],"stateMutability":"view","type":"function"},{"inputs":[],"name":"farmToken","outputs":[{"internalType":"address","name":"","type":"address"}],"stateMutability":"view","type":"function"},{"inputs":[],"name":"farmTokenLp","outputs":[{"internalType":"address","name":"","type":"address"}],"stateMutability":"view","type":"function"},{"inputs":[],"name":"getBaseInLending","outputs":[{"internalType":"uint256","name":"","type":"uint256"}],"stateMutability":"view","type":"function"},{"inputs":[],"name":"getBaseInLp","outputs":[{"internalType":"uint256","name":"","type":"uint256"}],"stateMutability":"view","type":"function"},{"inputs":[],"name":"getDebtShort","outputs":[{"internalType":"uint256","name":"","type":"uint256"}],"stateMutability":"view","type":"function"},{"inputs":[],"name":"getPricePerFullShare","outputs":[{"internalType":"uint256","name":"","type":"uint256"}],"stateMutability":"view","type":"function"},{"inputs":[{"internalType":"address","name":"spender","type":"address"},{"internalType":"uint256","name":"addedValue","type":"uint256"}],"name":"increaseAllowance","outputs":[{"internalType":"bool","name":"","type":"bool"}],"stateMutability":"nonpayable","type":"function"},{"inputs":[],"name":"isOwner","outputs":[{"internalType":"bool","name":"","type":"bool"}],"stateMutability":"view","type":"function"},{"inputs":[],"name":"keeper","outputs":[{"internalType":"address","name":"","type":"address"}],"stateMutability":"view","type":"function"},{"inputs":[],"name":"lastHarvest","outputs":[{"internalType":"uint256","name":"","type":"uint256"}],"stateMutability":"view","type":"function"},{"inputs":[],"name":"lendPlatform","outputs":[{"internalType":"address","name":"","type":"address"}],"stateMutability":"view","type":"function"},{"inputs":[],"name":"name","outputs":[{"internalType":"string","name":"","type":"string"}],"stateMutability":"view","type":"function"},{"inputs":[],"name":"operationalFee","outputs":[{"internalType":"uint256","name":"","type":"uint256"}],"stateMutability":"view","type":"function"},{"inputs":[],"name":"operationalFeeHarvest","outputs":[],"stateMutability":"nonpayable","type":"function"},{"inputs":[],"name":"owner","outputs":[{"internalType":"address","name":"","type":"address"}],"stateMutability":"view","type":"function"},{"inputs":[],"name":"rebalanceCollateral","outputs":[],"stateMutability":"nonpayable","type":"function"},{"inputs":[],"name":"renounceOwnership","outputs":[],"stateMutability":"nonpayable","type":"function"},{"inputs":[],"name":"reserveAllocation","outputs":[{"internalType":"uint256","name":"","type":"uint256"}],"stateMutability":"view","type":"function"},{"inputs":[],"name":"resetApprovals","outputs":[],"stateMutability":"nonpayable","type":"function"},{"inputs":[],"name":"routerAddress","outputs":[{"internalType":"address","name":"","type":"address"}],"stateMutability":"view","type":"function"},{"inputs":[{"internalType":"uint256","name":"_lower","type":"uint256"},{"internalType":"uint256","name":"_upper","type":"uint256"},{"internalType":"uint256","name":"_target","type":"uint256"}],"name":"setCollateralThresholds","outputs":[],"stateMutability":"nonpayable","type":"function"},{"inputs":[{"internalType":"uint256","name":"_withdrawalFee","type":"uint256"},{"internalType":"uint256","name":"_operationalFee","type":"uint256"},{"internalType":"uint256","name":"_profitFee","type":"uint256"}],"name":"setFees","outputs":[],"stateMutability":"nonpayable","type":"function"},{"inputs":[{"internalType":"uint256","name":"_reserveAllocation","type":"uint256"},{"internalType":"uint256","name":"_cRatioDeploy","type":"uint256"}],"name":"setFundingAllocations","outputs":[],"stateMutability":"nonpayable","type":"function"},{"inputs":[{"internalType":"address","name":"_keeper","type":"address"}],"name":"setKeeper","outputs":[],"stateMutability":"nonpayable","type":"function"},{"inputs":[{"internalType":"uint256","name":"_lower","type":"uint256"},{"internalType":"uint256","name":"_upper","type":"uint256"}],"name":"setSlippageAdj","outputs":[],"stateMutability":"nonpayable","type":"function"},{"inputs":[{"internalType":"address","name":"_strategist","type":"address"}],"name":"setStrategist","outputs":[],"stateMutability":"nonpayable","type":"function"},{"inputs":[],"name":"slippageAdj","outputs":[{"internalType":"uint256","name":"","type":"uint256"}],"stateMutability":"view","type":"function"},{"inputs":[],"name":"slippageAdjHigh","outputs":[{"internalType":"uint256","name":"","type":"uint256"}],"stateMutability":"view","type":"function"},{"inputs":[],"name":"strategist","outputs":[{"internalType":"address","name":"","type":"address"}],"stateMutability":"view","type":"function"},{"inputs":[],"name":"symbol","outputs":[{"internalType":"string","name":"","type":"string"}],"stateMutability":"view","type":"function"},{"inputs":[],"name":"totalSupply","outputs":[{"internalType":"uint256","name":"","type":"uint256"}],"stateMutability":"view","type":"function"},{"inputs":[{"internalType":"address","name":"recipient","type":"address"},{"internalType":"uint256","name":"amount","type":"uint256"}],"name":"transfer","outputs":[{"internalType":"bool","name":"","type":"bool"}],"stateMutability":"nonpayable","type":"function"},{"inputs":[{"internalType":"address","name":"sender","type":"address"},{"internalType":"address","name":"recipient","type":"address"},{"internalType":"uint256","name":"amount","type":"uint256"}],"name":"transferFrom","outputs":[{"internalType":"bool","name":"","type":"bool"}],"stateMutability":"nonpayable","type":"function"},{"inputs":[{"internalType":"address","name":"newOwner","type":"address"}],"name":"transferOwnership","outputs":[],"stateMutability":"nonpayable","type":"function"},{"inputs":[{"internalType":"uint256","name":"_amount","type":"uint256"}],"name":"undeployFromStrat","outputs":[],"stateMutability":"nonpayable","type":"function"},{"inputs":[{"internalType":"uint256","name":"_shares","type":"uint256"}],"name":"withdraw","outputs":[],"stateMutability":"nonpayable","type":"function"},{"inputs":[],"name":"withdrawAll","outputs":[],"stateMutability":"nonpayable","type":"function"},{"inputs":[],"name":"withdrawalFee","outputs":[{"internalType":"uint256","name":"","type":"uint256"}],"stateMutability":"view","type":"function"}],"compiler":{"version":"0.6.12+commit.27d51765","evm_version":"istanbul","optimizer":{"enabled":true,"runs":200}},"contractName":"leverageTest","language":"Solidity","natspec":{"methods":{"farmPid()":{"notice":"LP contract for base & short token"},"rebalanceCollateral()":{"notice":"rebalances RoboVault strat position to within target collateral range "},"collatUpper()":{"notice":"default allocations, thresholds & fees"},"farmAddress()":{"notice":"Spooky Addresses"},"setStrategist(address)":{"notice":"update strategist -> this is the address that receives fees + can complete rebalancing and update strategy thresholds strategist can also exit leveraged position i.e. withdraw all pooled LP and repay outstanding debt moving vault funds to reserves"},"setKeeper(address)":{"notice":"keeper has ability to copmlete rebalancing functions & also deploy capital to strategy once reserves exceed some threshold"},"deployStrat()":{"notice":"function to deploy funds when reserves exceed reserve threshold (maximum is five percent)"}},"kind":"dev","version":1},"opcodes":"PUSH1 0x80 PUSH1 0x40 MSTORE CALLVALUE DUP1 ISZERO PUSH2 0x10 JUMPI PUSH1 0x0 DUP1 REVERT JUMPDEST POP PUSH1 0x4 CALLDATASIZE LT PUSH2 0x3FC JUMPI PUSH1 0x0 CALLDATALOAD PUSH1 0xE0 SHR DUP1 PUSH4 0x94C04CED GT PUSH2 0x215 JUMPI DUP1 PUSH4 0xC3B49F3D GT PUSH2 0x125 JUMPI DUP1 PUSH4 0xE6E7114B GT PUSH2 0xB8 JUMPI DUP1 PUSH4 0xF2FDE38B GT PUSH2 0x87 JUMPI DUP1 PUSH4 0xF2FDE38B EQ PUSH2 0x8D2 JUMPI DUP1 PUSH4 0xF8C1E75E EQ PUSH2 0x8F8 JUMPI DUP1 PUSH4 0xF8F079BB EQ PUSH2 0x900 JUMPI DUP1 PUSH4 0xF9DA3F75 EQ PUSH2 0x908 JUMPI DUP1 PUSH4 0xFEB6848A EQ PUSH2 0x910 JUMPI PUSH2 0x3FC JUMP JUMPDEST DUP1 PUSH4 0xE6E7114B EQ PUSH2 0x8B2 JUMPI DUP1 PUSH4 0xEB61C72A EQ PUSH2 0x8BA JUMPI DUP1 PUSH4 0xECF70858 EQ PUSH2 0x8C2 JUMPI DUP1 PUSH4 0xF1A392DA EQ PUSH2 0x8CA JUMPI PUSH2 0x3FC JUMP JUMPDEST DUP1 PUSH4 0xD2D9A69D GT PUSH2 0xF4 JUMPI DUP1 PUSH4 0xD2D9A69D EQ PUSH2 0x857 JUMPI DUP1 PUSH4 0xDD62ED3E EQ PUSH2 0x874 JUMPI DUP1 PUSH4 0xDE5F6268 EQ PUSH2 0x8A2 JUMPI DUP1 PUSH4 0xE43E7B94 EQ PUSH2 0x8AA JUMPI PUSH2 0x3FC JUMP JUMPDEST DUP1 PUSH4 0xC3B49F3D EQ PUSH2 0x7F8 JUMPI DUP1 PUSH4 0xC7B9D530 EQ PUSH2 0x800 JUMPI DUP1 PUSH4 0xCAD20A29 EQ PUSH2 0x826 JUMPI DUP1 PUSH4 0xCEC10C11 EQ PUSH2 0x82E JUMPI PUSH2 0x3FC JUMP JUMPDEST DUP1 PUSH4 0xAE263A1D GT PUSH2 0x1A8 JUMPI DUP1 PUSH4 0xB6B55F25 GT PUSH2 0x177 JUMPI DUP1 PUSH4 0xB6B55F25 EQ PUSH2 0x7A0 JUMPI DUP1 PUSH4 0xBF428341 EQ PUSH2 0x7BD JUMPI DUP1 PUSH4 0xC089F572 EQ PUSH2 0x7E0 JUMPI DUP1 PUSH4 0xC1E32A3D EQ PUSH2 0x7E8 JUMPI DUP1 PUSH4 0xC2442F93 EQ PUSH2 0x7F0 JUMPI PUSH2 0x3FC JUMP JUMPDEST DUP1 PUSH4 0xAE263A1D EQ PUSH2 0x765 JUMPI DUP1 PUSH4 0xB2AD2F0F EQ PUSH2 0x76D JUMPI DUP1 PUSH4 0xB4AAFB60 EQ PUSH2 0x775 JUMPI DUP1 PUSH4 0xB574D287 EQ PUSH2 0x77D JUMPI PUSH2 0x3FC JUMP JUMPDEST DUP1 PUSH4 0xA9059CBB GT PUSH2 0x1E4 JUMPI DUP1 PUSH4 0xA9059CBB EQ PUSH2 0x721 JUMPI DUP1 PUSH4 0xA9B0CA38 EQ PUSH2 0x74D JUMPI DUP1 PUSH4 0xA9C19C66 EQ PUSH2 0x755 JUMPI DUP1 PUSH4 0xACED1661 EQ PUSH2 0x75D JUMPI PUSH2 0x3FC JUMP JUMPDEST DUP1 PUSH4 0x94C04CED EQ PUSH2 0x6BC JUMPI DUP1 PUSH4 0x95D89B41 EQ PUSH2 0x6E5 JUMPI DUP1 PUSH4 0xA457C2D7 EQ PUSH2 0x6ED JUMPI DUP1 PUSH4 0xA877CC55 EQ PUSH2 0x719 JUMPI PUSH2 0x3FC JUMP JUMPDEST DUP1 PUSH4 0x668ECBF2 GT PUSH2 0x310 JUMPI DUP1 PUSH4 0x77C7B8FC GT PUSH2 0x2A3 JUMPI DUP1 PUSH4 0x853828B6 GT PUSH2 0x272 JUMPI DUP1 PUSH4 0x853828B6 EQ PUSH2 0x694 JUMPI DUP1 PUSH4 0x8AD56BFF EQ PUSH2 0x69C JUMPI DUP1 PUSH4 0x8BC7E8C4 EQ PUSH2 0x6A4 JUMPI DUP1 PUSH4 0x8DA5CB5B EQ PUSH2 0x6AC JUMPI DUP1 PUSH4 0x8F32D59B EQ PUSH2 0x6B4 JUMPI PUSH2 0x3FC JUMP JUMPDEST DUP1 PUSH4 0x77C7B8FC EQ PUSH2 0x674 JUMPI DUP1 PUSH4 0x7845790C EQ PUSH2 0x67C JUMPI DUP1 PUSH4 0x81117FF2 EQ PUSH2 0x684 JUMPI DUP1 PUSH4 0x827907B4 EQ PUSH2 0x68C JUMPI PUSH2 0x3FC JUMP JUMPDEST DUP1 PUSH4 0x7137EF99 GT PUSH2 0x2DF JUMPI DUP1 PUSH4 0x7137EF99 EQ PUSH2 0x636 JUMPI DUP1 PUSH4 0x715018A6 EQ PUSH2 0x63E JUMPI DUP1 PUSH4 0x748747E6 EQ PUSH2 0x646 JUMPI DUP1 PUSH4 0x77AF8CEB EQ PUSH2 0x66C JUMPI PUSH2 0x3FC JUMP JUMPDEST DUP1 PUSH4 0x668ECBF2 EQ PUSH2 0x5F8 JUMPI DUP1 PUSH4 0x68BDE41F EQ PUSH2 0x600 JUMPI DUP1 PUSH4 0x6C1A35BE EQ PUSH2 0x608 JUMPI DUP1 PUSH4 0x70A08231 EQ PUSH2 0x610 JUMPI PUSH2 0x3FC JUMP JUMPDEST DUP1 PUSH4 0x313CE567 GT PUSH2 0x393 JUMPI DUP1 PUSH4 0x39BB9C24 GT PUSH2 0x362 JUMPI DUP1 PUSH4 0x39BB9C24 EQ PUSH2 0x5BB JUMPI DUP1 PUSH4 0x3AD184E4 EQ PUSH2 0x5C3 JUMPI DUP1 PUSH4 0x4D54E307 EQ PUSH2 0x5CB JUMPI DUP1 PUSH4 0x54B1A6D8 EQ PUSH2 0x5E8 JUMPI DUP1 PUSH4 0x5627F7B5 EQ PUSH2 0x5F0 JUMPI PUSH2 0x3FC JUMP JUMPDEST DUP1 PUSH4 0x313CE567 EQ PUSH2 0x561 JUMPI DUP1 PUSH4 0x3268CC56 EQ PUSH2 0x57F JUMPI DUP1 PUSH4 0x379AFCCC EQ PUSH2 0x587 JUMPI DUP1 PUSH4 0x39509351 EQ PUSH2 0x58F JUMPI PUSH2 0x3FC JUMP JUMPDEST DUP1 PUSH4 0x1FE4A686 GT PUSH2 0x3CF JUMPI DUP1 PUSH4 0x1FE4A686 EQ PUSH2 0x4E0 JUMPI DUP1 PUSH4 0x23B872DD EQ PUSH2 0x504 JUMPI DUP1 PUSH4 0x2CF4E4EE EQ PUSH2 0x53A JUMPI DUP1 PUSH4 0x2E1A7D4D EQ PUSH2 0x542 JUMPI PUSH2 0x3FC JUMP JUMPDEST DUP1 PUSH4 0x6FDDE03 EQ PUSH2 0x401 JUMPI DUP1 PUSH4 0x95EA7B3 EQ PUSH2 0x47E JUMPI DUP1 PUSH4 0x11D1A392 EQ PUSH2 0x4BE JUMPI DUP1 PUSH4 0x18160DDD EQ PUSH2 0x4D8 JUMPI JUMPDEST PUSH1 0x0 DUP1 REVERT JUMPDEST PUSH2 0x409 PUSH2 0x918 JUMP JUMPDEST PUSH1 0x40 DUP1 MLOAD PUSH1 0x20 DUP1 DUP3 MSTORE DUP4 MLOAD DUP2 DUP4 ADD MSTORE DUP4 MLOAD SWAP2 SWAP3 DUP4 SWAP3 SWAP1 DUP4 ADD SWAP2 DUP6 ADD SWAP1 DUP1 DUP4 DUP4 PUSH1 0x0 JUMPDEST DUP4 DUP2 LT ISZERO PUSH2 0x443 JUMPI DUP2 DUP2 ADD MLOAD DUP4 DUP3 ADD MSTORE PUSH1 0x20 ADD PUSH2 0x42B JUMP JUMPDEST POP POP POP POP SWAP1 POP SWAP1 DUP2 ADD SWAP1 PUSH1 0x1F AND DUP1 ISZERO PUSH2 0x470 JUMPI DUP1 DUP3 SUB DUP1 MLOAD PUSH1 0x1 DUP4 PUSH1 0x20 SUB PUSH2 0x100 EXP SUB NOT AND DUP2 MSTORE PUSH1 0x20 ADD SWAP2 POP JUMPDEST POP SWAP3 POP POP POP PUSH1 0x40 MLOAD DUP1 SWAP2 SUB SWAP1 RETURN JUMPDEST PUSH2 0x4AA PUSH1 0x4 DUP1 CALLDATASIZE SUB PUSH1 0x40 DUP2 LT ISZERO PUSH2 0x494 JUMPI PUSH1 0x0 DUP1 REVERT JUMPDEST POP PUSH1 0x1 PUSH1 0x1 PUSH1 0xA0 SHL SUB DUP2 CALLDATALOAD AND SWAP1 PUSH1 0x20 ADD CALLDATALOAD PUSH2 0x9AE JUMP JUMPDEST PUSH1 0x40 DUP1 MLOAD SWAP2 ISZERO ISZERO DUP3 MSTORE MLOAD SWAP1 DUP2 SWAP1 SUB PUSH1 0x20 ADD SWAP1 RETURN JUMPDEST PUSH2 0x4C6 PUSH2 0x9CC JUMP JUMPDEST PUSH1 0x40 DUP1 MLOAD SWAP2 DUP3 MSTORE MLOAD SWAP1 DUP2 SWAP1 SUB PUSH1 0x20 ADD SWAP1 RETURN JUMPDEST PUSH2 0x4C6 PUSH2 0xA77 JUMP JUMPDEST PUSH2 0x4E8 PUSH2 0xA7D JUMP JUMPDEST PUSH1 0x40 DUP1 MLOAD PUSH1 0x1 PUSH1 0x1 PUSH1 0xA0 SHL SUB SWAP1 SWAP3 AND DUP3 MSTORE MLOAD SWAP1 DUP2 SWAP1 SUB PUSH1 0x20 ADD SWAP1 RETURN JUMPDEST PUSH2 0x4AA PUSH1 0x4 DUP1 CALLDATASIZE SUB PUSH1 0x60 DUP2 LT ISZERO PUSH2 0x51A JUMPI PUSH1 0x0 DUP1 REVERT JUMPDEST POP PUSH1 0x1 PUSH1 0x1 PUSH1 0xA0 SHL SUB DUP2 CALLDATALOAD DUP2 AND SWAP2 PUSH1 0x20 DUP2 ADD CALLDATALOAD SWAP1 SWAP2 AND SWAP1 PUSH1 0x40 ADD CALLDATALOAD PUSH2 0xA8C JUMP JUMPDEST PUSH2 0x4C6 PUSH2 0xB13 JUMP JUMPDEST PUSH2 0x55F PUSH1 0x4 DUP1 CALLDATASIZE SUB PUSH1 0x20 DUP2 LT ISZERO PUSH2 0x558 JUMPI PUSH1 0x0 DUP1 REVERT JUMPDEST POP CALLDATALOAD PUSH2 0xB25 JUMP JUMPDEST STOP JUMPDEST PUSH2 0x569 PUSH2 0xD24 JUMP JUMPDEST PUSH1 0x40 DUP1 MLOAD PUSH1 0xFF SWAP1 SWAP3 AND DUP3 MSTORE MLOAD SWAP1 DUP2 SWAP1 SUB PUSH1 0x20 ADD SWAP1 RETURN JUMPDEST PUSH2 0x4E8 PUSH2 0xD2D JUMP JUMPDEST PUSH2 0x55F PUSH2 0xD45 JUMP JUMPDEST PUSH2 0x4AA PUSH1 0x4 DUP1 CALLDATASIZE SUB PUSH1 0x40 DUP2 LT ISZERO PUSH2 0x5A5 JUMPI PUSH1 0x0 DUP1 REVERT JUMPDEST POP PUSH1 0x1 PUSH1 0x1 PUSH1 0xA0 SHL SUB DUP2 CALLDATALOAD AND SWAP1 PUSH1 0x20 ADD CALLDATALOAD PUSH2 0xDF4 JUMP JUMPDEST PUSH2 0x4C6 PUSH2 0xE42 JUMP JUMPDEST PUSH2 0x4E8 PUSH2 0xE48 JUMP JUMPDEST PUSH2 0x4C6 PUSH1 0x4 DUP1 CALLDATASIZE SUB PUSH1 0x20 DUP2 LT ISZERO PUSH2 0x5E1 JUMPI PUSH1 0x0 DUP1 REVERT JUMPDEST POP CALLDATALOAD PUSH2 0xE60 JUMP JUMPDEST PUSH2 0x4C6 PUSH2 0xE8F JUMP JUMPDEST PUSH2 0x4C6 PUSH2 0xE95 JUMP JUMPDEST PUSH2 0x4E8 PUSH2 0xF22 JUMP JUMPDEST PUSH2 0x4E8 PUSH2 0xF3A JUMP JUMPDEST PUSH2 0x4E8 PUSH2 0xF52 JUMP JUMPDEST PUSH2 0x4C6 PUSH1 0x4 DUP1 CALLDATASIZE SUB PUSH1 0x20 DUP2 LT ISZERO PUSH2 0x626 JUMPI PUSH1 0x0 DUP1 REVERT JUMPDEST POP CALLDATALOAD PUSH1 0x1 PUSH1 0x1 PUSH1 0xA0 SHL SUB AND PUSH2 0xF6A JUMP JUMPDEST PUSH2 0x4C6 PUSH2 0xF85 JUMP JUMPDEST PUSH2 0x55F PUSH2 0xFC0 JUMP JUMPDEST PUSH2 0x55F PUSH1 0x4 DUP1 CALLDATASIZE SUB PUSH1 0x20 DUP2 LT ISZERO PUSH2 0x65C JUMPI PUSH1 0x0 DUP1 REVERT JUMPDEST POP CALLDATALOAD PUSH1 0x1 PUSH1 0x1 PUSH1 0xA0 SHL SUB AND PUSH2 0x1063 JUMP JUMPDEST PUSH2 0x55F PUSH2 0x1104 JUMP JUMPDEST PUSH2 0x4C6 PUSH2 0x11D4 JUMP JUMPDEST PUSH2 0x4C6 PUSH2 0x1205 JUMP JUMPDEST PUSH2 0x55F PUSH2 0x128D JUMP JUMPDEST PUSH2 0x4C6 PUSH2 0x1540 JUMP JUMPDEST PUSH2 0x55F PUSH2 0x1545 JUMP JUMPDEST PUSH2 0x4C6 PUSH2 0x155E JUMP JUMPDEST PUSH2 0x4C6 PUSH2 0x15B0 JUMP JUMPDEST PUSH2 0x4E8 PUSH2 0x15B6 JUMP JUMPDEST PUSH2 0x4AA PUSH2 0x15C5 JUMP JUMPDEST PUSH2 0x55F PUSH1 0x4 DUP1 CALLDATASIZE SUB PUSH1 0x60 DUP2 LT ISZERO PUSH2 0x6D2 JUMPI PUSH1 0x0 DUP1 REVERT JUMPDEST POP DUP1 CALLDATALOAD SWAP1 PUSH1 0x20 DUP2 ADD CALLDATALOAD SWAP1 PUSH1 0x40 ADD CALLDATALOAD PUSH2 0x15EB JUMP JUMPDEST PUSH2 0x409 PUSH2 0x1657 JUMP JUMPDEST PUSH2 0x4AA PUSH1 0x4 DUP1 CALLDATASIZE SUB PUSH1 0x40 DUP2 LT ISZERO PUSH2 0x703 JUMPI PUSH1 0x0 DUP1 REVERT JUMPDEST POP PUSH1 0x1 PUSH1 0x1 PUSH1 0xA0 SHL SUB DUP2 CALLDATALOAD AND SWAP1 PUSH1 0x20 ADD CALLDATALOAD PUSH2 0x16B8 JUMP JUMPDEST PUSH2 0x55F PUSH2 0x1720 JUMP JUMPDEST PUSH2 0x4AA PUSH1 0x4 DUP1 CALLDATASIZE SUB PUSH1 0x40 DUP2 LT ISZERO PUSH2 0x737 JUMPI PUSH1 0x0 DUP1 REVERT JUMPDEST POP PUSH1 0x1 PUSH1 0x1 PUSH1 0xA0 SHL SUB DUP2 CALLDATALOAD AND SWAP1 PUSH1 0x20 ADD CALLDATALOAD PUSH2 0x1762 JUMP JUMPDEST PUSH2 0x4C6 PUSH2 0x1776 JUMP JUMPDEST PUSH2 0x4C6 PUSH2 0x177C JUMP JUMPDEST PUSH2 0x4E8 PUSH2 0x1818 JUMP JUMPDEST PUSH2 0x55F PUSH2 0x1827 JUMP JUMPDEST PUSH2 0x4E8 PUSH2 0x1934 JUMP JUMPDEST PUSH2 0x4C6 PUSH2 0x194C JUMP JUMPDEST PUSH2 0x55F PUSH1 0x4 DUP1 CALLDATASIZE SUB PUSH1 0x40 DUP2 LT ISZERO PUSH2 0x793 JUMPI PUSH1 0x0 DUP1 REVERT JUMPDEST POP DUP1 CALLDATALOAD SWAP1 PUSH1 0x20 ADD CALLDATALOAD PUSH2 0x1952 JUMP JUMPDEST PUSH2 0x55F PUSH1 0x4 DUP1 CALLDATASIZE SUB PUSH1 0x20 DUP2 LT ISZERO PUSH2 0x7B6 JUMPI PUSH1 0x0 DUP1 REVERT JUMPDEST POP CALLDATALOAD PUSH2 0x19B6 JUMP JUMPDEST PUSH2 0x55F PUSH1 0x4 DUP1 CALLDATASIZE SUB PUSH1 0x40 DUP2 LT ISZERO PUSH2 0x7D3 JUMPI PUSH1 0x0 DUP1 REVERT JUMPDEST POP DUP1 CALLDATALOAD SWAP1 PUSH1 0x20 ADD CALLDATALOAD PUSH2 0x1B52 JUMP JUMPDEST PUSH2 0x4C6 PUSH2 0x1B97 JUMP JUMPDEST PUSH2 0x4E8 PUSH2 0x1B9D JUMP JUMPDEST PUSH2 0x4E8 PUSH2 0x1BB5 JUMP JUMPDEST PUSH2 0x4C6 PUSH2 0x1BCD JUMP JUMPDEST PUSH2 0x55F PUSH1 0x4 DUP1 CALLDATASIZE SUB PUSH1 0x20 DUP2 LT ISZERO PUSH2 0x816 JUMPI PUSH1 0x0 DUP1 REVERT JUMPDEST POP CALLDATALOAD PUSH1 0x1 PUSH1 0x1 PUSH1 0xA0 SHL SUB AND PUSH2 0x1C49 JUMP JUMPDEST PUSH2 0x4C6 PUSH2 0x1CEA JUMP JUMPDEST PUSH2 0x55F PUSH1 0x4 DUP1 CALLDATASIZE SUB PUSH1 0x60 DUP2 LT ISZERO PUSH2 0x844 JUMPI PUSH1 0x0 DUP1 REVERT JUMPDEST POP DUP1 CALLDATALOAD SWAP1 PUSH1 0x20 DUP2 ADD CALLDATALOAD SWAP1 PUSH1 0x40 ADD CALLDATALOAD PUSH2 0x1D01 JUMP JUMPDEST PUSH2 0x55F PUSH1 0x4 DUP1 CALLDATASIZE SUB PUSH1 0x20 DUP2 LT ISZERO PUSH2 0x86D JUMPI PUSH1 0x0 DUP1 REVERT JUMPDEST POP CALLDATALOAD PUSH2 0x1D72 JUMP JUMPDEST PUSH2 0x4C6 PUSH1 0x4 DUP1 CALLDATASIZE SUB PUSH1 0x40 DUP2 LT ISZERO PUSH2 0x88A JUMPI PUSH1 0x0 DUP1 REVERT JUMPDEST POP PUSH1 0x1 PUSH1 0x1 PUSH1 0xA0 SHL SUB DUP2 CALLDATALOAD DUP2 AND SWAP2 PUSH1 0x20 ADD CALLDATALOAD AND PUSH2 0x1DB5 JUMP JUMPDEST PUSH2 0x55F PUSH2 0x1DE0 JUMP JUMPDEST PUSH2 0x4E8 PUSH2 0x1E62 JUMP JUMPDEST PUSH2 0x4C6 PUSH2 0x1E7A JUMP JUMPDEST PUSH2 0x4C6 PUSH2 0x1E91 JUMP JUMPDEST PUSH2 0x4C6 PUSH2 0x1EA5 JUMP JUMPDEST PUSH2 0x4C6 PUSH2 0x1EAB JUMP JUMPDEST PUSH2 0x55F PUSH1 0x4 DUP1 CALLDATASIZE SUB PUSH1 0x20 DUP2 LT ISZERO PUSH2 0x8E8 JUMPI PUSH1 0x0 DUP1 REVERT JUMPDEST POP CALLDATALOAD PUSH1 0x1 PUSH1 0x1 PUSH1 0xA0 SHL SUB AND PUSH2 0x1EB1 JUMP JUMPDEST PUSH2 0x4C6 PUSH2 0x1F13 JUMP JUMPDEST PUSH2 0x4C6 PUSH2 0x1F19 JUMP JUMPDEST PUSH2 0x4E8 PUSH2 0x1F1F JUMP JUMPDEST PUSH2 0x4C6 PUSH2 0x1F37 JUMP JUMPDEST PUSH1 0x5 DUP1 SLOAD PUSH1 0x40 DUP1 MLOAD PUSH1 0x20 PUSH1 0x1F PUSH1 0x2 PUSH1 0x0 NOT PUSH2 0x100 PUSH1 0x1 DUP9 AND ISZERO MUL ADD SWAP1 SWAP6 AND SWAP5 SWAP1 SWAP5 DIV SWAP4 DUP5 ADD DUP2 SWAP1 DIV DUP2 MUL DUP3 ADD DUP2 ADD SWAP1 SWAP3 MSTORE DUP3 DUP2 MSTORE PUSH1 0x60 SWAP4 SWAP1 SWAP3 SWAP1 SWAP2 DUP4 ADD DUP3 DUP3 DUP1 ISZERO PUSH2 0x9A4 JUMPI DUP1 PUSH1 0x1F LT PUSH2 0x979 JUMPI PUSH2 0x100 DUP1 DUP4 SLOAD DIV MUL DUP4 MSTORE SWAP2 PUSH1 0x20 ADD SWAP2 PUSH2 0x9A4 JUMP JUMPDEST DUP3 ADD SWAP2 SWAP1 PUSH1 0x0 MSTORE PUSH1 0x20 PUSH1 0x0 KECCAK256 SWAP1 JUMPDEST DUP2 SLOAD DUP2 MSTORE SWAP1 PUSH1 0x1 ADD SWAP1 PUSH1 0x20 ADD DUP1 DUP4 GT PUSH2 0x987 JUMPI DUP3 SWAP1 SUB PUSH1 0x1F AND DUP3 ADD SWAP2 JUMPDEST POP POP POP POP POP SWAP1 POP SWAP1 JUMP JUMPDEST PUSH1 0x0 PUSH2 0x9C2 PUSH2 0x9BB PUSH2 0x20CC JUMP JUMPDEST DUP5 DUP5 PUSH2 0x20D0 JUMP JUMPDEST POP PUSH1 0x1 JUMPDEST SWAP3 SWAP2 POP POP JUMP JUMPDEST PUSH1 0xA SLOAD PUSH1 0x40 DUP1 MLOAD PUSH4 0x70A08231 PUSH1 0xE0 SHL DUP2 MSTORE ADDRESS PUSH1 0x4 DUP3 ADD MSTORE SWAP1 MLOAD PUSH1 0x0 SWAP3 DUP4 SWAP3 PUSH1 0x1 PUSH1 0x1 PUSH1 0xA0 SHL SUB SWAP1 SWAP2 AND SWAP2 PUSH4 0x70A08231 SWAP2 PUSH1 0x24 DUP1 DUP3 ADD SWAP3 PUSH1 0x20 SWAP3 SWAP1 SWAP2 SWAP1 DUP3 SWAP1 SUB ADD DUP2 DUP7 DUP1 EXTCODESIZE ISZERO DUP1 ISZERO PUSH2 0xA1C JUMPI PUSH1 0x0 DUP1 REVERT JUMPDEST POP GAS STATICCALL ISZERO DUP1 ISZERO PUSH2 0xA30 JUMPI RETURNDATASIZE PUSH1 0x0 DUP1 RETURNDATACOPY RETURNDATASIZE PUSH1 0x0 REVERT JUMPDEST POP POP POP POP PUSH1 0x40 MLOAD RETURNDATASIZE PUSH1 0x20 DUP2 LT ISZERO PUSH2 0xA46 JUMPI PUSH1 0x0 DUP1 REVERT JUMPDEST POP MLOAD SWAP1 POP PUSH1 0x0 PUSH2 0xA54 PUSH2 0xF85 JUMP JUMPDEST SWAP1 POP PUSH1 0x0 PUSH2 0xA6F DUP3 PUSH2 0xA69 DUP6 PUSH3 0xF4240 PUSH2 0x21BC JUMP JUMPDEST SWAP1 PUSH2 0x221C JUMP JUMPDEST SWAP4 POP POP POP POP SWAP1 JUMP JUMPDEST PUSH1 0x4 SLOAD SWAP1 JUMP JUMPDEST PUSH1 0x12 SLOAD PUSH1 0x1 PUSH1 0x1 PUSH1 0xA0 SHL SUB AND DUP2 JUMP JUMPDEST PUSH1 0x0 PUSH2 0xA99 DUP5 DUP5 DUP5 PUSH2 0x225E JUMP JUMPDEST PUSH2 0xB09 DUP5 PUSH2 0xAA5 PUSH2 0x20CC JUMP JUMPDEST PUSH2 0xB04 DUP6 PUSH1 0x40 MLOAD DUP1 PUSH1 0x60 ADD PUSH1 0x40 MSTORE DUP1 PUSH1 0x28 DUP2 MSTORE PUSH1 0x20 ADD PUSH2 0x33BC PUSH1 0x28 SWAP2 CODECOPY PUSH1 0x1 PUSH1 0x1 PUSH1 0xA0 SHL SUB DUP11 AND PUSH1 0x0 SWAP1 DUP2 MSTORE PUSH1 0x3 PUSH1 0x20 MSTORE PUSH1 0x40 DUP2 KECCAK256 SWAP1 PUSH2 0xAE3 PUSH2 0x20CC JUMP JUMPDEST PUSH1 0x1 PUSH1 0x1 PUSH1 0xA0 SHL SUB AND DUP2 MSTORE PUSH1 0x20 DUP2 ADD SWAP2 SWAP1 SWAP2 MSTORE PUSH1 0x40 ADD PUSH1 0x0 KECCAK256 SLOAD SWAP2 SWAP1 PUSH2 0x23B0 JUMP JUMPDEST PUSH2 0x20D0 JUMP JUMPDEST POP PUSH1 0x1 SWAP4 SWAP3 POP POP POP JUMP JUMPDEST PUSH1 0x0 DUP1 PUSH2 0xB1F ADDRESS PUSH2 0x2447 JUMP JUMPDEST SWAP2 POP POP SWAP1 JUMP JUMPDEST PUSH1 0x0 DUP1 SLOAD PUSH1 0x1 ADD SWAP1 DUP2 SWAP1 SSTORE DUP2 PUSH2 0xB82 JUMPI PUSH1 0x40 DUP1 MLOAD PUSH3 0x461BCD PUSH1 0xE5 SHL DUP2 MSTORE PUSH1 0x20 PUSH1 0x4 DUP3 ADD MSTORE PUSH1 0x1F PUSH1 0x24 DUP3 ADD MSTORE PUSH32 0x7769746864726177206D7573742062652067726561746572207468616E203000 PUSH1 0x44 DUP3 ADD MSTORE SWAP1 MLOAD SWAP1 DUP2 SWAP1 SUB PUSH1 0x64 ADD SWAP1 REVERT JUMPDEST PUSH1 0x0 PUSH2 0xB8D CALLER PUSH2 0xF6A JUMP JUMPDEST SWAP1 POP DUP1 DUP4 GT ISZERO PUSH2 0xBDB JUMPI PUSH1 0x40 DUP1 MLOAD PUSH3 0x461BCD PUSH1 0xE5 SHL DUP2 MSTORE PUSH1 0x20 PUSH1 0x4 DUP3 ADD MSTORE PUSH1 0x14 PUSH1 0x24 DUP3 ADD MSTORE PUSH20 0x696E73756666696369656E742062616C616E6365 PUSH1 0x60 SHL PUSH1 0x44 DUP3 ADD MSTORE SWAP1 MLOAD SWAP1 DUP2 SWAP1 SUB PUSH1 0x64 ADD SWAP1 REVERT JUMPDEST PUSH1 0x0 PUSH2 0xBE5 PUSH2 0xF85 JUMP JUMPDEST SWAP1 POP PUSH1 0x0 PUSH2 0xBFE PUSH2 0xBF4 PUSH2 0xA77 JUMP JUMPDEST PUSH2 0xA69 DUP5 DUP9 PUSH2 0x21BC JUMP JUMPDEST SWAP1 POP PUSH2 0xC0A CALLER DUP7 PUSH2 0x24CF JUMP JUMPDEST PUSH1 0xA SLOAD PUSH1 0x40 DUP1 MLOAD PUSH4 0x70A08231 PUSH1 0xE0 SHL DUP2 MSTORE ADDRESS PUSH1 0x4 DUP3 ADD MSTORE SWAP1 MLOAD PUSH1 0x0 SWAP3 PUSH1 0x1 PUSH1 0x1 PUSH1 0xA0 SHL SUB AND SWAP2 PUSH4 0x70A08231 SWAP2 PUSH1 0x24 DUP1 DUP4 ADD SWAP3 PUSH1 0x20 SWAP3 SWAP2 SWAP1 DUP3 SWAP1 SUB ADD DUP2 DUP7 DUP1 EXTCODESIZE ISZERO DUP1 ISZERO PUSH2 0xC55 JUMPI PUSH1 0x0 DUP1 REVERT JUMPDEST POP GAS STATICCALL ISZERO DUP1 ISZERO PUSH2 0xC69 JUMPI RETURNDATASIZE PUSH1 0x0 DUP1 RETURNDATACOPY RETURNDATASIZE PUSH1 0x0 REVERT JUMPDEST POP POP POP POP PUSH1 0x40 MLOAD RETURNDATASIZE PUSH1 0x20 DUP2 LT ISZERO PUSH2 0xC7F JUMPI PUSH1 0x0 DUP1 REVERT JUMPDEST POP MLOAD SWAP1 POP DUP2 DUP2 LT ISZERO PUSH2 0xCAF JUMPI PUSH1 0x0 PUSH2 0xC96 DUP4 PUSH2 0x25BF JUMP JUMPDEST SWAP1 POP PUSH2 0xCA2 DUP4 DUP3 PUSH2 0x25DE JUMP JUMPDEST SWAP3 POP PUSH2 0xCAD DUP4 PUSH2 0x2620 JUMP JUMPDEST POP JUMPDEST PUSH1 0xA SLOAD PUSH2 0xCC6 SWAP1 PUSH1 0x1 PUSH1 0x1 PUSH1 0xA0 SHL SUB AND CALLER DUP5 PUSH2 0x2629 JUMP JUMPDEST POP POP POP POP PUSH1 0x0 SLOAD DUP2 EQ PUSH2 0xD20 JUMPI PUSH1 0x40 DUP1 MLOAD PUSH3 0x461BCD PUSH1 0xE5 SHL DUP2 MSTORE PUSH1 0x20 PUSH1 0x4 DUP3 ADD MSTORE PUSH1 0x1F PUSH1 0x24 DUP3 ADD MSTORE PUSH32 0x5265656E7472616E637947756172643A207265656E7472616E742063616C6C00 PUSH1 0x44 DUP3 ADD MSTORE SWAP1 MLOAD SWAP1 DUP2 SWAP1 SUB PUSH1 0x64 ADD SWAP1 REVERT JUMPDEST POP POP JUMP JUMPDEST PUSH1 0x7 SLOAD PUSH1 0xFF AND SWAP1 JUMP JUMPDEST PUSH20 0xF491E7B69E4244AD4002BC14E878A34207E38C29 SWAP1 JUMP JUMPDEST PUSH1 0x12 SLOAD PUSH1 0x1 PUSH1 0x1 PUSH1 0xA0 SHL SUB AND CALLER EQ DUP1 PUSH2 0xD76 JUMPI POP PUSH2 0xD61 PUSH2 0x15B6 JUMP JUMPDEST PUSH1 0x1 PUSH1 0x1 PUSH1 0xA0 SHL SUB AND CALLER PUSH1 0x1 PUSH1 0x1 PUSH1 0xA0 SHL SUB AND EQ JUMPDEST PUSH2 0xD7F JUMPI PUSH1 0x0 DUP1 REVERT JUMPDEST PUSH2 0xD9E PUSH2 0xD8A PUSH2 0xE48 JUMP JUMPDEST PUSH1 0xA SLOAD PUSH1 0x1 PUSH1 0x1 PUSH1 0xA0 SHL SUB AND SWAP1 PUSH1 0x0 PUSH2 0x1F82 JUMP JUMPDEST PUSH2 0xDBD PUSH2 0xDA9 PUSH2 0x1934 JUMP JUMPDEST PUSH1 0xB SLOAD PUSH1 0x1 PUSH1 0x1 PUSH1 0xA0 SHL SUB AND SWAP1 PUSH1 0x0 PUSH2 0x1F82 JUMP JUMPDEST PUSH2 0xDC8 PUSH2 0xD8A PUSH2 0xD2D JUMP JUMPDEST PUSH2 0xDD3 PUSH2 0xDA9 PUSH2 0xD2D JUMP JUMPDEST PUSH2 0xDF2 PUSH2 0xDDE PUSH2 0xD2D JUMP JUMPDEST PUSH1 0xE SLOAD PUSH1 0x1 PUSH1 0x1 PUSH1 0xA0 SHL SUB AND SWAP1 PUSH1 0x0 PUSH2 0x1F82 JUMP JUMPDEST JUMP JUMPDEST PUSH1 0x0 PUSH2 0x9C2 PUSH2 0xE01 PUSH2 0x20CC JUMP JUMPDEST DUP5 PUSH2 0xB04 DUP6 PUSH1 0x3 PUSH1 0x0 PUSH2 0xE12 PUSH2 0x20CC JUMP JUMPDEST PUSH1 0x1 PUSH1 0x1 PUSH1 0xA0 SHL SUB SWAP1 DUP2 AND DUP3 MSTORE PUSH1 0x20 DUP1 DUP4 ADD SWAP4 SWAP1 SWAP4 MSTORE PUSH1 0x40 SWAP2 DUP3 ADD PUSH1 0x0 SWAP1 DUP2 KECCAK256 SWAP2 DUP13 AND DUP2 MSTORE SWAP3 MSTORE SWAP1 KECCAK256 SLOAD SWAP1 PUSH2 0x267B JUMP JUMPDEST PUSH1 0x8 SLOAD DUP2 JUMP JUMPDEST PUSH20 0xE45AC34E528907D0A0239AB5DB507688070B20BF SWAP1 JUMP JUMPDEST PUSH1 0x0 DUP1 PUSH2 0xE6B PUSH2 0x26D5 JUMP JUMPDEST SWAP1 POP PUSH1 0x0 PUSH2 0xE77 PUSH2 0x155E JUMP JUMPDEST SWAP1 POP PUSH2 0xE87 DUP3 PUSH2 0xA69 DUP7 DUP5 PUSH2 0x21BC JUMP JUMPDEST SWAP5 SWAP4 POP POP POP POP JUMP JUMPDEST PUSH1 0x9 SLOAD DUP2 JUMP JUMPDEST PUSH1 0xA SLOAD PUSH1 0x0 SWAP1 DUP2 SWAP1 PUSH1 0x1 PUSH1 0x1 PUSH1 0xA0 SHL SUB AND PUSH4 0x70A08231 PUSH2 0xEB3 PUSH2 0xE48 JUMP JUMPDEST PUSH1 0x40 MLOAD DUP3 PUSH4 0xFFFFFFFF AND PUSH1 0xE0 SHL DUP2 MSTORE PUSH1 0x4 ADD DUP1 DUP3 PUSH1 0x1 PUSH1 0x1 PUSH1 0xA0 SHL SUB AND DUP2 MSTORE PUSH1 0x20 ADD SWAP2 POP POP PUSH1 0x20 PUSH1 0x40 MLOAD DUP1 DUP4 SUB DUP2 DUP7 DUP1 EXTCODESIZE ISZERO DUP1 ISZERO PUSH2 0xEF0 JUMPI PUSH1 0x0 DUP1 REVERT JUMPDEST POP GAS STATICCALL ISZERO DUP1 ISZERO PUSH2 0xF04 JUMPI RETURNDATASIZE PUSH1 0x0 DUP1 RETURNDATACOPY RETURNDATASIZE PUSH1 0x0 REVERT JUMPDEST POP POP POP POP PUSH1 0x40 MLOAD RETURNDATASIZE PUSH1 0x20 DUP2 LT ISZERO PUSH2 0xF1A JUMPI PUSH1 0x0 DUP1 REVERT JUMPDEST POP MLOAD SWAP2 POP POP SWAP1 JUMP JUMPDEST PUSH20 0x30872E4FC4EDBFD7A352BFC2463EB4FAE9C09086 SWAP1 JUMP JUMPDEST PUSH20 0x260E596DABE3AFC463E75B6CC05D8C46ACACFB09 SWAP1 JUMP JUMPDEST PUSH20 0x2B4C76D0DC16BE1C31D4C1DC53BF9B45987FC75C SWAP1 JUMP JUMPDEST PUSH1 0x1 PUSH1 0x1 PUSH1 0xA0 SHL SUB AND PUSH1 0x0 SWAP1 DUP2 MSTORE PUSH1 0x2 PUSH1 0x20 MSTORE PUSH1 0x40 SWAP1 KECCAK256 SLOAD SWAP1 JUMP JUMPDEST PUSH1 0x0 DUP1 PUSH2 0xF90 PUSH2 0x177C JUMP JUMPDEST SWAP1 POP PUSH1 0x0 PUSH2 0xF9C PUSH2 0x1BCD JUMP JUMPDEST SWAP1 POP PUSH1 0x0 PUSH2 0xFA8 PUSH2 0x1CEA JUMP JUMPDEST SWAP1 POP PUSH1 0x0 PUSH2 0xFB4 PUSH2 0x1205 JUMP JUMPDEST SWAP3 SWAP1 SWAP4 ADD SUB ADD SWAP2 POP POP SWAP1 JUMP JUMPDEST PUSH2 0xFC8 PUSH2 0x15C5 JUMP JUMPDEST PUSH2 0x1019 JUMPI PUSH1 0x40 DUP1 MLOAD PUSH3 0x461BCD PUSH1 0xE5 SHL DUP2 MSTORE PUSH1 0x20 PUSH1 0x4 DUP3 ADD DUP2 SWAP1 MSTORE PUSH1 0x24 DUP3 ADD MSTORE PUSH32 0x4F776E61626C653A2063616C6C6572206973206E6F7420746865206F776E6572 PUSH1 0x44 DUP3 ADD MSTORE SWAP1 MLOAD SWAP1 DUP2 SWAP1 SUB PUSH1 0x64 ADD SWAP1 REVERT JUMPDEST PUSH1 0x1 SLOAD PUSH1 0x40 MLOAD PUSH1 0x0 SWAP2 PUSH1 0x1 PUSH1 0x1 PUSH1 0xA0 SHL SUB AND SWAP1 PUSH32 0x8BE0079C531659141344CD1FD0A4F28419497F9722A3DAAFE3B4186F6B6457E0 SWAP1 DUP4 SWAP1 LOG3 PUSH1 0x1 DUP1 SLOAD PUSH1 0x1 PUSH1 0x1 PUSH1 0xA0 SHL SUB NOT AND SWAP1 SSTORE JUMP JUMPDEST PUSH1 0x12 SLOAD PUSH1 0x1 PUSH1 0x1 PUSH1 0xA0 SHL SUB AND CALLER EQ DUP1 PUSH2 0x1094 JUMPI POP PUSH2 0x107F PUSH2 0x15B6 JUMP JUMPDEST PUSH1 0x1 PUSH1 0x1 PUSH1 0xA0 SHL SUB AND CALLER PUSH1 0x1 PUSH1 0x1 PUSH1 0xA0 SHL SUB AND EQ JUMPDEST PUSH2 0x109D JUMPI PUSH1 0x0 DUP1 REVERT JUMPDEST PUSH1 0x1 PUSH1 0x1 PUSH1 0xA0 SHL SUB DUP2 AND PUSH2 0x10B0 JUMPI PUSH1 0x0 DUP1 REVERT JUMPDEST PUSH1 0x13 DUP1 SLOAD PUSH1 0x1 PUSH1 0x1 PUSH1 0xA0 SHL SUB DUP4 AND PUSH1 0x1 PUSH1 0x1 PUSH1 0xA0 SHL SUB NOT SWAP1 SWAP2 AND DUP2 OR SWAP1 SWAP2 SSTORE PUSH1 0x40 DUP1 MLOAD SWAP2 DUP3 MSTORE MLOAD PUSH32 0x2F202DDB4A2E345F6323ED90F8FC8559D770A7ABBBEEE84DDE8ACA3351FE7154 SWAP2 DUP2 SWAP1 SUB PUSH1 0x20 ADD SWAP1 LOG1 POP JUMP JUMPDEST PUSH1 0x12 SLOAD PUSH1 0x1 PUSH1 0x1 PUSH1 0xA0 SHL SUB AND CALLER EQ DUP1 PUSH2 0x1135 JUMPI POP PUSH2 0x1120 PUSH2 0x15B6 JUMP JUMPDEST PUSH1 0x1 PUSH1 0x1 PUSH1 0xA0 SHL SUB AND CALLER PUSH1 0x1 PUSH1 0x1 PUSH1 0xA0 SHL SUB AND EQ JUMPDEST PUSH2 0x113E JUMPI PUSH1 0x0 DUP1 REVERT JUMPDEST PUSH2 0x115E PUSH2 0x1149 PUSH2 0xE48 JUMP JUMPDEST PUSH1 0xA SLOAD PUSH1 0x1 PUSH1 0x1 PUSH1 0xA0 SHL SUB AND SWAP1 PUSH1 0x0 NOT PUSH2 0x1F82 JUMP JUMPDEST PUSH2 0x117E PUSH2 0x1169 PUSH2 0x1934 JUMP JUMPDEST PUSH1 0xB SLOAD PUSH1 0x1 PUSH1 0x1 PUSH1 0xA0 SHL SUB AND SWAP1 PUSH1 0x0 NOT PUSH2 0x1F82 JUMP JUMPDEST PUSH2 0x1189 PUSH2 0x1149 PUSH2 0xD2D JUMP JUMPDEST PUSH2 0x1194 PUSH2 0x1169 PUSH2 0xD2D JUMP JUMPDEST PUSH2 0x11B4 PUSH2 0x119F PUSH2 0xD2D JUMP JUMPDEST PUSH1 0xE SLOAD PUSH1 0x1 PUSH1 0x1 PUSH1 0xA0 SHL SUB AND SWAP1 PUSH1 0x0 NOT PUSH2 0x1F82 JUMP JUMPDEST PUSH2 0xDF2 PUSH2 0x11BF PUSH2 0xD2D JUMP JUMPDEST PUSH1 0x10 SLOAD PUSH1 0x1 PUSH1 0x1 PUSH1 0xA0 SHL SUB AND SWAP1 PUSH1 0x0 NOT PUSH2 0x1F82 JUMP JUMPDEST PUSH1 0x0 DUP1 PUSH2 0x11DF PUSH2 0xF85 JUMP JUMPDEST SWAP1 POP PUSH1 0x0 PUSH2 0x11EB PUSH2 0xA77 JUMP JUMPDEST SWAP1 POP PUSH2 0x11FE DUP2 PUSH2 0xA69 DUP5 PUSH3 0xF4240 PUSH2 0x21BC JUMP JUMPDEST SWAP3 POP POP POP SWAP1 JUMP JUMPDEST PUSH1 0xB SLOAD PUSH1 0x40 DUP1 MLOAD PUSH4 0x70A08231 PUSH1 0xE0 SHL DUP2 MSTORE ADDRESS PUSH1 0x4 DUP3 ADD MSTORE SWAP1 MLOAD PUSH1 0x0 SWAP3 PUSH2 0x1288 SWAP3 PUSH1 0x1 PUSH1 0x1 PUSH1 0xA0 SHL SUB SWAP1 SWAP2 AND SWAP2 PUSH4 0x70A08231 SWAP2 PUSH1 0x24 DUP1 DUP3 ADD SWAP3 PUSH1 0x20 SWAP3 SWAP1 SWAP2 SWAP1 DUP3 SWAP1 SUB ADD DUP2 DUP7 DUP1 EXTCODESIZE ISZERO DUP1 ISZERO PUSH2 0x1257 JUMPI PUSH1 0x0 DUP1 REVERT JUMPDEST POP GAS STATICCALL ISZERO DUP1 ISZERO PUSH2 0x126B JUMPI RETURNDATASIZE PUSH1 0x0 DUP1 RETURNDATACOPY RETURNDATASIZE PUSH1 0x0 REVERT JUMPDEST POP POP POP POP PUSH1 0x40 MLOAD RETURNDATASIZE PUSH1 0x20 DUP2 LT ISZERO PUSH2 0x1281 JUMPI PUSH1 0x0 DUP1 REVERT JUMPDEST POP MLOAD PUSH2 0xE60 JUMP JUMPDEST SWAP1 POP SWAP1 JUMP JUMPDEST PUSH1 0x13 SLOAD PUSH1 0x1 PUSH1 0x1 PUSH1 0xA0 SHL SUB AND CALLER EQ DUP1 PUSH2 0x12B0 JUMPI POP PUSH1 0x12 SLOAD PUSH1 0x1 PUSH1 0x1 PUSH1 0xA0 SHL SUB AND CALLER EQ JUMPDEST DUP1 PUSH2 0x12D3 JUMPI POP PUSH2 0x12BE PUSH2 0x15B6 JUMP JUMPDEST PUSH1 0x1 PUSH1 0x1 PUSH1 0xA0 SHL SUB AND CALLER PUSH1 0x1 PUSH1 0x1 PUSH1 0xA0 SHL SUB AND EQ JUMPDEST PUSH2 0x12DC JUMPI PUSH1 0x0 DUP1 REVERT JUMPDEST PUSH1 0x0 PUSH2 0x12E6 PUSH2 0x1CEA JUMP JUMPDEST SWAP1 POP PUSH1 0x0 PUSH2 0x12F2 PUSH2 0x177C JUMP JUMPDEST SWAP1 POP PUSH2 0x12FC PUSH2 0x2727 JUMP JUMPDEST PUSH1 0x0 PUSH2 0x1306 PUSH2 0x1E7A JUMP JUMPDEST SWAP1 POP PUSH1 0x14 SLOAD DUP2 GT ISZERO PUSH2 0x136C JUMPI PUSH1 0x0 PUSH2 0x134E PUSH2 0x131F PUSH2 0x1CEA JUMP JUMPDEST PUSH2 0x1348 PUSH3 0xF4240 PUSH2 0xA69 PUSH1 0x8 SLOAD PUSH2 0x1342 PUSH3 0xF4240 PUSH2 0xA69 PUSH3 0xB71B0 PUSH2 0x1342 PUSH2 0x177C JUMP JUMPDEST SWAP1 PUSH2 0x21BC JUMP JUMPDEST SWAP1 PUSH2 0x25DE JUMP JUMPDEST SWAP1 POP PUSH2 0x1359 DUP2 PUSH2 0x2799 JUMP JUMPDEST PUSH2 0x1362 DUP2 PUSH2 0x27A2 JUMP JUMPDEST PUSH2 0x136A PUSH2 0x27FF JUMP JUMPDEST POP JUMPDEST PUSH1 0x15 SLOAD DUP2 LT ISZERO PUSH2 0x153B JUMPI PUSH1 0x0 PUSH2 0x139F PUSH3 0xF4240 PUSH2 0xA69 PUSH2 0x138A PUSH2 0x177C JUMP JUMPDEST PUSH2 0x1342 PUSH2 0x1395 PUSH2 0x1E7A JUMP JUMPDEST PUSH3 0xB71B0 SWAP1 PUSH2 0x25DE JUMP JUMPDEST SWAP1 POP PUSH1 0x0 PUSH2 0x13AC DUP3 PUSH2 0x28AF JUMP JUMPDEST PUSH1 0xB SLOAD PUSH1 0x40 DUP1 MLOAD PUSH4 0x70A08231 PUSH1 0xE0 SHL DUP2 MSTORE ADDRESS PUSH1 0x4 DUP3 ADD MSTORE SWAP1 MLOAD SWAP3 SWAP4 POP PUSH2 0x142F SWAP3 PUSH1 0x1 PUSH1 0x1 PUSH1 0xA0 SHL SUB SWAP1 SWAP3 AND SWAP2 PUSH4 0x70A08231 SWAP2 PUSH1 0x24 DUP1 DUP3 ADD SWAP3 PUSH1 0x20 SWAP3 SWAP1 SWAP2 SWAP1 DUP3 SWAP1 SUB ADD DUP2 DUP7 DUP1 EXTCODESIZE ISZERO DUP1 ISZERO PUSH2 0x13FE JUMPI PUSH1 0x0 DUP1 REVERT JUMPDEST POP GAS STATICCALL ISZERO DUP1 ISZERO PUSH2 0x1412 JUMPI RETURNDATASIZE PUSH1 0x0 DUP1 RETURNDATACOPY RETURNDATASIZE PUSH1 0x0 REVERT JUMPDEST POP POP POP POP PUSH1 0x40 MLOAD RETURNDATASIZE PUSH1 0x20 DUP2 LT ISZERO PUSH2 0x1428 JUMPI PUSH1 0x0 DUP1 REVERT JUMPDEST POP MLOAD PUSH2 0x28E3 JUMP JUMPDEST PUSH1 0xA SLOAD PUSH1 0x40 DUP1 MLOAD PUSH4 0x70A08231 PUSH1 0xE0 SHL DUP2 MSTORE ADDRESS PUSH1 0x4 DUP3 ADD MSTORE SWAP1 MLOAD PUSH1 0x1 PUSH1 0x1 PUSH1 0xA0 SHL SUB SWAP1 SWAP3 AND SWAP2 PUSH4 0x70A08231 SWAP2 PUSH1 0x24 DUP1 DUP3 ADD SWAP3 PUSH1 0x20 SWAP3 SWAP1 SWAP2 SWAP1 DUP3 SWAP1 SUB ADD DUP2 DUP7 DUP1 EXTCODESIZE ISZERO DUP1 ISZERO PUSH2 0x147A JUMPI PUSH1 0x0 DUP1 REVERT JUMPDEST POP GAS STATICCALL ISZERO DUP1 ISZERO PUSH2 0x148E JUMPI RETURNDATASIZE PUSH1 0x0 DUP1 RETURNDATACOPY RETURNDATASIZE PUSH1 0x0 REVERT JUMPDEST POP POP POP POP PUSH1 0x40 MLOAD RETURNDATASIZE PUSH1 0x20 DUP2 LT ISZERO PUSH2 0x14A4 JUMPI PUSH1 0x0 DUP1 REVERT JUMPDEST POP MLOAD DUP3 LT ISZERO PUSH2 0x14BB JUMPI PUSH2 0x14B6 DUP3 PUSH2 0x2930 JUMP JUMPDEST PUSH2 0x1538 JUMP JUMPDEST PUSH1 0xA SLOAD PUSH1 0x40 DUP1 MLOAD PUSH4 0x70A08231 PUSH1 0xE0 SHL DUP2 MSTORE ADDRESS PUSH1 0x4 DUP3 ADD MSTORE SWAP1 MLOAD PUSH2 0x1538 SWAP3 PUSH1 0x1 PUSH1 0x1 PUSH1 0xA0 SHL SUB AND SWAP2 PUSH4 0x70A08231 SWAP2 PUSH1 0x24 DUP1 DUP4 ADD SWAP3 PUSH1 0x20 SWAP3 SWAP2 SWAP1 DUP3 SWAP1 SUB ADD DUP2 DUP7 DUP1 EXTCODESIZE ISZERO DUP1 ISZERO PUSH2 0x1507 JUMPI PUSH1 0x0 DUP1 REVERT JUMPDEST POP GAS STATICCALL ISZERO DUP1 ISZERO PUSH2 0x151B JUMPI RETURNDATASIZE PUSH1 0x0 DUP1 RETURNDATACOPY RETURNDATASIZE PUSH1 0x0 REVERT JUMPDEST POP POP POP POP PUSH1 0x40 MLOAD RETURNDATASIZE PUSH1 0x20 DUP2 LT ISZERO PUSH2 0x1531 JUMPI PUSH1 0x0 DUP1 REVERT JUMPDEST POP MLOAD PUSH2 0x2930 JUMP JUMPDEST POP POP JUMPDEST POP POP POP JUMP JUMPDEST PUSH1 0x2 SWAP1 JUMP JUMPDEST PUSH1 0x0 PUSH2 0x1550 CALLER PUSH2 0xF6A JUMP JUMPDEST SWAP1 POP PUSH2 0x155B DUP2 PUSH2 0xB25 JUMP JUMPDEST POP JUMP JUMPDEST PUSH1 0xA SLOAD PUSH1 0xC SLOAD PUSH1 0x40 DUP1 MLOAD PUSH4 0x70A08231 PUSH1 0xE0 SHL DUP2 MSTORE PUSH1 0x1 PUSH1 0x1 PUSH1 0xA0 SHL SUB SWAP3 DUP4 AND PUSH1 0x4 DUP3 ADD MSTORE SWAP1 MLOAD PUSH1 0x0 SWAP4 DUP5 SWAP4 AND SWAP2 PUSH4 0x70A08231 SWAP2 PUSH1 0x24 DUP1 DUP4 ADD SWAP3 PUSH1 0x20 SWAP3 SWAP2 SWAP1 DUP3 SWAP1 SUB ADD DUP2 DUP7 DUP1 EXTCODESIZE ISZERO DUP1 ISZERO PUSH2 0xEF0 JUMPI PUSH1 0x0 DUP1 REVERT JUMPDEST PUSH1 0x18 SLOAD DUP2 JUMP JUMPDEST PUSH1 0x1 SLOAD PUSH1 0x1 PUSH1 0x1 PUSH1 0xA0 SHL SUB AND SWAP1 JUMP JUMPDEST PUSH1 0x1 SLOAD PUSH1 0x0 SWAP1 PUSH1 0x1 PUSH1 0x1 PUSH1 0xA0 SHL SUB AND PUSH2 0x15DC PUSH2 0x20CC JUMP JUMPDEST PUSH1 0x1 PUSH1 0x1 PUSH1 0xA0 SHL SUB AND EQ SWAP1 POP SWAP1 JUMP JUMPDEST PUSH1 0x12 SLOAD PUSH1 0x1 PUSH1 0x1 PUSH1 0xA0 SHL SUB AND CALLER EQ DUP1 PUSH2 0x161C JUMPI POP PUSH2 0x1607 PUSH2 0x15B6 JUMP JUMPDEST PUSH1 0x1 PUSH1 0x1 PUSH1 0xA0 SHL SUB AND CALLER PUSH1 0x1 PUSH1 0x1 PUSH1 0xA0 SHL SUB AND EQ JUMPDEST PUSH2 0x1625 JUMPI PUSH1 0x0 DUP1 REVERT JUMPDEST DUP2 PUSH3 0xB71B0 GT PUSH2 0x1634 JUMPI PUSH1 0x0 DUP1 REVERT JUMPDEST DUP1 DUP3 LT ISZERO PUSH2 0x1641 JUMPI PUSH1 0x0 DUP1 REVERT JUMPDEST DUP3 DUP2 LT ISZERO PUSH2 0x164E JUMPI PUSH1 0x0 DUP1 REVERT JUMPDEST POP PUSH1 0x14 SSTORE PUSH1 0x15 SSTORE JUMP JUMPDEST PUSH1 0x6 DUP1 SLOAD PUSH1 0x40 DUP1 MLOAD PUSH1 0x20 PUSH1 0x1F PUSH1 0x2 PUSH1 0x0 NOT PUSH2 0x100 PUSH1 0x1 DUP9 AND ISZERO MUL ADD SWAP1 SWAP6 AND SWAP5 SWAP1 SWAP5 DIV SWAP4 DUP5 ADD DUP2 SWAP1 DIV DUP2 MUL DUP3 ADD DUP2 ADD SWAP1 SWAP3 MSTORE DUP3 DUP2 MSTORE PUSH1 0x60 SWAP4 SWAP1 SWAP3 SWAP1 SWAP2 DUP4 ADD DUP3 DUP3 DUP1 ISZERO PUSH2 0x9A4 JUMPI DUP1 PUSH1 0x1F LT PUSH2 0x979 JUMPI PUSH2 0x100 DUP1 DUP4 SLOAD DIV MUL DUP4 MSTORE SWAP2 PUSH1 0x20 ADD SWAP2 PUSH2 0x9A4 JUMP JUMPDEST PUSH1 0x0 PUSH2 0x9C2 PUSH2 0x16C5 PUSH2 0x20CC JUMP JUMPDEST DUP5 PUSH2 0xB04 DUP6 PUSH1 0x40 MLOAD DUP1 PUSH1 0x60 ADD PUSH1 0x40 MSTORE DUP1 PUSH1 0x25 DUP2 MSTORE PUSH1 0x20 ADD PUSH2 0x34AE PUSH1 0x25 SWAP2 CODECOPY PUSH1 0x3 PUSH1 0x0 PUSH2 0x16EF PUSH2 0x20CC JUMP JUMPDEST PUSH1 0x1 PUSH1 0x1 PUSH1 0xA0 SHL SUB SWAP1 DUP2 AND DUP3 MSTORE PUSH1 0x20 DUP1 DUP4 ADD SWAP4 SWAP1 SWAP4 MSTORE PUSH1 0x40 SWAP2 DUP3 ADD PUSH1 0x0 SWAP1 DUP2 KECCAK256 SWAP2 DUP14 AND DUP2 MSTORE SWAP3 MSTORE SWAP1 KECCAK256 SLOAD SWAP2 SWAP1 PUSH2 0x23B0 JUMP JUMPDEST PUSH1 0x12 SLOAD PUSH1 0x1 PUSH1 0x1 PUSH1 0xA0 SHL SUB AND CALLER EQ DUP1 PUSH2 0x1751 JUMPI POP PUSH2 0x173C PUSH2 0x15B6 JUMP JUMPDEST PUSH1 0x1 PUSH1 0x1 PUSH1 0xA0 SHL SUB AND CALLER PUSH1 0x1 PUSH1 0x1 PUSH1 0xA0 SHL SUB AND EQ JUMPDEST PUSH2 0x175A JUMPI PUSH1 0x0 DUP1 REVERT JUMPDEST PUSH2 0xDF2 PUSH2 0x2727 JUMP JUMPDEST PUSH1 0x0 PUSH2 0x9C2 PUSH2 0x176F PUSH2 0x20CC JUMP JUMPDEST DUP5 DUP5 PUSH2 0x225E JUMP JUMPDEST PUSH1 0x15 SLOAD DUP2 JUMP JUMPDEST PUSH1 0xF SLOAD PUSH1 0x40 DUP1 MLOAD PUSH4 0x70A08231 PUSH1 0xE0 SHL DUP2 MSTORE ADDRESS PUSH1 0x4 DUP3 ADD MSTORE SWAP1 MLOAD PUSH1 0x0 SWAP3 DUP4 SWAP3 PUSH1 0x1 PUSH1 0x1 PUSH1 0xA0 SHL SUB SWAP1 SWAP2 AND SWAP2 PUSH4 0x70A08231 SWAP2 PUSH1 0x24 DUP1 DUP3 ADD SWAP3 PUSH1 0x20 SWAP3 SWAP1 SWAP2 SWAP1 DUP3 SWAP1 SUB ADD DUP2 DUP7 DUP1 EXTCODESIZE ISZERO DUP1 ISZERO PUSH2 0x17CC JUMPI PUSH1 0x0 DUP1 REVERT JUMPDEST POP GAS STATICCALL ISZERO DUP1 ISZERO PUSH2 0x17E0 JUMPI RETURNDATASIZE PUSH1 0x0 DUP1 RETURNDATACOPY RETURNDATASIZE PUSH1 0x0 REVERT JUMPDEST POP POP POP POP PUSH1 0x40 MLOAD RETURNDATASIZE PUSH1 0x20 DUP2 LT ISZERO PUSH2 0x17F6 JUMPI PUSH1 0x0 DUP1 REVERT JUMPDEST POP MLOAD SWAP1 POP PUSH2 0xB1F PUSH8 0xDE0B6B3A7640000 PUSH2 0xA69 PUSH2 0x1811 PUSH2 0x2939 JUMP JUMPDEST DUP5 SWAP1 PUSH2 0x21BC JUMP JUMPDEST PUSH1 0x13 SLOAD PUSH1 0x1 PUSH1 0x1 PUSH1 0xA0 SHL SUB AND DUP2 JUMP JUMPDEST PUSH1 0x13 SLOAD PUSH1 0x1 PUSH1 0x1 PUSH1 0xA0 SHL SUB AND CALLER EQ DUP1 PUSH2 0x184A JUMPI POP PUSH1 0x12 SLOAD PUSH1 0x1 PUSH1 0x1 PUSH1 0xA0 SHL SUB AND CALLER EQ JUMPDEST DUP1 PUSH2 0x186D JUMPI POP PUSH2 0x1858 PUSH2 0x15B6 JUMP JUMPDEST PUSH1 0x1 PUSH1 0x1 PUSH1 0xA0 SHL SUB AND CALLER PUSH1 0x1 PUSH1 0x1 PUSH1 0xA0 SHL SUB AND EQ JUMPDEST PUSH2 0x1876 JUMPI PUSH1 0x0 DUP1 REVERT JUMPDEST PUSH2 0x187E PUSH2 0x2727 JUMP JUMPDEST PUSH1 0xA SLOAD PUSH1 0x40 DUP1 MLOAD PUSH4 0x70A08231 PUSH1 0xE0 SHL DUP2 MSTORE ADDRESS PUSH1 0x4 DUP3 ADD MSTORE SWAP1 MLOAD PUSH1 0x0 SWAP3 PUSH1 0x1 PUSH1 0x1 PUSH1 0xA0 SHL SUB AND SWAP2 PUSH4 0x70A08231 SWAP2 PUSH1 0x24 DUP1 DUP4 ADD SWAP3 PUSH1 0x20 SWAP3 SWAP2 SWAP1 DUP3 SWAP1 SUB ADD DUP2 DUP7 DUP1 EXTCODESIZE ISZERO DUP1 ISZERO PUSH2 0x18C9 JUMPI PUSH1 0x0 DUP1 REVERT JUMPDEST POP GAS STATICCALL ISZERO DUP1 ISZERO PUSH2 0x18DD JUMPI RETURNDATASIZE PUSH1 0x0 DUP1 RETURNDATACOPY RETURNDATASIZE PUSH1 0x0 REVERT JUMPDEST POP POP POP POP PUSH1 0x40 MLOAD RETURNDATASIZE PUSH1 0x20 DUP2 LT ISZERO PUSH2 0x18F3 JUMPI PUSH1 0x0 DUP1 REVERT JUMPDEST POP MLOAD SWAP1 POP PUSH1 0x0 PUSH2 0x1901 PUSH2 0xF85 JUMP JUMPDEST SWAP1 POP PUSH1 0x0 PUSH2 0x1921 PUSH3 0xF4240 PUSH2 0xA69 PUSH1 0x19 SLOAD DUP6 PUSH2 0x21BC SWAP1 SWAP2 SWAP1 PUSH4 0xFFFFFFFF AND JUMP JUMPDEST SWAP1 POP DUP1 DUP4 GT ISZERO PUSH2 0x153B JUMPI PUSH2 0x153B DUP2 PUSH2 0x297B JUMP JUMPDEST PUSH20 0x5AA53F03197E08C4851CAD8C92C7922DA5857E5D SWAP1 JUMP JUMPDEST PUSH1 0x1B SLOAD DUP2 JUMP JUMPDEST PUSH1 0x12 SLOAD PUSH1 0x1 PUSH1 0x1 PUSH1 0xA0 SHL SUB AND CALLER EQ DUP1 PUSH2 0x1983 JUMPI POP PUSH2 0x196E PUSH2 0x15B6 JUMP JUMPDEST PUSH1 0x1 PUSH1 0x1 PUSH1 0xA0 SHL SUB AND CALLER PUSH1 0x1 PUSH1 0x1 PUSH1 0xA0 SHL SUB AND EQ JUMPDEST PUSH2 0x198C JUMPI PUSH1 0x0 DUP1 REVERT JUMPDEST PUSH2 0xC350 DUP3 GT ISZERO PUSH2 0x199B JUMPI PUSH1 0x0 DUP1 REVERT JUMPDEST PUSH3 0xB71B0 DUP2 GT ISZERO PUSH2 0x19AB JUMPI PUSH1 0x0 DUP1 REVERT JUMPDEST PUSH1 0x19 SWAP2 SWAP1 SWAP2 SSTORE PUSH1 0x1B SSTORE JUMP JUMPDEST PUSH1 0x0 DUP1 SLOAD PUSH1 0x1 ADD SWAP1 DUP2 SWAP1 SSTORE DUP2 PUSH2 0x1A13 JUMPI PUSH1 0x40 DUP1 MLOAD PUSH3 0x461BCD PUSH1 0xE5 SHL DUP2 MSTORE PUSH1 0x20 PUSH1 0x4 DUP3 ADD MSTORE PUSH1 0x1E PUSH1 0x24 DUP3 ADD MSTORE PUSH32 0x6465706F736974206D7573742062652067726561746572207468616E20300000 PUSH1 0x44 DUP3 ADD MSTORE SWAP1 MLOAD SWAP1 DUP2 SWAP1 SUB PUSH1 0x64 ADD SWAP1 REVERT JUMPDEST PUSH1 0x1A SLOAD DUP3 GT ISZERO PUSH2 0x1A22 JUMPI PUSH1 0x0 DUP1 REVERT JUMPDEST PUSH1 0x0 PUSH2 0x1A2C PUSH2 0xF85 JUMP JUMPDEST PUSH1 0xA SLOAD PUSH1 0x40 DUP1 MLOAD PUSH4 0x23B872DD PUSH1 0xE0 SHL DUP2 MSTORE CALLER PUSH1 0x4 DUP3 ADD MSTORE ADDRESS PUSH1 0x24 DUP3 ADD MSTORE PUSH1 0x44 DUP2 ADD DUP8 SWAP1 MSTORE SWAP1 MLOAD SWAP3 SWAP4 POP PUSH1 0x1 PUSH1 0x1 PUSH1 0xA0 SHL SUB SWAP1 SWAP2 AND SWAP2 PUSH4 0x23B872DD SWAP2 PUSH1 0x64 DUP1 DUP3 ADD SWAP3 PUSH1 0x20 SWAP3 SWAP1 SWAP2 SWAP1 DUP3 SWAP1 SUB ADD DUP2 PUSH1 0x0 DUP8 DUP1 EXTCODESIZE ISZERO DUP1 ISZERO PUSH2 0x1A89 JUMPI PUSH1 0x0 DUP1 REVERT JUMPDEST POP GAS CALL ISZERO DUP1 ISZERO PUSH2 0x1A9D JUMPI RETURNDATASIZE PUSH1 0x0 DUP1 RETURNDATACOPY RETURNDATASIZE PUSH1 0x0 REVERT JUMPDEST POP POP POP POP PUSH1 0x40 MLOAD RETURNDATASIZE PUSH1 0x20 DUP2 LT ISZERO PUSH2 0x1AB3 JUMPI PUSH1 0x0 DUP1 REVERT JUMPDEST POP PUSH1 0x0 SWAP1 POP PUSH2 0x1AC0 PUSH2 0xA77 JUMP JUMPDEST PUSH2 0x1AD7 JUMPI PUSH2 0x1AD0 DUP5 PUSH2 0x2710 PUSH2 0x21BC JUMP JUMPDEST SWAP1 POP PUSH2 0x1AF0 JUMP JUMPDEST PUSH2 0x1AED DUP3 PUSH2 0xA69 PUSH2 0x1AE6 PUSH2 0xA77 JUMP JUMPDEST DUP8 SWAP1 PUSH2 0x21BC JUMP JUMPDEST SWAP1 POP JUMPDEST PUSH2 0x1AFA CALLER DUP3 PUSH2 0x2B26 JUMP JUMPDEST POP POP PUSH1 0x0 SLOAD DUP2 EQ PUSH2 0xD20 JUMPI PUSH1 0x40 DUP1 MLOAD PUSH3 0x461BCD PUSH1 0xE5 SHL DUP2 MSTORE PUSH1 0x20 PUSH1 0x4 DUP3 ADD MSTORE PUSH1 0x1F PUSH1 0x24 DUP3 ADD MSTORE PUSH32 0x5265656E7472616E637947756172643A207265656E7472616E742063616C6C00 PUSH1 0x44 DUP3 ADD MSTORE SWAP1 MLOAD SWAP1 DUP2 SWAP1 SUB PUSH1 0x64 ADD SWAP1 REVERT JUMPDEST PUSH1 0x12 SLOAD PUSH1 0x1 PUSH1 0x1 PUSH1 0xA0 SHL SUB AND CALLER EQ DUP1 PUSH2 0x1B83 JUMPI POP PUSH2 0x1B6E PUSH2 0x15B6 JUMP JUMPDEST PUSH1 0x1 PUSH1 0x1 PUSH1 0xA0 SHL SUB AND CALLER PUSH1 0x1 PUSH1 0x1 PUSH1 0xA0 SHL SUB AND EQ JUMPDEST PUSH2 0x1B8C JUMPI PUSH1 0x0 DUP1 REVERT JUMPDEST PUSH1 0x8 SWAP2 SWAP1 SWAP2 SSTORE PUSH1 0x9 SSTORE JUMP JUMPDEST PUSH1 0x16 SLOAD DUP2 JUMP JUMPDEST PUSH20 0xEC7178F4C41F346B2721907F5CF7628E388A7A58 SWAP1 JUMP JUMPDEST PUSH20 0x841FAD6EAE12C286D1FD18D1D525DFFA75C7EFFE SWAP1 JUMP JUMPDEST PUSH1 0xA SLOAD PUSH1 0x40 DUP1 MLOAD PUSH4 0x70A08231 PUSH1 0xE0 SHL DUP2 MSTORE ADDRESS PUSH1 0x4 DUP3 ADD MSTORE SWAP1 MLOAD PUSH1 0x0 SWAP3 PUSH1 0x1 PUSH1 0x1 PUSH1 0xA0 SHL SUB AND SWAP2 PUSH4 0x70A08231 SWAP2 PUSH1 0x24 DUP1 DUP4 ADD SWAP3 PUSH1 0x20 SWAP3 SWAP2 SWAP1 DUP3 SWAP1 SUB ADD DUP2 DUP7 DUP1 EXTCODESIZE ISZERO DUP1 ISZERO PUSH2 0x1C18 JUMPI PUSH1 0x0 DUP1 REVERT JUMPDEST POP GAS STATICCALL ISZERO DUP1 ISZERO PUSH2 0x1C2C JUMPI RETURNDATASIZE PUSH1 0x0 DUP1 RETURNDATACOPY RETURNDATASIZE PUSH1 0x0 REVERT JUMPDEST POP POP POP POP PUSH1 0x40 MLOAD RETURNDATASIZE PUSH1 0x20 DUP2 LT ISZERO PUSH2 0x1C42 JUMPI PUSH1 0x0 DUP1 REVERT JUMPDEST POP MLOAD SWAP1 POP SWAP1 JUMP JUMPDEST PUSH1 0x12 SLOAD PUSH1 0x1 PUSH1 0x1 PUSH1 0xA0 SHL SUB AND CALLER EQ DUP1 PUSH2 0x1C7A JUMPI POP PUSH2 0x1C65 PUSH2 0x15B6 JUMP JUMPDEST PUSH1 0x1 PUSH1 0x1 PUSH1 0xA0 SHL SUB AND CALLER PUSH1 0x1 PUSH1 0x1 PUSH1 0xA0 SHL SUB AND EQ JUMPDEST PUSH2 0x1C83 JUMPI PUSH1 0x0 DUP1 REVERT JUMPDEST PUSH1 0x1 PUSH1 0x1 PUSH1 0xA0 SHL SUB DUP2 AND PUSH2 0x1C96 JUMPI PUSH1 0x0 DUP1 REVERT JUMPDEST PUSH1 0x12 DUP1 SLOAD PUSH1 0x1 PUSH1 0x1 PUSH1 0xA0 SHL SUB DUP4 AND PUSH1 0x1 PUSH1 0x1 PUSH1 0xA0 SHL SUB NOT SWAP1 SWAP2 AND DUP2 OR SWAP1 SWAP2 SSTORE PUSH1 0x40 DUP1 MLOAD SWAP2 DUP3 MSTORE MLOAD PUSH32 0x352ECECAE6D7D1E6D26BCF2C549DFD55BE1637E9B22DC0CF3B71DDB36097A6B4 SWAP2 DUP2 SWAP1 SUB PUSH1 0x20 ADD SWAP1 LOG1 POP JUMP JUMPDEST PUSH1 0x0 DUP1 PUSH2 0x1CF6 ADDRESS PUSH2 0x2447 JUMP JUMPDEST SWAP1 POP PUSH2 0xB1F DUP2 PUSH2 0xE60 JUMP JUMPDEST PUSH1 0x12 SLOAD PUSH1 0x1 PUSH1 0x1 PUSH1 0xA0 SHL SUB AND CALLER EQ DUP1 PUSH2 0x1D32 JUMPI POP PUSH2 0x1D1D PUSH2 0x15B6 JUMP JUMPDEST PUSH1 0x1 PUSH1 0x1 PUSH1 0xA0 SHL SUB AND CALLER PUSH1 0x1 PUSH1 0x1 PUSH1 0xA0 SHL SUB AND EQ JUMPDEST PUSH2 0x1D3B JUMPI PUSH1 0x0 DUP1 REVERT JUMPDEST PUSH2 0x1388 DUP4 GT ISZERO PUSH2 0x1D4A JUMPI PUSH1 0x0 DUP1 REVERT JUMPDEST PUSH2 0xC350 DUP3 GT ISZERO PUSH2 0x1D59 JUMPI PUSH1 0x0 DUP1 REVERT JUMPDEST PUSH3 0x186A0 DUP2 GT ISZERO PUSH2 0x1D69 JUMPI PUSH1 0x0 DUP1 REVERT JUMPDEST POP PUSH1 0x16 SSTORE PUSH1 0x18 SSTORE JUMP JUMPDEST PUSH1 0x12 SLOAD PUSH1 0x1 PUSH1 0x1 PUSH1 0xA0 SHL SUB AND CALLER EQ DUP1 PUSH2 0x1DA3 JUMPI POP PUSH2 0x1D8E PUSH2 0x15B6 JUMP JUMPDEST PUSH1 0x1 PUSH1 0x1 PUSH1 0xA0 SHL SUB AND CALLER PUSH1 0x1 PUSH1 0x1 PUSH1 0xA0 SHL SUB AND EQ JUMPDEST PUSH2 0x1DAC JUMPI PUSH1 0x0 DUP1 REVERT JUMPDEST PUSH2 0x155B DUP2 PUSH2 0x2620 JUMP JUMPDEST PUSH1 0x1 PUSH1 0x1 PUSH1 0xA0 SHL SUB SWAP2 DUP3 AND PUSH1 0x0 SWAP1 DUP2 MSTORE PUSH1 0x3 PUSH1 0x20 SWAP1 DUP2 MSTORE PUSH1 0x40 DUP1 DUP4 KECCAK256 SWAP4 SWAP1 SWAP5 AND DUP3 MSTORE SWAP2 SWAP1 SWAP2 MSTORE KECCAK256 SLOAD SWAP1 JUMP JUMPDEST PUSH1 0xA SLOAD PUSH1 0x40 DUP1 MLOAD PUSH4 0x70A08231 PUSH1 0xE0 SHL DUP2 MSTORE CALLER PUSH1 0x4 DUP3 ADD MSTORE SWAP1 MLOAD PUSH1 0x0 SWAP3 PUSH1 0x1 PUSH1 0x1 PUSH1 0xA0 SHL SUB AND SWAP2 PUSH4 0x70A08231 SWAP2 PUSH1 0x24 DUP1 DUP4 ADD SWAP3 PUSH1 0x20 SWAP3 SWAP2 SWAP1 DUP3 SWAP1 SUB ADD DUP2 DUP7 DUP1 EXTCODESIZE ISZERO DUP1 ISZERO PUSH2 0x1E2B JUMPI PUSH1 0x0 DUP1 REVERT JUMPDEST POP GAS STATICCALL ISZERO DUP1 ISZERO PUSH2 0x1E3F JUMPI RETURNDATASIZE PUSH1 0x0 DUP1 RETURNDATACOPY RETURNDATASIZE PUSH1 0x0 REVERT JUMPDEST POP POP POP POP PUSH1 0x40 MLOAD RETURNDATASIZE PUSH1 0x20 DUP2 LT ISZERO PUSH2 0x1E55 JUMPI PUSH1 0x0 DUP1 REVERT JUMPDEST POP MLOAD SWAP1 POP PUSH2 0x155B DUP2 PUSH2 0x19B6 JUMP JUMPDEST PUSH20 0xE0654C8E6FD4D733349AC7E09F6F23DA256BF475 SWAP1 JUMP JUMPDEST PUSH1 0x0 DUP1 PUSH2 0x1E85 PUSH2 0x1CEA JUMP JUMPDEST SWAP1 POP PUSH1 0x0 PUSH2 0xA54 PUSH2 0x177C JUMP JUMPDEST PUSH1 0x0 DUP1 PUSH2 0xB1F PUSH2 0x1E9F PUSH2 0x1540 JUMP JUMPDEST ADDRESS PUSH2 0x2C0C JUMP JUMPDEST PUSH1 0x1A SLOAD DUP2 JUMP JUMPDEST PUSH1 0x17 SLOAD DUP2 JUMP JUMPDEST PUSH2 0x1EB9 PUSH2 0x15C5 JUMP JUMPDEST PUSH2 0x1F0A JUMPI PUSH1 0x40 DUP1 MLOAD PUSH3 0x461BCD PUSH1 0xE5 SHL DUP2 MSTORE PUSH1 0x20 PUSH1 0x4 DUP3 ADD DUP2 SWAP1 MSTORE PUSH1 0x24 DUP3 ADD MSTORE PUSH32 0x4F776E61626C653A2063616C6C6572206973206E6F7420746865206F776E6572 PUSH1 0x44 DUP3 ADD MSTORE SWAP1 MLOAD SWAP1 DUP2 SWAP1 SUB PUSH1 0x64 ADD SWAP1 REVERT JUMPDEST PUSH2 0x155B DUP2 PUSH2 0x2C9D JUMP JUMPDEST PUSH1 0x14 SLOAD DUP2 JUMP JUMPDEST PUSH1 0x19 SLOAD DUP2 JUMP JUMPDEST PUSH20 0x2B2929E785374C651A81A63878AB22742656DCDD SWAP1 JUMP JUMPDEST PUSH1 0xB SLOAD PUSH1 0x40 DUP1 MLOAD PUSH4 0x70A08231 PUSH1 0xE0 SHL DUP2 MSTORE ADDRESS PUSH1 0x4 DUP3 ADD MSTORE SWAP1 MLOAD PUSH1 0x0 SWAP3 PUSH1 0x1 PUSH1 0x1 PUSH1 0xA0 SHL SUB AND SWAP2 PUSH4 0x70A08231 SWAP2 PUSH1 0x24 DUP1 DUP4 ADD SWAP3 PUSH1 0x20 SWAP3 SWAP2 SWAP1 DUP3 SWAP1 SUB ADD DUP2 DUP7 DUP1 EXTCODESIZE ISZERO DUP1 ISZERO PUSH2 0x1C18 JUMPI PUSH1 0x0 DUP1 REVERT JUMPDEST DUP1 ISZERO DUP1 PUSH2 0x2008 JUMPI POP PUSH1 0x40 DUP1 MLOAD PUSH4 0x6EB1769F PUSH1 0xE1 SHL DUP2 MSTORE ADDRESS PUSH1 0x4 DUP3 ADD MSTORE PUSH1 0x1 PUSH1 0x1 PUSH1 0xA0 SHL SUB DUP5 DUP2 AND PUSH1 0x24 DUP4 ADD MSTORE SWAP2 MLOAD SWAP2 DUP6 AND SWAP2 PUSH4 0xDD62ED3E SWAP2 PUSH1 0x44 DUP1 DUP3 ADD SWAP3 PUSH1 0x20 SWAP3 SWAP1 SWAP2 SWAP1 DUP3 SWAP1 SUB ADD DUP2 DUP7 DUP1 EXTCODESIZE ISZERO DUP1 ISZERO PUSH2 0x1FDA JUMPI PUSH1 0x0 DUP1 REVERT JUMPDEST POP GAS STATICCALL ISZERO DUP1 ISZERO PUSH2 0x1FEE JUMPI RETURNDATASIZE PUSH1 0x0 DUP1 RETURNDATACOPY RETURNDATASIZE PUSH1 0x0 REVERT JUMPDEST POP POP POP POP PUSH1 0x40 MLOAD RETURNDATASIZE PUSH1 0x20 DUP2 LT ISZERO PUSH2 0x2004 JUMPI PUSH1 0x0 DUP1 REVERT JUMPDEST POP MLOAD ISZERO JUMPDEST PUSH2 0x2043 JUMPI PUSH1 0x40 MLOAD PUSH3 0x461BCD PUSH1 0xE5 SHL DUP2 MSTORE PUSH1 0x4 ADD DUP1 DUP1 PUSH1 0x20 ADD DUP3 DUP2 SUB DUP3 MSTORE PUSH1 0x36 DUP2 MSTORE PUSH1 0x20 ADD DUP1 PUSH2 0x3478 PUSH1 0x36 SWAP2 CODECOPY PUSH1 0x40 ADD SWAP2 POP POP PUSH1 0x40 MLOAD DUP1 SWAP2 SUB SWAP1 REVERT JUMPDEST PUSH1 0x40 DUP1 MLOAD PUSH1 0x1 PUSH1 0x1 PUSH1 0xA0 SHL SUB DUP5 AND PUSH1 0x24 DUP3 ADD MSTORE PUSH1 0x44 DUP1 DUP3 ADD DUP5 SWAP1 MSTORE DUP3 MLOAD DUP1 DUP4 SUB SWAP1 SWAP2 ADD DUP2 MSTORE PUSH1 0x64 SWAP1 SWAP2 ADD SWAP1 SWAP2 MSTORE PUSH1 0x20 DUP2 ADD DUP1 MLOAD PUSH1 0x1 PUSH1 0x1 PUSH1 0xE0 SHL SUB AND PUSH4 0x95EA7B3 PUSH1 0xE0 SHL OR SWAP1 MSTORE PUSH2 0x153B SWAP1 DUP5 SWAP1 PUSH2 0x2D3E JUMP JUMPDEST PUSH1 0x0 DUP2 EXTCODEHASH PUSH32 0xC5D2460186F7233C927E7DB2DCC703C0E500B653CA82273B7BFAD8045D85A470 DUP2 ISZERO DUP1 ISZERO SWAP1 PUSH2 0xE87 JUMPI POP EQ ISZERO SWAP3 SWAP2 POP POP JUMP JUMPDEST CALLER SWAP1 JUMP JUMPDEST PUSH1 0x1 PUSH1 0x1 PUSH1 0xA0 SHL SUB DUP4 AND PUSH2 0x2115 JUMPI PUSH1 0x40 MLOAD PUSH3 0x461BCD PUSH1 0xE5 SHL DUP2 MSTORE PUSH1 0x4 ADD DUP1 DUP1 PUSH1 0x20 ADD DUP3 DUP2 SUB DUP3 MSTORE PUSH1 0x24 DUP2 MSTORE PUSH1 0x20 ADD DUP1 PUSH2 0x342A PUSH1 0x24 SWAP2 CODECOPY PUSH1 0x40 ADD SWAP2 POP POP PUSH1 0x40 MLOAD DUP1 SWAP2 SUB SWAP1 REVERT JUMPDEST PUSH1 0x1 PUSH1 0x1 PUSH1 0xA0 SHL SUB DUP3 AND PUSH2 0x215A JUMPI PUSH1 0x40 MLOAD PUSH3 0x461BCD PUSH1 0xE5 SHL DUP2 MSTORE PUSH1 0x4 ADD DUP1 DUP1 PUSH1 0x20 ADD DUP3 DUP2 SUB DUP3 MSTORE PUSH1 0x22 DUP2 MSTORE PUSH1 0x20 ADD DUP1 PUSH2 0x3353 PUSH1 0x22 SWAP2 CODECOPY PUSH1 0x40 ADD SWAP2 POP POP PUSH1 0x40 MLOAD DUP1 SWAP2 SUB SWAP1 REVERT JUMPDEST PUSH1 0x1 PUSH1 0x1 PUSH1 0xA0 SHL SUB DUP1 DUP5 AND PUSH1 0x0 DUP2 DUP2 MSTORE PUSH1 0x3 PUSH1 0x20 SWAP1 DUP2 MSTORE PUSH1 0x40 DUP1 DUP4 KECCAK256 SWAP5 DUP8 AND DUP1 DUP5 MSTORE SWAP5 DUP3 MSTORE SWAP2 DUP3 SWAP1 KECCAK256 DUP6 SWAP1 SSTORE DUP2 MLOAD DUP6 DUP2 MSTORE SWAP2 MLOAD PUSH32 0x8C5BE1E5EBEC7D5BD14F71427D1E84F3DD0314C0F7B2291E5B200AC8C7C3B925 SWAP3 DUP2 SWAP1 SUB SWAP1 SWAP2 ADD SWAP1 LOG3 POP POP POP JUMP JUMPDEST PUSH1 0x0 DUP3 PUSH2 0x21CB JUMPI POP PUSH1 0x0 PUSH2 0x9C6 JUMP JUMPDEST DUP3 DUP3 MUL DUP3 DUP5 DUP3 DUP2 PUSH2 0x21D8 JUMPI INVALID JUMPDEST DIV EQ PUSH2 0x2215 JUMPI PUSH1 0x40 MLOAD PUSH3 0x461BCD PUSH1 0xE5 SHL DUP2 MSTORE PUSH1 0x4 ADD DUP1 DUP1 PUSH1 0x20 ADD DUP3 DUP2 SUB DUP3 MSTORE PUSH1 0x21 DUP2 MSTORE PUSH1 0x20 ADD DUP1 PUSH2 0x339B PUSH1 0x21 SWAP2 CODECOPY PUSH1 0x40 ADD SWAP2 POP POP PUSH1 0x40 MLOAD DUP1 SWAP2 SUB SWAP1 REVERT JUMPDEST SWAP4 SWAP3 POP POP POP JUMP JUMPDEST PUSH1 0x0 PUSH2 0x2215 DUP4 DUP4 PUSH1 0x40 MLOAD DUP1 PUSH1 0x40 ADD PUSH1 0x40 MSTORE DUP1 PUSH1 0x1A DUP2 MSTORE PUSH1 0x20 ADD PUSH32 0x536166654D6174683A206469766973696F6E206279207A65726F000000000000 DUP2 MSTORE POP PUSH2 0x2EF6 JUMP JUMPDEST PUSH1 0x1 PUSH1 0x1 PUSH1 0xA0 SHL SUB DUP4 AND PUSH2 0x22A3 JUMPI PUSH1 0x40 MLOAD PUSH3 0x461BCD PUSH1 0xE5 SHL DUP2 MSTORE PUSH1 0x4 ADD DUP1 DUP1 PUSH1 0x20 ADD DUP3 DUP2 SUB DUP3 MSTORE PUSH1 0x25 DUP2 MSTORE PUSH1 0x20 ADD DUP1 PUSH2 0x3405 PUSH1 0x25 SWAP2 CODECOPY PUSH1 0x40 ADD SWAP2 POP POP PUSH1 0x40 MLOAD DUP1 SWAP2 SUB SWAP1 REVERT JUMPDEST PUSH1 0x1 PUSH1 0x1 PUSH1 0xA0 SHL SUB DUP3 AND PUSH2 0x22E8 JUMPI PUSH1 0x40 MLOAD PUSH3 0x461BCD PUSH1 0xE5 SHL DUP2 MSTORE PUSH1 0x4 ADD DUP1 DUP1 PUSH1 0x20 ADD DUP3 DUP2 SUB DUP3 MSTORE PUSH1 0x23 DUP2 MSTORE PUSH1 0x20 ADD DUP1 PUSH2 0x32E8 PUSH1 0x23 SWAP2 CODECOPY PUSH1 0x40 ADD SWAP2 POP POP PUSH1 0x40 MLOAD DUP1 SWAP2 SUB SWAP1 REVERT JUMPDEST PUSH2 0x2325 DUP2 PUSH1 0x40 MLOAD DUP1 PUSH1 0x60 ADD PUSH1 0x40 MSTORE DUP1 PUSH1 0x26 DUP2 MSTORE PUSH1 0x20 ADD PUSH2 0x3375 PUSH1 0x26 SWAP2 CODECOPY PUSH1 0x1 PUSH1 0x1 PUSH1 0xA0 SHL SUB DUP7 AND PUSH1 0x0 SWAP1 DUP2 MSTORE PUSH1 0x2 PUSH1 0x20 MSTORE PUSH1 0x40 SWAP1 KECCAK256 SLOAD SWAP2 SWAP1 PUSH2 0x23B0 JUMP JUMPDEST PUSH1 0x1 PUSH1 0x1 PUSH1 0xA0 SHL SUB DUP1 DUP6 AND PUSH1 0x0 SWAP1 DUP2 MSTORE PUSH1 0x2 PUSH1 0x20 MSTORE PUSH1 0x40 DUP1 DUP3 KECCAK256 SWAP4 SWAP1 SWAP4 SSTORE SWAP1 DUP5 AND DUP2 MSTORE KECCAK256 SLOAD PUSH2 0x2354 SWAP1 DUP3 PUSH2 0x267B JUMP JUMPDEST PUSH1 0x1 PUSH1 0x1 PUSH1 0xA0 SHL SUB DUP1 DUP5 AND PUSH1 0x0 DUP2 DUP2 MSTORE PUSH1 0x2 PUSH1 0x20 SWAP1 DUP2 MSTORE PUSH1 0x40 SWAP2 DUP3 SWAP1 KECCAK256 SWAP5 SWAP1 SWAP5 SSTORE DUP1 MLOAD DUP6 DUP2 MSTORE SWAP1 MLOAD SWAP2 SWAP4 SWAP3 DUP8 AND SWAP3 PUSH32 0xDDF252AD1BE2C89B69C2B068FC378DAA952BA7F163C4A11628F55A4DF523B3EF SWAP3 SWAP2 DUP3 SWAP1 SUB ADD SWAP1 LOG3 POP POP POP JUMP JUMPDEST PUSH1 0x0 DUP2 DUP5 DUP5 GT ISZERO PUSH2 0x243F JUMPI PUSH1 0x40 MLOAD PUSH3 0x461BCD PUSH1 0xE5 SHL DUP2 MSTORE PUSH1 0x4 ADD DUP1 DUP1 PUSH1 0x20 ADD DUP3 DUP2 SUB DUP3 MSTORE DUP4 DUP2 DUP2 MLOAD DUP2 MSTORE PUSH1 0x20 ADD SWAP2 POP DUP1 MLOAD SWAP1 PUSH1 0x20 ADD SWAP1 DUP1 DUP4 DUP4 PUSH1 0x0 JUMPDEST DUP4 DUP2 LT ISZERO PUSH2 0x2404 JUMPI DUP2 DUP2 ADD MLOAD DUP4 DUP3 ADD MSTORE PUSH1 0x20 ADD PUSH2 0x23EC JUMP JUMPDEST POP POP POP POP SWAP1 POP SWAP1 DUP2 ADD SWAP1 PUSH1 0x1F AND DUP1 ISZERO PUSH2 0x2431 JUMPI DUP1 DUP3 SUB DUP1 MLOAD PUSH1 0x1 DUP4 PUSH1 0x20 SUB PUSH2 0x100 EXP SUB NOT AND DUP2 MSTORE PUSH1 0x20 ADD SWAP2 POP JUMPDEST POP SWAP3 POP POP POP PUSH1 0x40 MLOAD DUP1 SWAP2 SUB SWAP1 REVERT JUMPDEST POP POP POP SWAP1 SUB SWAP1 JUMP JUMPDEST PUSH1 0x0 PUSH2 0x2451 PUSH2 0x1934 JUMP JUMPDEST PUSH1 0x1 PUSH1 0x1 PUSH1 0xA0 SHL SUB AND PUSH4 0x95DD9193 DUP4 PUSH1 0x40 MLOAD DUP3 PUSH4 0xFFFFFFFF AND PUSH1 0xE0 SHL DUP2 MSTORE PUSH1 0x4 ADD DUP1 DUP3 PUSH1 0x1 PUSH1 0x1 PUSH1 0xA0 SHL SUB AND DUP2 MSTORE PUSH1 0x20 ADD SWAP2 POP POP PUSH1 0x20 PUSH1 0x40 MLOAD DUP1 DUP4 SUB DUP2 DUP7 DUP1 EXTCODESIZE ISZERO DUP1 ISZERO PUSH2 0x249D JUMPI PUSH1 0x0 DUP1 REVERT JUMPDEST POP GAS STATICCALL ISZERO DUP1 ISZERO PUSH2 0x24B1 JUMPI RETURNDATASIZE PUSH1 0x0 DUP1 RETURNDATACOPY RETURNDATASIZE PUSH1 0x0 REVERT JUMPDEST POP POP POP POP PUSH1 0x40 MLOAD RETURNDATASIZE PUSH1 0x20 DUP2 LT ISZERO PUSH2 0x24C7 JUMPI PUSH1 0x0 DUP1 REVERT JUMPDEST POP MLOAD SWAP3 SWAP2 POP POP JUMP JUMPDEST PUSH1 0x1 PUSH1 0x1 PUSH1 0xA0 SHL SUB DUP3 AND PUSH2 0x2514 JUMPI PUSH1 0x40 MLOAD PUSH3 0x461BCD PUSH1 0xE5 SHL DUP2 MSTORE PUSH1 0x4 ADD DUP1 DUP1 PUSH1 0x20 ADD DUP3 DUP2 SUB DUP3 MSTORE PUSH1 0x21 DUP2 MSTORE PUSH1 0x20 ADD DUP1 PUSH2 0x33E4 PUSH1 0x21 SWAP2 CODECOPY PUSH1 0x40 ADD SWAP2 POP POP PUSH1 0x40 MLOAD DUP1 SWAP2 SUB SWAP1 REVERT JUMPDEST PUSH2 0x2551 DUP2 PUSH1 0x40 MLOAD DUP1 PUSH1 0x60 ADD PUSH1 0x40 MSTORE DUP1 PUSH1 0x22 DUP2 MSTORE PUSH1 0x20 ADD PUSH2 0x330B PUSH1 0x22 SWAP2 CODECOPY PUSH1 0x1 PUSH1 0x1 PUSH1 0xA0 SHL SUB DUP6 AND PUSH1 0x0 SWAP1 DUP2 MSTORE PUSH1 0x2 PUSH1 0x20 MSTORE PUSH1 0x40 SWAP1 KECCAK256 SLOAD SWAP2 SWAP1 PUSH2 0x23B0 JUMP JUMPDEST PUSH1 0x1 PUSH1 0x1 PUSH1 0xA0 SHL SUB DUP4 AND PUSH1 0x0 SWAP1 DUP2 MSTORE PUSH1 0x2 PUSH1 0x20 MSTORE PUSH1 0x40 SWAP1 KECCAK256 SSTORE PUSH1 0x4 SLOAD PUSH2 0x2577 SWAP1 DUP3 PUSH2 0x25DE JUMP JUMPDEST PUSH1 0x4 SSTORE PUSH1 0x40 DUP1 MLOAD DUP3 DUP2 MSTORE SWAP1 MLOAD PUSH1 0x0 SWAP2 PUSH1 0x1 PUSH1 0x1 PUSH1 0xA0 SHL SUB DUP6 AND SWAP2 PUSH32 0xDDF252AD1BE2C89B69C2B068FC378DAA952BA7F163C4A11628F55A4DF523B3EF SWAP2 DUP2 SWAP1 SUB PUSH1 0x20 ADD SWAP1 LOG3 POP POP JUMP JUMPDEST PUSH1 0x0 DUP1 PUSH2 0x2215 PUSH3 0xF4240 PUSH2 0xA69 PUSH1 0x18 SLOAD DUP7 PUSH2 0x21BC SWAP1 SWAP2 SWAP1 PUSH4 0xFFFFFFFF AND JUMP JUMPDEST PUSH1 0x0 PUSH2 0x2215 DUP4 DUP4 PUSH1 0x40 MLOAD DUP1 PUSH1 0x40 ADD PUSH1 0x40 MSTORE DUP1 PUSH1 0x1E DUP2 MSTORE PUSH1 0x20 ADD PUSH32 0x536166654D6174683A207375627472616374696F6E206F766572666C6F770000 DUP2 MSTORE POP PUSH2 0x23B0 JUMP JUMPDEST PUSH2 0x155B DUP2 PUSH2 0x2F5B JUMP JUMPDEST PUSH1 0x40 DUP1 MLOAD PUSH1 0x1 PUSH1 0x1 PUSH1 0xA0 SHL SUB DUP5 AND PUSH1 0x24 DUP3 ADD MSTORE PUSH1 0x44 DUP1 DUP3 ADD DUP5 SWAP1 MSTORE DUP3 MLOAD DUP1 DUP4 SUB SWAP1 SWAP2 ADD DUP2 MSTORE PUSH1 0x64 SWAP1 SWAP2 ADD SWAP1 SWAP2 MSTORE PUSH1 0x20 DUP2 ADD DUP1 MLOAD PUSH1 0x1 PUSH1 0x1 PUSH1 0xE0 SHL SUB AND PUSH4 0xA9059CBB PUSH1 0xE0 SHL OR SWAP1 MSTORE PUSH2 0x153B SWAP1 DUP5 SWAP1 PUSH2 0x2D3E JUMP JUMPDEST PUSH1 0x0 DUP3 DUP3 ADD DUP4 DUP2 LT ISZERO PUSH2 0x2215 JUMPI PUSH1 0x40 DUP1 MLOAD PUSH3 0x461BCD PUSH1 0xE5 SHL DUP2 MSTORE PUSH1 0x20 PUSH1 0x4 DUP3 ADD MSTORE PUSH1 0x1B PUSH1 0x24 DUP3 ADD MSTORE PUSH32 0x536166654D6174683A206164646974696F6E206F766572666C6F770000000000 PUSH1 0x44 DUP3 ADD MSTORE SWAP1 MLOAD SWAP1 DUP2 SWAP1 SUB PUSH1 0x64 ADD SWAP1 REVERT JUMPDEST PUSH1 0xB SLOAD PUSH1 0xC SLOAD PUSH1 0x40 DUP1 MLOAD PUSH4 0x70A08231 PUSH1 0xE0 SHL DUP2 MSTORE PUSH1 0x1 PUSH1 0x1 PUSH1 0xA0 SHL SUB SWAP3 DUP4 AND PUSH1 0x4 DUP3 ADD MSTORE SWAP1 MLOAD PUSH1 0x0 SWAP4 DUP5 SWAP4 AND SWAP2 PUSH4 0x70A08231 SWAP2 PUSH1 0x24 DUP1 DUP4 ADD SWAP3 PUSH1 0x20 SWAP3 SWAP2 SWAP1 DUP3 SWAP1 SUB ADD DUP2 DUP7 DUP1 EXTCODESIZE ISZERO DUP1 ISZERO PUSH2 0xEF0 JUMPI PUSH1 0x0 DUP1 REVERT JUMPDEST PUSH1 0x0 PUSH2 0x273E PUSH1 0x17 SLOAD TIMESTAMP PUSH2 0x25DE SWAP1 SWAP2 SWAP1 PUSH4 0xFFFFFFFF AND JUMP JUMPDEST SWAP1 POP PUSH1 0x0 PUSH2 0x2756 PUSH1 0x3C PUSH2 0x1342 DUP2 DUP2 PUSH2 0x16D PUSH1 0x18 PUSH2 0x21BC JUMP JUMPDEST SWAP1 POP PUSH1 0x0 PUSH2 0x277D DUP3 PUSH2 0xA69 PUSH3 0xF4240 PUSH2 0xA69 PUSH2 0x2770 PUSH2 0xA77 JUMP JUMPDEST PUSH1 0x16 SLOAD PUSH2 0x1342 SWAP1 DUP11 PUSH2 0x21BC JUMP JUMPDEST SWAP1 POP PUSH2 0x2790 PUSH2 0x278A PUSH2 0x15B6 JUMP JUMPDEST DUP3 PUSH2 0x2B26 JUMP JUMPDEST POP POP TIMESTAMP PUSH1 0x17 SSTORE POP JUMP JUMPDEST PUSH2 0x155B DUP2 PUSH2 0x2FBE JUMP JUMPDEST PUSH1 0x0 PUSH2 0x27AC PUSH2 0x26D5 JUMP JUMPDEST SWAP1 POP PUSH1 0x0 PUSH2 0x27B8 PUSH2 0x155E JUMP JUMPDEST SWAP1 POP PUSH1 0x0 PUSH2 0x27E0 PUSH3 0xF4240 PUSH2 0xA69 DUP5 PUSH2 0xA69 PUSH1 0x8 SLOAD PUSH2 0x1342 DUP10 DUP12 PUSH2 0x21BC SWAP1 SWAP2 SWAP1 PUSH4 0xFFFFFFFF AND JUMP JUMPDEST SWAP1 POP PUSH2 0x27F9 DUP5 DUP3 PUSH2 0x27EF PUSH2 0x301F JUMP JUMPDEST ADDRESS TIMESTAMP PUSH1 0x78 ADD PUSH2 0x30A5 JUMP JUMPDEST POP POP POP POP JUMP JUMPDEST PUSH1 0xB SLOAD PUSH1 0x40 DUP1 MLOAD PUSH4 0x70A08231 PUSH1 0xE0 SHL DUP2 MSTORE ADDRESS PUSH1 0x4 DUP3 ADD MSTORE SWAP1 MLOAD PUSH1 0x0 SWAP3 PUSH1 0x1 PUSH1 0x1 PUSH1 0xA0 SHL SUB AND SWAP2 PUSH4 0x70A08231 SWAP2 PUSH1 0x24 DUP1 DUP4 ADD SWAP3 PUSH1 0x20 SWAP3 SWAP2 SWAP1 DUP3 SWAP1 SUB ADD DUP2 DUP7 DUP1 EXTCODESIZE ISZERO DUP1 ISZERO PUSH2 0x284A JUMPI PUSH1 0x0 DUP1 REVERT JUMPDEST POP GAS STATICCALL ISZERO DUP1 ISZERO PUSH2 0x285E JUMPI RETURNDATASIZE PUSH1 0x0 DUP1 RETURNDATACOPY RETURNDATASIZE PUSH1 0x0 REVERT JUMPDEST POP POP POP POP PUSH1 0x40 MLOAD RETURNDATASIZE PUSH1 0x20 DUP2 LT ISZERO PUSH2 0x2874 JUMPI PUSH1 0x0 DUP1 REVERT JUMPDEST POP MLOAD SWAP1 POP DUP1 PUSH2 0x2883 JUMPI POP PUSH2 0xDF2 JUMP JUMPDEST PUSH1 0x0 PUSH2 0x288E ADDRESS PUSH2 0x2447 JUMP JUMPDEST SWAP1 POP DUP1 DUP3 LT ISZERO PUSH2 0x28A6 JUMPI PUSH2 0x28A1 DUP3 PUSH2 0x3178 JUMP JUMPDEST PUSH2 0xD20 JUMP JUMPDEST PUSH2 0xD20 DUP2 PUSH2 0x3178 JUMP JUMPDEST PUSH1 0x0 DUP1 PUSH2 0x28BA PUSH2 0x26D5 JUMP JUMPDEST SWAP1 POP PUSH1 0x0 PUSH2 0x28C6 PUSH2 0x155E JUMP JUMPDEST SWAP1 POP PUSH1 0x0 PUSH2 0x28D8 DUP3 PUSH2 0xA69 DUP8 DUP7 PUSH2 0x21BC JUMP JUMPDEST SWAP1 POP PUSH2 0xE87 DUP2 PUSH2 0x31C5 JUMP JUMPDEST PUSH1 0x0 PUSH2 0x28ED PUSH2 0x26D5 JUMP JUMPDEST SWAP1 POP PUSH1 0x0 PUSH2 0x28F9 PUSH2 0x155E JUMP JUMPDEST SWAP1 POP PUSH1 0x0 PUSH2 0x2921 DUP4 PUSH2 0xA69 PUSH3 0xF4240 PUSH2 0xA69 PUSH1 0x8 SLOAD PUSH2 0x1342 DUP9 DUP12 PUSH2 0x21BC SWAP1 SWAP2 SWAP1 PUSH4 0xFFFFFFFF AND JUMP JUMPDEST SWAP1 POP PUSH2 0x27F9 DUP5 DUP3 PUSH2 0x27EF PUSH2 0x31CE JUMP JUMPDEST PUSH2 0x155B DUP2 PUSH2 0x3237 JUMP JUMPDEST PUSH1 0x0 PUSH2 0x2943 PUSH2 0xE48 JUMP JUMPDEST PUSH1 0x1 PUSH1 0x1 PUSH1 0xA0 SHL SUB AND PUSH4 0x182DF0F5 PUSH1 0x40 MLOAD DUP2 PUSH4 0xFFFFFFFF AND PUSH1 0xE0 SHL DUP2 MSTORE PUSH1 0x4 ADD PUSH1 0x20 PUSH1 0x40 MLOAD DUP1 DUP4 SUB DUP2 DUP7 DUP1 EXTCODESIZE ISZERO DUP1 ISZERO PUSH2 0x1C18 JUMPI PUSH1 0x0 DUP1 REVERT JUMPDEST PUSH1 0x5 PUSH1 0x0 DUP1 JUMPDEST DUP3 DUP2 LT ISZERO PUSH2 0x2A97 JUMPI PUSH1 0xA SLOAD PUSH1 0x40 DUP1 MLOAD PUSH4 0x70A08231 PUSH1 0xE0 SHL DUP2 MSTORE ADDRESS PUSH1 0x4 DUP3 ADD MSTORE SWAP1 MLOAD PUSH1 0x0 SWAP3 PUSH1 0x1 PUSH1 0x1 PUSH1 0xA0 SHL SUB AND SWAP2 PUSH4 0x70A08231 SWAP2 PUSH1 0x24 DUP1 DUP4 ADD SWAP3 PUSH1 0x20 SWAP3 SWAP2 SWAP1 DUP3 SWAP1 SUB ADD DUP2 DUP7 DUP1 EXTCODESIZE ISZERO DUP1 ISZERO PUSH2 0x29D4 JUMPI PUSH1 0x0 DUP1 REVERT JUMPDEST POP GAS STATICCALL ISZERO DUP1 ISZERO PUSH2 0x29E8 JUMPI RETURNDATASIZE PUSH1 0x0 DUP1 RETURNDATACOPY RETURNDATASIZE PUSH1 0x0 REVERT JUMPDEST POP POP POP POP PUSH1 0x40 MLOAD RETURNDATASIZE PUSH1 0x20 DUP2 LT ISZERO PUSH2 0x29FE JUMPI PUSH1 0x0 DUP1 REVERT JUMPDEST POP MLOAD SWAP1 POP PUSH2 0x2A0C DUP2 DUP7 PUSH2 0x25DE JUMP JUMPDEST SWAP3 POP PUSH2 0x2A17 DUP4 PUSH2 0x2930 JUMP JUMPDEST PUSH1 0x0 PUSH2 0x2A35 PUSH3 0xF4240 PUSH2 0xA69 PUSH1 0x1B SLOAD DUP8 PUSH2 0x21BC SWAP1 SWAP2 SWAP1 PUSH4 0xFFFFFFFF AND JUMP JUMPDEST SWAP1 POP PUSH2 0x2A40 DUP2 PUSH2 0x28AF JUMP JUMPDEST POP PUSH1 0xB SLOAD PUSH1 0x40 DUP1 MLOAD PUSH4 0x70A08231 PUSH1 0xE0 SHL DUP2 MSTORE ADDRESS PUSH1 0x4 DUP3 ADD MSTORE SWAP1 MLOAD PUSH2 0x2A8D SWAP3 PUSH1 0x1 PUSH1 0x1 PUSH1 0xA0 SHL SUB AND SWAP2 PUSH4 0x70A08231 SWAP2 PUSH1 0x24 DUP1 DUP4 ADD SWAP3 PUSH1 0x20 SWAP3 SWAP2 SWAP1 DUP3 SWAP1 SUB ADD DUP2 DUP7 DUP1 EXTCODESIZE ISZERO DUP1 ISZERO PUSH2 0x13FE JUMPI PUSH1 0x0 DUP1 REVERT JUMPDEST POP POP PUSH1 0x1 ADD PUSH2 0x2981 JUMP JUMPDEST POP PUSH1 0xA SLOAD PUSH1 0x40 DUP1 MLOAD PUSH4 0x70A08231 PUSH1 0xE0 SHL DUP2 MSTORE ADDRESS PUSH1 0x4 DUP3 ADD MSTORE SWAP1 MLOAD PUSH1 0x0 SWAP3 PUSH1 0x1 PUSH1 0x1 PUSH1 0xA0 SHL SUB AND SWAP2 PUSH4 0x70A08231 SWAP2 PUSH1 0x24 DUP1 DUP4 ADD SWAP3 PUSH1 0x20 SWAP3 SWAP2 SWAP1 DUP3 SWAP1 SUB ADD DUP2 DUP7 DUP1 EXTCODESIZE ISZERO DUP1 ISZERO PUSH2 0x2AE3 JUMPI PUSH1 0x0 DUP1 REVERT JUMPDEST POP GAS STATICCALL ISZERO DUP1 ISZERO PUSH2 0x2AF7 JUMPI RETURNDATASIZE PUSH1 0x0 DUP1 RETURNDATACOPY RETURNDATASIZE PUSH1 0x0 REVERT JUMPDEST POP POP POP POP PUSH1 0x40 MLOAD RETURNDATASIZE PUSH1 0x20 DUP2 LT ISZERO PUSH2 0x2B0D JUMPI PUSH1 0x0 DUP1 REVERT JUMPDEST POP MLOAD SWAP1 POP PUSH2 0x2B1B DUP2 DUP6 PUSH2 0x25DE JUMP JUMPDEST SWAP2 POP PUSH2 0x27F9 DUP3 PUSH2 0x2930 JUMP JUMPDEST PUSH1 0x1 PUSH1 0x1 PUSH1 0xA0 SHL SUB DUP3 AND PUSH2 0x2B81 JUMPI PUSH1 0x40 DUP1 MLOAD PUSH3 0x461BCD PUSH1 0xE5 SHL DUP2 MSTORE PUSH1 0x20 PUSH1 0x4 DUP3 ADD MSTORE PUSH1 0x1F PUSH1 0x24 DUP3 ADD MSTORE PUSH32 0x45524332303A206D696E7420746F20746865207A65726F206164647265737300 PUSH1 0x44 DUP3 ADD MSTORE SWAP1 MLOAD SWAP1 DUP2 SWAP1 SUB PUSH1 0x64 ADD SWAP1 REVERT JUMPDEST PUSH1 0x4 SLOAD PUSH2 0x2B8E SWAP1 DUP3 PUSH2 0x267B JUMP JUMPDEST PUSH1 0x4 SSTORE PUSH1 0x1 PUSH1 0x1 PUSH1 0xA0 SHL SUB DUP3 AND PUSH1 0x0 SWAP1 DUP2 MSTORE PUSH1 0x2 PUSH1 0x20 MSTORE PUSH1 0x40 SWAP1 KECCAK256 SLOAD PUSH2 0x2BB4 SWAP1 DUP3 PUSH2 0x267B JUMP JUMPDEST PUSH1 0x1 PUSH1 0x1 PUSH1 0xA0 SHL SUB DUP4 AND PUSH1 0x0 DUP2 DUP2 MSTORE PUSH1 0x2 PUSH1 0x20 SWAP1 DUP2 MSTORE PUSH1 0x40 DUP1 DUP4 KECCAK256 SWAP5 SWAP1 SWAP5 SSTORE DUP4 MLOAD DUP6 DUP2 MSTORE SWAP4 MLOAD SWAP3 SWAP4 SWAP2 SWAP3 PUSH32 0xDDF252AD1BE2C89B69C2B068FC378DAA952BA7F163C4A11628F55A4DF523B3EF SWAP3 DUP2 SWAP1 SUB SWAP1 SWAP2 ADD SWAP1 LOG3 POP POP JUMP JUMPDEST PUSH1 0x0 PUSH2 0x2C16 PUSH2 0x1F1F JUMP JUMPDEST PUSH1 0x1 PUSH1 0x1 PUSH1 0xA0 SHL SUB AND PUSH4 0x93F1A40B DUP5 DUP5 PUSH1 0x40 MLOAD DUP4 PUSH4 0xFFFFFFFF AND PUSH1 0xE0 SHL DUP2 MSTORE PUSH1 0x4 ADD DUP1 DUP4 DUP2 MSTORE PUSH1 0x20 ADD DUP3 PUSH1 0x1 PUSH1 0x1 PUSH1 0xA0 SHL SUB AND DUP2 MSTORE PUSH1 0x20 ADD SWAP3 POP POP POP PUSH1 0x20 PUSH1 0x40 MLOAD DUP1 DUP4 SUB DUP2 DUP7 DUP1 EXTCODESIZE ISZERO DUP1 ISZERO PUSH2 0x2C6A JUMPI PUSH1 0x0 DUP1 REVERT JUMPDEST POP GAS STATICCALL ISZERO DUP1 ISZERO PUSH2 0x2C7E JUMPI RETURNDATASIZE PUSH1 0x0 DUP1 RETURNDATACOPY RETURNDATASIZE PUSH1 0x0 REVERT JUMPDEST POP POP POP POP PUSH1 0x40 MLOAD RETURNDATASIZE PUSH1 0x20 DUP2 LT ISZERO PUSH2 0x2C94 JUMPI PUSH1 0x0 DUP1 REVERT JUMPDEST POP MLOAD SWAP4 SWAP3 POP POP POP JUMP JUMPDEST PUSH1 0x1 PUSH1 0x1 PUSH1 0xA0 SHL SUB DUP2 AND PUSH2 0x2CE2 JUMPI PUSH1 0x40 MLOAD PUSH3 0x461BCD PUSH1 0xE5 SHL DUP2 MSTORE PUSH1 0x4 ADD DUP1 DUP1 PUSH1 0x20 ADD DUP3 DUP2 SUB DUP3 MSTORE PUSH1 0x26 DUP2 MSTORE PUSH1 0x20 ADD DUP1 PUSH2 0x332D PUSH1 0x26 SWAP2 CODECOPY PUSH1 0x40 ADD SWAP2 POP POP PUSH1 0x40 MLOAD DUP1 SWAP2 SUB SWAP1 REVERT JUMPDEST PUSH1 0x1 SLOAD PUSH1 0x40 MLOAD PUSH1 0x1 PUSH1 0x1 PUSH1 0xA0 SHL SUB DUP1 DUP5 AND SWAP3 AND SWAP1 PUSH32 0x8BE0079C531659141344CD1FD0A4F28419497F9722A3DAAFE3B4186F6B6457E0 SWAP1 PUSH1 0x0 SWAP1 LOG3 PUSH1 0x1 DUP1 SLOAD PUSH1 0x1 PUSH1 0x1 PUSH1 0xA0 SHL SUB NOT AND PUSH1 0x1 PUSH1 0x1 PUSH1 0xA0 SHL SUB SWAP3 SWAP1 SWAP3 AND SWAP2 SWAP1 SWAP2 OR SWAP1 SSTORE JUMP JUMPDEST PUSH2 0x2D50 DUP3 PUSH1 0x1 PUSH1 0x1 PUSH1 0xA0 SHL SUB AND PUSH2 0x2095 JUMP JUMPDEST PUSH2 0x2DA1 JUMPI PUSH1 0x40 DUP1 MLOAD PUSH3 0x461BCD PUSH1 0xE5 SHL DUP2 MSTORE PUSH1 0x20 PUSH1 0x4 DUP3 ADD MSTORE PUSH1 0x1F PUSH1 0x24 DUP3 ADD MSTORE PUSH32 0x5361666545524332303A2063616C6C20746F206E6F6E2D636F6E747261637400 PUSH1 0x44 DUP3 ADD MSTORE SWAP1 MLOAD SWAP1 DUP2 SWAP1 SUB PUSH1 0x64 ADD SWAP1 REVERT JUMPDEST PUSH1 0x0 PUSH1 0x60 DUP4 PUSH1 0x1 PUSH1 0x1 PUSH1 0xA0 SHL SUB AND DUP4 PUSH1 0x40 MLOAD DUP1 DUP3 DUP1 MLOAD SWAP1 PUSH1 0x20 ADD SWAP1 DUP1 DUP4 DUP4 JUMPDEST PUSH1 0x20 DUP4 LT PUSH2 0x2DDF JUMPI DUP1 MLOAD DUP3 MSTORE PUSH1 0x1F NOT SWAP1 SWAP3 ADD SWAP2 PUSH1 0x20 SWAP2 DUP3 ADD SWAP2 ADD PUSH2 0x2DC0 JUMP JUMPDEST PUSH1 0x1 DUP4 PUSH1 0x20 SUB PUSH2 0x100 EXP SUB DUP1 NOT DUP3 MLOAD AND DUP2 DUP5 MLOAD AND DUP1 DUP3 OR DUP6 MSTORE POP POP POP POP POP POP SWAP1 POP ADD SWAP2 POP POP PUSH1 0x0 PUSH1 0x40 MLOAD DUP1 DUP4 SUB DUP2 PUSH1 0x0 DUP7 GAS CALL SWAP2 POP POP RETURNDATASIZE DUP1 PUSH1 0x0 DUP2 EQ PUSH2 0x2E41 JUMPI PUSH1 0x40 MLOAD SWAP2 POP PUSH1 0x1F NOT PUSH1 0x3F RETURNDATASIZE ADD AND DUP3 ADD PUSH1 0x40 MSTORE RETURNDATASIZE DUP3 MSTORE RETURNDATASIZE PUSH1 0x0 PUSH1 0x20 DUP5 ADD RETURNDATACOPY PUSH2 0x2E46 JUMP JUMPDEST PUSH1 0x60 SWAP2 POP JUMPDEST POP SWAP2 POP SWAP2 POP DUP2 PUSH2 0x2E9D JUMPI PUSH1 0x40 DUP1 MLOAD PUSH3 0x461BCD PUSH1 0xE5 SHL DUP2 MSTORE PUSH1 0x20 PUSH1 0x4 DUP3 ADD DUP2 SWAP1 MSTORE PUSH1 0x24 DUP3 ADD MSTORE PUSH32 0x5361666545524332303A206C6F772D6C6576656C2063616C6C206661696C6564 PUSH1 0x44 DUP3 ADD MSTORE SWAP1 MLOAD SWAP1 DUP2 SWAP1 SUB PUSH1 0x64 ADD SWAP1 REVERT JUMPDEST DUP1 MLOAD ISZERO PUSH2 0x27F9 JUMPI DUP1 DUP1 PUSH1 0x20 ADD SWAP1 MLOAD PUSH1 0x20 DUP2 LT ISZERO PUSH2 0x2EB9 JUMPI PUSH1 0x0 DUP1 REVERT JUMPDEST POP MLOAD PUSH2 0x27F9 JUMPI PUSH1 0x40 MLOAD PUSH3 0x461BCD PUSH1 0xE5 SHL DUP2 MSTORE PUSH1 0x4 ADD DUP1 DUP1 PUSH1 0x20 ADD DUP3 DUP2 SUB DUP3 MSTORE PUSH1 0x2A DUP2 MSTORE PUSH1 0x20 ADD DUP1 PUSH2 0x344E PUSH1 0x2A SWAP2 CODECOPY PUSH1 0x40 ADD SWAP2 POP POP PUSH1 0x40 MLOAD DUP1 SWAP2 SUB SWAP1 REVERT JUMPDEST PUSH1 0x0 DUP2 DUP4 PUSH2 0x2F45 JUMPI PUSH1 0x40 MLOAD PUSH3 0x461BCD PUSH1 0xE5 SHL DUP2 MSTORE PUSH1 0x20 PUSH1 0x4 DUP3 ADD DUP2 DUP2 MSTORE DUP4 MLOAD PUSH1 0x24 DUP5 ADD MSTORE DUP4 MLOAD SWAP1 SWAP3 DUP4 SWAP3 PUSH1 0x44 SWAP1 SWAP2 ADD SWAP2 SWAP1 DUP6 ADD SWAP1 DUP1 DUP4 DUP4 PUSH1 0x0 DUP4 ISZERO PUSH2 0x2404 JUMPI DUP2 DUP2 ADD MLOAD DUP4 DUP3 ADD MSTORE PUSH1 0x20 ADD PUSH2 0x23EC JUMP JUMPDEST POP PUSH1 0x0 DUP4 DUP6 DUP2 PUSH2 0x2F51 JUMPI INVALID JUMPDEST DIV SWAP6 SWAP5 POP POP POP POP POP JUMP JUMPDEST PUSH1 0x0 PUSH1 0xA DUP2 JUMPDEST DUP2 DUP2 LT ISZERO PUSH2 0x27F9 JUMPI DUP3 PUSH2 0x2FB6 JUMPI PUSH1 0x0 PUSH2 0x2F7B PUSH2 0x131F PUSH2 0x1CEA JUMP JUMPDEST SWAP1 POP DUP5 DUP2 LT PUSH2 0x2F92 JUMPI PUSH2 0x2F8D DUP6 PUSH2 0x2799 JUMP JUMPDEST PUSH1 0x1 SWAP4 POP JUMPDEST DUP5 DUP2 LT ISZERO PUSH2 0x2FB4 JUMPI PUSH2 0x2FA3 DUP2 PUSH2 0x2799 JUMP JUMPDEST PUSH2 0x2FAC DUP2 PUSH2 0x27A2 JUMP JUMPDEST PUSH2 0x2FB4 PUSH2 0x27FF JUMP JUMPDEST POP JUMPDEST PUSH1 0x1 ADD PUSH2 0x2F61 JUMP JUMPDEST PUSH2 0x2FC6 PUSH2 0xE48 JUMP JUMPDEST PUSH1 0x1 PUSH1 0x1 PUSH1 0xA0 SHL SUB AND PUSH4 0x852A12E3 DUP3 PUSH1 0x40 MLOAD DUP3 PUSH4 0xFFFFFFFF AND PUSH1 0xE0 SHL DUP2 MSTORE PUSH1 0x4 ADD DUP1 DUP3 DUP2 MSTORE PUSH1 0x20 ADD SWAP2 POP POP PUSH1 0x0 PUSH1 0x40 MLOAD DUP1 DUP4 SUB DUP2 PUSH1 0x0 DUP8 DUP1 EXTCODESIZE ISZERO DUP1 ISZERO PUSH2 0x300B JUMPI PUSH1 0x0 DUP1 REVERT JUMPDEST POP GAS CALL ISZERO DUP1 ISZERO PUSH2 0x1538 JUMPI RETURNDATASIZE PUSH1 0x0 DUP1 RETURNDATACOPY RETURNDATASIZE PUSH1 0x0 REVERT JUMPDEST PUSH1 0x40 DUP1 MLOAD PUSH1 0x2 DUP1 DUP3 MSTORE PUSH1 0x60 DUP1 DUP4 ADD DUP5 MSTORE SWAP3 DUP4 SWAP3 SWAP2 SWAP1 PUSH1 0x20 DUP4 ADD SWAP1 DUP1 CALLDATASIZE DUP4 CALLDATACOPY POP POP PUSH1 0xA SLOAD DUP3 MLOAD SWAP3 SWAP4 POP PUSH1 0x1 PUSH1 0x1 PUSH1 0xA0 SHL SUB AND SWAP2 DUP4 SWAP2 POP PUSH1 0x0 SWAP1 PUSH2 0x305D JUMPI INVALID JUMPDEST PUSH1 0x1 PUSH1 0x1 PUSH1 0xA0 SHL SUB SWAP3 DUP4 AND PUSH1 0x20 SWAP2 DUP3 MUL SWAP3 SWAP1 SWAP3 ADD ADD MSTORE PUSH1 0xB SLOAD DUP3 MLOAD SWAP2 AND SWAP1 DUP3 SWAP1 PUSH1 0x1 SWAP1 DUP2 LT PUSH2 0x3088 JUMPI INVALID JUMPDEST PUSH1 0x1 PUSH1 0x1 PUSH1 0xA0 SHL SUB SWAP1 SWAP3 AND PUSH1 0x20 SWAP3 DUP4 MUL SWAP2 SWAP1 SWAP2 ADD SWAP1 SWAP2 ADD MSTORE SWAP1 POP SWAP1 JUMP JUMPDEST PUSH2 0x30AD PUSH2 0xD2D JUMP JUMPDEST PUSH1 0x1 PUSH1 0x1 PUSH1 0xA0 SHL SUB AND PUSH4 0x38ED1739 DUP7 DUP7 DUP7 DUP7 DUP7 PUSH1 0x40 MLOAD DUP7 PUSH4 0xFFFFFFFF AND PUSH1 0xE0 SHL DUP2 MSTORE PUSH1 0x4 ADD DUP1 DUP7 DUP2 MSTORE PUSH1 0x20 ADD DUP6 DUP2 MSTORE PUSH1 0x20 ADD DUP1 PUSH1 0x20 ADD DUP5 PUSH1 0x1 PUSH1 0x1 PUSH1 0xA0 SHL SUB AND DUP2 MSTORE PUSH1 0x20 ADD DUP4 DUP2 MSTORE PUSH1 0x20 ADD DUP3 DUP2 SUB DUP3 MSTORE DUP6 DUP2 DUP2 MLOAD DUP2 MSTORE PUSH1 0x20 ADD SWAP2 POP DUP1 MLOAD SWAP1 PUSH1 0x20 ADD SWAP1 PUSH1 0x20 MUL DUP1 DUP4 DUP4 PUSH1 0x0 JUMPDEST DUP4 DUP2 LT ISZERO PUSH2 0x3130 JUMPI DUP2 DUP2 ADD MLOAD DUP4 DUP3 ADD MSTORE PUSH1 0x20 ADD PUSH2 0x3118 JUMP JUMPDEST POP POP POP POP SWAP1 POP ADD SWAP7 POP POP POP POP POP POP POP PUSH1 0x0 PUSH1 0x40 MLOAD DUP1 DUP4 SUB DUP2 PUSH1 0x0 DUP8 DUP1 EXTCODESIZE ISZERO DUP1 ISZERO PUSH2 0x3159 JUMPI PUSH1 0x0 DUP1 REVERT JUMPDEST POP GAS CALL ISZERO DUP1 ISZERO PUSH2 0x316D JUMPI RETURNDATASIZE PUSH1 0x0 DUP1 RETURNDATACOPY RETURNDATASIZE PUSH1 0x0 REVERT JUMPDEST POP POP POP POP POP POP POP POP POP JUMP JUMPDEST PUSH2 0x3180 PUSH2 0x1934 JUMP JUMPDEST PUSH1 0x1 PUSH1 0x1 PUSH1 0xA0 SHL SUB AND PUSH4 0xE752702 DUP3 PUSH1 0x40 MLOAD DUP3 PUSH4 0xFFFFFFFF AND PUSH1 0xE0 SHL DUP2 MSTORE PUSH1 0x4 ADD DUP1 DUP3 DUP2 MSTORE PUSH1 0x20 ADD SWAP2 POP POP PUSH1 0x0 PUSH1 0x40 MLOAD DUP1 DUP4 SUB DUP2 PUSH1 0x0 DUP8 DUP1 EXTCODESIZE ISZERO DUP1 ISZERO PUSH2 0x300B JUMPI PUSH1 0x0 DUP1 REVERT JUMPDEST PUSH2 0xD20 DUP2 PUSH2 0x3284 JUMP JUMPDEST PUSH1 0x40 DUP1 MLOAD PUSH1 0x2 DUP1 DUP3 MSTORE PUSH1 0x60 DUP1 DUP4 ADD DUP5 MSTORE SWAP3 DUP4 SWAP3 SWAP2 SWAP1 PUSH1 0x20 DUP4 ADD SWAP1 DUP1 CALLDATASIZE DUP4 CALLDATACOPY POP POP PUSH1 0xB SLOAD DUP3 MLOAD SWAP3 SWAP4 POP PUSH1 0x1 PUSH1 0x1 PUSH1 0xA0 SHL SUB AND SWAP2 DUP4 SWAP2 POP PUSH1 0x0 SWAP1 PUSH2 0x320C JUMPI INVALID JUMPDEST PUSH1 0x1 PUSH1 0x1 PUSH1 0xA0 SHL SUB SWAP3 DUP4 AND PUSH1 0x20 SWAP2 DUP3 MUL SWAP3 SWAP1 SWAP3 ADD ADD MSTORE PUSH1 0xA SLOAD DUP3 MLOAD SWAP2 AND SWAP1 DUP3 SWAP1 PUSH1 0x1 SWAP1 DUP2 LT PUSH2 0x3088 JUMPI INVALID JUMPDEST PUSH2 0x323F PUSH2 0xE48 JUMP JUMPDEST PUSH1 0x1 PUSH1 0x1 PUSH1 0xA0 SHL SUB AND PUSH4 0xA0712D68 DUP3 PUSH1 0x40 MLOAD DUP3 PUSH4 0xFFFFFFFF AND PUSH1 0xE0 SHL DUP2 MSTORE PUSH1 0x4 ADD DUP1 DUP3 DUP2 MSTORE PUSH1 0x20 ADD SWAP2 POP POP PUSH1 0x0 PUSH1 0x40 MLOAD DUP1 DUP4 SUB DUP2 PUSH1 0x0 DUP8 DUP1 EXTCODESIZE ISZERO DUP1 ISZERO PUSH2 0x300B JUMPI PUSH1 0x0 DUP1 REVERT JUMPDEST PUSH1 0x0 PUSH2 0x328E PUSH2 0x1934 JUMP JUMPDEST PUSH1 0x1 PUSH1 0x1 PUSH1 0xA0 SHL SUB AND PUSH4 0xC5EBEAEC DUP4 PUSH1 0x40 MLOAD DUP3 PUSH4 0xFFFFFFFF AND PUSH1 0xE0 SHL DUP2 MSTORE PUSH1 0x4 ADD DUP1 DUP3 DUP2 MSTORE PUSH1 0x20 ADD SWAP2 POP POP PUSH1 0x20 PUSH1 0x40 MLOAD DUP1 DUP4 SUB DUP2 PUSH1 0x0 DUP8 DUP1 EXTCODESIZE ISZERO DUP1 ISZERO PUSH2 0x32D3 JUMPI PUSH1 0x0 DUP1 REVERT JUMPDEST POP GAS CALL ISZERO DUP1 ISZERO PUSH2 0x24B1 JUMPI RETURNDATASIZE PUSH1 0x0 DUP1 RETURNDATACOPY RETURNDATASIZE PUSH1 0x0 REVERT INVALID GASLIMIT MSTORE NUMBER ORIGIN ADDRESS GASPRICE KECCAK256 PUSH21 0x72616E7366657220746F20746865207A65726F2061 PUSH5 0x6472657373 GASLIMIT MSTORE NUMBER ORIGIN ADDRESS GASPRICE KECCAK256 PUSH3 0x75726E KECCAK256 PUSH2 0x6D6F PUSH22 0x6E7420657863656564732062616C616E63654F776E61 PUSH3 0x6C653A KECCAK256 PUSH15 0x6577206F776E657220697320746865 KECCAK256 PUSH27 0x65726F206164647265737345524332303A20617070726F76652074 PUSH16 0x20746865207A65726F20616464726573 PUSH20 0x45524332303A207472616E7366657220616D6F75 PUSH15 0x7420657863656564732062616C616E PUSH4 0x65536166 PUSH6 0x4D6174683A20 PUSH14 0x756C7469706C69636174696F6E20 PUSH16 0x766572666C6F7745524332303A207472 PUSH2 0x6E73 PUSH7 0x657220616D6F75 PUSH15 0x74206578636565647320616C6C6F77 PUSH2 0x6E63 PUSH6 0x45524332303A KECCAK256 PUSH3 0x75726E KECCAK256 PUSH7 0x726F6D20746865 KECCAK256 PUSH27 0x65726F206164647265737345524332303A207472616E7366657220 PUSH7 0x726F6D20746865 KECCAK256 PUSH27 0x65726F206164647265737345524332303A20617070726F76652066 PUSH19 0x6F6D20746865207A65726F2061646472657373 MSTORE8 PUSH2 0x6665 GASLIMIT MSTORE NUMBER ORIGIN ADDRESS GASPRICE KECCAK256 GASLIMIT MSTORE NUMBER ORIGIN ADDRESS KECCAK256 PUSH16 0x7065726174696F6E20646964206E6F74 KECCAK256 PUSH20 0x7563636565645361666545524332303A20617070 PUSH19 0x6F76652066726F6D206E6F6E2D7A65726F2074 PUSH16 0x206E6F6E2D7A65726F20616C6C6F7761 PUSH15 0x636545524332303A20646563726561 PUSH20 0x656420616C6C6F77616E63652062656C6F77207A PUSH6 0x726FA2646970 PUSH7 0x7358221220C810 PUSH11 0x417E5EC9C82D23D820FC38 0xB9 MUL 0xE8 DUP7 PUSH25 0x6302E62872411104A6F1E81EBE64736F6C634300060C003300 ","sha1":"99ec45aa093f87ac362c23c77611fbfbd04c1c29","source":"// SPDX-License-Identifier: MIT\npragma solidity ^0.6.12;\nimport \"../farms/spooky.sol\";\nimport \"../lenders/scream.sol\";\nimport \"../token.sol\";\nimport \"../vaultHelpers.sol\";\n\ncontract ScreamUSDC is Scream {\n    function lendPlatform() public view override returns (address) {\n        return 0xE45Ac34E528907d0A0239ab5Db507688070B20bf;\n    }\n}\n\ncontract SpookyUSDC is Spooky {\n    function farmLP() public view override returns (address) {\n        return 0x2b4C76d0dc16BE1C31D4C1DC53bF9B45987Fc75c;\n    }\n    function farmPid() public view override returns (uint256) {\n        return 2;\n    }\n}\n    \ncontract leverageTest is ERC20, ERC20Detailed, ScreamUSDC, SpookyUSDC, RoboController {\n    using SafeMath for uint256;\n    address constant USDC = 0x04068DA6C83AFCFA0e13ba15A6696662335D5B75;\n    address constant WFTM = 0x21be370D5312f44cB42ce377BC9b8a0cEF1A4C83;\n    string constant baseSymbol = \"USDC\";\n    string constant shortSymbol = \"FTM\";\n\n    constructor() public \n        ERC20Detailed(\"LEVERAGETEST\", \"test\", 8)\n        RoboController(USDC, WFTM)\n    {}\n}","sourcePath":"contracts/vaults/USDCScreamSpooky.sol","deployment":{"address":"0xa22305B95D7060243f4B4415ae55B39aCf303fab","chainid":"250","blockHeight":15150603}}