{"bytecode":"60806040526200000e620004a5565b600980546001600160a01b0319166001600160a01b039290921691909117905562000038620004bd565b600a80546001600160a01b0319166001600160a01b039290921691909117905562000062620004d5565b600b80546001600160a01b0319166001600160a01b03929092169190911790556200008c620004ed565b600c80546001600160a01b0319166001600160a01b0392909216919091179055620000b662000505565b600d80546001600160a01b0319166001600160a01b0392909216919091179055620000e06200051d565b600e80546001600160a01b03929092166001600160a01b0319928316179055600f8054821673d074cdae76496d81fab83023fee4d8631898bbaf17905560108054909116737642604866b546b8ab759fcefb0c5c24b296b9251790556209eb1060115562055730601255620aae60601355620927c060145561c35060158190556301e13380601655611388601855601955600019601a553480156200018457600080fd5b507304068da6c83afcfa0e13ba15a6696662335d5b757321be370d5312f44cb42ce377bc9b8a0cef1a4c8381816040518060400160405280600c81526020016b13115591549051d1551154d560a21b815250604051806040016040528060048152602001631d195cdd60e21b815250600860016000819055506200020d6200053560201b60201c565b600180546001600160a01b0319166001600160a01b0392831617908190556040519116906000907f8be0079c531659141344cd1fd0a4f28419497f9722a3daafe3b4186f6b6457e0908290a382516200026e906005906020860190620009e7565b50815162000284906006906020850190620009e7565b50600780546001600160a01b0380881661010002610100600160a81b031960ff90951660ff199093169290921793909316179055600880549185166001600160a01b03199092169190911790555060009050620002e062000539565b604080516001808252818301909252919250606091906020808301908036833701905050905062000310620004ed565b816000815181106200031e57fe5b6001600160a01b03928316602091820292909201810191909152604051631853304760e31b8152600481018281528451602483015284519386169363c29982389386938392604490910191858101910280838360005b838110156200038e57818101518382015260200162000374565b5050505090500192505050600060405180830381600087803b158015620003b457600080fd5b505af1158015620003c9573d6000803e3d6000fd5b505050506040513d6000823e601f3d908101601f191682016040526020811015620003f357600080fd5b81019080805160405193929190846401000000008211156200041457600080fd5b9083019060208201858111156200042a57600080fd5b82518660208202830111640100000000821117156200044857600080fd5b82525081516020918201928201910280838360005b83811015620004775781810151838201526020016200045d565b505050509050016040525050505050505050620004996200055160201b60201c565b50504260175562000a83565b732b4c76d0dc16be1c31d4c1dc53bf9b45987fc75c90565b73ec7178f4c41f346b2721907f5cf7628e388a7a5890565b73841fad6eae12c286d1fd18d1d525dffa75c7effe90565b73e45ac34e528907d0a0239ab5db507688070b20bf90565b73e0654c8e6fd4d733349ac7e09f6f23da256bf47590565b7330872e4fc4edbfd7a352bfc2463eb4fae9c0908690565b3390565b73260e596dabe3afc463e75b6cc05d8c46acacfb0990565b600f546001600160a01b03163314806200058557506200057062000672565b6001600160a01b0316336001600160a01b0316145b6200058f57600080fd5b620005c46200059d620004ed565b60075461010090046001600160a01b03169060001962000681602090811b62001f0b17901c565b620005f4620005d2620007a5565b6008546001600160a01b03169060001962000681602090811b62001f0b17901c565b620006026200059d620007bd565b62000610620005d2620007bd565b620006406200061e620007bd565b600b546001600160a01b03169060001962000681602090811b62001f0b17901c565b620006706200064e620007bd565b600d546001600160a01b03169060001962000681602090811b62001f0b17901c565b565b6001546001600160a01b031690565b8015806200070b575060408051636eb1769f60e11b81523060048201526001600160a01b03848116602483015291519185169163dd62ed3e91604480820192602092909190829003018186803b158015620006db57600080fd5b505afa158015620006f0573d6000803e3d6000fd5b505050506040513d60208110156200070757600080fd5b5051155b620007485760405162461bcd60e51b815260040180806020018281038252603681526020018062003e916036913960400191505060405180910390fd5b604080516001600160a01b038416602482015260448082018490528251808303909101815260649091019091526020810180516001600160e01b0390811663095ea7b360e01b17909152620007a0918591620007d516565b505050565b735aa53f03197e08c4851cad8c92c7922da5857e5d90565b73f491e7b69e4244ad4002bc14e878a34207e38c2990565b620007f4826001600160a01b0316620009aa60201b6200201e1760201c565b62000846576040805162461bcd60e51b815260206004820152601f60248201527f5361666545524332303a2063616c6c20746f206e6f6e2d636f6e747261637400604482015290519081900360640190fd5b60006060836001600160a01b0316836040518082805190602001908083835b60208310620008865780518252601f19909201916020918201910162000865565b6001836020036101000a0380198251168184511680821785525050505050509050019150506000604051808303816000865af19150503d8060008114620008ea576040519150601f19603f3d011682016040523d82523d6000602084013e620008ef565b606091505b50915091508162000947576040805162461bcd60e51b815260206004820181905260248201527f5361666545524332303a206c6f772d6c6576656c2063616c6c206661696c6564604482015290519081900360640190fd5b805115620009a4578080602001905160208110156200096557600080fd5b5051620009a45760405162461bcd60e51b815260040180806020018281038252602a81526020018062003e67602a913960400191505060405180910390fd5b50505050565b6000813f7fc5d2460186f7233c927e7db2dcc703c0e500b653ca82273b7bfad8045d85a4708115801590620009df5750808214155b949350505050565b828054600181600116156101000203166002900490600052602060002090601f016020900481019282601f1062000a2a57805160ff191683800117855562000a5a565b8280016001018555821562000a5a579182015b8281111562000a5a57825182559160200191906001019062000a3d565b5062000a6892915062000a6c565b5090565b5b8082111562000a68576000815560010162000a6d565b6133d48062000a936000396000f3fe608060405234801561001057600080fd5b50600436106103e65760003560e01c80638da5cb5b1161020a578063c3b49f3d11610125578063e6e7114b116100b8578063f2fde38b11610087578063f2fde38b14610891578063f8c1e75e146108b7578063f8f079bb146108bf578063f9da3f75146108c7578063feb6848a146108cf576103e6565b8063e6e7114b14610871578063eb61c72a14610879578063ecf7085814610881578063f1a392da14610889576103e6565b8063d2d9a69d116100f4578063d2d9a69d14610816578063dd62ed3e14610833578063de5f626814610861578063e43e7b9414610869576103e6565b8063c3b49f3d146107b7578063c7b9d530146107bf578063cad20a29146107e5578063cec10c11146107ed576103e6565b8063aced16611161019d578063b6b55f251161016c578063b6b55f2514610782578063c089f5721461079f578063c1e32a3d146107a7578063c2442f93146107af576103e6565b8063aced166114610747578063ae263a1d1461074f578063b2ad2f0f14610757578063b574d2871461075f576103e6565b8063a457c2d7116101d9578063a457c2d7146106df578063a9059cbb1461070b578063a9b0ca3814610737578063a9c19c661461073f576103e6565b80638da5cb5b1461069e5780638f32d59b146106a657806394c04ced146106ae57806395d89b41146106d7576103e6565b80634d54e30711610305578063748747e61161029857806381117ff21161026757806381117ff214610676578063827907b41461067e578063853828b6146106865780638ad56bff1461068e5780638bc7e8c414610696576103e6565b8063748747e61461063857806377af8ceb1461065e57806377c7b8fc146106665780637845790c1461066e576103e6565b80636c1a35be116102d45780636c1a35be146105fa57806370a08231146106025780637137ef9914610628578063715018a614610630576103e6565b80634d54e307146105c55780635627f7b5146105e2578063668ecbf2146105ea57806368bde41f146105f2576103e6565b806323b872dd1161037d5780633268cc561161034c5780633268cc5614610581578063379afccc1461058957806339509351146105915780633ad184e4146105bd576103e6565b806323b872dd146105065780632cf4e4ee1461053c5780632e1a7d4d14610544578063313ce56714610563576103e6565b806318160ddd116103b957806318160ddd146104ca5780631a55f6eb146104d25780631fa98a80146104da5780631fe4a686146104e2576103e6565b806306fdde03146103eb578063095ea7b3146104685780630e04c946146104a857806311d1a392146104c2575b600080fd5b6103f36108d7565b6040805160208082528351818301528351919283929083019185019080838360005b8381101561042d578181015183820152602001610415565b50505050905090810190601f16801561045a5780820380516001836020036101000a031916815260200191505b509250505060405180910390f35b6104946004803603604081101561047e57600080fd5b506001600160a01b03813516906020013561096d565b604080519115158252519081900360200190f35b6104b061098b565b60408051918252519081900360200190f35b6104b0610991565b6104b0610a51565b6104b0610a57565b6104b0610a5d565b6104ea610a63565b604080516001600160a01b039092168252519081900360200190f35b6104946004803603606081101561051c57600080fd5b506001600160a01b03813581169160208101359091169060400135610a72565b6104b0610af9565b6105616004803603602081101561055a57600080fd5b5035610b0b565b005b61056b610d14565b6040805160ff9092168252519081900360200190f35b6104ea610d1d565b610561610d35565b610494600480360360408110156105a757600080fd5b506001600160a01b038135169060200135610de9565b6104ea610e37565b6104b0600480360360208110156105db57600080fd5b5035610e4f565b6104b0610e7e565b6104ea610f10565b6104ea610f28565b6104ea610f40565b6104b06004803603602081101561061857600080fd5b50356001600160a01b0316610f58565b6104b0610f73565b610561610fae565b6105616004803603602081101561064e57600080fd5b50356001600160a01b0316611051565b6105616110f2565b6104b06111c7565b6104b06111f8565b610561611280565b6104b0611527565b61056161152c565b6104b0611545565b6104b061159d565b6104ea6115a3565b6104946115b2565b610561600480360360608110156106c457600080fd5b50803590602081013590604001356115d8565b6103f3611644565b610494600480360360408110156106f557600080fd5b506001600160a01b0381351690602001356116a5565b6104946004803603604081101561072157600080fd5b506001600160a01b03813516906020013561170d565b6104b0611721565b6104b0611727565b6104ea6117c3565b6105616117d2565b6104ea6118dc565b6105616004803603604081101561077557600080fd5b50803590602001356118f4565b6105616004803603602081101561079857600080fd5b5035611982565b6104b0611b16565b6104ea611b1c565b6104ea611b34565b6104b0611b4c565b610561600480360360208110156107d557600080fd5b50356001600160a01b0316611bcd565b6104b0611c6e565b6105616004803603606081101561080357600080fd5b5080359060208101359060400135611c85565b6105616004803603602081101561082c57600080fd5b5035611cf6565b6104b06004803603604081101561084957600080fd5b506001600160a01b0381358116916020013516611d39565b610561611d64565b6104ea611deb565b6104b0611e03565b6104b0611e1a565b6104b0611e2e565b6104b0611e34565b610561600480360360208110156108a757600080fd5b50356001600160a01b0316611e3a565b6104b0611e9c565b6104b0611ea2565b6104ea611ea8565b6104b0611ec0565b60058054604080516020601f60026000196101006001881615020190951694909404938401819004810282018101909252828152606093909290918301828280156109635780601f1061093857610100808354040283529160200191610963565b820191906000526020600020905b81548152906001019060200180831161094657829003601f168201915b5050505050905090565b600061098161097a612055565b8484612059565b5060015b92915050565b60165481565b600080600760019054906101000a90046001600160a01b03166001600160a01b03166370a08231306040518263ffffffff1660e01b815260040180826001600160a01b0316815260200191505060206040518083038186803b1580156109f657600080fd5b505afa158015610a0a573d6000803e3d6000fd5b505050506040513d6020811015610a2057600080fd5b505190506000610a2e610f73565b90506000610a4982610a4385620f4240612145565b906121a5565b935050505090565b60045490565b60115481565b60125481565b600f546001600160a01b031681565b6000610a7f8484846121e7565b610aef84610a8b612055565b610aea85604051806060016040528060288152602001613288602891396001600160a01b038a16600090815260036020526040812090610ac9612055565b6001600160a01b031681526020810191909152604001600020549190612339565b612059565b5060019392505050565b600080610b05306123d0565b91505090565b600080546001019081905581610b68576040805162461bcd60e51b815260206004820152601f60248201527f7769746864726177206d7573742062652067726561746572207468616e203000604482015290519081900360640190fd5b6000610b7333610f58565b905080831115610bc1576040805162461bcd60e51b8152602060048201526014602482015273696e73756666696369656e742062616c616e636560601b604482015290519081900360640190fd5b6000610bcb610f73565b90506000610be4610bda610a51565b610a438488612145565b9050610bf03386612458565b600754604080516370a0823160e01b8152306004820152905160009261010090046001600160a01b0316916370a08231916024808301926020929190829003018186803b158015610c4057600080fd5b505afa158015610c54573d6000803e3d6000fd5b505050506040513d6020811015610c6a57600080fd5b5051905081811015610c9a576000610c8183612548565b9050610c8d8382612567565b9250610c98836125a9565b505b600754610cb69061010090046001600160a01b031633846125b2565b505050506000548114610d10576040805162461bcd60e51b815260206004820152601f60248201527f5265656e7472616e637947756172643a207265656e7472616e742063616c6c00604482015290519081900360640190fd5b5050565b60075460ff1690565b73f491e7b69e4244ad4002bc14e878a34207e38c2990565b600f546001600160a01b0316331480610d665750610d516115a3565b6001600160a01b0316336001600160a01b0316145b610d6f57600080fd5b610d93610d7a610e37565b60075461010090046001600160a01b0316906000611f0b565b610db2610d9e6118dc565b6008546001600160a01b0316906000611f0b565b610dbd610d7a610d1d565b610dc8610d9e610d1d565b610de7610dd3610d1d565b600b546001600160a01b0316906000611f0b565b565b6000610981610df6612055565b84610aea8560036000610e07612055565b6001600160a01b03908116825260208083019390935260409182016000908120918c168152925290205490612604565b73e45ac34e528907d0a0239ab5db507688070b20bf90565b600080610e5a61265e565b90506000610e66611545565b9050610e7682610a438684612145565b949350505050565b600754600090819061010090046001600160a01b03166370a08231610ea1610e37565b6040518263ffffffff1660e01b815260040180826001600160a01b0316815260200191505060206040518083038186803b158015610ede57600080fd5b505afa158015610ef2573d6000803e3d6000fd5b505050506040513d6020811015610f0857600080fd5b505191505090565b7330872e4fc4edbfd7a352bfc2463eb4fae9c0908690565b73260e596dabe3afc463e75b6cc05d8c46acacfb0990565b732b4c76d0dc16be1c31d4c1dc53bf9b45987fc75c90565b6001600160a01b031660009081526002602052604090205490565b600080610f7e611727565b90506000610f8a611b4c565b90506000610f96611c6e565b90506000610fa26111f8565b92909301030191505090565b610fb66115b2565b611007576040805162461bcd60e51b815260206004820181905260248201527f4f776e61626c653a2063616c6c6572206973206e6f7420746865206f776e6572604482015290519081900360640190fd5b6001546040516000916001600160a01b0316907f8be0079c531659141344cd1fd0a4f28419497f9722a3daafe3b4186f6b6457e0908390a3600180546001600160a01b0319169055565b600f546001600160a01b0316331480611082575061106d6115a3565b6001600160a01b0316336001600160a01b0316145b61108b57600080fd5b6001600160a01b03811661109e57600080fd5b601080546001600160a01b0383166001600160a01b0319909116811790915560408051918252517f2f202ddb4a2e345f6323ed90f8fc8559d770a7abbbeee84dde8aca3351fe71549181900360200190a150565b600f546001600160a01b0316331480611123575061110e6115a3565b6001600160a01b0316336001600160a01b0316145b61112c57600080fd5b611151611137610e37565b60075461010090046001600160a01b031690600019611f0b565b61117161115c6118dc565b6008546001600160a01b031690600019611f0b565b61117c611137610d1d565b61118761115c610d1d565b6111a7611192610d1d565b600b546001600160a01b031690600019611f0b565b610de76111b2610d1d565b600d546001600160a01b031690600019611f0b565b6000806111d2610f73565b905060006111de610a51565b90506111f181610a4384620f4240612145565b9250505090565b600854604080516370a0823160e01b8152306004820152905160009261127b926001600160a01b03909116916370a0823191602480820192602092909190829003018186803b15801561124a57600080fd5b505afa15801561125e573d6000803e3d6000fd5b505050506040513d602081101561127457600080fd5b5051610e4f565b905090565b6010546001600160a01b03163314806112a35750600f546001600160a01b031633145b806112c657506112b16115a3565b6001600160a01b0316336001600160a01b0316145b6112cf57600080fd5b60006112d9611c6e565b905060006112e5611727565b905060006112f1611e03565b905060135481111561134a57600061132c61130a611c6e565b611326620f4240610a43620b71b0611320611727565b90612145565b90612567565b9050611337816126b0565b611340816126b9565b61134861270c565b505b60145481101561152257600061137d620f4240610a43611368611727565b611320611373611e03565b620b71b090612567565b9050600061138a826127bc565b600854604080516370a0823160e01b8152306004820152905192935061140d926001600160a01b03909216916370a0823191602480820192602092909190829003018186803b1580156113dc57600080fd5b505afa1580156113f0573d6000803e3d6000fd5b505050506040513d602081101561140657600080fd5b50516127f0565b600754604080516370a0823160e01b815230600482015290516101009092046001600160a01b0316916370a0823191602480820192602092909190829003018186803b15801561145c57600080fd5b505afa158015611470573d6000803e3d6000fd5b505050506040513d602081101561148657600080fd5b505182101561149d5761149882612833565b61151f565b600754604080516370a0823160e01b8152306004820152905161151f9261010090046001600160a01b0316916370a08231916024808301926020929190829003018186803b1580156114ee57600080fd5b505afa158015611502573d6000803e3d6000fd5b505050506040513d602081101561151857600080fd5b5051612833565b50505b505050565b600290565b600061153733610f58565b905061154281610b0b565b50565b600754600954604080516370a0823160e01b81526001600160a01b0392831660048201529051600093849361010090910416916370a08231916024808301926020929190829003018186803b158015610ede57600080fd5b60185481565b6001546001600160a01b031690565b6001546000906001600160a01b03166115c9612055565b6001600160a01b031614905090565b600f546001600160a01b031633148061160957506115f46115a3565b6001600160a01b0316336001600160a01b0316145b61161257600080fd5b81620b71b01161162157600080fd5b8082101561162e57600080fd5b8281101561163b57600080fd5b50601355601455565b60068054604080516020601f60026000196101006001881615020190951694909404938401819004810282018101909252828152606093909290918301828280156109635780601f1061093857610100808354040283529160200191610963565b60006109816116b2612055565b84610aea8560405180606001604052806025815260200161337a60259139600360006116dc612055565b6001600160a01b03908116825260208083019390935260409182016000908120918d16815292529020549190612339565b600061098161171a612055565b84846121e7565b60145481565b600c54604080516370a0823160e01b8152306004820152905160009283926001600160a01b03909116916370a0823191602480820192602092909190829003018186803b15801561177757600080fd5b505afa15801561178b573d6000803e3d6000fd5b505050506040513d60208110156117a157600080fd5b50519050610b05670de0b6b3a7640000610a436117bc61283c565b8490612145565b6010546001600160a01b031681565b6010546001600160a01b03163314806117f55750600f546001600160a01b031633145b8061181857506118036115a3565b6001600160a01b0316336001600160a01b0316145b61182157600080fd5b600754604080516370a0823160e01b8152306004820152905160009261010090046001600160a01b0316916370a08231916024808301926020929190829003018186803b15801561187157600080fd5b505afa158015611885573d6000803e3d6000fd5b505050506040513d602081101561189b57600080fd5b5051905060006118a9610f73565b905060006118c9620f4240610a436019548561214590919063ffffffff16565b905080831115611522576115228161287e565b735aa53f03197e08c4851cad8c92c7922da5857e5d90565b600f546001600160a01b031633148061192557506119106115a3565b6001600160a01b0316336001600160a01b0316145b61192e57600080fd5b600061193d620f424083612567565b9050600061195283610a4384620f4240612145565b905061c35084111561196357600080fd5b620b71b081111561197357600080fd5b50601992909255601155601255565b6000805460010190819055816119df576040805162461bcd60e51b815260206004820152601e60248201527f6465706f736974206d7573742062652067726561746572207468616e20300000604482015290519081900360640190fd5b601a548211156119ee57600080fd5b60006119f8610f73565b600754604080516323b872dd60e01b81523360048201523060248201526044810187905290519293506101009091046001600160a01b0316916323b872dd916064808201926020929091908290030181600087803b158015611a5957600080fd5b505af1158015611a6d573d6000803e3d6000fd5b505050506040513d6020811015611a8357600080fd5b5060009050611a90610a51565b611a9b575082611ab4565b611ab182610a43611aaa610a51565b8790612145565b90505b611abe3382612a2b565b50506000548114610d10576040805162461bcd60e51b815260206004820152601f60248201527f5265656e7472616e637947756172643a207265656e7472616e742063616c6c00604482015290519081900360640190fd5b60155481565b73ec7178f4c41f346b2721907f5cf7628e388a7a5890565b73841fad6eae12c286d1fd18d1d525dffa75c7effe90565b600754604080516370a0823160e01b8152306004820152905160009261010090046001600160a01b0316916370a08231916024808301926020929190829003018186803b158015611b9c57600080fd5b505afa158015611bb0573d6000803e3d6000fd5b505050506040513d6020811015611bc657600080fd5b5051905090565b600f546001600160a01b0316331480611bfe5750611be96115a3565b6001600160a01b0316336001600160a01b0316145b611c0757600080fd5b6001600160a01b038116611c1a57600080fd5b600f80546001600160a01b0383166001600160a01b0319909116811790915560408051918252517f352ececae6d7d1e6d26bcf2c549dfd55be1637e9b22dc0cf3b71ddb36097a6b49181900360200190a150565b600080611c7a306123d0565b9050610b0581610e4f565b600f546001600160a01b0316331480611cb65750611ca16115a3565b6001600160a01b0316336001600160a01b0316145b611cbf57600080fd5b611388831115611cce57600080fd5b61c350821115611cdd57600080fd5b620186a0811115611ced57600080fd5b50601555601855565b600f546001600160a01b0316331480611d275750611d126115a3565b6001600160a01b0316336001600160a01b0316145b611d3057600080fd5b611542816125a9565b6001600160a01b03918216600090815260036020908152604080832093909416825291909152205490565b600754604080516370a0823160e01b8152336004820152905160009261010090046001600160a01b0316916370a08231916024808301926020929190829003018186803b158015611db457600080fd5b505afa158015611dc8573d6000803e3d6000fd5b505050506040513d6020811015611dde57600080fd5b5051905061154281611982565b73e0654c8e6fd4d733349ac7e09f6f23da256bf47590565b600080611e0e611c6e565b90506000610a2e611727565b600080610b05611e28611527565b30612b11565b601a5481565b60175481565b611e426115b2565b611e93576040805162461bcd60e51b815260206004820181905260248201527f4f776e61626c653a2063616c6c6572206973206e6f7420746865206f776e6572604482015290519081900360640190fd5b61154281612ba2565b60135481565b60195481565b732b2929e785374c651a81a63878ab22742656dcdd90565b600854604080516370a0823160e01b815230600482015290516000926001600160a01b0316916370a08231916024808301926020929190829003018186803b158015611b9c57600080fd5b801580611f91575060408051636eb1769f60e11b81523060048201526001600160a01b03848116602483015291519185169163dd62ed3e91604480820192602092909190829003018186803b158015611f6357600080fd5b505afa158015611f77573d6000803e3d6000fd5b505050506040513d6020811015611f8d57600080fd5b5051155b611fcc5760405162461bcd60e51b81526004018080602001828103825260368152602001806133446036913960400191505060405180910390fd5b604080516001600160a01b038416602482015260448082018490528251808303909101815260649091019091526020810180516001600160e01b031663095ea7b360e01b179052611522908490612c43565b6000813f7fc5d2460186f7233c927e7db2dcc703c0e500b653ca82273b7bfad8045d85a4708115801590610e765750141592915050565b3390565b6001600160a01b03831661209e5760405162461bcd60e51b81526004018080602001828103825260248152602001806132f66024913960400191505060405180910390fd5b6001600160a01b0382166120e35760405162461bcd60e51b815260040180806020018281038252602281526020018061321f6022913960400191505060405180910390fd5b6001600160a01b03808416600081815260036020908152604080832094871680845294825291829020859055815185815291517f8c5be1e5ebec7d5bd14f71427d1e84f3dd0314c0f7b2291e5b200ac8c7c3b9259281900390910190a3505050565b60008261215457506000610985565b8282028284828161216157fe5b041461219e5760405162461bcd60e51b81526004018080602001828103825260218152602001806132676021913960400191505060405180910390fd5b9392505050565b600061219e83836040518060400160405280601a81526020017f536166654d6174683a206469766973696f6e206279207a65726f000000000000815250612dfb565b6001600160a01b03831661222c5760405162461bcd60e51b81526004018080602001828103825260258152602001806132d16025913960400191505060405180910390fd5b6001600160a01b0382166122715760405162461bcd60e51b81526004018080602001828103825260238152602001806131b46023913960400191505060405180910390fd5b6122ae81604051806060016040528060268152602001613241602691396001600160a01b0386166000908152600260205260409020549190612339565b6001600160a01b0380851660009081526002602052604080822093909355908416815220546122dd9082612604565b6001600160a01b0380841660008181526002602090815260409182902094909455805185815290519193928716927fddf252ad1be2c89b69c2b068fc378daa952ba7f163c4a11628f55a4df523b3ef92918290030190a3505050565b600081848411156123c85760405162461bcd60e51b81526004018080602001828103825283818151815260200191508051906020019080838360005b8381101561238d578181015183820152602001612375565b50505050905090810190601f1680156123ba5780820380516001836020036101000a031916815260200191505b509250505060405180910390fd5b505050900390565b60006123da6118dc565b6001600160a01b03166395dd9193836040518263ffffffff1660e01b815260040180826001600160a01b0316815260200191505060206040518083038186803b15801561242657600080fd5b505afa15801561243a573d6000803e3d6000fd5b505050506040513d602081101561245057600080fd5b505192915050565b6001600160a01b03821661249d5760405162461bcd60e51b81526004018080602001828103825260218152602001806132b06021913960400191505060405180910390fd5b6124da816040518060600160405280602281526020016131d7602291396001600160a01b0385166000908152600260205260409020549190612339565b6001600160a01b0383166000908152600260205260409020556004546125009082612567565b6004556040805182815290516000916001600160a01b038516917fddf252ad1be2c89b69c2b068fc378daa952ba7f163c4a11628f55a4df523b3ef9181900360200190a35050565b60008061219e620f4240610a436018548661214590919063ffffffff16565b600061219e83836040518060400160405280601e81526020017f536166654d6174683a207375627472616374696f6e206f766572666c6f770000815250612339565b61154281612e60565b604080516001600160a01b038416602482015260448082018490528251808303909101815260649091019091526020810180516001600160e01b031663a9059cbb60e01b179052611522908490612c43565b60008282018381101561219e576040805162461bcd60e51b815260206004820152601b60248201527f536166654d6174683a206164646974696f6e206f766572666c6f770000000000604482015290519081900360640190fd5b600854600954604080516370a0823160e01b81526001600160a01b0392831660048201529051600093849316916370a08231916024808301926020929190829003018186803b158015610ede57600080fd5b61154281612e7a565b60006126c361265e565b905060006126cf611545565b905060006126ed620f4240610a438481620f1b306113208a8a612145565b905061270684826126fc612edb565b3042607801612f6a565b50505050565b600854604080516370a0823160e01b815230600482015290516000926001600160a01b0316916370a08231916024808301926020929190829003018186803b15801561275757600080fd5b505afa15801561276b573d6000803e3d6000fd5b505050506040513d602081101561278157600080fd5b50519050806127905750610de7565b600061279b306123d0565b9050808210156127b3576127ae8261303d565b610d10565b610d108161303d565b6000806127c761265e565b905060006127d3611545565b905060006127e582610a438786612145565b9050610e768161308a565b60006127fa61265e565b90506000612806611545565b9050600061282483610a43620f424081620f1b306113208a89612145565b905061270684826126fc613093565b61154281613103565b6000612846610e37565b6001600160a01b031663182df0f56040518163ffffffff1660e01b815260040160206040518083038186803b158015611b9c57600080fd5b60056000805b8281101561299757600754604080516370a0823160e01b8152306004820152905160009261010090046001600160a01b0316916370a08231916024808301926020929190829003018186803b1580156128dc57600080fd5b505afa1580156128f0573d6000803e3d6000fd5b505050506040513d602081101561290657600080fd5b505190506129148186612567565b925061291f83612833565b6000612935620f4240610a4386620b1008612145565b9050612940816127bc565b50600854604080516370a0823160e01b8152306004820152905161298d926001600160a01b0316916370a08231916024808301926020929190829003018186803b1580156113dc57600080fd5b5050600101612884565b50600754604080516370a0823160e01b8152306004820152905160009261010090046001600160a01b0316916370a08231916024808301926020929190829003018186803b1580156129e857600080fd5b505afa1580156129fc573d6000803e3d6000fd5b505050506040513d6020811015612a1257600080fd5b50519050612a208185612567565b915061270682612833565b6001600160a01b038216612a86576040805162461bcd60e51b815260206004820152601f60248201527f45524332303a206d696e7420746f20746865207a65726f206164647265737300604482015290519081900360640190fd5b600454612a939082612604565b6004556001600160a01b038216600090815260026020526040902054612ab99082612604565b6001600160a01b03831660008181526002602090815260408083209490945583518581529351929391927fddf252ad1be2c89b69c2b068fc378daa952ba7f163c4a11628f55a4df523b3ef9281900390910190a35050565b6000612b1b611ea8565b6001600160a01b03166393f1a40b84846040518363ffffffff1660e01b815260040180838152602001826001600160a01b031681526020019250505060206040518083038186803b158015612b6f57600080fd5b505afa158015612b83573d6000803e3d6000fd5b505050506040513d6020811015612b9957600080fd5b50519392505050565b6001600160a01b038116612be75760405162461bcd60e51b81526004018080602001828103825260268152602001806131f96026913960400191505060405180910390fd5b6001546040516001600160a01b038084169216907f8be0079c531659141344cd1fd0a4f28419497f9722a3daafe3b4186f6b6457e090600090a3600180546001600160a01b0319166001600160a01b0392909216919091179055565b612c55826001600160a01b031661201e565b612ca6576040805162461bcd60e51b815260206004820152601f60248201527f5361666545524332303a2063616c6c20746f206e6f6e2d636f6e747261637400604482015290519081900360640190fd5b60006060836001600160a01b0316836040518082805190602001908083835b60208310612ce45780518252601f199092019160209182019101612cc5565b6001836020036101000a0380198251168184511680821785525050505050509050019150506000604051808303816000865af19150503d8060008114612d46576040519150601f19603f3d011682016040523d82523d6000602084013e612d4b565b606091505b509150915081612da2576040805162461bcd60e51b815260206004820181905260248201527f5361666545524332303a206c6f772d6c6576656c2063616c6c206661696c6564604482015290519081900360640190fd5b80511561270657808060200190516020811015612dbe57600080fd5b50516127065760405162461bcd60e51b815260040180806020018281038252602a81526020018061331a602a913960400191505060405180910390fd5b60008183612e4a5760405162461bcd60e51b815260206004820181815283516024840152835190928392604490910191908501908083836000831561238d578181015183820152602001612375565b506000838581612e5657fe5b0495945050505050565b6000600a815b818110156127065760009250600101612e66565b612e82610e37565b6001600160a01b031663852a12e3826040518263ffffffff1660e01b815260040180828152602001915050600060405180830381600087803b158015612ec757600080fd5b505af115801561151f573d6000803e3d6000fd5b604080516002808252606080830184529283929190602083019080368337019050509050600760019054906101000a90046001600160a01b031681600081518110612f2257fe5b6001600160a01b039283166020918202929092010152600854825191169082906001908110612f4d57fe5b6001600160a01b0390921660209283029190910190910152905090565b612f72610d1d565b6001600160a01b03166338ed173986868686866040518663ffffffff1660e01b81526004018086815260200185815260200180602001846001600160a01b03168152602001838152602001828103825285818151815260200191508051906020019060200280838360005b83811015612ff5578181015183820152602001612fdd565b505050509050019650505050505050600060405180830381600087803b15801561301e57600080fd5b505af1158015613032573d6000803e3d6000fd5b505050505050505050565b6130456118dc565b6001600160a01b0316630e752702826040518263ffffffff1660e01b815260040180828152602001915050600060405180830381600087803b158015612ec757600080fd5b610d1081613150565b604080516002808252606080830184529283929190602083019080368337505060085482519293506001600160a01b0316918391506000906130d157fe5b6001600160a01b03928316602091820292909201015260075482516101009091049091169082906001908110612f4d57fe5b61310b610e37565b6001600160a01b031663a0712d68826040518263ffffffff1660e01b815260040180828152602001915050600060405180830381600087803b158015612ec757600080fd5b600061315a6118dc565b6001600160a01b031663c5ebeaec836040518263ffffffff1660e01b815260040180828152602001915050602060405180830381600087803b15801561319f57600080fd5b505af115801561243a573d6000803e3d6000fdfe45524332303a207472616e7366657220746f20746865207a65726f206164647265737345524332303a206275726e20616d6f756e7420657863656564732062616c616e63654f776e61626c653a206e6577206f776e657220697320746865207a65726f206164647265737345524332303a20617070726f766520746f20746865207a65726f206164647265737345524332303a207472616e7366657220616d6f756e7420657863656564732062616c616e6365536166654d6174683a206d756c7469706c69636174696f6e206f766572666c6f7745524332303a207472616e7366657220616d6f756e74206578636565647320616c6c6f77616e636545524332303a206275726e2066726f6d20746865207a65726f206164647265737345524332303a207472616e736665722066726f6d20746865207a65726f206164647265737345524332303a20617070726f76652066726f6d20746865207a65726f20616464726573735361666545524332303a204552433230206f7065726174696f6e20646964206e6f7420737563636565645361666545524332303a20617070726f76652066726f6d206e6f6e2d7a65726f20746f206e6f6e2d7a65726f20616c6c6f77616e636545524332303a2064656372656173656420616c6c6f77616e63652062656c6f77207a65726fa2646970667358221220507f8cd8fcf91c1565351e5a61283cd856825b7afbc082b59b64d885d8870a5864736f6c634300060c00335361666545524332303a204552433230206f7065726174696f6e20646964206e6f7420737563636565645361666545524332303a20617070726f76652066726f6d206e6f6e2d7a65726f20746f206e6f6e2d7a65726f20616c6c6f77616e6365","bytecodeSha1":"da39a3ee5e6b4b0d3255bfef95601890afd80709","type":"contract","abi":[{"inputs":[],"stateMutability":"nonpayable","type":"constructor","name":"constructor"},{"anonymous":false,"inputs":[{"indexed":true,"internalType":"address","name":"owner","type":"address"},{"indexed":true,"internalType":"address","name":"spender","type":"address"},{"indexed":false,"internalType":"uint256","name":"value","type":"uint256"}],"name":"Approval","type":"event"},{"anonymous":false,"inputs":[{"indexed":true,"internalType":"address","name":"previousOwner","type":"address"},{"indexed":true,"internalType":"address","name":"newOwner","type":"address"}],"name":"OwnershipTransferred","type":"event"},{"anonymous":false,"inputs":[{"indexed":true,"internalType":"address","name":"from","type":"address"},{"indexed":true,"internalType":"address","name":"to","type":"address"},{"indexed":false,"internalType":"uint256","name":"value","type":"uint256"}],"name":"Transfer","type":"event"},{"anonymous":false,"inputs":[{"indexed":false,"internalType":"address","name":"newKeeper","type":"address"}],"name":"UpdatedKeeper","type":"event"},{"anonymous":false,"inputs":[{"indexed":false,"internalType":"address","name":"newStrategist","type":"address"}],"name":"UpdatedStrategist","type":"event"},{"inputs":[{"internalType":"address","name":"owner","type":"address"},{"internalType":"address","name":"spender","type":"address"}],"name":"allowance","outputs":[{"internalType":"uint256","name":"","type":"uint256"}],"stateMutability":"view","type":"function"},{"inputs":[],"name":"annualAdj","outputs":[{"internalType":"uint256","name":"","type":"uint256"}],"stateMutability":"view","type":"function"},{"inputs":[{"internalType":"address","name":"spender","type":"address"},{"internalType":"uint256","name":"amount","type":"uint256"}],"name":"approve","outputs":[{"internalType":"bool","name":"","type":"bool"}],"stateMutability":"nonpayable","type":"function"},{"inputs":[],"name":"approveContracts","outputs":[],"stateMutability":"nonpayable","type":"function"},{"inputs":[],"name":"balanceDebt","outputs":[{"internalType":"uint256","name":"","type":"uint256"}],"stateMutability":"view","type":"function"},{"inputs":[],"name":"balanceLend","outputs":[{"internalType":"uint256","name":"","type":"uint256"}],"stateMutability":"view","type":"function"},{"inputs":[{"internalType":"address","name":"account","type":"address"}],"name":"balanceOf","outputs":[{"internalType":"uint256","name":"","type":"uint256"}],"stateMutability":"view","type":"function"},{"inputs":[],"name":"balanceReserves","outputs":[{"internalType":"uint256","name":"","type":"uint256"}],"stateMutability":"view","type":"function"},{"inputs":[],"name":"balanceShort","outputs":[{"internalType":"uint256","name":"","type":"uint256"}],"stateMutability":"view","type":"function"},{"inputs":[],"name":"balanceShortBaseEq","outputs":[{"internalType":"uint256","name":"","type":"uint256"}],"stateMutability":"view","type":"function"},{"inputs":[],"name":"borrowPlatform","outputs":[{"internalType":"address","name":"","type":"address"}],"stateMutability":"view","type":"function"},{"inputs":[],"name":"calcCollateral","outputs":[{"internalType":"uint256","name":"","type":"uint256"}],"stateMutability":"view","type":"function"},{"inputs":[],"name":"calcPoolValueInToken","outputs":[{"internalType":"uint256","name":"","type":"uint256"}],"stateMutability":"view","type":"function"},{"inputs":[],"name":"calcReserves","outputs":[{"internalType":"uint256","name":"","type":"uint256"}],"stateMutability":"view","type":"function"},{"inputs":[],"name":"collatLower","outputs":[{"internalType":"uint256","name":"","type":"uint256"}],"stateMutability":"view","type":"function"},{"inputs":[],"name":"collatUpper","outputs":[{"internalType":"uint256","name":"","type":"uint256"}],"stateMutability":"view","type":"function"},{"inputs":[],"name":"compLpAddress","outputs":[{"internalType":"address","name":"","type":"address"}],"stateMutability":"view","type":"function"},{"inputs":[],"name":"compTokenAddress","outputs":[{"internalType":"address","name":"","type":"address"}],"stateMutability":"view","type":"function"},{"inputs":[],"name":"comptrollerAddress","outputs":[{"internalType":"address","name":"","type":"address"}],"stateMutability":"view","type":"function"},{"inputs":[{"internalType":"uint256","name":"_amount","type":"uint256"}],"name":"convertShortToBaseLP","outputs":[{"internalType":"uint256","name":"","type":"uint256"}],"stateMutability":"view","type":"function"},{"inputs":[],"name":"countLpPooled","outputs":[{"internalType":"uint256","name":"","type":"uint256"}],"stateMutability":"view","type":"function"},{"inputs":[],"name":"decimals","outputs":[{"internalType":"uint8","name":"","type":"uint8"}],"stateMutability":"view","type":"function"},{"inputs":[{"internalType":"address","name":"spender","type":"address"},{"internalType":"uint256","name":"subtractedValue","type":"uint256"}],"name":"decreaseAllowance","outputs":[{"internalType":"bool","name":"","type":"bool"}],"stateMutability":"nonpayable","type":"function"},{"inputs":[],"name":"deployStrat","outputs":[],"stateMutability":"nonpayable","type":"function"},{"inputs":[{"internalType":"uint256","name":"_amount","type":"uint256"}],"name":"deposit","outputs":[],"stateMutability":"nonpayable","type":"function"},{"inputs":[],"name":"depositAll","outputs":[],"stateMutability":"nonpayable","type":"function"},{"inputs":[],"name":"depositLimit","outputs":[{"internalType":"uint256","name":"","type":"uint256"}],"stateMutability":"view","type":"function"},{"inputs":[],"name":"farmAddress","outputs":[{"internalType":"address","name":"","type":"address"}],"stateMutability":"view","type":"function"},{"inputs":[],"name":"farmLP","outputs":[{"internalType":"address","name":"","type":"address"}],"stateMutability":"view","type":"function"},{"inputs":[],"name":"farmPid","outputs":[{"internalType":"uint256","name":"","type":"uint256"}],"stateMutability":"view","type":"function"},{"inputs":[],"name":"farmToken","outputs":[{"internalType":"address","name":"","type":"address"}],"stateMutability":"view","type":"function"},{"inputs":[],"name":"farmTokenLp","outputs":[{"internalType":"address","name":"","type":"address"}],"stateMutability":"view","type":"function"},{"inputs":[],"name":"getBaseInLending","outputs":[{"internalType":"uint256","name":"","type":"uint256"}],"stateMutability":"view","type":"function"},{"inputs":[],"name":"getBaseInLp","outputs":[{"internalType":"uint256","name":"","type":"uint256"}],"stateMutability":"view","type":"function"},{"inputs":[],"name":"getDebtShort","outputs":[{"internalType":"uint256","name":"","type":"uint256"}],"stateMutability":"view","type":"function"},{"inputs":[],"name":"getPricePerFullShare","outputs":[{"internalType":"uint256","name":"","type":"uint256"}],"stateMutability":"view","type":"function"},{"inputs":[{"internalType":"address","name":"spender","type":"address"},{"internalType":"uint256","name":"addedValue","type":"uint256"}],"name":"increaseAllowance","outputs":[{"internalType":"bool","name":"","type":"bool"}],"stateMutability":"nonpayable","type":"function"},{"inputs":[],"name":"isOwner","outputs":[{"internalType":"bool","name":"","type":"bool"}],"stateMutability":"view","type":"function"},{"inputs":[],"name":"keeper","outputs":[{"internalType":"address","name":"","type":"address"}],"stateMutability":"view","type":"function"},{"inputs":[],"name":"lastHarvest","outputs":[{"internalType":"uint256","name":"","type":"uint256"}],"stateMutability":"view","type":"function"},{"inputs":[],"name":"lendPlatform","outputs":[{"internalType":"address","name":"","type":"address"}],"stateMutability":"view","type":"function"},{"inputs":[],"name":"name","outputs":[{"internalType":"string","name":"","type":"string"}],"stateMutability":"view","type":"function"},{"inputs":[],"name":"operationalFee","outputs":[{"internalType":"uint256","name":"","type":"uint256"}],"stateMutability":"view","type":"function"},{"inputs":[],"name":"owner","outputs":[{"internalType":"address","name":"","type":"address"}],"stateMutability":"view","type":"function"},{"inputs":[],"name":"rebalanceCollateral","outputs":[],"stateMutability":"nonpayable","type":"function"},{"inputs":[],"name":"renounceOwnership","outputs":[],"stateMutability":"nonpayable","type":"function"},{"inputs":[],"name":"reserveAllocation","outputs":[{"internalType":"uint256","name":"","type":"uint256"}],"stateMutability":"view","type":"function"},{"inputs":[],"name":"resetApprovals","outputs":[],"stateMutability":"nonpayable","type":"function"},{"inputs":[],"name":"routerAddress","outputs":[{"internalType":"address","name":"","type":"address"}],"stateMutability":"view","type":"function"},{"inputs":[{"internalType":"uint256","name":"_lower","type":"uint256"},{"internalType":"uint256","name":"_upper","type":"uint256"},{"internalType":"uint256","name":"_target","type":"uint256"}],"name":"setCollateralThresholds","outputs":[],"stateMutability":"nonpayable","type":"function"},{"inputs":[{"internalType":"uint256","name":"_withdrawalFee","type":"uint256"},{"internalType":"uint256","name":"_operationalFee","type":"uint256"},{"internalType":"uint256","name":"_profitFee","type":"uint256"}],"name":"setFees","outputs":[],"stateMutability":"nonpayable","type":"function"},{"inputs":[{"internalType":"uint256","name":"_reserveAllocation","type":"uint256"},{"internalType":"uint256","name":"_lendAllocation","type":"uint256"}],"name":"setFundingAllocations","outputs":[],"stateMutability":"nonpayable","type":"function"},{"inputs":[{"internalType":"address","name":"_keeper","type":"address"}],"name":"setKeeper","outputs":[],"stateMutability":"nonpayable","type":"function"},{"inputs":[{"internalType":"address","name":"_strategist","type":"address"}],"name":"setStrategist","outputs":[],"stateMutability":"nonpayable","type":"function"},{"inputs":[],"name":"stratDebtAllocation","outputs":[{"internalType":"uint256","name":"","type":"uint256"}],"stateMutability":"view","type":"function"},{"inputs":[],"name":"stratLendAllocation","outputs":[{"internalType":"uint256","name":"","type":"uint256"}],"stateMutability":"view","type":"function"},{"inputs":[],"name":"strategist","outputs":[{"internalType":"address","name":"","type":"address"}],"stateMutability":"view","type":"function"},{"inputs":[],"name":"symbol","outputs":[{"internalType":"string","name":"","type":"string"}],"stateMutability":"view","type":"function"},{"inputs":[],"name":"totalSupply","outputs":[{"internalType":"uint256","name":"","type":"uint256"}],"stateMutability":"view","type":"function"},{"inputs":[{"internalType":"address","name":"recipient","type":"address"},{"internalType":"uint256","name":"amount","type":"uint256"}],"name":"transfer","outputs":[{"internalType":"bool","name":"","type":"bool"}],"stateMutability":"nonpayable","type":"function"},{"inputs":[{"internalType":"address","name":"sender","type":"address"},{"internalType":"address","name":"recipient","type":"address"},{"internalType":"uint256","name":"amount","type":"uint256"}],"name":"transferFrom","outputs":[{"internalType":"bool","name":"","type":"bool"}],"stateMutability":"nonpayable","type":"function"},{"inputs":[{"internalType":"address","name":"newOwner","type":"address"}],"name":"transferOwnership","outputs":[],"stateMutability":"nonpayable","type":"function"},{"inputs":[{"internalType":"uint256","name":"_amount","type":"uint256"}],"name":"undeployFromStrat","outputs":[],"stateMutability":"nonpayable","type":"function"},{"inputs":[{"internalType":"uint256","name":"_shares","type":"uint256"}],"name":"withdraw","outputs":[],"stateMutability":"nonpayable","type":"function"},{"inputs":[],"name":"withdrawAll","outputs":[],"stateMutability":"nonpayable","type":"function"},{"inputs":[],"name":"withdrawalFee","outputs":[{"internalType":"uint256","name":"","type":"uint256"}],"stateMutability":"view","type":"function"}],"compiler":{"version":"0.6.12+commit.27d51765","evm_version":"istanbul","optimizer":{"enabled":true,"runs":200}},"contractName":"leverageTest","language":"Solidity","natspec":{"methods":{"stratLendAllocation()":{"notice":"default allocations, thresholds & fees"},"farmPid()":{"notice":"LP contract for base & short token"},"farmAddress()":{"notice":"Spooky Addresses"},"rebalanceCollateral()":{"notice":"rebalances RoboVault strat position to within target collateral range "},"setKeeper(address)":{"notice":"keeper has ability to copmlete rebalancing functions & also deploy capital to strategy once reserves exceed some threshold"},"deployStrat()":{"notice":"function to deploy funds when reserves exceed reserve threshold (maximum is five percent)"},"setStrategist(address)":{"notice":"update strategist -> this is the address that receives fees + can complete rebalancing and update strategy thresholds strategist can also exit leveraged position i.e. withdraw all pooled LP and repay outstanding debt moving vault funds to reserves"}},"kind":"dev","version":1},"opcodes":"PUSH1 0x80 PUSH1 0x40 MSTORE CALLVALUE DUP1 ISZERO PUSH2 0x10 JUMPI PUSH1 0x0 DUP1 REVERT JUMPDEST POP PUSH1 0x4 CALLDATASIZE LT PUSH2 0x3E6 JUMPI PUSH1 0x0 CALLDATALOAD PUSH1 0xE0 SHR DUP1 PUSH4 0x8DA5CB5B GT PUSH2 0x20A JUMPI DUP1 PUSH4 0xC3B49F3D GT PUSH2 0x125 JUMPI DUP1 PUSH4 0xE6E7114B GT PUSH2 0xB8 JUMPI DUP1 PUSH4 0xF2FDE38B GT PUSH2 0x87 JUMPI DUP1 PUSH4 0xF2FDE38B EQ PUSH2 0x891 JUMPI DUP1 PUSH4 0xF8C1E75E EQ PUSH2 0x8B7 JUMPI DUP1 PUSH4 0xF8F079BB EQ PUSH2 0x8BF JUMPI DUP1 PUSH4 0xF9DA3F75 EQ PUSH2 0x8C7 JUMPI DUP1 PUSH4 0xFEB6848A EQ PUSH2 0x8CF JUMPI PUSH2 0x3E6 JUMP JUMPDEST DUP1 PUSH4 0xE6E7114B EQ PUSH2 0x871 JUMPI DUP1 PUSH4 0xEB61C72A EQ PUSH2 0x879 JUMPI DUP1 PUSH4 0xECF70858 EQ PUSH2 0x881 JUMPI DUP1 PUSH4 0xF1A392DA EQ PUSH2 0x889 JUMPI PUSH2 0x3E6 JUMP JUMPDEST DUP1 PUSH4 0xD2D9A69D GT PUSH2 0xF4 JUMPI DUP1 PUSH4 0xD2D9A69D EQ PUSH2 0x816 JUMPI DUP1 PUSH4 0xDD62ED3E EQ PUSH2 0x833 JUMPI DUP1 PUSH4 0xDE5F6268 EQ PUSH2 0x861 JUMPI DUP1 PUSH4 0xE43E7B94 EQ PUSH2 0x869 JUMPI PUSH2 0x3E6 JUMP JUMPDEST DUP1 PUSH4 0xC3B49F3D EQ PUSH2 0x7B7 JUMPI DUP1 PUSH4 0xC7B9D530 EQ PUSH2 0x7BF JUMPI DUP1 PUSH4 0xCAD20A29 EQ PUSH2 0x7E5 JUMPI DUP1 PUSH4 0xCEC10C11 EQ PUSH2 0x7ED JUMPI PUSH2 0x3E6 JUMP JUMPDEST DUP1 PUSH4 0xACED1661 GT PUSH2 0x19D JUMPI DUP1 PUSH4 0xB6B55F25 GT PUSH2 0x16C JUMPI DUP1 PUSH4 0xB6B55F25 EQ PUSH2 0x782 JUMPI DUP1 PUSH4 0xC089F572 EQ PUSH2 0x79F JUMPI DUP1 PUSH4 0xC1E32A3D EQ PUSH2 0x7A7 JUMPI DUP1 PUSH4 0xC2442F93 EQ PUSH2 0x7AF JUMPI PUSH2 0x3E6 JUMP JUMPDEST DUP1 PUSH4 0xACED1661 EQ PUSH2 0x747 JUMPI DUP1 PUSH4 0xAE263A1D EQ PUSH2 0x74F JUMPI DUP1 PUSH4 0xB2AD2F0F EQ PUSH2 0x757 JUMPI DUP1 PUSH4 0xB574D287 EQ PUSH2 0x75F JUMPI PUSH2 0x3E6 JUMP JUMPDEST DUP1 PUSH4 0xA457C2D7 GT PUSH2 0x1D9 JUMPI DUP1 PUSH4 0xA457C2D7 EQ PUSH2 0x6DF JUMPI DUP1 PUSH4 0xA9059CBB EQ PUSH2 0x70B JUMPI DUP1 PUSH4 0xA9B0CA38 EQ PUSH2 0x737 JUMPI DUP1 PUSH4 0xA9C19C66 EQ PUSH2 0x73F JUMPI PUSH2 0x3E6 JUMP JUMPDEST DUP1 PUSH4 0x8DA5CB5B EQ PUSH2 0x69E JUMPI DUP1 PUSH4 0x8F32D59B EQ PUSH2 0x6A6 JUMPI DUP1 PUSH4 0x94C04CED EQ PUSH2 0x6AE JUMPI DUP1 PUSH4 0x95D89B41 EQ PUSH2 0x6D7 JUMPI PUSH2 0x3E6 JUMP JUMPDEST DUP1 PUSH4 0x4D54E307 GT PUSH2 0x305 JUMPI DUP1 PUSH4 0x748747E6 GT PUSH2 0x298 JUMPI DUP1 PUSH4 0x81117FF2 GT PUSH2 0x267 JUMPI DUP1 PUSH4 0x81117FF2 EQ PUSH2 0x676 JUMPI DUP1 PUSH4 0x827907B4 EQ PUSH2 0x67E JUMPI DUP1 PUSH4 0x853828B6 EQ PUSH2 0x686 JUMPI DUP1 PUSH4 0x8AD56BFF EQ PUSH2 0x68E JUMPI DUP1 PUSH4 0x8BC7E8C4 EQ PUSH2 0x696 JUMPI PUSH2 0x3E6 JUMP JUMPDEST DUP1 PUSH4 0x748747E6 EQ PUSH2 0x638 JUMPI DUP1 PUSH4 0x77AF8CEB EQ PUSH2 0x65E JUMPI DUP1 PUSH4 0x77C7B8FC EQ PUSH2 0x666 JUMPI DUP1 PUSH4 0x7845790C EQ PUSH2 0x66E JUMPI PUSH2 0x3E6 JUMP JUMPDEST DUP1 PUSH4 0x6C1A35BE GT PUSH2 0x2D4 JUMPI DUP1 PUSH4 0x6C1A35BE EQ PUSH2 0x5FA JUMPI DUP1 PUSH4 0x70A08231 EQ PUSH2 0x602 JUMPI DUP1 PUSH4 0x7137EF99 EQ PUSH2 0x628 JUMPI DUP1 PUSH4 0x715018A6 EQ PUSH2 0x630 JUMPI PUSH2 0x3E6 JUMP JUMPDEST DUP1 PUSH4 0x4D54E307 EQ PUSH2 0x5C5 JUMPI DUP1 PUSH4 0x5627F7B5 EQ PUSH2 0x5E2 JUMPI DUP1 PUSH4 0x668ECBF2 EQ PUSH2 0x5EA JUMPI DUP1 PUSH4 0x68BDE41F EQ PUSH2 0x5F2 JUMPI PUSH2 0x3E6 JUMP JUMPDEST DUP1 PUSH4 0x23B872DD GT PUSH2 0x37D JUMPI DUP1 PUSH4 0x3268CC56 GT PUSH2 0x34C JUMPI DUP1 PUSH4 0x3268CC56 EQ PUSH2 0x581 JUMPI DUP1 PUSH4 0x379AFCCC EQ PUSH2 0x589 JUMPI DUP1 PUSH4 0x39509351 EQ PUSH2 0x591 JUMPI DUP1 PUSH4 0x3AD184E4 EQ PUSH2 0x5BD JUMPI PUSH2 0x3E6 JUMP JUMPDEST DUP1 PUSH4 0x23B872DD EQ PUSH2 0x506 JUMPI DUP1 PUSH4 0x2CF4E4EE EQ PUSH2 0x53C JUMPI DUP1 PUSH4 0x2E1A7D4D EQ PUSH2 0x544 JUMPI DUP1 PUSH4 0x313CE567 EQ PUSH2 0x563 JUMPI PUSH2 0x3E6 JUMP JUMPDEST DUP1 PUSH4 0x18160DDD GT PUSH2 0x3B9 JUMPI DUP1 PUSH4 0x18160DDD EQ PUSH2 0x4CA JUMPI DUP1 PUSH4 0x1A55F6EB EQ PUSH2 0x4D2 JUMPI DUP1 PUSH4 0x1FA98A80 EQ PUSH2 0x4DA JUMPI DUP1 PUSH4 0x1FE4A686 EQ PUSH2 0x4E2 JUMPI PUSH2 0x3E6 JUMP JUMPDEST DUP1 PUSH4 0x6FDDE03 EQ PUSH2 0x3EB JUMPI DUP1 PUSH4 0x95EA7B3 EQ PUSH2 0x468 JUMPI DUP1 PUSH4 0xE04C946 EQ PUSH2 0x4A8 JUMPI DUP1 PUSH4 0x11D1A392 EQ PUSH2 0x4C2 JUMPI JUMPDEST PUSH1 0x0 DUP1 REVERT JUMPDEST PUSH2 0x3F3 PUSH2 0x8D7 JUMP JUMPDEST PUSH1 0x40 DUP1 MLOAD PUSH1 0x20 DUP1 DUP3 MSTORE DUP4 MLOAD DUP2 DUP4 ADD MSTORE DUP4 MLOAD SWAP2 SWAP3 DUP4 SWAP3 SWAP1 DUP4 ADD SWAP2 DUP6 ADD SWAP1 DUP1 DUP4 DUP4 PUSH1 0x0 JUMPDEST DUP4 DUP2 LT ISZERO PUSH2 0x42D JUMPI DUP2 DUP2 ADD MLOAD DUP4 DUP3 ADD MSTORE PUSH1 0x20 ADD PUSH2 0x415 JUMP JUMPDEST POP POP POP POP SWAP1 POP SWAP1 DUP2 ADD SWAP1 PUSH1 0x1F AND DUP1 ISZERO PUSH2 0x45A JUMPI DUP1 DUP3 SUB DUP1 MLOAD PUSH1 0x1 DUP4 PUSH1 0x20 SUB PUSH2 0x100 EXP SUB NOT AND DUP2 MSTORE PUSH1 0x20 ADD SWAP2 POP JUMPDEST POP SWAP3 POP POP POP PUSH1 0x40 MLOAD DUP1 SWAP2 SUB SWAP1 RETURN JUMPDEST PUSH2 0x494 PUSH1 0x4 DUP1 CALLDATASIZE SUB PUSH1 0x40 DUP2 LT ISZERO PUSH2 0x47E JUMPI PUSH1 0x0 DUP1 REVERT JUMPDEST POP PUSH1 0x1 PUSH1 0x1 PUSH1 0xA0 SHL SUB DUP2 CALLDATALOAD AND SWAP1 PUSH1 0x20 ADD CALLDATALOAD PUSH2 0x96D JUMP JUMPDEST PUSH1 0x40 DUP1 MLOAD SWAP2 ISZERO ISZERO DUP3 MSTORE MLOAD SWAP1 DUP2 SWAP1 SUB PUSH1 0x20 ADD SWAP1 RETURN JUMPDEST PUSH2 0x4B0 PUSH2 0x98B JUMP JUMPDEST PUSH1 0x40 DUP1 MLOAD SWAP2 DUP3 MSTORE MLOAD SWAP1 DUP2 SWAP1 SUB PUSH1 0x20 ADD SWAP1 RETURN JUMPDEST PUSH2 0x4B0 PUSH2 0x991 JUMP JUMPDEST PUSH2 0x4B0 PUSH2 0xA51 JUMP JUMPDEST PUSH2 0x4B0 PUSH2 0xA57 JUMP JUMPDEST PUSH2 0x4B0 PUSH2 0xA5D JUMP JUMPDEST PUSH2 0x4EA PUSH2 0xA63 JUMP JUMPDEST PUSH1 0x40 DUP1 MLOAD PUSH1 0x1 PUSH1 0x1 PUSH1 0xA0 SHL SUB SWAP1 SWAP3 AND DUP3 MSTORE MLOAD SWAP1 DUP2 SWAP1 SUB PUSH1 0x20 ADD SWAP1 RETURN JUMPDEST PUSH2 0x494 PUSH1 0x4 DUP1 CALLDATASIZE SUB PUSH1 0x60 DUP2 LT ISZERO PUSH2 0x51C JUMPI PUSH1 0x0 DUP1 REVERT JUMPDEST POP PUSH1 0x1 PUSH1 0x1 PUSH1 0xA0 SHL SUB DUP2 CALLDATALOAD DUP2 AND SWAP2 PUSH1 0x20 DUP2 ADD CALLDATALOAD SWAP1 SWAP2 AND SWAP1 PUSH1 0x40 ADD CALLDATALOAD PUSH2 0xA72 JUMP JUMPDEST PUSH2 0x4B0 PUSH2 0xAF9 JUMP JUMPDEST PUSH2 0x561 PUSH1 0x4 DUP1 CALLDATASIZE SUB PUSH1 0x20 DUP2 LT ISZERO PUSH2 0x55A JUMPI PUSH1 0x0 DUP1 REVERT JUMPDEST POP CALLDATALOAD PUSH2 0xB0B JUMP JUMPDEST STOP JUMPDEST PUSH2 0x56B PUSH2 0xD14 JUMP JUMPDEST PUSH1 0x40 DUP1 MLOAD PUSH1 0xFF SWAP1 SWAP3 AND DUP3 MSTORE MLOAD SWAP1 DUP2 SWAP1 SUB PUSH1 0x20 ADD SWAP1 RETURN JUMPDEST PUSH2 0x4EA PUSH2 0xD1D JUMP JUMPDEST PUSH2 0x561 PUSH2 0xD35 JUMP JUMPDEST PUSH2 0x494 PUSH1 0x4 DUP1 CALLDATASIZE SUB PUSH1 0x40 DUP2 LT ISZERO PUSH2 0x5A7 JUMPI PUSH1 0x0 DUP1 REVERT JUMPDEST POP PUSH1 0x1 PUSH1 0x1 PUSH1 0xA0 SHL SUB DUP2 CALLDATALOAD AND SWAP1 PUSH1 0x20 ADD CALLDATALOAD PUSH2 0xDE9 JUMP JUMPDEST PUSH2 0x4EA PUSH2 0xE37 JUMP JUMPDEST PUSH2 0x4B0 PUSH1 0x4 DUP1 CALLDATASIZE SUB PUSH1 0x20 DUP2 LT ISZERO PUSH2 0x5DB JUMPI PUSH1 0x0 DUP1 REVERT JUMPDEST POP CALLDATALOAD PUSH2 0xE4F JUMP JUMPDEST PUSH2 0x4B0 PUSH2 0xE7E JUMP JUMPDEST PUSH2 0x4EA PUSH2 0xF10 JUMP JUMPDEST PUSH2 0x4EA PUSH2 0xF28 JUMP JUMPDEST PUSH2 0x4EA PUSH2 0xF40 JUMP JUMPDEST PUSH2 0x4B0 PUSH1 0x4 DUP1 CALLDATASIZE SUB PUSH1 0x20 DUP2 LT ISZERO PUSH2 0x618 JUMPI PUSH1 0x0 DUP1 REVERT JUMPDEST POP CALLDATALOAD PUSH1 0x1 PUSH1 0x1 PUSH1 0xA0 SHL SUB AND PUSH2 0xF58 JUMP JUMPDEST PUSH2 0x4B0 PUSH2 0xF73 JUMP JUMPDEST PUSH2 0x561 PUSH2 0xFAE JUMP JUMPDEST PUSH2 0x561 PUSH1 0x4 DUP1 CALLDATASIZE SUB PUSH1 0x20 DUP2 LT ISZERO PUSH2 0x64E JUMPI PUSH1 0x0 DUP1 REVERT JUMPDEST POP CALLDATALOAD PUSH1 0x1 PUSH1 0x1 PUSH1 0xA0 SHL SUB AND PUSH2 0x1051 JUMP JUMPDEST PUSH2 0x561 PUSH2 0x10F2 JUMP JUMPDEST PUSH2 0x4B0 PUSH2 0x11C7 JUMP JUMPDEST PUSH2 0x4B0 PUSH2 0x11F8 JUMP JUMPDEST PUSH2 0x561 PUSH2 0x1280 JUMP JUMPDEST PUSH2 0x4B0 PUSH2 0x1527 JUMP JUMPDEST PUSH2 0x561 PUSH2 0x152C JUMP JUMPDEST PUSH2 0x4B0 PUSH2 0x1545 JUMP JUMPDEST PUSH2 0x4B0 PUSH2 0x159D JUMP JUMPDEST PUSH2 0x4EA PUSH2 0x15A3 JUMP JUMPDEST PUSH2 0x494 PUSH2 0x15B2 JUMP JUMPDEST PUSH2 0x561 PUSH1 0x4 DUP1 CALLDATASIZE SUB PUSH1 0x60 DUP2 LT ISZERO PUSH2 0x6C4 JUMPI PUSH1 0x0 DUP1 REVERT JUMPDEST POP DUP1 CALLDATALOAD SWAP1 PUSH1 0x20 DUP2 ADD CALLDATALOAD SWAP1 PUSH1 0x40 ADD CALLDATALOAD PUSH2 0x15D8 JUMP JUMPDEST PUSH2 0x3F3 PUSH2 0x1644 JUMP JUMPDEST PUSH2 0x494 PUSH1 0x4 DUP1 CALLDATASIZE SUB PUSH1 0x40 DUP2 LT ISZERO PUSH2 0x6F5 JUMPI PUSH1 0x0 DUP1 REVERT JUMPDEST POP PUSH1 0x1 PUSH1 0x1 PUSH1 0xA0 SHL SUB DUP2 CALLDATALOAD AND SWAP1 PUSH1 0x20 ADD CALLDATALOAD PUSH2 0x16A5 JUMP JUMPDEST PUSH2 0x494 PUSH1 0x4 DUP1 CALLDATASIZE SUB PUSH1 0x40 DUP2 LT ISZERO PUSH2 0x721 JUMPI PUSH1 0x0 DUP1 REVERT JUMPDEST POP PUSH1 0x1 PUSH1 0x1 PUSH1 0xA0 SHL SUB DUP2 CALLDATALOAD AND SWAP1 PUSH1 0x20 ADD CALLDATALOAD PUSH2 0x170D JUMP JUMPDEST PUSH2 0x4B0 PUSH2 0x1721 JUMP JUMPDEST PUSH2 0x4B0 PUSH2 0x1727 JUMP JUMPDEST PUSH2 0x4EA PUSH2 0x17C3 JUMP JUMPDEST PUSH2 0x561 PUSH2 0x17D2 JUMP JUMPDEST PUSH2 0x4EA PUSH2 0x18DC JUMP JUMPDEST PUSH2 0x561 PUSH1 0x4 DUP1 CALLDATASIZE SUB PUSH1 0x40 DUP2 LT ISZERO PUSH2 0x775 JUMPI PUSH1 0x0 DUP1 REVERT JUMPDEST POP DUP1 CALLDATALOAD SWAP1 PUSH1 0x20 ADD CALLDATALOAD PUSH2 0x18F4 JUMP JUMPDEST PUSH2 0x561 PUSH1 0x4 DUP1 CALLDATASIZE SUB PUSH1 0x20 DUP2 LT ISZERO PUSH2 0x798 JUMPI PUSH1 0x0 DUP1 REVERT JUMPDEST POP CALLDATALOAD PUSH2 0x1982 JUMP JUMPDEST PUSH2 0x4B0 PUSH2 0x1B16 JUMP JUMPDEST PUSH2 0x4EA PUSH2 0x1B1C JUMP JUMPDEST PUSH2 0x4EA PUSH2 0x1B34 JUMP JUMPDEST PUSH2 0x4B0 PUSH2 0x1B4C JUMP JUMPDEST PUSH2 0x561 PUSH1 0x4 DUP1 CALLDATASIZE SUB PUSH1 0x20 DUP2 LT ISZERO PUSH2 0x7D5 JUMPI PUSH1 0x0 DUP1 REVERT JUMPDEST POP CALLDATALOAD PUSH1 0x1 PUSH1 0x1 PUSH1 0xA0 SHL SUB AND PUSH2 0x1BCD JUMP JUMPDEST PUSH2 0x4B0 PUSH2 0x1C6E JUMP JUMPDEST PUSH2 0x561 PUSH1 0x4 DUP1 CALLDATASIZE SUB PUSH1 0x60 DUP2 LT ISZERO PUSH2 0x803 JUMPI PUSH1 0x0 DUP1 REVERT JUMPDEST POP DUP1 CALLDATALOAD SWAP1 PUSH1 0x20 DUP2 ADD CALLDATALOAD SWAP1 PUSH1 0x40 ADD CALLDATALOAD PUSH2 0x1C85 JUMP JUMPDEST PUSH2 0x561 PUSH1 0x4 DUP1 CALLDATASIZE SUB PUSH1 0x20 DUP2 LT ISZERO PUSH2 0x82C JUMPI PUSH1 0x0 DUP1 REVERT JUMPDEST POP CALLDATALOAD PUSH2 0x1CF6 JUMP JUMPDEST PUSH2 0x4B0 PUSH1 0x4 DUP1 CALLDATASIZE SUB PUSH1 0x40 DUP2 LT ISZERO PUSH2 0x849 JUMPI PUSH1 0x0 DUP1 REVERT JUMPDEST POP PUSH1 0x1 PUSH1 0x1 PUSH1 0xA0 SHL SUB DUP2 CALLDATALOAD DUP2 AND SWAP2 PUSH1 0x20 ADD CALLDATALOAD AND PUSH2 0x1D39 JUMP JUMPDEST PUSH2 0x561 PUSH2 0x1D64 JUMP JUMPDEST PUSH2 0x4EA PUSH2 0x1DEB JUMP JUMPDEST PUSH2 0x4B0 PUSH2 0x1E03 JUMP JUMPDEST PUSH2 0x4B0 PUSH2 0x1E1A JUMP JUMPDEST PUSH2 0x4B0 PUSH2 0x1E2E JUMP JUMPDEST PUSH2 0x4B0 PUSH2 0x1E34 JUMP JUMPDEST PUSH2 0x561 PUSH1 0x4 DUP1 CALLDATASIZE SUB PUSH1 0x20 DUP2 LT ISZERO PUSH2 0x8A7 JUMPI PUSH1 0x0 DUP1 REVERT JUMPDEST POP CALLDATALOAD PUSH1 0x1 PUSH1 0x1 PUSH1 0xA0 SHL SUB AND PUSH2 0x1E3A JUMP JUMPDEST PUSH2 0x4B0 PUSH2 0x1E9C JUMP JUMPDEST PUSH2 0x4B0 PUSH2 0x1EA2 JUMP JUMPDEST PUSH2 0x4EA PUSH2 0x1EA8 JUMP JUMPDEST PUSH2 0x4B0 PUSH2 0x1EC0 JUMP JUMPDEST PUSH1 0x5 DUP1 SLOAD PUSH1 0x40 DUP1 MLOAD PUSH1 0x20 PUSH1 0x1F PUSH1 0x2 PUSH1 0x0 NOT PUSH2 0x100 PUSH1 0x1 DUP9 AND ISZERO MUL ADD SWAP1 SWAP6 AND SWAP5 SWAP1 SWAP5 DIV SWAP4 DUP5 ADD DUP2 SWAP1 DIV DUP2 MUL DUP3 ADD DUP2 ADD SWAP1 SWAP3 MSTORE DUP3 DUP2 MSTORE PUSH1 0x60 SWAP4 SWAP1 SWAP3 SWAP1 SWAP2 DUP4 ADD DUP3 DUP3 DUP1 ISZERO PUSH2 0x963 JUMPI DUP1 PUSH1 0x1F LT PUSH2 0x938 JUMPI PUSH2 0x100 DUP1 DUP4 SLOAD DIV MUL DUP4 MSTORE SWAP2 PUSH1 0x20 ADD SWAP2 PUSH2 0x963 JUMP JUMPDEST DUP3 ADD SWAP2 SWAP1 PUSH1 0x0 MSTORE PUSH1 0x20 PUSH1 0x0 KECCAK256 SWAP1 JUMPDEST DUP2 SLOAD DUP2 MSTORE SWAP1 PUSH1 0x1 ADD SWAP1 PUSH1 0x20 ADD DUP1 DUP4 GT PUSH2 0x946 JUMPI DUP3 SWAP1 SUB PUSH1 0x1F AND DUP3 ADD SWAP2 JUMPDEST POP POP POP POP POP SWAP1 POP SWAP1 JUMP JUMPDEST PUSH1 0x0 PUSH2 0x981 PUSH2 0x97A PUSH2 0x2055 JUMP JUMPDEST DUP5 DUP5 PUSH2 0x2059 JUMP JUMPDEST POP PUSH1 0x1 JUMPDEST SWAP3 SWAP2 POP POP JUMP JUMPDEST PUSH1 0x16 SLOAD DUP2 JUMP JUMPDEST PUSH1 0x0 DUP1 PUSH1 0x7 PUSH1 0x1 SWAP1 SLOAD SWAP1 PUSH2 0x100 EXP SWAP1 DIV PUSH1 0x1 PUSH1 0x1 PUSH1 0xA0 SHL SUB AND PUSH1 0x1 PUSH1 0x1 PUSH1 0xA0 SHL SUB AND PUSH4 0x70A08231 ADDRESS PUSH1 0x40 MLOAD DUP3 PUSH4 0xFFFFFFFF AND PUSH1 0xE0 SHL DUP2 MSTORE PUSH1 0x4 ADD DUP1 DUP3 PUSH1 0x1 PUSH1 0x1 PUSH1 0xA0 SHL SUB AND DUP2 MSTORE PUSH1 0x20 ADD SWAP2 POP POP PUSH1 0x20 PUSH1 0x40 MLOAD DUP1 DUP4 SUB DUP2 DUP7 DUP1 EXTCODESIZE ISZERO DUP1 ISZERO PUSH2 0x9F6 JUMPI PUSH1 0x0 DUP1 REVERT JUMPDEST POP GAS STATICCALL ISZERO DUP1 ISZERO PUSH2 0xA0A JUMPI RETURNDATASIZE PUSH1 0x0 DUP1 RETURNDATACOPY RETURNDATASIZE PUSH1 0x0 REVERT JUMPDEST POP POP POP POP PUSH1 0x40 MLOAD RETURNDATASIZE PUSH1 0x20 DUP2 LT ISZERO PUSH2 0xA20 JUMPI PUSH1 0x0 DUP1 REVERT JUMPDEST POP MLOAD SWAP1 POP PUSH1 0x0 PUSH2 0xA2E PUSH2 0xF73 JUMP JUMPDEST SWAP1 POP PUSH1 0x0 PUSH2 0xA49 DUP3 PUSH2 0xA43 DUP6 PUSH3 0xF4240 PUSH2 0x2145 JUMP JUMPDEST SWAP1 PUSH2 0x21A5 JUMP JUMPDEST SWAP4 POP POP POP POP SWAP1 JUMP JUMPDEST PUSH1 0x4 SLOAD SWAP1 JUMP JUMPDEST PUSH1 0x11 SLOAD DUP2 JUMP JUMPDEST PUSH1 0x12 SLOAD DUP2 JUMP JUMPDEST PUSH1 0xF SLOAD PUSH1 0x1 PUSH1 0x1 PUSH1 0xA0 SHL SUB AND DUP2 JUMP JUMPDEST PUSH1 0x0 PUSH2 0xA7F DUP5 DUP5 DUP5 PUSH2 0x21E7 JUMP JUMPDEST PUSH2 0xAEF DUP5 PUSH2 0xA8B PUSH2 0x2055 JUMP JUMPDEST PUSH2 0xAEA DUP6 PUSH1 0x40 MLOAD DUP1 PUSH1 0x60 ADD PUSH1 0x40 MSTORE DUP1 PUSH1 0x28 DUP2 MSTORE PUSH1 0x20 ADD PUSH2 0x3288 PUSH1 0x28 SWAP2 CODECOPY PUSH1 0x1 PUSH1 0x1 PUSH1 0xA0 SHL SUB DUP11 AND PUSH1 0x0 SWAP1 DUP2 MSTORE PUSH1 0x3 PUSH1 0x20 MSTORE PUSH1 0x40 DUP2 KECCAK256 SWAP1 PUSH2 0xAC9 PUSH2 0x2055 JUMP JUMPDEST PUSH1 0x1 PUSH1 0x1 PUSH1 0xA0 SHL SUB AND DUP2 MSTORE PUSH1 0x20 DUP2 ADD SWAP2 SWAP1 SWAP2 MSTORE PUSH1 0x40 ADD PUSH1 0x0 KECCAK256 SLOAD SWAP2 SWAP1 PUSH2 0x2339 JUMP JUMPDEST PUSH2 0x2059 JUMP JUMPDEST POP PUSH1 0x1 SWAP4 SWAP3 POP POP POP JUMP JUMPDEST PUSH1 0x0 DUP1 PUSH2 0xB05 ADDRESS PUSH2 0x23D0 JUMP JUMPDEST SWAP2 POP POP SWAP1 JUMP JUMPDEST PUSH1 0x0 DUP1 SLOAD PUSH1 0x1 ADD SWAP1 DUP2 SWAP1 SSTORE DUP2 PUSH2 0xB68 JUMPI PUSH1 0x40 DUP1 MLOAD PUSH3 0x461BCD PUSH1 0xE5 SHL DUP2 MSTORE PUSH1 0x20 PUSH1 0x4 DUP3 ADD MSTORE PUSH1 0x1F PUSH1 0x24 DUP3 ADD MSTORE PUSH32 0x7769746864726177206D7573742062652067726561746572207468616E203000 PUSH1 0x44 DUP3 ADD MSTORE SWAP1 MLOAD SWAP1 DUP2 SWAP1 SUB PUSH1 0x64 ADD SWAP1 REVERT JUMPDEST PUSH1 0x0 PUSH2 0xB73 CALLER PUSH2 0xF58 JUMP JUMPDEST SWAP1 POP DUP1 DUP4 GT ISZERO PUSH2 0xBC1 JUMPI PUSH1 0x40 DUP1 MLOAD PUSH3 0x461BCD PUSH1 0xE5 SHL DUP2 MSTORE PUSH1 0x20 PUSH1 0x4 DUP3 ADD MSTORE PUSH1 0x14 PUSH1 0x24 DUP3 ADD MSTORE PUSH20 0x696E73756666696369656E742062616C616E6365 PUSH1 0x60 SHL PUSH1 0x44 DUP3 ADD MSTORE SWAP1 MLOAD SWAP1 DUP2 SWAP1 SUB PUSH1 0x64 ADD SWAP1 REVERT JUMPDEST PUSH1 0x0 PUSH2 0xBCB PUSH2 0xF73 JUMP JUMPDEST SWAP1 POP PUSH1 0x0 PUSH2 0xBE4 PUSH2 0xBDA PUSH2 0xA51 JUMP JUMPDEST PUSH2 0xA43 DUP5 DUP9 PUSH2 0x2145 JUMP JUMPDEST SWAP1 POP PUSH2 0xBF0 CALLER DUP7 PUSH2 0x2458 JUMP JUMPDEST PUSH1 0x7 SLOAD PUSH1 0x40 DUP1 MLOAD PUSH4 0x70A08231 PUSH1 0xE0 SHL DUP2 MSTORE ADDRESS PUSH1 0x4 DUP3 ADD MSTORE SWAP1 MLOAD PUSH1 0x0 SWAP3 PUSH2 0x100 SWAP1 DIV PUSH1 0x1 PUSH1 0x1 PUSH1 0xA0 SHL SUB AND SWAP2 PUSH4 0x70A08231 SWAP2 PUSH1 0x24 DUP1 DUP4 ADD SWAP3 PUSH1 0x20 SWAP3 SWAP2 SWAP1 DUP3 SWAP1 SUB ADD DUP2 DUP7 DUP1 EXTCODESIZE ISZERO DUP1 ISZERO PUSH2 0xC40 JUMPI PUSH1 0x0 DUP1 REVERT JUMPDEST POP GAS STATICCALL ISZERO DUP1 ISZERO PUSH2 0xC54 JUMPI RETURNDATASIZE PUSH1 0x0 DUP1 RETURNDATACOPY RETURNDATASIZE PUSH1 0x0 REVERT JUMPDEST POP POP POP POP PUSH1 0x40 MLOAD RETURNDATASIZE PUSH1 0x20 DUP2 LT ISZERO PUSH2 0xC6A JUMPI PUSH1 0x0 DUP1 REVERT JUMPDEST POP MLOAD SWAP1 POP DUP2 DUP2 LT ISZERO PUSH2 0xC9A JUMPI PUSH1 0x0 PUSH2 0xC81 DUP4 PUSH2 0x2548 JUMP JUMPDEST SWAP1 POP PUSH2 0xC8D DUP4 DUP3 PUSH2 0x2567 JUMP JUMPDEST SWAP3 POP PUSH2 0xC98 DUP4 PUSH2 0x25A9 JUMP JUMPDEST POP JUMPDEST PUSH1 0x7 SLOAD PUSH2 0xCB6 SWAP1 PUSH2 0x100 SWAP1 DIV PUSH1 0x1 PUSH1 0x1 PUSH1 0xA0 SHL SUB AND CALLER DUP5 PUSH2 0x25B2 JUMP JUMPDEST POP POP POP POP PUSH1 0x0 SLOAD DUP2 EQ PUSH2 0xD10 JUMPI PUSH1 0x40 DUP1 MLOAD PUSH3 0x461BCD PUSH1 0xE5 SHL DUP2 MSTORE PUSH1 0x20 PUSH1 0x4 DUP3 ADD MSTORE PUSH1 0x1F PUSH1 0x24 DUP3 ADD MSTORE PUSH32 0x5265656E7472616E637947756172643A207265656E7472616E742063616C6C00 PUSH1 0x44 DUP3 ADD MSTORE SWAP1 MLOAD SWAP1 DUP2 SWAP1 SUB PUSH1 0x64 ADD SWAP1 REVERT JUMPDEST POP POP JUMP JUMPDEST PUSH1 0x7 SLOAD PUSH1 0xFF AND SWAP1 JUMP JUMPDEST PUSH20 0xF491E7B69E4244AD4002BC14E878A34207E38C29 SWAP1 JUMP JUMPDEST PUSH1 0xF SLOAD PUSH1 0x1 PUSH1 0x1 PUSH1 0xA0 SHL SUB AND CALLER EQ DUP1 PUSH2 0xD66 JUMPI POP PUSH2 0xD51 PUSH2 0x15A3 JUMP JUMPDEST PUSH1 0x1 PUSH1 0x1 PUSH1 0xA0 SHL SUB AND CALLER PUSH1 0x1 PUSH1 0x1 PUSH1 0xA0 SHL SUB AND EQ JUMPDEST PUSH2 0xD6F JUMPI PUSH1 0x0 DUP1 REVERT JUMPDEST PUSH2 0xD93 PUSH2 0xD7A PUSH2 0xE37 JUMP JUMPDEST PUSH1 0x7 SLOAD PUSH2 0x100 SWAP1 DIV PUSH1 0x1 PUSH1 0x1 PUSH1 0xA0 SHL SUB AND SWAP1 PUSH1 0x0 PUSH2 0x1F0B JUMP JUMPDEST PUSH2 0xDB2 PUSH2 0xD9E PUSH2 0x18DC JUMP JUMPDEST PUSH1 0x8 SLOAD PUSH1 0x1 PUSH1 0x1 PUSH1 0xA0 SHL SUB AND SWAP1 PUSH1 0x0 PUSH2 0x1F0B JUMP JUMPDEST PUSH2 0xDBD PUSH2 0xD7A PUSH2 0xD1D JUMP JUMPDEST PUSH2 0xDC8 PUSH2 0xD9E PUSH2 0xD1D JUMP JUMPDEST PUSH2 0xDE7 PUSH2 0xDD3 PUSH2 0xD1D JUMP JUMPDEST PUSH1 0xB SLOAD PUSH1 0x1 PUSH1 0x1 PUSH1 0xA0 SHL SUB AND SWAP1 PUSH1 0x0 PUSH2 0x1F0B JUMP JUMPDEST JUMP JUMPDEST PUSH1 0x0 PUSH2 0x981 PUSH2 0xDF6 PUSH2 0x2055 JUMP JUMPDEST DUP5 PUSH2 0xAEA DUP6 PUSH1 0x3 PUSH1 0x0 PUSH2 0xE07 PUSH2 0x2055 JUMP JUMPDEST PUSH1 0x1 PUSH1 0x1 PUSH1 0xA0 SHL SUB SWAP1 DUP2 AND DUP3 MSTORE PUSH1 0x20 DUP1 DUP4 ADD SWAP4 SWAP1 SWAP4 MSTORE PUSH1 0x40 SWAP2 DUP3 ADD PUSH1 0x0 SWAP1 DUP2 KECCAK256 SWAP2 DUP13 AND DUP2 MSTORE SWAP3 MSTORE SWAP1 KECCAK256 SLOAD SWAP1 PUSH2 0x2604 JUMP JUMPDEST PUSH20 0xE45AC34E528907D0A0239AB5DB507688070B20BF SWAP1 JUMP JUMPDEST PUSH1 0x0 DUP1 PUSH2 0xE5A PUSH2 0x265E JUMP JUMPDEST SWAP1 POP PUSH1 0x0 PUSH2 0xE66 PUSH2 0x1545 JUMP JUMPDEST SWAP1 POP PUSH2 0xE76 DUP3 PUSH2 0xA43 DUP7 DUP5 PUSH2 0x2145 JUMP JUMPDEST SWAP5 SWAP4 POP POP POP POP JUMP JUMPDEST PUSH1 0x7 SLOAD PUSH1 0x0 SWAP1 DUP2 SWAP1 PUSH2 0x100 SWAP1 DIV PUSH1 0x1 PUSH1 0x1 PUSH1 0xA0 SHL SUB AND PUSH4 0x70A08231 PUSH2 0xEA1 PUSH2 0xE37 JUMP JUMPDEST PUSH1 0x40 MLOAD DUP3 PUSH4 0xFFFFFFFF AND PUSH1 0xE0 SHL DUP2 MSTORE PUSH1 0x4 ADD DUP1 DUP3 PUSH1 0x1 PUSH1 0x1 PUSH1 0xA0 SHL SUB AND DUP2 MSTORE PUSH1 0x20 ADD SWAP2 POP POP PUSH1 0x20 PUSH1 0x40 MLOAD DUP1 DUP4 SUB DUP2 DUP7 DUP1 EXTCODESIZE ISZERO DUP1 ISZERO PUSH2 0xEDE JUMPI PUSH1 0x0 DUP1 REVERT JUMPDEST POP GAS STATICCALL ISZERO DUP1 ISZERO PUSH2 0xEF2 JUMPI RETURNDATASIZE PUSH1 0x0 DUP1 RETURNDATACOPY RETURNDATASIZE PUSH1 0x0 REVERT JUMPDEST POP POP POP POP PUSH1 0x40 MLOAD RETURNDATASIZE PUSH1 0x20 DUP2 LT ISZERO PUSH2 0xF08 JUMPI PUSH1 0x0 DUP1 REVERT JUMPDEST POP MLOAD SWAP2 POP POP SWAP1 JUMP JUMPDEST PUSH20 0x30872E4FC4EDBFD7A352BFC2463EB4FAE9C09086 SWAP1 JUMP JUMPDEST PUSH20 0x260E596DABE3AFC463E75B6CC05D8C46ACACFB09 SWAP1 JUMP JUMPDEST PUSH20 0x2B4C76D0DC16BE1C31D4C1DC53BF9B45987FC75C SWAP1 JUMP JUMPDEST PUSH1 0x1 PUSH1 0x1 PUSH1 0xA0 SHL SUB AND PUSH1 0x0 SWAP1 DUP2 MSTORE PUSH1 0x2 PUSH1 0x20 MSTORE PUSH1 0x40 SWAP1 KECCAK256 SLOAD SWAP1 JUMP JUMPDEST PUSH1 0x0 DUP1 PUSH2 0xF7E PUSH2 0x1727 JUMP JUMPDEST SWAP1 POP PUSH1 0x0 PUSH2 0xF8A PUSH2 0x1B4C JUMP JUMPDEST SWAP1 POP PUSH1 0x0 PUSH2 0xF96 PUSH2 0x1C6E JUMP JUMPDEST SWAP1 POP PUSH1 0x0 PUSH2 0xFA2 PUSH2 0x11F8 JUMP JUMPDEST SWAP3 SWAP1 SWAP4 ADD SUB ADD SWAP2 POP POP SWAP1 JUMP JUMPDEST PUSH2 0xFB6 PUSH2 0x15B2 JUMP JUMPDEST PUSH2 0x1007 JUMPI PUSH1 0x40 DUP1 MLOAD PUSH3 0x461BCD PUSH1 0xE5 SHL DUP2 MSTORE PUSH1 0x20 PUSH1 0x4 DUP3 ADD DUP2 SWAP1 MSTORE PUSH1 0x24 DUP3 ADD MSTORE PUSH32 0x4F776E61626C653A2063616C6C6572206973206E6F7420746865206F776E6572 PUSH1 0x44 DUP3 ADD MSTORE SWAP1 MLOAD SWAP1 DUP2 SWAP1 SUB PUSH1 0x64 ADD SWAP1 REVERT JUMPDEST PUSH1 0x1 SLOAD PUSH1 0x40 MLOAD PUSH1 0x0 SWAP2 PUSH1 0x1 PUSH1 0x1 PUSH1 0xA0 SHL SUB AND SWAP1 PUSH32 0x8BE0079C531659141344CD1FD0A4F28419497F9722A3DAAFE3B4186F6B6457E0 SWAP1 DUP4 SWAP1 LOG3 PUSH1 0x1 DUP1 SLOAD PUSH1 0x1 PUSH1 0x1 PUSH1 0xA0 SHL SUB NOT AND SWAP1 SSTORE JUMP JUMPDEST PUSH1 0xF SLOAD PUSH1 0x1 PUSH1 0x1 PUSH1 0xA0 SHL SUB AND CALLER EQ DUP1 PUSH2 0x1082 JUMPI POP PUSH2 0x106D PUSH2 0x15A3 JUMP JUMPDEST PUSH1 0x1 PUSH1 0x1 PUSH1 0xA0 SHL SUB AND CALLER PUSH1 0x1 PUSH1 0x1 PUSH1 0xA0 SHL SUB AND EQ JUMPDEST PUSH2 0x108B JUMPI PUSH1 0x0 DUP1 REVERT JUMPDEST PUSH1 0x1 PUSH1 0x1 PUSH1 0xA0 SHL SUB DUP2 AND PUSH2 0x109E JUMPI PUSH1 0x0 DUP1 REVERT JUMPDEST PUSH1 0x10 DUP1 SLOAD PUSH1 0x1 PUSH1 0x1 PUSH1 0xA0 SHL SUB DUP4 AND PUSH1 0x1 PUSH1 0x1 PUSH1 0xA0 SHL SUB NOT SWAP1 SWAP2 AND DUP2 OR SWAP1 SWAP2 SSTORE PUSH1 0x40 DUP1 MLOAD SWAP2 DUP3 MSTORE MLOAD PUSH32 0x2F202DDB4A2E345F6323ED90F8FC8559D770A7ABBBEEE84DDE8ACA3351FE7154 SWAP2 DUP2 SWAP1 SUB PUSH1 0x20 ADD SWAP1 LOG1 POP JUMP JUMPDEST PUSH1 0xF SLOAD PUSH1 0x1 PUSH1 0x1 PUSH1 0xA0 SHL SUB AND CALLER EQ DUP1 PUSH2 0x1123 JUMPI POP PUSH2 0x110E PUSH2 0x15A3 JUMP JUMPDEST PUSH1 0x1 PUSH1 0x1 PUSH1 0xA0 SHL SUB AND CALLER PUSH1 0x1 PUSH1 0x1 PUSH1 0xA0 SHL SUB AND EQ JUMPDEST PUSH2 0x112C JUMPI PUSH1 0x0 DUP1 REVERT JUMPDEST PUSH2 0x1151 PUSH2 0x1137 PUSH2 0xE37 JUMP JUMPDEST PUSH1 0x7 SLOAD PUSH2 0x100 SWAP1 DIV PUSH1 0x1 PUSH1 0x1 PUSH1 0xA0 SHL SUB AND SWAP1 PUSH1 0x0 NOT PUSH2 0x1F0B JUMP JUMPDEST PUSH2 0x1171 PUSH2 0x115C PUSH2 0x18DC JUMP JUMPDEST PUSH1 0x8 SLOAD PUSH1 0x1 PUSH1 0x1 PUSH1 0xA0 SHL SUB AND SWAP1 PUSH1 0x0 NOT PUSH2 0x1F0B JUMP JUMPDEST PUSH2 0x117C PUSH2 0x1137 PUSH2 0xD1D JUMP JUMPDEST PUSH2 0x1187 PUSH2 0x115C PUSH2 0xD1D JUMP JUMPDEST PUSH2 0x11A7 PUSH2 0x1192 PUSH2 0xD1D JUMP JUMPDEST PUSH1 0xB SLOAD PUSH1 0x1 PUSH1 0x1 PUSH1 0xA0 SHL SUB AND SWAP1 PUSH1 0x0 NOT PUSH2 0x1F0B JUMP JUMPDEST PUSH2 0xDE7 PUSH2 0x11B2 PUSH2 0xD1D JUMP JUMPDEST PUSH1 0xD SLOAD PUSH1 0x1 PUSH1 0x1 PUSH1 0xA0 SHL SUB AND SWAP1 PUSH1 0x0 NOT PUSH2 0x1F0B JUMP JUMPDEST PUSH1 0x0 DUP1 PUSH2 0x11D2 PUSH2 0xF73 JUMP JUMPDEST SWAP1 POP PUSH1 0x0 PUSH2 0x11DE PUSH2 0xA51 JUMP JUMPDEST SWAP1 POP PUSH2 0x11F1 DUP2 PUSH2 0xA43 DUP5 PUSH3 0xF4240 PUSH2 0x2145 JUMP JUMPDEST SWAP3 POP POP POP SWAP1 JUMP JUMPDEST PUSH1 0x8 SLOAD PUSH1 0x40 DUP1 MLOAD PUSH4 0x70A08231 PUSH1 0xE0 SHL DUP2 MSTORE ADDRESS PUSH1 0x4 DUP3 ADD MSTORE SWAP1 MLOAD PUSH1 0x0 SWAP3 PUSH2 0x127B SWAP3 PUSH1 0x1 PUSH1 0x1 PUSH1 0xA0 SHL SUB SWAP1 SWAP2 AND SWAP2 PUSH4 0x70A08231 SWAP2 PUSH1 0x24 DUP1 DUP3 ADD SWAP3 PUSH1 0x20 SWAP3 SWAP1 SWAP2 SWAP1 DUP3 SWAP1 SUB ADD DUP2 DUP7 DUP1 EXTCODESIZE ISZERO DUP1 ISZERO PUSH2 0x124A JUMPI PUSH1 0x0 DUP1 REVERT JUMPDEST POP GAS STATICCALL ISZERO DUP1 ISZERO PUSH2 0x125E JUMPI RETURNDATASIZE PUSH1 0x0 DUP1 RETURNDATACOPY RETURNDATASIZE PUSH1 0x0 REVERT JUMPDEST POP POP POP POP PUSH1 0x40 MLOAD RETURNDATASIZE PUSH1 0x20 DUP2 LT ISZERO PUSH2 0x1274 JUMPI PUSH1 0x0 DUP1 REVERT JUMPDEST POP MLOAD PUSH2 0xE4F JUMP JUMPDEST SWAP1 POP SWAP1 JUMP JUMPDEST PUSH1 0x10 SLOAD PUSH1 0x1 PUSH1 0x1 PUSH1 0xA0 SHL SUB AND CALLER EQ DUP1 PUSH2 0x12A3 JUMPI POP PUSH1 0xF SLOAD PUSH1 0x1 PUSH1 0x1 PUSH1 0xA0 SHL SUB AND CALLER EQ JUMPDEST DUP1 PUSH2 0x12C6 JUMPI POP PUSH2 0x12B1 PUSH2 0x15A3 JUMP JUMPDEST PUSH1 0x1 PUSH1 0x1 PUSH1 0xA0 SHL SUB AND CALLER PUSH1 0x1 PUSH1 0x1 PUSH1 0xA0 SHL SUB AND EQ JUMPDEST PUSH2 0x12CF JUMPI PUSH1 0x0 DUP1 REVERT JUMPDEST PUSH1 0x0 PUSH2 0x12D9 PUSH2 0x1C6E JUMP JUMPDEST SWAP1 POP PUSH1 0x0 PUSH2 0x12E5 PUSH2 0x1727 JUMP JUMPDEST SWAP1 POP PUSH1 0x0 PUSH2 0x12F1 PUSH2 0x1E03 JUMP JUMPDEST SWAP1 POP PUSH1 0x13 SLOAD DUP2 GT ISZERO PUSH2 0x134A JUMPI PUSH1 0x0 PUSH2 0x132C PUSH2 0x130A PUSH2 0x1C6E JUMP JUMPDEST PUSH2 0x1326 PUSH3 0xF4240 PUSH2 0xA43 PUSH3 0xB71B0 PUSH2 0x1320 PUSH2 0x1727 JUMP JUMPDEST SWAP1 PUSH2 0x2145 JUMP JUMPDEST SWAP1 PUSH2 0x2567 JUMP JUMPDEST SWAP1 POP PUSH2 0x1337 DUP2 PUSH2 0x26B0 JUMP JUMPDEST PUSH2 0x1340 DUP2 PUSH2 0x26B9 JUMP JUMPDEST PUSH2 0x1348 PUSH2 0x270C JUMP JUMPDEST POP JUMPDEST PUSH1 0x14 SLOAD DUP2 LT ISZERO PUSH2 0x1522 JUMPI PUSH1 0x0 PUSH2 0x137D PUSH3 0xF4240 PUSH2 0xA43 PUSH2 0x1368 PUSH2 0x1727 JUMP JUMPDEST PUSH2 0x1320 PUSH2 0x1373 PUSH2 0x1E03 JUMP JUMPDEST PUSH3 0xB71B0 SWAP1 PUSH2 0x2567 JUMP JUMPDEST SWAP1 POP PUSH1 0x0 PUSH2 0x138A DUP3 PUSH2 0x27BC JUMP JUMPDEST PUSH1 0x8 SLOAD PUSH1 0x40 DUP1 MLOAD PUSH4 0x70A08231 PUSH1 0xE0 SHL DUP2 MSTORE ADDRESS PUSH1 0x4 DUP3 ADD MSTORE SWAP1 MLOAD SWAP3 SWAP4 POP PUSH2 0x140D SWAP3 PUSH1 0x1 PUSH1 0x1 PUSH1 0xA0 SHL SUB SWAP1 SWAP3 AND SWAP2 PUSH4 0x70A08231 SWAP2 PUSH1 0x24 DUP1 DUP3 ADD SWAP3 PUSH1 0x20 SWAP3 SWAP1 SWAP2 SWAP1 DUP3 SWAP1 SUB ADD DUP2 DUP7 DUP1 EXTCODESIZE ISZERO DUP1 ISZERO PUSH2 0x13DC JUMPI PUSH1 0x0 DUP1 REVERT JUMPDEST POP GAS STATICCALL ISZERO DUP1 ISZERO PUSH2 0x13F0 JUMPI RETURNDATASIZE PUSH1 0x0 DUP1 RETURNDATACOPY RETURNDATASIZE PUSH1 0x0 REVERT JUMPDEST POP POP POP POP PUSH1 0x40 MLOAD RETURNDATASIZE PUSH1 0x20 DUP2 LT ISZERO PUSH2 0x1406 JUMPI PUSH1 0x0 DUP1 REVERT JUMPDEST POP MLOAD PUSH2 0x27F0 JUMP JUMPDEST PUSH1 0x7 SLOAD PUSH1 0x40 DUP1 MLOAD PUSH4 0x70A08231 PUSH1 0xE0 SHL DUP2 MSTORE ADDRESS PUSH1 0x4 DUP3 ADD MSTORE SWAP1 MLOAD PUSH2 0x100 SWAP1 SWAP3 DIV PUSH1 0x1 PUSH1 0x1 PUSH1 0xA0 SHL SUB AND SWAP2 PUSH4 0x70A08231 SWAP2 PUSH1 0x24 DUP1 DUP3 ADD SWAP3 PUSH1 0x20 SWAP3 SWAP1 SWAP2 SWAP1 DUP3 SWAP1 SUB ADD DUP2 DUP7 DUP1 EXTCODESIZE ISZERO DUP1 ISZERO PUSH2 0x145C JUMPI PUSH1 0x0 DUP1 REVERT JUMPDEST POP GAS STATICCALL ISZERO DUP1 ISZERO PUSH2 0x1470 JUMPI RETURNDATASIZE PUSH1 0x0 DUP1 RETURNDATACOPY RETURNDATASIZE PUSH1 0x0 REVERT JUMPDEST POP POP POP POP PUSH1 0x40 MLOAD RETURNDATASIZE PUSH1 0x20 DUP2 LT ISZERO PUSH2 0x1486 JUMPI PUSH1 0x0 DUP1 REVERT JUMPDEST POP MLOAD DUP3 LT ISZERO PUSH2 0x149D JUMPI PUSH2 0x1498 DUP3 PUSH2 0x2833 JUMP JUMPDEST PUSH2 0x151F JUMP JUMPDEST PUSH1 0x7 SLOAD PUSH1 0x40 DUP1 MLOAD PUSH4 0x70A08231 PUSH1 0xE0 SHL DUP2 MSTORE ADDRESS PUSH1 0x4 DUP3 ADD MSTORE SWAP1 MLOAD PUSH2 0x151F SWAP3 PUSH2 0x100 SWAP1 DIV PUSH1 0x1 PUSH1 0x1 PUSH1 0xA0 SHL SUB AND SWAP2 PUSH4 0x70A08231 SWAP2 PUSH1 0x24 DUP1 DUP4 ADD SWAP3 PUSH1 0x20 SWAP3 SWAP2 SWAP1 DUP3 SWAP1 SUB ADD DUP2 DUP7 DUP1 EXTCODESIZE ISZERO DUP1 ISZERO PUSH2 0x14EE JUMPI PUSH1 0x0 DUP1 REVERT JUMPDEST POP GAS STATICCALL ISZERO DUP1 ISZERO PUSH2 0x1502 JUMPI RETURNDATASIZE PUSH1 0x0 DUP1 RETURNDATACOPY RETURNDATASIZE PUSH1 0x0 REVERT JUMPDEST POP POP POP POP PUSH1 0x40 MLOAD RETURNDATASIZE PUSH1 0x20 DUP2 LT ISZERO PUSH2 0x1518 JUMPI PUSH1 0x0 DUP1 REVERT JUMPDEST POP MLOAD PUSH2 0x2833 JUMP JUMPDEST POP POP JUMPDEST POP POP POP JUMP JUMPDEST PUSH1 0x2 SWAP1 JUMP JUMPDEST PUSH1 0x0 PUSH2 0x1537 CALLER PUSH2 0xF58 JUMP JUMPDEST SWAP1 POP PUSH2 0x1542 DUP2 PUSH2 0xB0B JUMP JUMPDEST POP JUMP JUMPDEST PUSH1 0x7 SLOAD PUSH1 0x9 SLOAD PUSH1 0x40 DUP1 MLOAD PUSH4 0x70A08231 PUSH1 0xE0 SHL DUP2 MSTORE PUSH1 0x1 PUSH1 0x1 PUSH1 0xA0 SHL SUB SWAP3 DUP4 AND PUSH1 0x4 DUP3 ADD MSTORE SWAP1 MLOAD PUSH1 0x0 SWAP4 DUP5 SWAP4 PUSH2 0x100 SWAP1 SWAP2 DIV AND SWAP2 PUSH4 0x70A08231 SWAP2 PUSH1 0x24 DUP1 DUP4 ADD SWAP3 PUSH1 0x20 SWAP3 SWAP2 SWAP1 DUP3 SWAP1 SUB ADD DUP2 DUP7 DUP1 EXTCODESIZE ISZERO DUP1 ISZERO PUSH2 0xEDE JUMPI PUSH1 0x0 DUP1 REVERT JUMPDEST PUSH1 0x18 SLOAD DUP2 JUMP JUMPDEST PUSH1 0x1 SLOAD PUSH1 0x1 PUSH1 0x1 PUSH1 0xA0 SHL SUB AND SWAP1 JUMP JUMPDEST PUSH1 0x1 SLOAD PUSH1 0x0 SWAP1 PUSH1 0x1 PUSH1 0x1 PUSH1 0xA0 SHL SUB AND PUSH2 0x15C9 PUSH2 0x2055 JUMP JUMPDEST PUSH1 0x1 PUSH1 0x1 PUSH1 0xA0 SHL SUB AND EQ SWAP1 POP SWAP1 JUMP JUMPDEST PUSH1 0xF SLOAD PUSH1 0x1 PUSH1 0x1 PUSH1 0xA0 SHL SUB AND CALLER EQ DUP1 PUSH2 0x1609 JUMPI POP PUSH2 0x15F4 PUSH2 0x15A3 JUMP JUMPDEST PUSH1 0x1 PUSH1 0x1 PUSH1 0xA0 SHL SUB AND CALLER PUSH1 0x1 PUSH1 0x1 PUSH1 0xA0 SHL SUB AND EQ JUMPDEST PUSH2 0x1612 JUMPI PUSH1 0x0 DUP1 REVERT JUMPDEST DUP2 PUSH3 0xB71B0 GT PUSH2 0x1621 JUMPI PUSH1 0x0 DUP1 REVERT JUMPDEST DUP1 DUP3 LT ISZERO PUSH2 0x162E JUMPI PUSH1 0x0 DUP1 REVERT JUMPDEST DUP3 DUP2 LT ISZERO PUSH2 0x163B JUMPI PUSH1 0x0 DUP1 REVERT JUMPDEST POP PUSH1 0x13 SSTORE PUSH1 0x14 SSTORE JUMP JUMPDEST PUSH1 0x6 DUP1 SLOAD PUSH1 0x40 DUP1 MLOAD PUSH1 0x20 PUSH1 0x1F PUSH1 0x2 PUSH1 0x0 NOT PUSH2 0x100 PUSH1 0x1 DUP9 AND ISZERO MUL ADD SWAP1 SWAP6 AND SWAP5 SWAP1 SWAP5 DIV SWAP4 DUP5 ADD DUP2 SWAP1 DIV DUP2 MUL DUP3 ADD DUP2 ADD SWAP1 SWAP3 MSTORE DUP3 DUP2 MSTORE PUSH1 0x60 SWAP4 SWAP1 SWAP3 SWAP1 SWAP2 DUP4 ADD DUP3 DUP3 DUP1 ISZERO PUSH2 0x963 JUMPI DUP1 PUSH1 0x1F LT PUSH2 0x938 JUMPI PUSH2 0x100 DUP1 DUP4 SLOAD DIV MUL DUP4 MSTORE SWAP2 PUSH1 0x20 ADD SWAP2 PUSH2 0x963 JUMP JUMPDEST PUSH1 0x0 PUSH2 0x981 PUSH2 0x16B2 PUSH2 0x2055 JUMP JUMPDEST DUP5 PUSH2 0xAEA DUP6 PUSH1 0x40 MLOAD DUP1 PUSH1 0x60 ADD PUSH1 0x40 MSTORE DUP1 PUSH1 0x25 DUP2 MSTORE PUSH1 0x20 ADD PUSH2 0x337A PUSH1 0x25 SWAP2 CODECOPY PUSH1 0x3 PUSH1 0x0 PUSH2 0x16DC PUSH2 0x2055 JUMP JUMPDEST PUSH1 0x1 PUSH1 0x1 PUSH1 0xA0 SHL SUB SWAP1 DUP2 AND DUP3 MSTORE PUSH1 0x20 DUP1 DUP4 ADD SWAP4 SWAP1 SWAP4 MSTORE PUSH1 0x40 SWAP2 DUP3 ADD PUSH1 0x0 SWAP1 DUP2 KECCAK256 SWAP2 DUP14 AND DUP2 MSTORE SWAP3 MSTORE SWAP1 KECCAK256 SLOAD SWAP2 SWAP1 PUSH2 0x2339 JUMP JUMPDEST PUSH1 0x0 PUSH2 0x981 PUSH2 0x171A PUSH2 0x2055 JUMP JUMPDEST DUP5 DUP5 PUSH2 0x21E7 JUMP JUMPDEST PUSH1 0x14 SLOAD DUP2 JUMP JUMPDEST PUSH1 0xC SLOAD PUSH1 0x40 DUP1 MLOAD PUSH4 0x70A08231 PUSH1 0xE0 SHL DUP2 MSTORE ADDRESS PUSH1 0x4 DUP3 ADD MSTORE SWAP1 MLOAD PUSH1 0x0 SWAP3 DUP4 SWAP3 PUSH1 0x1 PUSH1 0x1 PUSH1 0xA0 SHL SUB SWAP1 SWAP2 AND SWAP2 PUSH4 0x70A08231 SWAP2 PUSH1 0x24 DUP1 DUP3 ADD SWAP3 PUSH1 0x20 SWAP3 SWAP1 SWAP2 SWAP1 DUP3 SWAP1 SUB ADD DUP2 DUP7 DUP1 EXTCODESIZE ISZERO DUP1 ISZERO PUSH2 0x1777 JUMPI PUSH1 0x0 DUP1 REVERT JUMPDEST POP GAS STATICCALL ISZERO DUP1 ISZERO PUSH2 0x178B JUMPI RETURNDATASIZE PUSH1 0x0 DUP1 RETURNDATACOPY RETURNDATASIZE PUSH1 0x0 REVERT JUMPDEST POP POP POP POP PUSH1 0x40 MLOAD RETURNDATASIZE PUSH1 0x20 DUP2 LT ISZERO PUSH2 0x17A1 JUMPI PUSH1 0x0 DUP1 REVERT JUMPDEST POP MLOAD SWAP1 POP PUSH2 0xB05 PUSH8 0xDE0B6B3A7640000 PUSH2 0xA43 PUSH2 0x17BC PUSH2 0x283C JUMP JUMPDEST DUP5 SWAP1 PUSH2 0x2145 JUMP JUMPDEST PUSH1 0x10 SLOAD PUSH1 0x1 PUSH1 0x1 PUSH1 0xA0 SHL SUB AND DUP2 JUMP JUMPDEST PUSH1 0x10 SLOAD PUSH1 0x1 PUSH1 0x1 PUSH1 0xA0 SHL SUB AND CALLER EQ DUP1 PUSH2 0x17F5 JUMPI POP PUSH1 0xF SLOAD PUSH1 0x1 PUSH1 0x1 PUSH1 0xA0 SHL SUB AND CALLER EQ JUMPDEST DUP1 PUSH2 0x1818 JUMPI POP PUSH2 0x1803 PUSH2 0x15A3 JUMP JUMPDEST PUSH1 0x1 PUSH1 0x1 PUSH1 0xA0 SHL SUB AND CALLER PUSH1 0x1 PUSH1 0x1 PUSH1 0xA0 SHL SUB AND EQ JUMPDEST PUSH2 0x1821 JUMPI PUSH1 0x0 DUP1 REVERT JUMPDEST PUSH1 0x7 SLOAD PUSH1 0x40 DUP1 MLOAD PUSH4 0x70A08231 PUSH1 0xE0 SHL DUP2 MSTORE ADDRESS PUSH1 0x4 DUP3 ADD MSTORE SWAP1 MLOAD PUSH1 0x0 SWAP3 PUSH2 0x100 SWAP1 DIV PUSH1 0x1 PUSH1 0x1 PUSH1 0xA0 SHL SUB AND SWAP2 PUSH4 0x70A08231 SWAP2 PUSH1 0x24 DUP1 DUP4 ADD SWAP3 PUSH1 0x20 SWAP3 SWAP2 SWAP1 DUP3 SWAP1 SUB ADD DUP2 DUP7 DUP1 EXTCODESIZE ISZERO DUP1 ISZERO PUSH2 0x1871 JUMPI PUSH1 0x0 DUP1 REVERT JUMPDEST POP GAS STATICCALL ISZERO DUP1 ISZERO PUSH2 0x1885 JUMPI RETURNDATASIZE PUSH1 0x0 DUP1 RETURNDATACOPY RETURNDATASIZE PUSH1 0x0 REVERT JUMPDEST POP POP POP POP PUSH1 0x40 MLOAD RETURNDATASIZE PUSH1 0x20 DUP2 LT ISZERO PUSH2 0x189B JUMPI PUSH1 0x0 DUP1 REVERT JUMPDEST POP MLOAD SWAP1 POP PUSH1 0x0 PUSH2 0x18A9 PUSH2 0xF73 JUMP JUMPDEST SWAP1 POP PUSH1 0x0 PUSH2 0x18C9 PUSH3 0xF4240 PUSH2 0xA43 PUSH1 0x19 SLOAD DUP6 PUSH2 0x2145 SWAP1 SWAP2 SWAP1 PUSH4 0xFFFFFFFF AND JUMP JUMPDEST SWAP1 POP DUP1 DUP4 GT ISZERO PUSH2 0x1522 JUMPI PUSH2 0x1522 DUP2 PUSH2 0x287E JUMP JUMPDEST PUSH20 0x5AA53F03197E08C4851CAD8C92C7922DA5857E5D SWAP1 JUMP JUMPDEST PUSH1 0xF SLOAD PUSH1 0x1 PUSH1 0x1 PUSH1 0xA0 SHL SUB AND CALLER EQ DUP1 PUSH2 0x1925 JUMPI POP PUSH2 0x1910 PUSH2 0x15A3 JUMP JUMPDEST PUSH1 0x1 PUSH1 0x1 PUSH1 0xA0 SHL SUB AND CALLER PUSH1 0x1 PUSH1 0x1 PUSH1 0xA0 SHL SUB AND EQ JUMPDEST PUSH2 0x192E JUMPI PUSH1 0x0 DUP1 REVERT JUMPDEST PUSH1 0x0 PUSH2 0x193D PUSH3 0xF4240 DUP4 PUSH2 0x2567 JUMP JUMPDEST SWAP1 POP PUSH1 0x0 PUSH2 0x1952 DUP4 PUSH2 0xA43 DUP5 PUSH3 0xF4240 PUSH2 0x2145 JUMP JUMPDEST SWAP1 POP PUSH2 0xC350 DUP5 GT ISZERO PUSH2 0x1963 JUMPI PUSH1 0x0 DUP1 REVERT JUMPDEST PUSH3 0xB71B0 DUP2 GT ISZERO PUSH2 0x1973 JUMPI PUSH1 0x0 DUP1 REVERT JUMPDEST POP PUSH1 0x19 SWAP3 SWAP1 SWAP3 SSTORE PUSH1 0x11 SSTORE PUSH1 0x12 SSTORE JUMP JUMPDEST PUSH1 0x0 DUP1 SLOAD PUSH1 0x1 ADD SWAP1 DUP2 SWAP1 SSTORE DUP2 PUSH2 0x19DF JUMPI PUSH1 0x40 DUP1 MLOAD PUSH3 0x461BCD PUSH1 0xE5 SHL DUP2 MSTORE PUSH1 0x20 PUSH1 0x4 DUP3 ADD MSTORE PUSH1 0x1E PUSH1 0x24 DUP3 ADD MSTORE PUSH32 0x6465706F736974206D7573742062652067726561746572207468616E20300000 PUSH1 0x44 DUP3 ADD MSTORE SWAP1 MLOAD SWAP1 DUP2 SWAP1 SUB PUSH1 0x64 ADD SWAP1 REVERT JUMPDEST PUSH1 0x1A SLOAD DUP3 GT ISZERO PUSH2 0x19EE JUMPI PUSH1 0x0 DUP1 REVERT JUMPDEST PUSH1 0x0 PUSH2 0x19F8 PUSH2 0xF73 JUMP JUMPDEST PUSH1 0x7 SLOAD PUSH1 0x40 DUP1 MLOAD PUSH4 0x23B872DD PUSH1 0xE0 SHL DUP2 MSTORE CALLER PUSH1 0x4 DUP3 ADD MSTORE ADDRESS PUSH1 0x24 DUP3 ADD MSTORE PUSH1 0x44 DUP2 ADD DUP8 SWAP1 MSTORE SWAP1 MLOAD SWAP3 SWAP4 POP PUSH2 0x100 SWAP1 SWAP2 DIV PUSH1 0x1 PUSH1 0x1 PUSH1 0xA0 SHL SUB AND SWAP2 PUSH4 0x23B872DD SWAP2 PUSH1 0x64 DUP1 DUP3 ADD SWAP3 PUSH1 0x20 SWAP3 SWAP1 SWAP2 SWAP1 DUP3 SWAP1 SUB ADD DUP2 PUSH1 0x0 DUP8 DUP1 EXTCODESIZE ISZERO DUP1 ISZERO PUSH2 0x1A59 JUMPI PUSH1 0x0 DUP1 REVERT JUMPDEST POP GAS CALL ISZERO DUP1 ISZERO PUSH2 0x1A6D JUMPI RETURNDATASIZE PUSH1 0x0 DUP1 RETURNDATACOPY RETURNDATASIZE PUSH1 0x0 REVERT JUMPDEST POP POP POP POP PUSH1 0x40 MLOAD RETURNDATASIZE PUSH1 0x20 DUP2 LT ISZERO PUSH2 0x1A83 JUMPI PUSH1 0x0 DUP1 REVERT JUMPDEST POP PUSH1 0x0 SWAP1 POP PUSH2 0x1A90 PUSH2 0xA51 JUMP JUMPDEST PUSH2 0x1A9B JUMPI POP DUP3 PUSH2 0x1AB4 JUMP JUMPDEST PUSH2 0x1AB1 DUP3 PUSH2 0xA43 PUSH2 0x1AAA PUSH2 0xA51 JUMP JUMPDEST DUP8 SWAP1 PUSH2 0x2145 JUMP JUMPDEST SWAP1 POP JUMPDEST PUSH2 0x1ABE CALLER DUP3 PUSH2 0x2A2B JUMP JUMPDEST POP POP PUSH1 0x0 SLOAD DUP2 EQ PUSH2 0xD10 JUMPI PUSH1 0x40 DUP1 MLOAD PUSH3 0x461BCD PUSH1 0xE5 SHL DUP2 MSTORE PUSH1 0x20 PUSH1 0x4 DUP3 ADD MSTORE PUSH1 0x1F PUSH1 0x24 DUP3 ADD MSTORE PUSH32 0x5265656E7472616E637947756172643A207265656E7472616E742063616C6C00 PUSH1 0x44 DUP3 ADD MSTORE SWAP1 MLOAD SWAP1 DUP2 SWAP1 SUB PUSH1 0x64 ADD SWAP1 REVERT JUMPDEST PUSH1 0x15 SLOAD DUP2 JUMP JUMPDEST PUSH20 0xEC7178F4C41F346B2721907F5CF7628E388A7A58 SWAP1 JUMP JUMPDEST PUSH20 0x841FAD6EAE12C286D1FD18D1D525DFFA75C7EFFE SWAP1 JUMP JUMPDEST PUSH1 0x7 SLOAD PUSH1 0x40 DUP1 MLOAD PUSH4 0x70A08231 PUSH1 0xE0 SHL DUP2 MSTORE ADDRESS PUSH1 0x4 DUP3 ADD MSTORE SWAP1 MLOAD PUSH1 0x0 SWAP3 PUSH2 0x100 SWAP1 DIV PUSH1 0x1 PUSH1 0x1 PUSH1 0xA0 SHL SUB AND SWAP2 PUSH4 0x70A08231 SWAP2 PUSH1 0x24 DUP1 DUP4 ADD SWAP3 PUSH1 0x20 SWAP3 SWAP2 SWAP1 DUP3 SWAP1 SUB ADD DUP2 DUP7 DUP1 EXTCODESIZE ISZERO DUP1 ISZERO PUSH2 0x1B9C JUMPI PUSH1 0x0 DUP1 REVERT JUMPDEST POP GAS STATICCALL ISZERO DUP1 ISZERO PUSH2 0x1BB0 JUMPI RETURNDATASIZE PUSH1 0x0 DUP1 RETURNDATACOPY RETURNDATASIZE PUSH1 0x0 REVERT JUMPDEST POP POP POP POP PUSH1 0x40 MLOAD RETURNDATASIZE PUSH1 0x20 DUP2 LT ISZERO PUSH2 0x1BC6 JUMPI PUSH1 0x0 DUP1 REVERT JUMPDEST POP MLOAD SWAP1 POP SWAP1 JUMP JUMPDEST PUSH1 0xF SLOAD PUSH1 0x1 PUSH1 0x1 PUSH1 0xA0 SHL SUB AND CALLER EQ DUP1 PUSH2 0x1BFE JUMPI POP PUSH2 0x1BE9 PUSH2 0x15A3 JUMP JUMPDEST PUSH1 0x1 PUSH1 0x1 PUSH1 0xA0 SHL SUB AND CALLER PUSH1 0x1 PUSH1 0x1 PUSH1 0xA0 SHL SUB AND EQ JUMPDEST PUSH2 0x1C07 JUMPI PUSH1 0x0 DUP1 REVERT JUMPDEST PUSH1 0x1 PUSH1 0x1 PUSH1 0xA0 SHL SUB DUP2 AND PUSH2 0x1C1A JUMPI PUSH1 0x0 DUP1 REVERT JUMPDEST PUSH1 0xF DUP1 SLOAD PUSH1 0x1 PUSH1 0x1 PUSH1 0xA0 SHL SUB DUP4 AND PUSH1 0x1 PUSH1 0x1 PUSH1 0xA0 SHL SUB NOT SWAP1 SWAP2 AND DUP2 OR SWAP1 SWAP2 SSTORE PUSH1 0x40 DUP1 MLOAD SWAP2 DUP3 MSTORE MLOAD PUSH32 0x352ECECAE6D7D1E6D26BCF2C549DFD55BE1637E9B22DC0CF3B71DDB36097A6B4 SWAP2 DUP2 SWAP1 SUB PUSH1 0x20 ADD SWAP1 LOG1 POP JUMP JUMPDEST PUSH1 0x0 DUP1 PUSH2 0x1C7A ADDRESS PUSH2 0x23D0 JUMP JUMPDEST SWAP1 POP PUSH2 0xB05 DUP2 PUSH2 0xE4F JUMP JUMPDEST PUSH1 0xF SLOAD PUSH1 0x1 PUSH1 0x1 PUSH1 0xA0 SHL SUB AND CALLER EQ DUP1 PUSH2 0x1CB6 JUMPI POP PUSH2 0x1CA1 PUSH2 0x15A3 JUMP JUMPDEST PUSH1 0x1 PUSH1 0x1 PUSH1 0xA0 SHL SUB AND CALLER PUSH1 0x1 PUSH1 0x1 PUSH1 0xA0 SHL SUB AND EQ JUMPDEST PUSH2 0x1CBF JUMPI PUSH1 0x0 DUP1 REVERT JUMPDEST PUSH2 0x1388 DUP4 GT ISZERO PUSH2 0x1CCE JUMPI PUSH1 0x0 DUP1 REVERT JUMPDEST PUSH2 0xC350 DUP3 GT ISZERO PUSH2 0x1CDD JUMPI PUSH1 0x0 DUP1 REVERT JUMPDEST PUSH3 0x186A0 DUP2 GT ISZERO PUSH2 0x1CED JUMPI PUSH1 0x0 DUP1 REVERT JUMPDEST POP PUSH1 0x15 SSTORE PUSH1 0x18 SSTORE JUMP JUMPDEST PUSH1 0xF SLOAD PUSH1 0x1 PUSH1 0x1 PUSH1 0xA0 SHL SUB AND CALLER EQ DUP1 PUSH2 0x1D27 JUMPI POP PUSH2 0x1D12 PUSH2 0x15A3 JUMP JUMPDEST PUSH1 0x1 PUSH1 0x1 PUSH1 0xA0 SHL SUB AND CALLER PUSH1 0x1 PUSH1 0x1 PUSH1 0xA0 SHL SUB AND EQ JUMPDEST PUSH2 0x1D30 JUMPI PUSH1 0x0 DUP1 REVERT JUMPDEST PUSH2 0x1542 DUP2 PUSH2 0x25A9 JUMP JUMPDEST PUSH1 0x1 PUSH1 0x1 PUSH1 0xA0 SHL SUB SWAP2 DUP3 AND PUSH1 0x0 SWAP1 DUP2 MSTORE PUSH1 0x3 PUSH1 0x20 SWAP1 DUP2 MSTORE PUSH1 0x40 DUP1 DUP4 KECCAK256 SWAP4 SWAP1 SWAP5 AND DUP3 MSTORE SWAP2 SWAP1 SWAP2 MSTORE KECCAK256 SLOAD SWAP1 JUMP JUMPDEST PUSH1 0x7 SLOAD PUSH1 0x40 DUP1 MLOAD PUSH4 0x70A08231 PUSH1 0xE0 SHL DUP2 MSTORE CALLER PUSH1 0x4 DUP3 ADD MSTORE SWAP1 MLOAD PUSH1 0x0 SWAP3 PUSH2 0x100 SWAP1 DIV PUSH1 0x1 PUSH1 0x1 PUSH1 0xA0 SHL SUB AND SWAP2 PUSH4 0x70A08231 SWAP2 PUSH1 0x24 DUP1 DUP4 ADD SWAP3 PUSH1 0x20 SWAP3 SWAP2 SWAP1 DUP3 SWAP1 SUB ADD DUP2 DUP7 DUP1 EXTCODESIZE ISZERO DUP1 ISZERO PUSH2 0x1DB4 JUMPI PUSH1 0x0 DUP1 REVERT JUMPDEST POP GAS STATICCALL ISZERO DUP1 ISZERO PUSH2 0x1DC8 JUMPI RETURNDATASIZE PUSH1 0x0 DUP1 RETURNDATACOPY RETURNDATASIZE PUSH1 0x0 REVERT JUMPDEST POP POP POP POP PUSH1 0x40 MLOAD RETURNDATASIZE PUSH1 0x20 DUP2 LT ISZERO PUSH2 0x1DDE JUMPI PUSH1 0x0 DUP1 REVERT JUMPDEST POP MLOAD SWAP1 POP PUSH2 0x1542 DUP2 PUSH2 0x1982 JUMP JUMPDEST PUSH20 0xE0654C8E6FD4D733349AC7E09F6F23DA256BF475 SWAP1 JUMP JUMPDEST PUSH1 0x0 DUP1 PUSH2 0x1E0E PUSH2 0x1C6E JUMP JUMPDEST SWAP1 POP PUSH1 0x0 PUSH2 0xA2E PUSH2 0x1727 JUMP JUMPDEST PUSH1 0x0 DUP1 PUSH2 0xB05 PUSH2 0x1E28 PUSH2 0x1527 JUMP JUMPDEST ADDRESS PUSH2 0x2B11 JUMP JUMPDEST PUSH1 0x1A SLOAD DUP2 JUMP JUMPDEST PUSH1 0x17 SLOAD DUP2 JUMP JUMPDEST PUSH2 0x1E42 PUSH2 0x15B2 JUMP JUMPDEST PUSH2 0x1E93 JUMPI PUSH1 0x40 DUP1 MLOAD PUSH3 0x461BCD PUSH1 0xE5 SHL DUP2 MSTORE PUSH1 0x20 PUSH1 0x4 DUP3 ADD DUP2 SWAP1 MSTORE PUSH1 0x24 DUP3 ADD MSTORE PUSH32 0x4F776E61626C653A2063616C6C6572206973206E6F7420746865206F776E6572 PUSH1 0x44 DUP3 ADD MSTORE SWAP1 MLOAD SWAP1 DUP2 SWAP1 SUB PUSH1 0x64 ADD SWAP1 REVERT JUMPDEST PUSH2 0x1542 DUP2 PUSH2 0x2BA2 JUMP JUMPDEST PUSH1 0x13 SLOAD DUP2 JUMP JUMPDEST PUSH1 0x19 SLOAD DUP2 JUMP JUMPDEST PUSH20 0x2B2929E785374C651A81A63878AB22742656DCDD SWAP1 JUMP JUMPDEST PUSH1 0x8 SLOAD PUSH1 0x40 DUP1 MLOAD PUSH4 0x70A08231 PUSH1 0xE0 SHL DUP2 MSTORE ADDRESS PUSH1 0x4 DUP3 ADD MSTORE SWAP1 MLOAD PUSH1 0x0 SWAP3 PUSH1 0x1 PUSH1 0x1 PUSH1 0xA0 SHL SUB AND SWAP2 PUSH4 0x70A08231 SWAP2 PUSH1 0x24 DUP1 DUP4 ADD SWAP3 PUSH1 0x20 SWAP3 SWAP2 SWAP1 DUP3 SWAP1 SUB ADD DUP2 DUP7 DUP1 EXTCODESIZE ISZERO DUP1 ISZERO PUSH2 0x1B9C JUMPI PUSH1 0x0 DUP1 REVERT JUMPDEST DUP1 ISZERO DUP1 PUSH2 0x1F91 JUMPI POP PUSH1 0x40 DUP1 MLOAD PUSH4 0x6EB1769F PUSH1 0xE1 SHL DUP2 MSTORE ADDRESS PUSH1 0x4 DUP3 ADD MSTORE PUSH1 0x1 PUSH1 0x1 PUSH1 0xA0 SHL SUB DUP5 DUP2 AND PUSH1 0x24 DUP4 ADD MSTORE SWAP2 MLOAD SWAP2 DUP6 AND SWAP2 PUSH4 0xDD62ED3E SWAP2 PUSH1 0x44 DUP1 DUP3 ADD SWAP3 PUSH1 0x20 SWAP3 SWAP1 SWAP2 SWAP1 DUP3 SWAP1 SUB ADD DUP2 DUP7 DUP1 EXTCODESIZE ISZERO DUP1 ISZERO PUSH2 0x1F63 JUMPI PUSH1 0x0 DUP1 REVERT JUMPDEST POP GAS STATICCALL ISZERO DUP1 ISZERO PUSH2 0x1F77 JUMPI RETURNDATASIZE PUSH1 0x0 DUP1 RETURNDATACOPY RETURNDATASIZE PUSH1 0x0 REVERT JUMPDEST POP POP POP POP PUSH1 0x40 MLOAD RETURNDATASIZE PUSH1 0x20 DUP2 LT ISZERO PUSH2 0x1F8D JUMPI PUSH1 0x0 DUP1 REVERT JUMPDEST POP MLOAD ISZERO JUMPDEST PUSH2 0x1FCC JUMPI PUSH1 0x40 MLOAD PUSH3 0x461BCD PUSH1 0xE5 SHL DUP2 MSTORE PUSH1 0x4 ADD DUP1 DUP1 PUSH1 0x20 ADD DUP3 DUP2 SUB DUP3 MSTORE PUSH1 0x36 DUP2 MSTORE PUSH1 0x20 ADD DUP1 PUSH2 0x3344 PUSH1 0x36 SWAP2 CODECOPY PUSH1 0x40 ADD SWAP2 POP POP PUSH1 0x40 MLOAD DUP1 SWAP2 SUB SWAP1 REVERT JUMPDEST PUSH1 0x40 DUP1 MLOAD PUSH1 0x1 PUSH1 0x1 PUSH1 0xA0 SHL SUB DUP5 AND PUSH1 0x24 DUP3 ADD MSTORE PUSH1 0x44 DUP1 DUP3 ADD DUP5 SWAP1 MSTORE DUP3 MLOAD DUP1 DUP4 SUB SWAP1 SWAP2 ADD DUP2 MSTORE PUSH1 0x64 SWAP1 SWAP2 ADD SWAP1 SWAP2 MSTORE PUSH1 0x20 DUP2 ADD DUP1 MLOAD PUSH1 0x1 PUSH1 0x1 PUSH1 0xE0 SHL SUB AND PUSH4 0x95EA7B3 PUSH1 0xE0 SHL OR SWAP1 MSTORE PUSH2 0x1522 SWAP1 DUP5 SWAP1 PUSH2 0x2C43 JUMP JUMPDEST PUSH1 0x0 DUP2 EXTCODEHASH PUSH32 0xC5D2460186F7233C927E7DB2DCC703C0E500B653CA82273B7BFAD8045D85A470 DUP2 ISZERO DUP1 ISZERO SWAP1 PUSH2 0xE76 JUMPI POP EQ ISZERO SWAP3 SWAP2 POP POP JUMP JUMPDEST CALLER SWAP1 JUMP JUMPDEST PUSH1 0x1 PUSH1 0x1 PUSH1 0xA0 SHL SUB DUP4 AND PUSH2 0x209E JUMPI PUSH1 0x40 MLOAD PUSH3 0x461BCD PUSH1 0xE5 SHL DUP2 MSTORE PUSH1 0x4 ADD DUP1 DUP1 PUSH1 0x20 ADD DUP3 DUP2 SUB DUP3 MSTORE PUSH1 0x24 DUP2 MSTORE PUSH1 0x20 ADD DUP1 PUSH2 0x32F6 PUSH1 0x24 SWAP2 CODECOPY PUSH1 0x40 ADD SWAP2 POP POP PUSH1 0x40 MLOAD DUP1 SWAP2 SUB SWAP1 REVERT JUMPDEST PUSH1 0x1 PUSH1 0x1 PUSH1 0xA0 SHL SUB DUP3 AND PUSH2 0x20E3 JUMPI PUSH1 0x40 MLOAD PUSH3 0x461BCD PUSH1 0xE5 SHL DUP2 MSTORE PUSH1 0x4 ADD DUP1 DUP1 PUSH1 0x20 ADD DUP3 DUP2 SUB DUP3 MSTORE PUSH1 0x22 DUP2 MSTORE PUSH1 0x20 ADD DUP1 PUSH2 0x321F PUSH1 0x22 SWAP2 CODECOPY PUSH1 0x40 ADD SWAP2 POP POP PUSH1 0x40 MLOAD DUP1 SWAP2 SUB SWAP1 REVERT JUMPDEST PUSH1 0x1 PUSH1 0x1 PUSH1 0xA0 SHL SUB DUP1 DUP5 AND PUSH1 0x0 DUP2 DUP2 MSTORE PUSH1 0x3 PUSH1 0x20 SWAP1 DUP2 MSTORE PUSH1 0x40 DUP1 DUP4 KECCAK256 SWAP5 DUP8 AND DUP1 DUP5 MSTORE SWAP5 DUP3 MSTORE SWAP2 DUP3 SWAP1 KECCAK256 DUP6 SWAP1 SSTORE DUP2 MLOAD DUP6 DUP2 MSTORE SWAP2 MLOAD PUSH32 0x8C5BE1E5EBEC7D5BD14F71427D1E84F3DD0314C0F7B2291E5B200AC8C7C3B925 SWAP3 DUP2 SWAP1 SUB SWAP1 SWAP2 ADD SWAP1 LOG3 POP POP POP JUMP JUMPDEST PUSH1 0x0 DUP3 PUSH2 0x2154 JUMPI POP PUSH1 0x0 PUSH2 0x985 JUMP JUMPDEST DUP3 DUP3 MUL DUP3 DUP5 DUP3 DUP2 PUSH2 0x2161 JUMPI INVALID JUMPDEST DIV EQ PUSH2 0x219E JUMPI PUSH1 0x40 MLOAD PUSH3 0x461BCD PUSH1 0xE5 SHL DUP2 MSTORE PUSH1 0x4 ADD DUP1 DUP1 PUSH1 0x20 ADD DUP3 DUP2 SUB DUP3 MSTORE PUSH1 0x21 DUP2 MSTORE PUSH1 0x20 ADD DUP1 PUSH2 0x3267 PUSH1 0x21 SWAP2 CODECOPY PUSH1 0x40 ADD SWAP2 POP POP PUSH1 0x40 MLOAD DUP1 SWAP2 SUB SWAP1 REVERT JUMPDEST SWAP4 SWAP3 POP POP POP JUMP JUMPDEST PUSH1 0x0 PUSH2 0x219E DUP4 DUP4 PUSH1 0x40 MLOAD DUP1 PUSH1 0x40 ADD PUSH1 0x40 MSTORE DUP1 PUSH1 0x1A DUP2 MSTORE PUSH1 0x20 ADD PUSH32 0x536166654D6174683A206469766973696F6E206279207A65726F000000000000 DUP2 MSTORE POP PUSH2 0x2DFB JUMP JUMPDEST PUSH1 0x1 PUSH1 0x1 PUSH1 0xA0 SHL SUB DUP4 AND PUSH2 0x222C JUMPI PUSH1 0x40 MLOAD PUSH3 0x461BCD PUSH1 0xE5 SHL DUP2 MSTORE PUSH1 0x4 ADD DUP1 DUP1 PUSH1 0x20 ADD DUP3 DUP2 SUB DUP3 MSTORE PUSH1 0x25 DUP2 MSTORE PUSH1 0x20 ADD DUP1 PUSH2 0x32D1 PUSH1 0x25 SWAP2 CODECOPY PUSH1 0x40 ADD SWAP2 POP POP PUSH1 0x40 MLOAD DUP1 SWAP2 SUB SWAP1 REVERT JUMPDEST PUSH1 0x1 PUSH1 0x1 PUSH1 0xA0 SHL SUB DUP3 AND PUSH2 0x2271 JUMPI PUSH1 0x40 MLOAD PUSH3 0x461BCD PUSH1 0xE5 SHL DUP2 MSTORE PUSH1 0x4 ADD DUP1 DUP1 PUSH1 0x20 ADD DUP3 DUP2 SUB DUP3 MSTORE PUSH1 0x23 DUP2 MSTORE PUSH1 0x20 ADD DUP1 PUSH2 0x31B4 PUSH1 0x23 SWAP2 CODECOPY PUSH1 0x40 ADD SWAP2 POP POP PUSH1 0x40 MLOAD DUP1 SWAP2 SUB SWAP1 REVERT JUMPDEST PUSH2 0x22AE DUP2 PUSH1 0x40 MLOAD DUP1 PUSH1 0x60 ADD PUSH1 0x40 MSTORE DUP1 PUSH1 0x26 DUP2 MSTORE PUSH1 0x20 ADD PUSH2 0x3241 PUSH1 0x26 SWAP2 CODECOPY PUSH1 0x1 PUSH1 0x1 PUSH1 0xA0 SHL SUB DUP7 AND PUSH1 0x0 SWAP1 DUP2 MSTORE PUSH1 0x2 PUSH1 0x20 MSTORE PUSH1 0x40 SWAP1 KECCAK256 SLOAD SWAP2 SWAP1 PUSH2 0x2339 JUMP JUMPDEST PUSH1 0x1 PUSH1 0x1 PUSH1 0xA0 SHL SUB DUP1 DUP6 AND PUSH1 0x0 SWAP1 DUP2 MSTORE PUSH1 0x2 PUSH1 0x20 MSTORE PUSH1 0x40 DUP1 DUP3 KECCAK256 SWAP4 SWAP1 SWAP4 SSTORE SWAP1 DUP5 AND DUP2 MSTORE KECCAK256 SLOAD PUSH2 0x22DD SWAP1 DUP3 PUSH2 0x2604 JUMP JUMPDEST PUSH1 0x1 PUSH1 0x1 PUSH1 0xA0 SHL SUB DUP1 DUP5 AND PUSH1 0x0 DUP2 DUP2 MSTORE PUSH1 0x2 PUSH1 0x20 SWAP1 DUP2 MSTORE PUSH1 0x40 SWAP2 DUP3 SWAP1 KECCAK256 SWAP5 SWAP1 SWAP5 SSTORE DUP1 MLOAD DUP6 DUP2 MSTORE SWAP1 MLOAD SWAP2 SWAP4 SWAP3 DUP8 AND SWAP3 PUSH32 0xDDF252AD1BE2C89B69C2B068FC378DAA952BA7F163C4A11628F55A4DF523B3EF SWAP3 SWAP2 DUP3 SWAP1 SUB ADD SWAP1 LOG3 POP POP POP JUMP JUMPDEST PUSH1 0x0 DUP2 DUP5 DUP5 GT ISZERO PUSH2 0x23C8 JUMPI PUSH1 0x40 MLOAD PUSH3 0x461BCD PUSH1 0xE5 SHL DUP2 MSTORE PUSH1 0x4 ADD DUP1 DUP1 PUSH1 0x20 ADD DUP3 DUP2 SUB DUP3 MSTORE DUP4 DUP2 DUP2 MLOAD DUP2 MSTORE PUSH1 0x20 ADD SWAP2 POP DUP1 MLOAD SWAP1 PUSH1 0x20 ADD SWAP1 DUP1 DUP4 DUP4 PUSH1 0x0 JUMPDEST DUP4 DUP2 LT ISZERO PUSH2 0x238D JUMPI DUP2 DUP2 ADD MLOAD DUP4 DUP3 ADD MSTORE PUSH1 0x20 ADD PUSH2 0x2375 JUMP JUMPDEST POP POP POP POP SWAP1 POP SWAP1 DUP2 ADD SWAP1 PUSH1 0x1F AND DUP1 ISZERO PUSH2 0x23BA JUMPI DUP1 DUP3 SUB DUP1 MLOAD PUSH1 0x1 DUP4 PUSH1 0x20 SUB PUSH2 0x100 EXP SUB NOT AND DUP2 MSTORE PUSH1 0x20 ADD SWAP2 POP JUMPDEST POP SWAP3 POP POP POP PUSH1 0x40 MLOAD DUP1 SWAP2 SUB SWAP1 REVERT JUMPDEST POP POP POP SWAP1 SUB SWAP1 JUMP JUMPDEST PUSH1 0x0 PUSH2 0x23DA PUSH2 0x18DC JUMP JUMPDEST PUSH1 0x1 PUSH1 0x1 PUSH1 0xA0 SHL SUB AND PUSH4 0x95DD9193 DUP4 PUSH1 0x40 MLOAD DUP3 PUSH4 0xFFFFFFFF AND PUSH1 0xE0 SHL DUP2 MSTORE PUSH1 0x4 ADD DUP1 DUP3 PUSH1 0x1 PUSH1 0x1 PUSH1 0xA0 SHL SUB AND DUP2 MSTORE PUSH1 0x20 ADD SWAP2 POP POP PUSH1 0x20 PUSH1 0x40 MLOAD DUP1 DUP4 SUB DUP2 DUP7 DUP1 EXTCODESIZE ISZERO DUP1 ISZERO PUSH2 0x2426 JUMPI PUSH1 0x0 DUP1 REVERT JUMPDEST POP GAS STATICCALL ISZERO DUP1 ISZERO PUSH2 0x243A JUMPI RETURNDATASIZE PUSH1 0x0 DUP1 RETURNDATACOPY RETURNDATASIZE PUSH1 0x0 REVERT JUMPDEST POP POP POP POP PUSH1 0x40 MLOAD RETURNDATASIZE PUSH1 0x20 DUP2 LT ISZERO PUSH2 0x2450 JUMPI PUSH1 0x0 DUP1 REVERT JUMPDEST POP MLOAD SWAP3 SWAP2 POP POP JUMP JUMPDEST PUSH1 0x1 PUSH1 0x1 PUSH1 0xA0 SHL SUB DUP3 AND PUSH2 0x249D JUMPI PUSH1 0x40 MLOAD PUSH3 0x461BCD PUSH1 0xE5 SHL DUP2 MSTORE PUSH1 0x4 ADD DUP1 DUP1 PUSH1 0x20 ADD DUP3 DUP2 SUB DUP3 MSTORE PUSH1 0x21 DUP2 MSTORE PUSH1 0x20 ADD DUP1 PUSH2 0x32B0 PUSH1 0x21 SWAP2 CODECOPY PUSH1 0x40 ADD SWAP2 POP POP PUSH1 0x40 MLOAD DUP1 SWAP2 SUB SWAP1 REVERT JUMPDEST PUSH2 0x24DA DUP2 PUSH1 0x40 MLOAD DUP1 PUSH1 0x60 ADD PUSH1 0x40 MSTORE DUP1 PUSH1 0x22 DUP2 MSTORE PUSH1 0x20 ADD PUSH2 0x31D7 PUSH1 0x22 SWAP2 CODECOPY PUSH1 0x1 PUSH1 0x1 PUSH1 0xA0 SHL SUB DUP6 AND PUSH1 0x0 SWAP1 DUP2 MSTORE PUSH1 0x2 PUSH1 0x20 MSTORE PUSH1 0x40 SWAP1 KECCAK256 SLOAD SWAP2 SWAP1 PUSH2 0x2339 JUMP JUMPDEST PUSH1 0x1 PUSH1 0x1 PUSH1 0xA0 SHL SUB DUP4 AND PUSH1 0x0 SWAP1 DUP2 MSTORE PUSH1 0x2 PUSH1 0x20 MSTORE PUSH1 0x40 SWAP1 KECCAK256 SSTORE PUSH1 0x4 SLOAD PUSH2 0x2500 SWAP1 DUP3 PUSH2 0x2567 JUMP JUMPDEST PUSH1 0x4 SSTORE PUSH1 0x40 DUP1 MLOAD DUP3 DUP2 MSTORE SWAP1 MLOAD PUSH1 0x0 SWAP2 PUSH1 0x1 PUSH1 0x1 PUSH1 0xA0 SHL SUB DUP6 AND SWAP2 PUSH32 0xDDF252AD1BE2C89B69C2B068FC378DAA952BA7F163C4A11628F55A4DF523B3EF SWAP2 DUP2 SWAP1 SUB PUSH1 0x20 ADD SWAP1 LOG3 POP POP JUMP JUMPDEST PUSH1 0x0 DUP1 PUSH2 0x219E PUSH3 0xF4240 PUSH2 0xA43 PUSH1 0x18 SLOAD DUP7 PUSH2 0x2145 SWAP1 SWAP2 SWAP1 PUSH4 0xFFFFFFFF AND JUMP JUMPDEST PUSH1 0x0 PUSH2 0x219E DUP4 DUP4 PUSH1 0x40 MLOAD DUP1 PUSH1 0x40 ADD PUSH1 0x40 MSTORE DUP1 PUSH1 0x1E DUP2 MSTORE PUSH1 0x20 ADD PUSH32 0x536166654D6174683A207375627472616374696F6E206F766572666C6F770000 DUP2 MSTORE POP PUSH2 0x2339 JUMP JUMPDEST PUSH2 0x1542 DUP2 PUSH2 0x2E60 JUMP JUMPDEST PUSH1 0x40 DUP1 MLOAD PUSH1 0x1 PUSH1 0x1 PUSH1 0xA0 SHL SUB DUP5 AND PUSH1 0x24 DUP3 ADD MSTORE PUSH1 0x44 DUP1 DUP3 ADD DUP5 SWAP1 MSTORE DUP3 MLOAD DUP1 DUP4 SUB SWAP1 SWAP2 ADD DUP2 MSTORE PUSH1 0x64 SWAP1 SWAP2 ADD SWAP1 SWAP2 MSTORE PUSH1 0x20 DUP2 ADD DUP1 MLOAD PUSH1 0x1 PUSH1 0x1 PUSH1 0xE0 SHL SUB AND PUSH4 0xA9059CBB PUSH1 0xE0 SHL OR SWAP1 MSTORE PUSH2 0x1522 SWAP1 DUP5 SWAP1 PUSH2 0x2C43 JUMP JUMPDEST PUSH1 0x0 DUP3 DUP3 ADD DUP4 DUP2 LT ISZERO PUSH2 0x219E JUMPI PUSH1 0x40 DUP1 MLOAD PUSH3 0x461BCD PUSH1 0xE5 SHL DUP2 MSTORE PUSH1 0x20 PUSH1 0x4 DUP3 ADD MSTORE PUSH1 0x1B PUSH1 0x24 DUP3 ADD MSTORE PUSH32 0x536166654D6174683A206164646974696F6E206F766572666C6F770000000000 PUSH1 0x44 DUP3 ADD MSTORE SWAP1 MLOAD SWAP1 DUP2 SWAP1 SUB PUSH1 0x64 ADD SWAP1 REVERT JUMPDEST PUSH1 0x8 SLOAD PUSH1 0x9 SLOAD PUSH1 0x40 DUP1 MLOAD PUSH4 0x70A08231 PUSH1 0xE0 SHL DUP2 MSTORE PUSH1 0x1 PUSH1 0x1 PUSH1 0xA0 SHL SUB SWAP3 DUP4 AND PUSH1 0x4 DUP3 ADD MSTORE SWAP1 MLOAD PUSH1 0x0 SWAP4 DUP5 SWAP4 AND SWAP2 PUSH4 0x70A08231 SWAP2 PUSH1 0x24 DUP1 DUP4 ADD SWAP3 PUSH1 0x20 SWAP3 SWAP2 SWAP1 DUP3 SWAP1 SUB ADD DUP2 DUP7 DUP1 EXTCODESIZE ISZERO DUP1 ISZERO PUSH2 0xEDE JUMPI PUSH1 0x0 DUP1 REVERT JUMPDEST PUSH2 0x1542 DUP2 PUSH2 0x2E7A JUMP JUMPDEST PUSH1 0x0 PUSH2 0x26C3 PUSH2 0x265E JUMP JUMPDEST SWAP1 POP PUSH1 0x0 PUSH2 0x26CF PUSH2 0x1545 JUMP JUMPDEST SWAP1 POP PUSH1 0x0 PUSH2 0x26ED PUSH3 0xF4240 PUSH2 0xA43 DUP5 DUP2 PUSH3 0xF1B30 PUSH2 0x1320 DUP11 DUP11 PUSH2 0x2145 JUMP JUMPDEST SWAP1 POP PUSH2 0x2706 DUP5 DUP3 PUSH2 0x26FC PUSH2 0x2EDB JUMP JUMPDEST ADDRESS TIMESTAMP PUSH1 0x78 ADD PUSH2 0x2F6A JUMP JUMPDEST POP POP POP POP JUMP JUMPDEST PUSH1 0x8 SLOAD PUSH1 0x40 DUP1 MLOAD PUSH4 0x70A08231 PUSH1 0xE0 SHL DUP2 MSTORE ADDRESS PUSH1 0x4 DUP3 ADD MSTORE SWAP1 MLOAD PUSH1 0x0 SWAP3 PUSH1 0x1 PUSH1 0x1 PUSH1 0xA0 SHL SUB AND SWAP2 PUSH4 0x70A08231 SWAP2 PUSH1 0x24 DUP1 DUP4 ADD SWAP3 PUSH1 0x20 SWAP3 SWAP2 SWAP1 DUP3 SWAP1 SUB ADD DUP2 DUP7 DUP1 EXTCODESIZE ISZERO DUP1 ISZERO PUSH2 0x2757 JUMPI PUSH1 0x0 DUP1 REVERT JUMPDEST POP GAS STATICCALL ISZERO DUP1 ISZERO PUSH2 0x276B JUMPI RETURNDATASIZE PUSH1 0x0 DUP1 RETURNDATACOPY RETURNDATASIZE PUSH1 0x0 REVERT JUMPDEST POP POP POP POP PUSH1 0x40 MLOAD RETURNDATASIZE PUSH1 0x20 DUP2 LT ISZERO PUSH2 0x2781 JUMPI PUSH1 0x0 DUP1 REVERT JUMPDEST POP MLOAD SWAP1 POP DUP1 PUSH2 0x2790 JUMPI POP PUSH2 0xDE7 JUMP JUMPDEST PUSH1 0x0 PUSH2 0x279B ADDRESS PUSH2 0x23D0 JUMP JUMPDEST SWAP1 POP DUP1 DUP3 LT ISZERO PUSH2 0x27B3 JUMPI PUSH2 0x27AE DUP3 PUSH2 0x303D JUMP JUMPDEST PUSH2 0xD10 JUMP JUMPDEST PUSH2 0xD10 DUP2 PUSH2 0x303D JUMP JUMPDEST PUSH1 0x0 DUP1 PUSH2 0x27C7 PUSH2 0x265E JUMP JUMPDEST SWAP1 POP PUSH1 0x0 PUSH2 0x27D3 PUSH2 0x1545 JUMP JUMPDEST SWAP1 POP PUSH1 0x0 PUSH2 0x27E5 DUP3 PUSH2 0xA43 DUP8 DUP7 PUSH2 0x2145 JUMP JUMPDEST SWAP1 POP PUSH2 0xE76 DUP2 PUSH2 0x308A JUMP JUMPDEST PUSH1 0x0 PUSH2 0x27FA PUSH2 0x265E JUMP JUMPDEST SWAP1 POP PUSH1 0x0 PUSH2 0x2806 PUSH2 0x1545 JUMP JUMPDEST SWAP1 POP PUSH1 0x0 PUSH2 0x2824 DUP4 PUSH2 0xA43 PUSH3 0xF4240 DUP2 PUSH3 0xF1B30 PUSH2 0x1320 DUP11 DUP10 PUSH2 0x2145 JUMP JUMPDEST SWAP1 POP PUSH2 0x2706 DUP5 DUP3 PUSH2 0x26FC PUSH2 0x3093 JUMP JUMPDEST PUSH2 0x1542 DUP2 PUSH2 0x3103 JUMP JUMPDEST PUSH1 0x0 PUSH2 0x2846 PUSH2 0xE37 JUMP JUMPDEST PUSH1 0x1 PUSH1 0x1 PUSH1 0xA0 SHL SUB AND PUSH4 0x182DF0F5 PUSH1 0x40 MLOAD DUP2 PUSH4 0xFFFFFFFF AND PUSH1 0xE0 SHL DUP2 MSTORE PUSH1 0x4 ADD PUSH1 0x20 PUSH1 0x40 MLOAD DUP1 DUP4 SUB DUP2 DUP7 DUP1 EXTCODESIZE ISZERO DUP1 ISZERO PUSH2 0x1B9C JUMPI PUSH1 0x0 DUP1 REVERT JUMPDEST PUSH1 0x5 PUSH1 0x0 DUP1 JUMPDEST DUP3 DUP2 LT ISZERO PUSH2 0x2997 JUMPI PUSH1 0x7 SLOAD PUSH1 0x40 DUP1 MLOAD PUSH4 0x70A08231 PUSH1 0xE0 SHL DUP2 MSTORE ADDRESS PUSH1 0x4 DUP3 ADD MSTORE SWAP1 MLOAD PUSH1 0x0 SWAP3 PUSH2 0x100 SWAP1 DIV PUSH1 0x1 PUSH1 0x1 PUSH1 0xA0 SHL SUB AND SWAP2 PUSH4 0x70A08231 SWAP2 PUSH1 0x24 DUP1 DUP4 ADD SWAP3 PUSH1 0x20 SWAP3 SWAP2 SWAP1 DUP3 SWAP1 SUB ADD DUP2 DUP7 DUP1 EXTCODESIZE ISZERO DUP1 ISZERO PUSH2 0x28DC JUMPI PUSH1 0x0 DUP1 REVERT JUMPDEST POP GAS STATICCALL ISZERO DUP1 ISZERO PUSH2 0x28F0 JUMPI RETURNDATASIZE PUSH1 0x0 DUP1 RETURNDATACOPY RETURNDATASIZE PUSH1 0x0 REVERT JUMPDEST POP POP POP POP PUSH1 0x40 MLOAD RETURNDATASIZE PUSH1 0x20 DUP2 LT ISZERO PUSH2 0x2906 JUMPI PUSH1 0x0 DUP1 REVERT JUMPDEST POP MLOAD SWAP1 POP PUSH2 0x2914 DUP2 DUP7 PUSH2 0x2567 JUMP JUMPDEST SWAP3 POP PUSH2 0x291F DUP4 PUSH2 0x2833 JUMP JUMPDEST PUSH1 0x0 PUSH2 0x2935 PUSH3 0xF4240 PUSH2 0xA43 DUP7 PUSH3 0xB1008 PUSH2 0x2145 JUMP JUMPDEST SWAP1 POP PUSH2 0x2940 DUP2 PUSH2 0x27BC JUMP JUMPDEST POP PUSH1 0x8 SLOAD PUSH1 0x40 DUP1 MLOAD PUSH4 0x70A08231 PUSH1 0xE0 SHL DUP2 MSTORE ADDRESS PUSH1 0x4 DUP3 ADD MSTORE SWAP1 MLOAD PUSH2 0x298D SWAP3 PUSH1 0x1 PUSH1 0x1 PUSH1 0xA0 SHL SUB AND SWAP2 PUSH4 0x70A08231 SWAP2 PUSH1 0x24 DUP1 DUP4 ADD SWAP3 PUSH1 0x20 SWAP3 SWAP2 SWAP1 DUP3 SWAP1 SUB ADD DUP2 DUP7 DUP1 EXTCODESIZE ISZERO DUP1 ISZERO PUSH2 0x13DC JUMPI PUSH1 0x0 DUP1 REVERT JUMPDEST POP POP PUSH1 0x1 ADD PUSH2 0x2884 JUMP JUMPDEST POP PUSH1 0x7 SLOAD PUSH1 0x40 DUP1 MLOAD PUSH4 0x70A08231 PUSH1 0xE0 SHL DUP2 MSTORE ADDRESS PUSH1 0x4 DUP3 ADD MSTORE SWAP1 MLOAD PUSH1 0x0 SWAP3 PUSH2 0x100 SWAP1 DIV PUSH1 0x1 PUSH1 0x1 PUSH1 0xA0 SHL SUB AND SWAP2 PUSH4 0x70A08231 SWAP2 PUSH1 0x24 DUP1 DUP4 ADD SWAP3 PUSH1 0x20 SWAP3 SWAP2 SWAP1 DUP3 SWAP1 SUB ADD DUP2 DUP7 DUP1 EXTCODESIZE ISZERO DUP1 ISZERO PUSH2 0x29E8 JUMPI PUSH1 0x0 DUP1 REVERT JUMPDEST POP GAS STATICCALL ISZERO DUP1 ISZERO PUSH2 0x29FC JUMPI RETURNDATASIZE PUSH1 0x0 DUP1 RETURNDATACOPY RETURNDATASIZE PUSH1 0x0 REVERT JUMPDEST POP POP POP POP PUSH1 0x40 MLOAD RETURNDATASIZE PUSH1 0x20 DUP2 LT ISZERO PUSH2 0x2A12 JUMPI PUSH1 0x0 DUP1 REVERT JUMPDEST POP MLOAD SWAP1 POP PUSH2 0x2A20 DUP2 DUP6 PUSH2 0x2567 JUMP JUMPDEST SWAP2 POP PUSH2 0x2706 DUP3 PUSH2 0x2833 JUMP JUMPDEST PUSH1 0x1 PUSH1 0x1 PUSH1 0xA0 SHL SUB DUP3 AND PUSH2 0x2A86 JUMPI PUSH1 0x40 DUP1 MLOAD PUSH3 0x461BCD PUSH1 0xE5 SHL DUP2 MSTORE PUSH1 0x20 PUSH1 0x4 DUP3 ADD MSTORE PUSH1 0x1F PUSH1 0x24 DUP3 ADD MSTORE PUSH32 0x45524332303A206D696E7420746F20746865207A65726F206164647265737300 PUSH1 0x44 DUP3 ADD MSTORE SWAP1 MLOAD SWAP1 DUP2 SWAP1 SUB PUSH1 0x64 ADD SWAP1 REVERT JUMPDEST PUSH1 0x4 SLOAD PUSH2 0x2A93 SWAP1 DUP3 PUSH2 0x2604 JUMP JUMPDEST PUSH1 0x4 SSTORE PUSH1 0x1 PUSH1 0x1 PUSH1 0xA0 SHL SUB DUP3 AND PUSH1 0x0 SWAP1 DUP2 MSTORE PUSH1 0x2 PUSH1 0x20 MSTORE PUSH1 0x40 SWAP1 KECCAK256 SLOAD PUSH2 0x2AB9 SWAP1 DUP3 PUSH2 0x2604 JUMP JUMPDEST PUSH1 0x1 PUSH1 0x1 PUSH1 0xA0 SHL SUB DUP4 AND PUSH1 0x0 DUP2 DUP2 MSTORE PUSH1 0x2 PUSH1 0x20 SWAP1 DUP2 MSTORE PUSH1 0x40 DUP1 DUP4 KECCAK256 SWAP5 SWAP1 SWAP5 SSTORE DUP4 MLOAD DUP6 DUP2 MSTORE SWAP4 MLOAD SWAP3 SWAP4 SWAP2 SWAP3 PUSH32 0xDDF252AD1BE2C89B69C2B068FC378DAA952BA7F163C4A11628F55A4DF523B3EF SWAP3 DUP2 SWAP1 SUB SWAP1 SWAP2 ADD SWAP1 LOG3 POP POP JUMP JUMPDEST PUSH1 0x0 PUSH2 0x2B1B PUSH2 0x1EA8 JUMP JUMPDEST PUSH1 0x1 PUSH1 0x1 PUSH1 0xA0 SHL SUB AND PUSH4 0x93F1A40B DUP5 DUP5 PUSH1 0x40 MLOAD DUP4 PUSH4 0xFFFFFFFF AND PUSH1 0xE0 SHL DUP2 MSTORE PUSH1 0x4 ADD DUP1 DUP4 DUP2 MSTORE PUSH1 0x20 ADD DUP3 PUSH1 0x1 PUSH1 0x1 PUSH1 0xA0 SHL SUB AND DUP2 MSTORE PUSH1 0x20 ADD SWAP3 POP POP POP PUSH1 0x20 PUSH1 0x40 MLOAD DUP1 DUP4 SUB DUP2 DUP7 DUP1 EXTCODESIZE ISZERO DUP1 ISZERO PUSH2 0x2B6F JUMPI PUSH1 0x0 DUP1 REVERT JUMPDEST POP GAS STATICCALL ISZERO DUP1 ISZERO PUSH2 0x2B83 JUMPI RETURNDATASIZE PUSH1 0x0 DUP1 RETURNDATACOPY RETURNDATASIZE PUSH1 0x0 REVERT JUMPDEST POP POP POP POP PUSH1 0x40 MLOAD RETURNDATASIZE PUSH1 0x20 DUP2 LT ISZERO PUSH2 0x2B99 JUMPI PUSH1 0x0 DUP1 REVERT JUMPDEST POP MLOAD SWAP4 SWAP3 POP POP POP JUMP JUMPDEST PUSH1 0x1 PUSH1 0x1 PUSH1 0xA0 SHL SUB DUP2 AND PUSH2 0x2BE7 JUMPI PUSH1 0x40 MLOAD PUSH3 0x461BCD PUSH1 0xE5 SHL DUP2 MSTORE PUSH1 0x4 ADD DUP1 DUP1 PUSH1 0x20 ADD DUP3 DUP2 SUB DUP3 MSTORE PUSH1 0x26 DUP2 MSTORE PUSH1 0x20 ADD DUP1 PUSH2 0x31F9 PUSH1 0x26 SWAP2 CODECOPY PUSH1 0x40 ADD SWAP2 POP POP PUSH1 0x40 MLOAD DUP1 SWAP2 SUB SWAP1 REVERT JUMPDEST PUSH1 0x1 SLOAD PUSH1 0x40 MLOAD PUSH1 0x1 PUSH1 0x1 PUSH1 0xA0 SHL SUB DUP1 DUP5 AND SWAP3 AND SWAP1 PUSH32 0x8BE0079C531659141344CD1FD0A4F28419497F9722A3DAAFE3B4186F6B6457E0 SWAP1 PUSH1 0x0 SWAP1 LOG3 PUSH1 0x1 DUP1 SLOAD PUSH1 0x1 PUSH1 0x1 PUSH1 0xA0 SHL SUB NOT AND PUSH1 0x1 PUSH1 0x1 PUSH1 0xA0 SHL SUB SWAP3 SWAP1 SWAP3 AND SWAP2 SWAP1 SWAP2 OR SWAP1 SSTORE JUMP JUMPDEST PUSH2 0x2C55 DUP3 PUSH1 0x1 PUSH1 0x1 PUSH1 0xA0 SHL SUB AND PUSH2 0x201E JUMP JUMPDEST PUSH2 0x2CA6 JUMPI PUSH1 0x40 DUP1 MLOAD PUSH3 0x461BCD PUSH1 0xE5 SHL DUP2 MSTORE PUSH1 0x20 PUSH1 0x4 DUP3 ADD MSTORE PUSH1 0x1F PUSH1 0x24 DUP3 ADD MSTORE PUSH32 0x5361666545524332303A2063616C6C20746F206E6F6E2D636F6E747261637400 PUSH1 0x44 DUP3 ADD MSTORE SWAP1 MLOAD SWAP1 DUP2 SWAP1 SUB PUSH1 0x64 ADD SWAP1 REVERT JUMPDEST PUSH1 0x0 PUSH1 0x60 DUP4 PUSH1 0x1 PUSH1 0x1 PUSH1 0xA0 SHL SUB AND DUP4 PUSH1 0x40 MLOAD DUP1 DUP3 DUP1 MLOAD SWAP1 PUSH1 0x20 ADD SWAP1 DUP1 DUP4 DUP4 JUMPDEST PUSH1 0x20 DUP4 LT PUSH2 0x2CE4 JUMPI DUP1 MLOAD DUP3 MSTORE PUSH1 0x1F NOT SWAP1 SWAP3 ADD SWAP2 PUSH1 0x20 SWAP2 DUP3 ADD SWAP2 ADD PUSH2 0x2CC5 JUMP JUMPDEST PUSH1 0x1 DUP4 PUSH1 0x20 SUB PUSH2 0x100 EXP SUB DUP1 NOT DUP3 MLOAD AND DUP2 DUP5 MLOAD AND DUP1 DUP3 OR DUP6 MSTORE POP POP POP POP POP POP SWAP1 POP ADD SWAP2 POP POP PUSH1 0x0 PUSH1 0x40 MLOAD DUP1 DUP4 SUB DUP2 PUSH1 0x0 DUP7 GAS CALL SWAP2 POP POP RETURNDATASIZE DUP1 PUSH1 0x0 DUP2 EQ PUSH2 0x2D46 JUMPI PUSH1 0x40 MLOAD SWAP2 POP PUSH1 0x1F NOT PUSH1 0x3F RETURNDATASIZE ADD AND DUP3 ADD PUSH1 0x40 MSTORE RETURNDATASIZE DUP3 MSTORE RETURNDATASIZE PUSH1 0x0 PUSH1 0x20 DUP5 ADD RETURNDATACOPY PUSH2 0x2D4B JUMP JUMPDEST PUSH1 0x60 SWAP2 POP JUMPDEST POP SWAP2 POP SWAP2 POP DUP2 PUSH2 0x2DA2 JUMPI PUSH1 0x40 DUP1 MLOAD PUSH3 0x461BCD PUSH1 0xE5 SHL DUP2 MSTORE PUSH1 0x20 PUSH1 0x4 DUP3 ADD DUP2 SWAP1 MSTORE PUSH1 0x24 DUP3 ADD MSTORE PUSH32 0x5361666545524332303A206C6F772D6C6576656C2063616C6C206661696C6564 PUSH1 0x44 DUP3 ADD MSTORE SWAP1 MLOAD SWAP1 DUP2 SWAP1 SUB PUSH1 0x64 ADD SWAP1 REVERT JUMPDEST DUP1 MLOAD ISZERO PUSH2 0x2706 JUMPI DUP1 DUP1 PUSH1 0x20 ADD SWAP1 MLOAD PUSH1 0x20 DUP2 LT ISZERO PUSH2 0x2DBE JUMPI PUSH1 0x0 DUP1 REVERT JUMPDEST POP MLOAD PUSH2 0x2706 JUMPI PUSH1 0x40 MLOAD PUSH3 0x461BCD PUSH1 0xE5 SHL DUP2 MSTORE PUSH1 0x4 ADD DUP1 DUP1 PUSH1 0x20 ADD DUP3 DUP2 SUB DUP3 MSTORE PUSH1 0x2A DUP2 MSTORE PUSH1 0x20 ADD DUP1 PUSH2 0x331A PUSH1 0x2A SWAP2 CODECOPY PUSH1 0x40 ADD SWAP2 POP POP PUSH1 0x40 MLOAD DUP1 SWAP2 SUB SWAP1 REVERT JUMPDEST PUSH1 0x0 DUP2 DUP4 PUSH2 0x2E4A JUMPI PUSH1 0x40 MLOAD PUSH3 0x461BCD PUSH1 0xE5 SHL DUP2 MSTORE PUSH1 0x20 PUSH1 0x4 DUP3 ADD DUP2 DUP2 MSTORE DUP4 MLOAD PUSH1 0x24 DUP5 ADD MSTORE DUP4 MLOAD SWAP1 SWAP3 DUP4 SWAP3 PUSH1 0x44 SWAP1 SWAP2 ADD SWAP2 SWAP1 DUP6 ADD SWAP1 DUP1 DUP4 DUP4 PUSH1 0x0 DUP4 ISZERO PUSH2 0x238D JUMPI DUP2 DUP2 ADD MLOAD DUP4 DUP3 ADD MSTORE PUSH1 0x20 ADD PUSH2 0x2375 JUMP JUMPDEST POP PUSH1 0x0 DUP4 DUP6 DUP2 PUSH2 0x2E56 JUMPI INVALID JUMPDEST DIV SWAP6 SWAP5 POP POP POP POP POP JUMP JUMPDEST PUSH1 0x0 PUSH1 0xA DUP2 JUMPDEST DUP2 DUP2 LT ISZERO PUSH2 0x2706 JUMPI PUSH1 0x0 SWAP3 POP PUSH1 0x1 ADD PUSH2 0x2E66 JUMP JUMPDEST PUSH2 0x2E82 PUSH2 0xE37 JUMP JUMPDEST PUSH1 0x1 PUSH1 0x1 PUSH1 0xA0 SHL SUB AND PUSH4 0x852A12E3 DUP3 PUSH1 0x40 MLOAD DUP3 PUSH4 0xFFFFFFFF AND PUSH1 0xE0 SHL DUP2 MSTORE PUSH1 0x4 ADD DUP1 DUP3 DUP2 MSTORE PUSH1 0x20 ADD SWAP2 POP POP PUSH1 0x0 PUSH1 0x40 MLOAD DUP1 DUP4 SUB DUP2 PUSH1 0x0 DUP8 DUP1 EXTCODESIZE ISZERO DUP1 ISZERO PUSH2 0x2EC7 JUMPI PUSH1 0x0 DUP1 REVERT JUMPDEST POP GAS CALL ISZERO DUP1 ISZERO PUSH2 0x151F JUMPI RETURNDATASIZE PUSH1 0x0 DUP1 RETURNDATACOPY RETURNDATASIZE PUSH1 0x0 REVERT JUMPDEST PUSH1 0x40 DUP1 MLOAD PUSH1 0x2 DUP1 DUP3 MSTORE PUSH1 0x60 DUP1 DUP4 ADD DUP5 MSTORE SWAP3 DUP4 SWAP3 SWAP2 SWAP1 PUSH1 0x20 DUP4 ADD SWAP1 DUP1 CALLDATASIZE DUP4 CALLDATACOPY ADD SWAP1 POP POP SWAP1 POP PUSH1 0x7 PUSH1 0x1 SWAP1 SLOAD SWAP1 PUSH2 0x100 EXP SWAP1 DIV PUSH1 0x1 PUSH1 0x1 PUSH1 0xA0 SHL SUB AND DUP2 PUSH1 0x0 DUP2 MLOAD DUP2 LT PUSH2 0x2F22 JUMPI INVALID JUMPDEST PUSH1 0x1 PUSH1 0x1 PUSH1 0xA0 SHL SUB SWAP3 DUP4 AND PUSH1 0x20 SWAP2 DUP3 MUL SWAP3 SWAP1 SWAP3 ADD ADD MSTORE PUSH1 0x8 SLOAD DUP3 MLOAD SWAP2 AND SWAP1 DUP3 SWAP1 PUSH1 0x1 SWAP1 DUP2 LT PUSH2 0x2F4D JUMPI INVALID JUMPDEST PUSH1 0x1 PUSH1 0x1 PUSH1 0xA0 SHL SUB SWAP1 SWAP3 AND PUSH1 0x20 SWAP3 DUP4 MUL SWAP2 SWAP1 SWAP2 ADD SWAP1 SWAP2 ADD MSTORE SWAP1 POP SWAP1 JUMP JUMPDEST PUSH2 0x2F72 PUSH2 0xD1D JUMP JUMPDEST PUSH1 0x1 PUSH1 0x1 PUSH1 0xA0 SHL SUB AND PUSH4 0x38ED1739 DUP7 DUP7 DUP7 DUP7 DUP7 PUSH1 0x40 MLOAD DUP7 PUSH4 0xFFFFFFFF AND PUSH1 0xE0 SHL DUP2 MSTORE PUSH1 0x4 ADD DUP1 DUP7 DUP2 MSTORE PUSH1 0x20 ADD DUP6 DUP2 MSTORE PUSH1 0x20 ADD DUP1 PUSH1 0x20 ADD DUP5 PUSH1 0x1 PUSH1 0x1 PUSH1 0xA0 SHL SUB AND DUP2 MSTORE PUSH1 0x20 ADD DUP4 DUP2 MSTORE PUSH1 0x20 ADD DUP3 DUP2 SUB DUP3 MSTORE DUP6 DUP2 DUP2 MLOAD DUP2 MSTORE PUSH1 0x20 ADD SWAP2 POP DUP1 MLOAD SWAP1 PUSH1 0x20 ADD SWAP1 PUSH1 0x20 MUL DUP1 DUP4 DUP4 PUSH1 0x0 JUMPDEST DUP4 DUP2 LT ISZERO PUSH2 0x2FF5 JUMPI DUP2 DUP2 ADD MLOAD DUP4 DUP3 ADD MSTORE PUSH1 0x20 ADD PUSH2 0x2FDD JUMP JUMPDEST POP POP POP POP SWAP1 POP ADD SWAP7 POP POP POP POP POP POP POP PUSH1 0x0 PUSH1 0x40 MLOAD DUP1 DUP4 SUB DUP2 PUSH1 0x0 DUP8 DUP1 EXTCODESIZE ISZERO DUP1 ISZERO PUSH2 0x301E JUMPI PUSH1 0x0 DUP1 REVERT JUMPDEST POP GAS CALL ISZERO DUP1 ISZERO PUSH2 0x3032 JUMPI RETURNDATASIZE PUSH1 0x0 DUP1 RETURNDATACOPY RETURNDATASIZE PUSH1 0x0 REVERT JUMPDEST POP POP POP POP POP POP POP POP POP JUMP JUMPDEST PUSH2 0x3045 PUSH2 0x18DC JUMP JUMPDEST PUSH1 0x1 PUSH1 0x1 PUSH1 0xA0 SHL SUB AND PUSH4 0xE752702 DUP3 PUSH1 0x40 MLOAD DUP3 PUSH4 0xFFFFFFFF AND PUSH1 0xE0 SHL DUP2 MSTORE PUSH1 0x4 ADD DUP1 DUP3 DUP2 MSTORE PUSH1 0x20 ADD SWAP2 POP POP PUSH1 0x0 PUSH1 0x40 MLOAD DUP1 DUP4 SUB DUP2 PUSH1 0x0 DUP8 DUP1 EXTCODESIZE ISZERO DUP1 ISZERO PUSH2 0x2EC7 JUMPI PUSH1 0x0 DUP1 REVERT JUMPDEST PUSH2 0xD10 DUP2 PUSH2 0x3150 JUMP JUMPDEST PUSH1 0x40 DUP1 MLOAD PUSH1 0x2 DUP1 DUP3 MSTORE PUSH1 0x60 DUP1 DUP4 ADD DUP5 MSTORE SWAP3 DUP4 SWAP3 SWAP2 SWAP1 PUSH1 0x20 DUP4 ADD SWAP1 DUP1 CALLDATASIZE DUP4 CALLDATACOPY POP POP PUSH1 0x8 SLOAD DUP3 MLOAD SWAP3 SWAP4 POP PUSH1 0x1 PUSH1 0x1 PUSH1 0xA0 SHL SUB AND SWAP2 DUP4 SWAP2 POP PUSH1 0x0 SWAP1 PUSH2 0x30D1 JUMPI INVALID JUMPDEST PUSH1 0x1 PUSH1 0x1 PUSH1 0xA0 SHL SUB SWAP3 DUP4 AND PUSH1 0x20 SWAP2 DUP3 MUL SWAP3 SWAP1 SWAP3 ADD ADD MSTORE PUSH1 0x7 SLOAD DUP3 MLOAD PUSH2 0x100 SWAP1 SWAP2 DIV SWAP1 SWAP2 AND SWAP1 DUP3 SWAP1 PUSH1 0x1 SWAP1 DUP2 LT PUSH2 0x2F4D JUMPI INVALID JUMPDEST PUSH2 0x310B PUSH2 0xE37 JUMP JUMPDEST PUSH1 0x1 PUSH1 0x1 PUSH1 0xA0 SHL SUB AND PUSH4 0xA0712D68 DUP3 PUSH1 0x40 MLOAD DUP3 PUSH4 0xFFFFFFFF AND PUSH1 0xE0 SHL DUP2 MSTORE PUSH1 0x4 ADD DUP1 DUP3 DUP2 MSTORE PUSH1 0x20 ADD SWAP2 POP POP PUSH1 0x0 PUSH1 0x40 MLOAD DUP1 DUP4 SUB DUP2 PUSH1 0x0 DUP8 DUP1 EXTCODESIZE ISZERO DUP1 ISZERO PUSH2 0x2EC7 JUMPI PUSH1 0x0 DUP1 REVERT JUMPDEST PUSH1 0x0 PUSH2 0x315A PUSH2 0x18DC JUMP JUMPDEST PUSH1 0x1 PUSH1 0x1 PUSH1 0xA0 SHL SUB AND PUSH4 0xC5EBEAEC DUP4 PUSH1 0x40 MLOAD DUP3 PUSH4 0xFFFFFFFF AND PUSH1 0xE0 SHL DUP2 MSTORE PUSH1 0x4 ADD DUP1 DUP3 DUP2 MSTORE PUSH1 0x20 ADD SWAP2 POP POP PUSH1 0x20 PUSH1 0x40 MLOAD DUP1 DUP4 SUB DUP2 PUSH1 0x0 DUP8 DUP1 EXTCODESIZE ISZERO DUP1 ISZERO PUSH2 0x319F JUMPI PUSH1 0x0 DUP1 REVERT JUMPDEST POP GAS CALL ISZERO DUP1 ISZERO PUSH2 0x243A JUMPI RETURNDATASIZE PUSH1 0x0 DUP1 RETURNDATACOPY RETURNDATASIZE PUSH1 0x0 REVERT INVALID GASLIMIT MSTORE NUMBER ORIGIN ADDRESS GASPRICE KECCAK256 PUSH21 0x72616E7366657220746F20746865207A65726F2061 PUSH5 0x6472657373 GASLIMIT MSTORE NUMBER ORIGIN ADDRESS GASPRICE KECCAK256 PUSH3 0x75726E KECCAK256 PUSH2 0x6D6F PUSH22 0x6E7420657863656564732062616C616E63654F776E61 PUSH3 0x6C653A KECCAK256 PUSH15 0x6577206F776E657220697320746865 KECCAK256 PUSH27 0x65726F206164647265737345524332303A20617070726F76652074 PUSH16 0x20746865207A65726F20616464726573 PUSH20 0x45524332303A207472616E7366657220616D6F75 PUSH15 0x7420657863656564732062616C616E PUSH4 0x65536166 PUSH6 0x4D6174683A20 PUSH14 0x756C7469706C69636174696F6E20 PUSH16 0x766572666C6F7745524332303A207472 PUSH2 0x6E73 PUSH7 0x657220616D6F75 PUSH15 0x74206578636565647320616C6C6F77 PUSH2 0x6E63 PUSH6 0x45524332303A KECCAK256 PUSH3 0x75726E KECCAK256 PUSH7 0x726F6D20746865 KECCAK256 PUSH27 0x65726F206164647265737345524332303A207472616E7366657220 PUSH7 0x726F6D20746865 KECCAK256 PUSH27 0x65726F206164647265737345524332303A20617070726F76652066 PUSH19 0x6F6D20746865207A65726F2061646472657373 MSTORE8 PUSH2 0x6665 GASLIMIT MSTORE NUMBER ORIGIN ADDRESS GASPRICE KECCAK256 GASLIMIT MSTORE NUMBER ORIGIN ADDRESS KECCAK256 PUSH16 0x7065726174696F6E20646964206E6F74 KECCAK256 PUSH20 0x7563636565645361666545524332303A20617070 PUSH19 0x6F76652066726F6D206E6F6E2D7A65726F2074 PUSH16 0x206E6F6E2D7A65726F20616C6C6F7761 PUSH15 0x636545524332303A20646563726561 PUSH20 0x656420616C6C6F77616E63652062656C6F77207A PUSH6 0x726FA2646970 PUSH7 0x7358221220507F DUP13 0xD8 0xFC 0xF9 SHR ISZERO PUSH6 0x351E5A61283C 0xD8 JUMP DUP3 JUMPDEST PUSH27 0xFBC082B59B64D885D8870A5864736F6C634300060C003300000000 ","sha1":"99ec45aa093f87ac362c23c77611fbfbd04c1c29","source":"// SPDX-License-Identifier: MIT\npragma solidity ^0.6.12;\nimport \"../farms/spooky.sol\";\nimport \"../lenders/scream.sol\";\nimport \"../token.sol\";\nimport \"../vaultHelpers.sol\";\n\ncontract ScreamUSDC is Scream {\n    function lendPlatform() public view override returns (address) {\n        return 0xE45Ac34E528907d0A0239ab5Db507688070B20bf;\n    }\n}\n\ncontract SpookyUSDC is Spooky {\n    function farmLP() public view override returns (address) {\n        return 0x2b4C76d0dc16BE1C31D4C1DC53bF9B45987Fc75c;\n    }\n    function farmPid() public view override returns (uint256) {\n        return 2;\n    }\n}\n    \ncontract leverageTest is ERC20, ERC20Detailed, ScreamUSDC, SpookyUSDC, RoboController {\n    using SafeMath for uint256;\n    address constant USDC = 0x04068DA6C83AFCFA0e13ba15A6696662335D5B75;\n    address constant WFTM = 0x21be370D5312f44cB42ce377BC9b8a0cEF1A4C83;\n    string constant baseSymbol = \"USDC\";\n    string constant shortSymbol = \"FTM\";\n\n    constructor() public \n        ERC20Detailed(\"LEVERAGETEST\", \"test\", 8)\n        RoboController(USDC, WFTM)\n    {}\n}","sourcePath":"contracts/vaults/USDCScreamSpooky.sol","deployment":{"address":"0xBe23477A3EBF1ea80d0e7ca95bFa40768B1B1875","chainid":"250","blockHeight":15140660}}