{
  "abi": [
    {
      "inputs": [],
      "name": "borrowPlatform",
      "outputs": [
        {
          "internalType": "address",
          "name": "",
          "type": "address"
        }
      ],
      "stateMutability": "view",
      "type": "function"
    },
    {
      "inputs": [],
      "name": "compLpAddress",
      "outputs": [
        {
          "internalType": "address",
          "name": "",
          "type": "address"
        }
      ],
      "stateMutability": "view",
      "type": "function"
    },
    {
      "inputs": [],
      "name": "compTokenAddress",
      "outputs": [
        {
          "internalType": "address",
          "name": "",
          "type": "address"
        }
      ],
      "stateMutability": "view",
      "type": "function"
    },
    {
      "inputs": [],
      "name": "comptrollerAddress",
      "outputs": [
        {
          "internalType": "address",
          "name": "",
          "type": "address"
        }
      ],
      "stateMutability": "view",
      "type": "function"
    },
    {
      "inputs": [],
      "name": "lendPlatform",
      "outputs": [
        {
          "internalType": "address",
          "name": "",
          "type": "address"
        }
      ],
      "stateMutability": "view",
      "type": "function"
    }
  ],
  "bytecode": "608060405234801561001057600080fd5b5061014e806100206000396000f3fe608060405234801561001057600080fd5b50600436106100575760003560e01c80633ad184e41461005c578063668ecbf21461008057806368bde41f14610088578063b2ad2f0f14610090578063e43e7b9414610098575b600080fd5b6100646100a0565b604080516001600160a01b039092168252519081900360200190f35b6100646100b8565b6100646100d0565b6100646100e8565b610064610100565b73cc3e89fbc10e155f1164f8c9cf0703acde53f6fd90565b73b77b223490e1f5951ec79a8d09db9eab2adcb93490565b734250a6d3bd57455d7c6821eecb6206f507576cd290565b73d528697008ac67a21818751a5e3c58c8dae5469690565b73657a1861c15a3ded9af0b6799a195a249ebdcbc69056fea264697066735822122065f31f1db8b2192e693cdc797bd778a6e3e6b46ab36cdf118b255f39db21d5ae64736f6c634300060c0033",
  "bytecodeSha1": "eecf323652077a8a4ed4c084a33480846c516ca6",
  "compiler": {
    "evm_version": "istanbul",
    "optimizer": {
      "enabled": true,
      "runs": 200
    },
    "version": "0.6.12+commit.27d51765"
  },
  "contractName": "CreamETHFTM",
  "language": "Solidity",
  "natspec": {
    "kind": "dev",
    "methods": {},
    "version": 1
  },
  "opcodes": "PUSH1 0x80 PUSH1 0x40 MSTORE CALLVALUE DUP1 ISZERO PUSH2 0x10 JUMPI PUSH1 0x0 DUP1 REVERT JUMPDEST POP PUSH1 0x4 CALLDATASIZE LT PUSH2 0x57 JUMPI PUSH1 0x0 CALLDATALOAD PUSH1 0xE0 SHR DUP1 PUSH4 0x3AD184E4 EQ PUSH2 0x5C JUMPI DUP1 PUSH4 0x668ECBF2 EQ PUSH2 0x80 JUMPI DUP1 PUSH4 0x68BDE41F EQ PUSH2 0x88 JUMPI DUP1 PUSH4 0xB2AD2F0F EQ PUSH2 0x90 JUMPI DUP1 PUSH4 0xE43E7B94 EQ PUSH2 0x98 JUMPI JUMPDEST PUSH1 0x0 DUP1 REVERT JUMPDEST PUSH2 0x64 PUSH2 0xA0 JUMP JUMPDEST PUSH1 0x40 DUP1 MLOAD PUSH1 0x1 PUSH1 0x1 PUSH1 0xA0 SHL SUB SWAP1 SWAP3 AND DUP3 MSTORE MLOAD SWAP1 DUP2 SWAP1 SUB PUSH1 0x20 ADD SWAP1 RETURN JUMPDEST PUSH2 0x64 PUSH2 0xB8 JUMP JUMPDEST PUSH2 0x64 PUSH2 0xD0 JUMP JUMPDEST PUSH2 0x64 PUSH2 0xE8 JUMP JUMPDEST PUSH2 0x64 PUSH2 0x100 JUMP JUMPDEST PUSH20 0xCC3E89FBC10E155F1164F8C9CF0703ACDE53F6FD SWAP1 JUMP JUMPDEST PUSH20 0xB77B223490E1F5951EC79A8D09DB9EAB2ADCB934 SWAP1 JUMP JUMPDEST PUSH20 0x4250A6D3BD57455D7C6821EECB6206F507576CD2 SWAP1 JUMP JUMPDEST PUSH20 0xD528697008AC67A21818751A5E3C58C8DAE54696 SWAP1 JUMP JUMPDEST PUSH20 0x657A1861C15A3DED9AF0B6799A195A249EBDCBC6 SWAP1 JUMP INVALID LOG2 PUSH5 0x6970667358 0x22 SLT KECCAK256 PUSH6 0xF31F1DB8B219 0x2E PUSH10 0x3CDC797BD778A6E3E6B4 PUSH11 0xB36CDF118B255F39DB21D5 0xAE PUSH5 0x736F6C6343 STOP MOD 0xC STOP CALLER ",
  "sha1": "f2d64dfd0cb8d426ef95948095629f648fc8c2ee",
  "source": "// SPDX-License-Identifier: MIT\npragma solidity ^0.6.12;\nimport \"../vaultHelpers.sol\";\nimport \"../farms/spirit.sol\";\nimport \"../lenders/cream.sol\";\nimport \"../token.sol\";\n\ncontract CreamETHFTM is Cream {\n    function lendPlatform() public view override returns (address) {\n        return 0xcc3E89fBc10e155F1164f8c9Cf0703aCDe53f6Fd;\n    }\n}\n\ncontract SpiritETHFTM is Spirit {\n    function farmLP() public view override returns (address) {\n        return 0x613BF4E46b4817015c01c6Bb31C7ae9edAadc26e;\n    }\n    function farmPid() public view override returns (uint256) {\n        return 3;\n    }\n}\n    \ncontract rvETHSpirit is ERC20, ERC20Detailed, CreamETHFTM, SpiritETHFTM, RoboController {\n    using SafeMath for uint256;\n    address constant ETH = 0x74b23882a30290451A17c44f4F05243b6b58C76d;\n    address constant WFTM = 0x21be370D5312f44cB42ce377BC9b8a0cEF1A4C83;\n\n    constructor() public \n        ERC20Detailed(\"Robo Vault ETH Spirit\", \"rvETHb\", 18)\n        RoboController(ETH, WFTM)\n    {}\n}",
  "sourcePath": "contracts/vaults/ETHSpirit.sol",
  "type": "contract"
}