{
  "abi": [
    {
      "inputs": [],
      "stateMutability": "nonpayable",
      "type": "constructor"
    },
    {
      "anonymous": false,
      "inputs": [
        {
          "indexed": true,
          "internalType": "address",
          "name": "owner",
          "type": "address"
        },
        {
          "indexed": true,
          "internalType": "address",
          "name": "spender",
          "type": "address"
        },
        {
          "indexed": false,
          "internalType": "uint256",
          "name": "value",
          "type": "uint256"
        }
      ],
      "name": "Approval",
      "type": "event"
    },
    {
      "anonymous": false,
      "inputs": [
        {
          "indexed": true,
          "internalType": "address",
          "name": "previousOwner",
          "type": "address"
        },
        {
          "indexed": true,
          "internalType": "address",
          "name": "newOwner",
          "type": "address"
        }
      ],
      "name": "OwnershipTransferred",
      "type": "event"
    },
    {
      "anonymous": false,
      "inputs": [
        {
          "indexed": true,
          "internalType": "address",
          "name": "from",
          "type": "address"
        },
        {
          "indexed": true,
          "internalType": "address",
          "name": "to",
          "type": "address"
        },
        {
          "indexed": false,
          "internalType": "uint256",
          "name": "value",
          "type": "uint256"
        }
      ],
      "name": "Transfer",
      "type": "event"
    },
    {
      "anonymous": false,
      "inputs": [
        {
          "indexed": false,
          "internalType": "address",
          "name": "newKeeper",
          "type": "address"
        }
      ],
      "name": "UpdatedKeeper",
      "type": "event"
    },
    {
      "anonymous": false,
      "inputs": [
        {
          "indexed": false,
          "internalType": "address",
          "name": "newStrategist",
          "type": "address"
        }
      ],
      "name": "UpdatedStrategist",
      "type": "event"
    },
    {
      "inputs": [
        {
          "internalType": "address",
          "name": "owner",
          "type": "address"
        },
        {
          "internalType": "address",
          "name": "spender",
          "type": "address"
        }
      ],
      "name": "allowance",
      "outputs": [
        {
          "internalType": "uint256",
          "name": "",
          "type": "uint256"
        }
      ],
      "stateMutability": "view",
      "type": "function"
    },
    {
      "inputs": [
        {
          "internalType": "address",
          "name": "spender",
          "type": "address"
        },
        {
          "internalType": "uint256",
          "name": "amount",
          "type": "uint256"
        }
      ],
      "name": "approve",
      "outputs": [
        {
          "internalType": "bool",
          "name": "",
          "type": "bool"
        }
      ],
      "stateMutability": "nonpayable",
      "type": "function"
    },
    {
      "inputs": [],
      "name": "approveContracts",
      "outputs": [],
      "stateMutability": "nonpayable",
      "type": "function"
    },
    {
      "inputs": [],
      "name": "balanceDebt",
      "outputs": [
        {
          "internalType": "uint256",
          "name": "",
          "type": "uint256"
        }
      ],
      "stateMutability": "view",
      "type": "function"
    },
    {
      "inputs": [],
      "name": "balanceLend",
      "outputs": [
        {
          "internalType": "uint256",
          "name": "",
          "type": "uint256"
        }
      ],
      "stateMutability": "view",
      "type": "function"
    },
    {
      "inputs": [
        {
          "internalType": "address",
          "name": "account",
          "type": "address"
        }
      ],
      "name": "balanceOf",
      "outputs": [
        {
          "internalType": "uint256",
          "name": "",
          "type": "uint256"
        }
      ],
      "stateMutability": "view",
      "type": "function"
    },
    {
      "inputs": [],
      "name": "balanceReserves",
      "outputs": [
        {
          "internalType": "uint256",
          "name": "",
          "type": "uint256"
        }
      ],
      "stateMutability": "view",
      "type": "function"
    },
    {
      "inputs": [],
      "name": "balanceShort",
      "outputs": [
        {
          "internalType": "uint256",
          "name": "",
          "type": "uint256"
        }
      ],
      "stateMutability": "view",
      "type": "function"
    },
    {
      "inputs": [],
      "name": "balanceShortBaseEq",
      "outputs": [
        {
          "internalType": "uint256",
          "name": "",
          "type": "uint256"
        }
      ],
      "stateMutability": "view",
      "type": "function"
    },
    {
      "inputs": [],
      "name": "borrowPlatform",
      "outputs": [
        {
          "internalType": "address",
          "name": "",
          "type": "address"
        }
      ],
      "stateMutability": "view",
      "type": "function"
    },
    {
      "inputs": [],
      "name": "cRatioDeploy",
      "outputs": [
        {
          "internalType": "uint256",
          "name": "",
          "type": "uint256"
        }
      ],
      "stateMutability": "view",
      "type": "function"
    },
    {
      "inputs": [],
      "name": "calcCollateral",
      "outputs": [
        {
          "internalType": "uint256",
          "name": "",
          "type": "uint256"
        }
      ],
      "stateMutability": "view",
      "type": "function"
    },
    {
      "inputs": [],
      "name": "calcLeverage",
      "outputs": [
        {
          "internalType": "uint256",
          "name": "",
          "type": "uint256"
        }
      ],
      "stateMutability": "view",
      "type": "function"
    },
    {
      "inputs": [],
      "name": "calcPoolValueInToken",
      "outputs": [
        {
          "internalType": "uint256",
          "name": "",
          "type": "uint256"
        }
      ],
      "stateMutability": "view",
      "type": "function"
    },
    {
      "inputs": [],
      "name": "calcReserves",
      "outputs": [
        {
          "internalType": "uint256",
          "name": "",
          "type": "uint256"
        }
      ],
      "stateMutability": "view",
      "type": "function"
    },
    {
      "inputs": [],
      "name": "collatLower",
      "outputs": [
        {
          "internalType": "uint256",
          "name": "",
          "type": "uint256"
        }
      ],
      "stateMutability": "view",
      "type": "function"
    },
    {
      "inputs": [],
      "name": "collatUpper",
      "outputs": [
        {
          "internalType": "uint256",
          "name": "",
          "type": "uint256"
        }
      ],
      "stateMutability": "view",
      "type": "function"
    },
    {
      "inputs": [],
      "name": "compLpAddress",
      "outputs": [
        {
          "internalType": "address",
          "name": "",
          "type": "address"
        }
      ],
      "stateMutability": "view",
      "type": "function"
    },
    {
      "inputs": [],
      "name": "compTokenAddress",
      "outputs": [
        {
          "internalType": "address",
          "name": "",
          "type": "address"
        }
      ],
      "stateMutability": "view",
      "type": "function"
    },
    {
      "inputs": [],
      "name": "comptrollerAddress",
      "outputs": [
        {
          "internalType": "address",
          "name": "",
          "type": "address"
        }
      ],
      "stateMutability": "view",
      "type": "function"
    },
    {
      "inputs": [
        {
          "internalType": "uint256",
          "name": "_amount",
          "type": "uint256"
        }
      ],
      "name": "convertShortToBaseLP",
      "outputs": [
        {
          "internalType": "uint256",
          "name": "",
          "type": "uint256"
        }
      ],
      "stateMutability": "view",
      "type": "function"
    },
    {
      "inputs": [],
      "name": "countLpPooled",
      "outputs": [
        {
          "internalType": "uint256",
          "name": "",
          "type": "uint256"
        }
      ],
      "stateMutability": "view",
      "type": "function"
    },
    {
      "inputs": [],
      "name": "decimals",
      "outputs": [
        {
          "internalType": "uint8",
          "name": "",
          "type": "uint8"
        }
      ],
      "stateMutability": "view",
      "type": "function"
    },
    {
      "inputs": [
        {
          "internalType": "address",
          "name": "spender",
          "type": "address"
        },
        {
          "internalType": "uint256",
          "name": "subtractedValue",
          "type": "uint256"
        }
      ],
      "name": "decreaseAllowance",
      "outputs": [
        {
          "internalType": "bool",
          "name": "",
          "type": "bool"
        }
      ],
      "stateMutability": "nonpayable",
      "type": "function"
    },
    {
      "inputs": [],
      "name": "deployStrat",
      "outputs": [],
      "stateMutability": "nonpayable",
      "type": "function"
    },
    {
      "inputs": [
        {
          "internalType": "uint256",
          "name": "_amount",
          "type": "uint256"
        }
      ],
      "name": "deposit",
      "outputs": [],
      "stateMutability": "nonpayable",
      "type": "function"
    },
    {
      "inputs": [],
      "name": "depositAll",
      "outputs": [],
      "stateMutability": "nonpayable",
      "type": "function"
    },
    {
      "inputs": [],
      "name": "depositLimit",
      "outputs": [
        {
          "internalType": "uint256",
          "name": "",
          "type": "uint256"
        }
      ],
      "stateMutability": "view",
      "type": "function"
    },
    {
      "inputs": [],
      "name": "farmAddress",
      "outputs": [
        {
          "internalType": "address",
          "name": "",
          "type": "address"
        }
      ],
      "stateMutability": "view",
      "type": "function"
    },
    {
      "inputs": [],
      "name": "farmLP",
      "outputs": [
        {
          "internalType": "address",
          "name": "",
          "type": "address"
        }
      ],
      "stateMutability": "view",
      "type": "function"
    },
    {
      "inputs": [],
      "name": "farmPid",
      "outputs": [
        {
          "internalType": "uint256",
          "name": "",
          "type": "uint256"
        }
      ],
      "stateMutability": "view",
      "type": "function"
    },
    {
      "inputs": [],
      "name": "farmToken",
      "outputs": [
        {
          "internalType": "address",
          "name": "",
          "type": "address"
        }
      ],
      "stateMutability": "view",
      "type": "function"
    },
    {
      "inputs": [],
      "name": "farmTokenLp",
      "outputs": [
        {
          "internalType": "address",
          "name": "",
          "type": "address"
        }
      ],
      "stateMutability": "view",
      "type": "function"
    },
    {
      "inputs": [],
      "name": "getBaseInLending",
      "outputs": [
        {
          "internalType": "uint256",
          "name": "",
          "type": "uint256"
        }
      ],
      "stateMutability": "view",
      "type": "function"
    },
    {
      "inputs": [],
      "name": "getBaseInLp",
      "outputs": [
        {
          "internalType": "uint256",
          "name": "",
          "type": "uint256"
        }
      ],
      "stateMutability": "view",
      "type": "function"
    },
    {
      "inputs": [],
      "name": "getDebtShort",
      "outputs": [
        {
          "internalType": "uint256",
          "name": "",
          "type": "uint256"
        }
      ],
      "stateMutability": "view",
      "type": "function"
    },
    {
      "inputs": [],
      "name": "getPricePerFullShare",
      "outputs": [
        {
          "internalType": "uint256",
          "name": "",
          "type": "uint256"
        }
      ],
      "stateMutability": "view",
      "type": "function"
    },
    {
      "inputs": [
        {
          "internalType": "address",
          "name": "spender",
          "type": "address"
        },
        {
          "internalType": "uint256",
          "name": "addedValue",
          "type": "uint256"
        }
      ],
      "name": "increaseAllowance",
      "outputs": [
        {
          "internalType": "bool",
          "name": "",
          "type": "bool"
        }
      ],
      "stateMutability": "nonpayable",
      "type": "function"
    },
    {
      "inputs": [],
      "name": "isOwner",
      "outputs": [
        {
          "internalType": "bool",
          "name": "",
          "type": "bool"
        }
      ],
      "stateMutability": "view",
      "type": "function"
    },
    {
      "inputs": [],
      "name": "keeper",
      "outputs": [
        {
          "internalType": "address",
          "name": "",
          "type": "address"
        }
      ],
      "stateMutability": "view",
      "type": "function"
    },
    {
      "inputs": [],
      "name": "lastHarvest",
      "outputs": [
        {
          "internalType": "uint256",
          "name": "",
          "type": "uint256"
        }
      ],
      "stateMutability": "view",
      "type": "function"
    },
    {
      "inputs": [],
      "name": "lendPlatform",
      "outputs": [
        {
          "internalType": "address",
          "name": "",
          "type": "address"
        }
      ],
      "stateMutability": "view",
      "type": "function"
    },
    {
      "inputs": [],
      "name": "name",
      "outputs": [
        {
          "internalType": "string",
          "name": "",
          "type": "string"
        }
      ],
      "stateMutability": "view",
      "type": "function"
    },
    {
      "inputs": [],
      "name": "operationalFee",
      "outputs": [
        {
          "internalType": "uint256",
          "name": "",
          "type": "uint256"
        }
      ],
      "stateMutability": "view",
      "type": "function"
    },
    {
      "inputs": [],
      "name": "operationalFeeHarvest",
      "outputs": [],
      "stateMutability": "nonpayable",
      "type": "function"
    },
    {
      "inputs": [],
      "name": "owner",
      "outputs": [
        {
          "internalType": "address",
          "name": "",
          "type": "address"
        }
      ],
      "stateMutability": "view",
      "type": "function"
    },
    {
      "inputs": [],
      "name": "rebalanceCollateral",
      "outputs": [],
      "stateMutability": "nonpayable",
      "type": "function"
    },
    {
      "inputs": [],
      "name": "renounceOwnership",
      "outputs": [],
      "stateMutability": "nonpayable",
      "type": "function"
    },
    {
      "inputs": [],
      "name": "reserveAllocation",
      "outputs": [
        {
          "internalType": "uint256",
          "name": "",
          "type": "uint256"
        }
      ],
      "stateMutability": "view",
      "type": "function"
    },
    {
      "inputs": [],
      "name": "resetApprovals",
      "outputs": [],
      "stateMutability": "nonpayable",
      "type": "function"
    },
    {
      "inputs": [],
      "name": "routerAddress",
      "outputs": [
        {
          "internalType": "address",
          "name": "",
          "type": "address"
        }
      ],
      "stateMutability": "view",
      "type": "function"
    },
    {
      "inputs": [
        {
          "internalType": "uint256",
          "name": "_lower",
          "type": "uint256"
        },
        {
          "internalType": "uint256",
          "name": "_upper",
          "type": "uint256"
        },
        {
          "internalType": "uint256",
          "name": "_target",
          "type": "uint256"
        }
      ],
      "name": "setCollateralThresholds",
      "outputs": [],
      "stateMutability": "nonpayable",
      "type": "function"
    },
    {
      "inputs": [
        {
          "internalType": "uint256",
          "name": "_withdrawalFee",
          "type": "uint256"
        },
        {
          "internalType": "uint256",
          "name": "_operationalFee",
          "type": "uint256"
        },
        {
          "internalType": "uint256",
          "name": "_profitFee",
          "type": "uint256"
        }
      ],
      "name": "setFees",
      "outputs": [],
      "stateMutability": "nonpayable",
      "type": "function"
    },
    {
      "inputs": [
        {
          "internalType": "uint256",
          "name": "_reserveAllocation",
          "type": "uint256"
        },
        {
          "internalType": "uint256",
          "name": "_cRatioDeploy",
          "type": "uint256"
        }
      ],
      "name": "setFundingAllocations",
      "outputs": [],
      "stateMutability": "nonpayable",
      "type": "function"
    },
    {
      "inputs": [
        {
          "internalType": "address",
          "name": "_keeper",
          "type": "address"
        }
      ],
      "name": "setKeeper",
      "outputs": [],
      "stateMutability": "nonpayable",
      "type": "function"
    },
    {
      "inputs": [
        {
          "internalType": "uint256",
          "name": "_lower",
          "type": "uint256"
        },
        {
          "internalType": "uint256",
          "name": "_upper",
          "type": "uint256"
        }
      ],
      "name": "setSlippageAdj",
      "outputs": [],
      "stateMutability": "nonpayable",
      "type": "function"
    },
    {
      "inputs": [
        {
          "internalType": "address",
          "name": "_strategist",
          "type": "address"
        }
      ],
      "name": "setStrategist",
      "outputs": [],
      "stateMutability": "nonpayable",
      "type": "function"
    },
    {
      "inputs": [],
      "name": "slippageAdj",
      "outputs": [
        {
          "internalType": "uint256",
          "name": "",
          "type": "uint256"
        }
      ],
      "stateMutability": "view",
      "type": "function"
    },
    {
      "inputs": [],
      "name": "slippageAdjHigh",
      "outputs": [
        {
          "internalType": "uint256",
          "name": "",
          "type": "uint256"
        }
      ],
      "stateMutability": "view",
      "type": "function"
    },
    {
      "inputs": [],
      "name": "strategist",
      "outputs": [
        {
          "internalType": "address",
          "name": "",
          "type": "address"
        }
      ],
      "stateMutability": "view",
      "type": "function"
    },
    {
      "inputs": [],
      "name": "symbol",
      "outputs": [
        {
          "internalType": "string",
          "name": "",
          "type": "string"
        }
      ],
      "stateMutability": "view",
      "type": "function"
    },
    {
      "inputs": [],
      "name": "totalSupply",
      "outputs": [
        {
          "internalType": "uint256",
          "name": "",
          "type": "uint256"
        }
      ],
      "stateMutability": "view",
      "type": "function"
    },
    {
      "inputs": [
        {
          "internalType": "address",
          "name": "recipient",
          "type": "address"
        },
        {
          "internalType": "uint256",
          "name": "amount",
          "type": "uint256"
        }
      ],
      "name": "transfer",
      "outputs": [
        {
          "internalType": "bool",
          "name": "",
          "type": "bool"
        }
      ],
      "stateMutability": "nonpayable",
      "type": "function"
    },
    {
      "inputs": [
        {
          "internalType": "address",
          "name": "sender",
          "type": "address"
        },
        {
          "internalType": "address",
          "name": "recipient",
          "type": "address"
        },
        {
          "internalType": "uint256",
          "name": "amount",
          "type": "uint256"
        }
      ],
      "name": "transferFrom",
      "outputs": [
        {
          "internalType": "bool",
          "name": "",
          "type": "bool"
        }
      ],
      "stateMutability": "nonpayable",
      "type": "function"
    },
    {
      "inputs": [
        {
          "internalType": "address",
          "name": "newOwner",
          "type": "address"
        }
      ],
      "name": "transferOwnership",
      "outputs": [],
      "stateMutability": "nonpayable",
      "type": "function"
    },
    {
      "inputs": [
        {
          "internalType": "uint256",
          "name": "_amount",
          "type": "uint256"
        }
      ],
      "name": "undeployFromStrat",
      "outputs": [],
      "stateMutability": "nonpayable",
      "type": "function"
    },
    {
      "inputs": [
        {
          "internalType": "uint256",
          "name": "_shares",
          "type": "uint256"
        }
      ],
      "name": "withdraw",
      "outputs": [],
      "stateMutability": "nonpayable",
      "type": "function"
    },
    {
      "inputs": [],
      "name": "withdrawAll",
      "outputs": [],
      "stateMutability": "nonpayable",
      "type": "function"
    },
    {
      "inputs": [],
      "name": "withdrawalFee",
      "outputs": [
        {
          "internalType": "uint256",
          "name": "",
          "type": "uint256"
        }
      ],
      "stateMutability": "view",
      "type": "function"
    }
  ],
  "bytecode": "6080604052620f1b30600855620f69506009556200001c620004b1565b600c80546001600160a01b0319166001600160a01b039290921691909117905562000046620004c9565b600d80546001600160a01b0319166001600160a01b039290921691909117905562000070620004e1565b600e80546001600160a01b0319166001600160a01b03929092169190911790556200009a620004f9565b600f80546001600160a01b0319166001600160a01b0392909216919091179055620000c462000511565b601080546001600160a01b0319166001600160a01b0392909216919091179055620000ee62000529565b601180546001600160a01b03929092166001600160a01b031992831617905560128054821673d074cdae76496d81fab83023fee4d8631898bbaf17905560138054909116737642604866b546b8ab759fcefb0c5c24b296b925179055620864706014556206ddd060155561c3506016819055611388601855601955600019601a55620802c8601b553480156200018357600080fd5b5073049d68029688eabf473097a2fc38ef61633a3c7a7321be370d5312f44cb42ce377bc9b8a0cef1a4c8381816040518060400160405280601e81526020017f526f626f205661756c742046555344542053637265616d2053706f6f6b79000081525060405180604001604052806008815260200167727646555344546160c01b81525060066001600081905550620002216200054160201b60201c565b600180546001600160a01b0319166001600160a01b0392831617908190556040519116906000907f8be0079c531659141344cd1fd0a4f28419497f9722a3daafe3b4186f6b6457e0908290a3825162000282906005906020860190620009ee565b50815162000298906006906020850190620009ee565b506007805460ff90921660ff199092169190911790555050600a80546001600160a01b038085166001600160a01b031992831617909255600b8054928416929091169190911790556000620002ec62000545565b60408051600180825281830190925291925060609190602080830190803683370190505090506200031c620004f9565b816000815181106200032a57fe5b6001600160a01b03928316602091820292909201810191909152604051631853304760e31b8152600481018281528451602483015284519386169363c29982389386938392604490910191858101910280838360005b838110156200039a57818101518382015260200162000380565b5050505090500192505050600060405180830381600087803b158015620003c057600080fd5b505af1158015620003d5573d6000803e3d6000fd5b505050506040513d6000823e601f3d908101601f191682016040526020811015620003ff57600080fd5b81019080805160405193929190846401000000008211156200042057600080fd5b9083019060208201858111156200043657600080fd5b82518660208202830111640100000000821117156200045457600080fd5b82525081516020918201928201910280838360005b838110156200048357818101518382015260200162000469565b505050509050016040525050505050505050620004a56200055d60201b60201c565b50504260175562000a8a565b735965e53aa80a0bcf1cd6dbdd72e6a9b2aa04741090565b73ec7178f4c41f346b2721907f5cf7628e388a7a5890565b73841fad6eae12c286d1fd18d1d525dffa75c7effe90565b7302224765bc8d54c21bb51b0951c80315e1c263f990565b73e0654c8e6fd4d733349ac7e09f6f23da256bf47590565b7330872e4fc4edbfd7a352bfc2463eb4fae9c0908690565b3390565b73260e596dabe3afc463e75b6cc05d8c46acacfb0990565b6012546001600160a01b03163314806200059157506200057c62000679565b6001600160a01b0316336001600160a01b0316145b6200059b57600080fd5b620005cb620005a9620004f9565b600a546001600160a01b03169060001962000688602090811b62001fca17901c565b620005fb620005d9620007ac565b600b546001600160a01b03169060001962000688602090811b62001fca17901c565b62000609620005a9620007c4565b62000617620005d9620007c4565b6200064762000625620007c4565b600e546001600160a01b03169060001962000688602090811b62001fca17901c565b6200067762000655620007c4565b6010546001600160a01b03169060001962000688602090811b62001fca17901c565b565b6001546001600160a01b031690565b80158062000712575060408051636eb1769f60e11b81523060048201526001600160a01b03848116602483015291519185169163dd62ed3e91604480820192602092909190829003018186803b158015620006e257600080fd5b505afa158015620006f7573d6000803e3d6000fd5b505050506040513d60208110156200070e57600080fd5b5051155b6200074f5760405162461bcd60e51b8152600401808060200182810382526036815260200180620040146036913960400191505060405180910390fd5b604080516001600160a01b038416602482015260448082018490528251808303909101815260649091019091526020810180516001600160e01b0390811663095ea7b360e01b17909152620007a7918591620007dc16565b505050565b735aa53f03197e08c4851cad8c92c7922da5857e5d90565b73f491e7b69e4244ad4002bc14e878a34207e38c2990565b620007fb826001600160a01b0316620009b160201b620020dd1760201c565b6200084d576040805162461bcd60e51b815260206004820152601f60248201527f5361666545524332303a2063616c6c20746f206e6f6e2d636f6e747261637400604482015290519081900360640190fd5b60006060836001600160a01b0316836040518082805190602001908083835b602083106200088d5780518252601f1990920191602091820191016200086c565b6001836020036101000a0380198251168184511680821785525050505050509050019150506000604051808303816000865af19150503d8060008114620008f1576040519150601f19603f3d011682016040523d82523d6000602084013e620008f6565b606091505b5091509150816200094e576040805162461bcd60e51b815260206004820181905260248201527f5361666545524332303a206c6f772d6c6576656c2063616c6c206661696c6564604482015290519081900360640190fd5b805115620009ab578080602001905160208110156200096c57600080fd5b5051620009ab5760405162461bcd60e51b815260040180806020018281038252602a81526020018062003fea602a913960400191505060405180910390fd5b50505050565b6000813f7fc5d2460186f7233c927e7db2dcc703c0e500b653ca82273b7bfad8045d85a4708115801590620009e65750808214155b949350505050565b828054600181600116156101000203166002900490600052602060002090601f016020900481019282601f1062000a3157805160ff191683800117855562000a61565b8280016001018555821562000a61579182015b8281111562000a6157825182559160200191906001019062000a44565b5062000a6f92915062000a73565b5090565b5b8082111562000a6f576000815560010162000a74565b6135508062000a9a6000396000f3fe608060405234801561001057600080fd5b50600436106104075760003560e01c80638f32d59b11610220578063c2442f9311610130578063e6e7114b116100b8578063f2fde38b11610087578063f2fde38b146108e5578063f8c1e75e1461090b578063f8f079bb14610913578063f9da3f751461091b578063feb6848a1461092357610407565b8063e6e7114b146108c5578063eb61c72a146108cd578063ecf70858146108d5578063f1a392da146108dd57610407565b8063cec10c11116100ff578063cec10c1114610841578063d2d9a69d1461086a578063dd62ed3e14610887578063de5f6268146108b5578063e43e7b94146108bd57610407565b8063c2442f9314610803578063c3b49f3d1461080b578063c7b9d53014610813578063cad20a291461083957610407565b8063aced1661116101b3578063b574d28711610182578063b574d28714610790578063b6b55f25146107b3578063bf428341146107d0578063c089f572146107f3578063c1e32a3d146107fb57610407565b8063aced166114610770578063ae263a1d14610778578063b2ad2f0f14610780578063b4aafb601461078857610407565b8063a877cc55116101ef578063a877cc551461072c578063a9059cbb14610734578063a9b0ca3814610760578063a9c19c661461076857610407565b80638f32d59b146106c757806394c04ced146106cf57806395d89b41146106f8578063a457c2d71461070057610407565b80635627f7b51161031b57806377af8ceb116102ae578063827907b41161027d578063827907b41461069f578063853828b6146106a75780638ad56bff146106af5780638bc7e8c4146106b75780638da5cb5b146106bf57610407565b806377af8ceb1461067f57806377c7b8fc146106875780637845790c1461068f57806381117ff21461069757610407565b806370a08231116102ea57806370a08231146106235780637137ef9914610649578063715018a614610651578063748747e61461065957610407565b80635627f7b514610603578063668ecbf21461060b57806368bde41f146106135780636c1a35be1461061b57610407565b8063313ce5671161039e57806339bb9c241161036d57806339bb9c24146105c65780633ad184e4146105ce5780634d54e307146105d657806351da5473146105f357806354b1a6d8146105fb57610407565b8063313ce5671461056c5780633268cc561461058a578063379afccc14610592578063395093511461059a57610407565b80631fe4a686116103da5780631fe4a686146104eb57806323b872dd1461050f5780632cf4e4ee146105455780632e1a7d4d1461054d57610407565b806306fdde031461040c578063095ea7b31461048957806311d1a392146104c957806318160ddd146104e3575b600080fd5b61041461092b565b6040805160208082528351818301528351919283929083019185019080838360005b8381101561044e578181015183820152602001610436565b50505050905090810190601f16801561047b5780820380516001836020036101000a031916815260200191505b509250505060405180910390f35b6104b56004803603604081101561049f57600080fd5b506001600160a01b0381351690602001356109c1565b604080519115158252519081900360200190f35b6104d16109df565b60408051918252519081900360200190f35b6104d1610a8a565b6104f3610a90565b604080516001600160a01b039092168252519081900360200190f35b6104b56004803603606081101561052557600080fd5b506001600160a01b03813581169160208101359091169060400135610a9f565b6104d1610b26565b61056a6004803603602081101561056357600080fd5b5035610b38565b005b610574610d37565b6040805160ff9092168252519081900360200190f35b6104f3610d40565b61056a610d58565b6104b5600480360360408110156105b057600080fd5b506001600160a01b038135169060200135610e07565b6104d1610e55565b6104f3610e5b565b6104d1600480360360208110156105ec57600080fd5b5035610e73565b6104d1610ea2565b6104d1610ed7565b6104d1610edd565b6104f3610f6a565b6104f3610f82565b6104f3610f9a565b6104d16004803603602081101561063957600080fd5b50356001600160a01b0316610fb2565b6104d1610fcd565b61056a611008565b61056a6004803603602081101561066f57600080fd5b50356001600160a01b03166110ab565b61056a61114c565b6104d161121c565b6104d161124d565b61056a6112d5565b6104d1611588565b61056a61158d565b6104d16115a6565b6104d16115f8565b6104f36115fe565b6104b561160d565b61056a600480360360608110156106e557600080fd5b5080359060208101359060400135611633565b61041461169f565b6104b56004803603604081101561071657600080fd5b506001600160a01b038135169060200135611700565b61056a611768565b6104b56004803603604081101561074a57600080fd5b506001600160a01b0381351690602001356117aa565b6104d16117be565b6104d16117c4565b6104f3611860565b61056a61186f565b6104f361197c565b6104d1611994565b61056a600480360360408110156107a657600080fd5b508035906020013561199a565b61056a600480360360208110156107c957600080fd5b50356119fe565b61056a600480360360408110156107e657600080fd5b5080359060200135611b9a565b6104d1611bdf565b6104f3611be5565b6104f3611bfd565b6104d1611c15565b61056a6004803603602081101561082957600080fd5b50356001600160a01b0316611c91565b6104d1611d32565b61056a6004803603606081101561085757600080fd5b5080359060208101359060400135611d49565b61056a6004803603602081101561088057600080fd5b5035611dba565b6104d16004803603604081101561089d57600080fd5b506001600160a01b0381358116916020013516611dfd565b61056a611e28565b6104f3611eaa565b6104d1611ec2565b6104d1611ed9565b6104d1611eed565b6104d1611ef3565b61056a600480360360208110156108fb57600080fd5b50356001600160a01b0316611ef9565b6104d1611f5b565b6104d1611f61565b6104f3611f67565b6104d1611f7f565b60058054604080516020601f60026000196101006001881615020190951694909404938401819004810282018101909252828152606093909290918301828280156109b75780601f1061098c576101008083540402835291602001916109b7565b820191906000526020600020905b81548152906001019060200180831161099a57829003601f168201915b5050505050905090565b60006109d56109ce612114565b8484612118565b5060015b92915050565b600a54604080516370a0823160e01b8152306004820152905160009283926001600160a01b03909116916370a0823191602480820192602092909190829003018186803b158015610a2f57600080fd5b505afa158015610a43573d6000803e3d6000fd5b505050506040513d6020811015610a5957600080fd5b505190506000610a67610fcd565b90506000610a8282610a7c85620f4240612204565b90612264565b935050505090565b60045490565b6012546001600160a01b031681565b6000610aac8484846122a6565b610b1c84610ab8612114565b610b1785604051806060016040528060288152602001613404602891396001600160a01b038a16600090815260036020526040812090610af6612114565b6001600160a01b0316815260208101919091526040016000205491906123f8565b612118565b5060019392505050565b600080610b323061248f565b91505090565b600080546001019081905581610b95576040805162461bcd60e51b815260206004820152601f60248201527f7769746864726177206d7573742062652067726561746572207468616e203000604482015290519081900360640190fd5b6000610ba033610fb2565b905080831115610bee576040805162461bcd60e51b8152602060048201526014602482015273696e73756666696369656e742062616c616e636560601b604482015290519081900360640190fd5b6000610bf8610fcd565b90506000610c11610c07610a8a565b610a7c8488612204565b9050610c1d3386612517565b600a54604080516370a0823160e01b815230600482015290516000926001600160a01b0316916370a08231916024808301926020929190829003018186803b158015610c6857600080fd5b505afa158015610c7c573d6000803e3d6000fd5b505050506040513d6020811015610c9257600080fd5b5051905081811015610cc2576000610ca983612607565b9050610cb58382612626565b9250610cc083612668565b505b600a54610cd9906001600160a01b03163384612671565b505050506000548114610d33576040805162461bcd60e51b815260206004820152601f60248201527f5265656e7472616e637947756172643a207265656e7472616e742063616c6c00604482015290519081900360640190fd5b5050565b60075460ff1690565b73f491e7b69e4244ad4002bc14e878a34207e38c2990565b6012546001600160a01b0316331480610d895750610d746115fe565b6001600160a01b0316336001600160a01b0316145b610d9257600080fd5b610db1610d9d610e5b565b600a546001600160a01b0316906000611fca565b610dd0610dbc61197c565b600b546001600160a01b0316906000611fca565b610ddb610d9d610d40565b610de6610dbc610d40565b610e05610df1610d40565b600e546001600160a01b0316906000611fca565b565b60006109d5610e14612114565b84610b178560036000610e25612114565b6001600160a01b03908116825260208083019390935260409182016000908120918c1681529252902054906126c3565b60085481565b7302224765bc8d54c21bb51b0951c80315e1c263f990565b600080610e7e61271d565b90506000610e8a6115a6565b9050610e9a82610a7c8684612204565b949350505050565b600080610ead611d32565b90506000610eb96117c4565b90506000610a82610eca8385612626565b610a7c84620f4240612204565b60095481565b600a5460009081906001600160a01b03166370a08231610efb610e5b565b6040518263ffffffff1660e01b815260040180826001600160a01b0316815260200191505060206040518083038186803b158015610f3857600080fd5b505afa158015610f4c573d6000803e3d6000fd5b505050506040513d6020811015610f6257600080fd5b505191505090565b7330872e4fc4edbfd7a352bfc2463eb4fae9c0908690565b73260e596dabe3afc463e75b6cc05d8c46acacfb0990565b735965e53aa80a0bcf1cd6dbdd72e6a9b2aa04741090565b6001600160a01b031660009081526002602052604090205490565b600080610fd86117c4565b90506000610fe4611c15565b90506000610ff0611d32565b90506000610ffc61124d565b92909301030191505090565b61101061160d565b611061576040805162461bcd60e51b815260206004820181905260248201527f4f776e61626c653a2063616c6c6572206973206e6f7420746865206f776e6572604482015290519081900360640190fd5b6001546040516000916001600160a01b0316907f8be0079c531659141344cd1fd0a4f28419497f9722a3daafe3b4186f6b6457e0908390a3600180546001600160a01b0319169055565b6012546001600160a01b03163314806110dc57506110c76115fe565b6001600160a01b0316336001600160a01b0316145b6110e557600080fd5b6001600160a01b0381166110f857600080fd5b601380546001600160a01b0383166001600160a01b0319909116811790915560408051918252517f2f202ddb4a2e345f6323ed90f8fc8559d770a7abbbeee84dde8aca3351fe71549181900360200190a150565b6012546001600160a01b031633148061117d57506111686115fe565b6001600160a01b0316336001600160a01b0316145b61118657600080fd5b6111a6611191610e5b565b600a546001600160a01b031690600019611fca565b6111c66111b161197c565b600b546001600160a01b031690600019611fca565b6111d1611191610d40565b6111dc6111b1610d40565b6111fc6111e7610d40565b600e546001600160a01b031690600019611fca565b610e05611207610d40565b6010546001600160a01b031690600019611fca565b600080611227610fcd565b90506000611233610a8a565b905061124681610a7c84620f4240612204565b9250505090565b600b54604080516370a0823160e01b815230600482015290516000926112d0926001600160a01b03909116916370a0823191602480820192602092909190829003018186803b15801561129f57600080fd5b505afa1580156112b3573d6000803e3d6000fd5b505050506040513d60208110156112c957600080fd5b5051610e73565b905090565b6013546001600160a01b03163314806112f857506012546001600160a01b031633145b8061131b57506113066115fe565b6001600160a01b0316336001600160a01b0316145b61132457600080fd5b600061132e611d32565b9050600061133a6117c4565b905061134461276f565b600061134e611ec2565b90506014548111156113b4576000611396611367611d32565b611390620f4240610a7c60085461138a620f4240610a7c620b71b061138a6117c4565b90612204565b90612626565b90506113a1816127e1565b6113aa816127ea565b6113b2612847565b505b6015548110156115835760006113e7620f4240610a7c6113d26117c4565b61138a6113dd611ec2565b620b71b090612626565b905060006113f4826128f7565b600b54604080516370a0823160e01b81523060048201529051929350611477926001600160a01b03909216916370a0823191602480820192602092909190829003018186803b15801561144657600080fd5b505afa15801561145a573d6000803e3d6000fd5b505050506040513d602081101561147057600080fd5b505161292b565b600a54604080516370a0823160e01b815230600482015290516001600160a01b03909216916370a0823191602480820192602092909190829003018186803b1580156114c257600080fd5b505afa1580156114d6573d6000803e3d6000fd5b505050506040513d60208110156114ec57600080fd5b5051821015611503576114fe82612978565b611580565b600a54604080516370a0823160e01b81523060048201529051611580926001600160a01b0316916370a08231916024808301926020929190829003018186803b15801561154f57600080fd5b505afa158015611563573d6000803e3d6000fd5b505050506040513d602081101561157957600080fd5b5051612978565b50505b505050565b600190565b600061159833610fb2565b90506115a381610b38565b50565b600a54600c54604080516370a0823160e01b81526001600160a01b0392831660048201529051600093849316916370a08231916024808301926020929190829003018186803b158015610f3857600080fd5b60185481565b6001546001600160a01b031690565b6001546000906001600160a01b0316611624612114565b6001600160a01b031614905090565b6012546001600160a01b0316331480611664575061164f6115fe565b6001600160a01b0316336001600160a01b0316145b61166d57600080fd5b81620b71b01161167c57600080fd5b8082101561168957600080fd5b8281101561169657600080fd5b50601455601555565b60068054604080516020601f60026000196101006001881615020190951694909404938401819004810282018101909252828152606093909290918301828280156109b75780601f1061098c576101008083540402835291602001916109b7565b60006109d561170d612114565b84610b17856040518060600160405280602581526020016134f66025913960036000611737612114565b6001600160a01b03908116825260208083019390935260409182016000908120918d168152925290205491906123f8565b6012546001600160a01b031633148061179957506117846115fe565b6001600160a01b0316336001600160a01b0316145b6117a257600080fd5b610e0561276f565b60006109d56117b7612114565b84846122a6565b60155481565b600f54604080516370a0823160e01b8152306004820152905160009283926001600160a01b03909116916370a0823191602480820192602092909190829003018186803b15801561181457600080fd5b505afa158015611828573d6000803e3d6000fd5b505050506040513d602081101561183e57600080fd5b50519050610b32670de0b6b3a7640000610a7c611859612981565b8490612204565b6013546001600160a01b031681565b6013546001600160a01b031633148061189257506012546001600160a01b031633145b806118b557506118a06115fe565b6001600160a01b0316336001600160a01b0316145b6118be57600080fd5b6118c661276f565b600a54604080516370a0823160e01b815230600482015290516000926001600160a01b0316916370a08231916024808301926020929190829003018186803b15801561191157600080fd5b505afa158015611925573d6000803e3d6000fd5b505050506040513d602081101561193b57600080fd5b505190506000611949610fcd565b90506000611969620f4240610a7c6019548561220490919063ffffffff16565b90508083111561158357611583816129c3565b735aa53f03197e08c4851cad8c92c7922da5857e5d90565b601b5481565b6012546001600160a01b03163314806119cb57506119b66115fe565b6001600160a01b0316336001600160a01b0316145b6119d457600080fd5b61c3508211156119e357600080fd5b620b71b08111156119f357600080fd5b601991909155601b55565b600080546001019081905581611a5b576040805162461bcd60e51b815260206004820152601e60248201527f6465706f736974206d7573742062652067726561746572207468616e20300000604482015290519081900360640190fd5b601a54821115611a6a57600080fd5b6000611a74610fcd565b600a54604080516323b872dd60e01b81523360048201523060248201526044810187905290519293506001600160a01b03909116916323b872dd916064808201926020929091908290030181600087803b158015611ad157600080fd5b505af1158015611ae5573d6000803e3d6000fd5b505050506040513d6020811015611afb57600080fd5b5060009050611b08610a8a565b611b1f57611b1884612710612204565b9050611b38565b611b3582610a7c611b2e610a8a565b8790612204565b90505b611b423382612b6e565b50506000548114610d33576040805162461bcd60e51b815260206004820152601f60248201527f5265656e7472616e637947756172643a207265656e7472616e742063616c6c00604482015290519081900360640190fd5b6012546001600160a01b0316331480611bcb5750611bb66115fe565b6001600160a01b0316336001600160a01b0316145b611bd457600080fd5b600891909155600955565b60165481565b73ec7178f4c41f346b2721907f5cf7628e388a7a5890565b73841fad6eae12c286d1fd18d1d525dffa75c7effe90565b600a54604080516370a0823160e01b815230600482015290516000926001600160a01b0316916370a08231916024808301926020929190829003018186803b158015611c6057600080fd5b505afa158015611c74573d6000803e3d6000fd5b505050506040513d6020811015611c8a57600080fd5b5051905090565b6012546001600160a01b0316331480611cc25750611cad6115fe565b6001600160a01b0316336001600160a01b0316145b611ccb57600080fd5b6001600160a01b038116611cde57600080fd5b601280546001600160a01b0383166001600160a01b0319909116811790915560408051918252517f352ececae6d7d1e6d26bcf2c549dfd55be1637e9b22dc0cf3b71ddb36097a6b49181900360200190a150565b600080611d3e3061248f565b9050610b3281610e73565b6012546001600160a01b0316331480611d7a5750611d656115fe565b6001600160a01b0316336001600160a01b0316145b611d8357600080fd5b611388831115611d9257600080fd5b61c350821115611da157600080fd5b620186a0811115611db157600080fd5b50601655601855565b6012546001600160a01b0316331480611deb5750611dd66115fe565b6001600160a01b0316336001600160a01b0316145b611df457600080fd5b6115a381612668565b6001600160a01b03918216600090815260036020908152604080832093909416825291909152205490565b600a54604080516370a0823160e01b815233600482015290516000926001600160a01b0316916370a08231916024808301926020929190829003018186803b158015611e7357600080fd5b505afa158015611e87573d6000803e3d6000fd5b505050506040513d6020811015611e9d57600080fd5b505190506115a3816119fe565b73e0654c8e6fd4d733349ac7e09f6f23da256bf47590565b600080611ecd611d32565b90506000610a676117c4565b600080610b32611ee7611588565b30612c54565b601a5481565b60175481565b611f0161160d565b611f52576040805162461bcd60e51b815260206004820181905260248201527f4f776e61626c653a2063616c6c6572206973206e6f7420746865206f776e6572604482015290519081900360640190fd5b6115a381612ce5565b60145481565b60195481565b732b2929e785374c651a81a63878ab22742656dcdd90565b600b54604080516370a0823160e01b815230600482015290516000926001600160a01b0316916370a08231916024808301926020929190829003018186803b158015611c6057600080fd5b801580612050575060408051636eb1769f60e11b81523060048201526001600160a01b03848116602483015291519185169163dd62ed3e91604480820192602092909190829003018186803b15801561202257600080fd5b505afa158015612036573d6000803e3d6000fd5b505050506040513d602081101561204c57600080fd5b5051155b61208b5760405162461bcd60e51b81526004018080602001828103825260368152602001806134c06036913960400191505060405180910390fd5b604080516001600160a01b038416602482015260448082018490528251808303909101815260649091019091526020810180516001600160e01b031663095ea7b360e01b179052611583908490612d86565b6000813f7fc5d2460186f7233c927e7db2dcc703c0e500b653ca82273b7bfad8045d85a4708115801590610e9a5750141592915050565b3390565b6001600160a01b03831661215d5760405162461bcd60e51b81526004018080602001828103825260248152602001806134726024913960400191505060405180910390fd5b6001600160a01b0382166121a25760405162461bcd60e51b815260040180806020018281038252602281526020018061339b6022913960400191505060405180910390fd5b6001600160a01b03808416600081815260036020908152604080832094871680845294825291829020859055815185815291517f8c5be1e5ebec7d5bd14f71427d1e84f3dd0314c0f7b2291e5b200ac8c7c3b9259281900390910190a3505050565b600082612213575060006109d9565b8282028284828161222057fe5b041461225d5760405162461bcd60e51b81526004018080602001828103825260218152602001806133e36021913960400191505060405180910390fd5b9392505050565b600061225d83836040518060400160405280601a81526020017f536166654d6174683a206469766973696f6e206279207a65726f000000000000815250612f3e565b6001600160a01b0383166122eb5760405162461bcd60e51b815260040180806020018281038252602581526020018061344d6025913960400191505060405180910390fd5b6001600160a01b0382166123305760405162461bcd60e51b81526004018080602001828103825260238152602001806133306023913960400191505060405180910390fd5b61236d816040518060600160405280602681526020016133bd602691396001600160a01b03861660009081526002602052604090205491906123f8565b6001600160a01b03808516600090815260026020526040808220939093559084168152205461239c90826126c3565b6001600160a01b0380841660008181526002602090815260409182902094909455805185815290519193928716927fddf252ad1be2c89b69c2b068fc378daa952ba7f163c4a11628f55a4df523b3ef92918290030190a3505050565b600081848411156124875760405162461bcd60e51b81526004018080602001828103825283818151815260200191508051906020019080838360005b8381101561244c578181015183820152602001612434565b50505050905090810190601f1680156124795780820380516001836020036101000a031916815260200191505b509250505060405180910390fd5b505050900390565b600061249961197c565b6001600160a01b03166395dd9193836040518263ffffffff1660e01b815260040180826001600160a01b0316815260200191505060206040518083038186803b1580156124e557600080fd5b505afa1580156124f9573d6000803e3d6000fd5b505050506040513d602081101561250f57600080fd5b505192915050565b6001600160a01b03821661255c5760405162461bcd60e51b815260040180806020018281038252602181526020018061342c6021913960400191505060405180910390fd5b61259981604051806060016040528060228152602001613353602291396001600160a01b03851660009081526002602052604090205491906123f8565b6001600160a01b0383166000908152600260205260409020556004546125bf9082612626565b6004556040805182815290516000916001600160a01b038516917fddf252ad1be2c89b69c2b068fc378daa952ba7f163c4a11628f55a4df523b3ef9181900360200190a35050565b60008061225d620f4240610a7c6018548661220490919063ffffffff16565b600061225d83836040518060400160405280601e81526020017f536166654d6174683a207375627472616374696f6e206f766572666c6f7700008152506123f8565b6115a381612fa3565b604080516001600160a01b038416602482015260448082018490528251808303909101815260649091019091526020810180516001600160e01b031663a9059cbb60e01b179052611583908490612d86565b60008282018381101561225d576040805162461bcd60e51b815260206004820152601b60248201527f536166654d6174683a206164646974696f6e206f766572666c6f770000000000604482015290519081900360640190fd5b600b54600c54604080516370a0823160e01b81526001600160a01b0392831660048201529051600093849316916370a08231916024808301926020929190829003018186803b158015610f3857600080fd5b60006127866017544261262690919063ffffffff16565b9050600061279e603c61138a818161016d6018612204565b905060006127c582610a7c620f4240610a7c6127b8610a8a565b60165461138a908a612204565b90506127d86127d26115fe565b82612b6e565b50504260175550565b6115a381613006565b60006127f461271d565b905060006128006115a6565b90506000612828620f4240610a7c84610a7c60085461138a898b61220490919063ffffffff16565b90506128418482612837613067565b30426078016130ed565b50505050565b600b54604080516370a0823160e01b815230600482015290516000926001600160a01b0316916370a08231916024808301926020929190829003018186803b15801561289257600080fd5b505afa1580156128a6573d6000803e3d6000fd5b505050506040513d60208110156128bc57600080fd5b50519050806128cb5750610e05565b60006128d63061248f565b9050808210156128ee576128e9826131c0565b610d33565b610d33816131c0565b60008061290261271d565b9050600061290e6115a6565b9050600061292082610a7c8786612204565b9050610e9a8161320d565b600061293561271d565b905060006129416115a6565b9050600061296983610a7c620f4240610a7c60085461138a888b61220490919063ffffffff16565b90506128418482612837613216565b6115a38161327f565b600061298b610e5b565b6001600160a01b031663182df0f56040518163ffffffff1660e01b815260040160206040518083038186803b158015611c6057600080fd5b60056000805b82811015612adf57600a54604080516370a0823160e01b815230600482015290516000926001600160a01b0316916370a08231916024808301926020929190829003018186803b158015612a1c57600080fd5b505afa158015612a30573d6000803e3d6000fd5b505050506040513d6020811015612a4657600080fd5b50519050612a548186612626565b9250612a5f83612978565b6000612a7d620f4240610a7c601b548761220490919063ffffffff16565b9050612a88816128f7565b50600b54604080516370a0823160e01b81523060048201529051612ad5926001600160a01b0316916370a08231916024808301926020929190829003018186803b15801561144657600080fd5b50506001016129c9565b50600a54604080516370a0823160e01b815230600482015290516000926001600160a01b0316916370a08231916024808301926020929190829003018186803b158015612b2b57600080fd5b505afa158015612b3f573d6000803e3d6000fd5b505050506040513d6020811015612b5557600080fd5b50519050612b638185612626565b915061284182612978565b6001600160a01b038216612bc9576040805162461bcd60e51b815260206004820152601f60248201527f45524332303a206d696e7420746f20746865207a65726f206164647265737300604482015290519081900360640190fd5b600454612bd690826126c3565b6004556001600160a01b038216600090815260026020526040902054612bfc90826126c3565b6001600160a01b03831660008181526002602090815260408083209490945583518581529351929391927fddf252ad1be2c89b69c2b068fc378daa952ba7f163c4a11628f55a4df523b3ef9281900390910190a35050565b6000612c5e611f67565b6001600160a01b03166393f1a40b84846040518363ffffffff1660e01b815260040180838152602001826001600160a01b031681526020019250505060206040518083038186803b158015612cb257600080fd5b505afa158015612cc6573d6000803e3d6000fd5b505050506040513d6020811015612cdc57600080fd5b50519392505050565b6001600160a01b038116612d2a5760405162461bcd60e51b81526004018080602001828103825260268152602001806133756026913960400191505060405180910390fd5b6001546040516001600160a01b038084169216907f8be0079c531659141344cd1fd0a4f28419497f9722a3daafe3b4186f6b6457e090600090a3600180546001600160a01b0319166001600160a01b0392909216919091179055565b612d98826001600160a01b03166120dd565b612de9576040805162461bcd60e51b815260206004820152601f60248201527f5361666545524332303a2063616c6c20746f206e6f6e2d636f6e747261637400604482015290519081900360640190fd5b60006060836001600160a01b0316836040518082805190602001908083835b60208310612e275780518252601f199092019160209182019101612e08565b6001836020036101000a0380198251168184511680821785525050505050509050019150506000604051808303816000865af19150503d8060008114612e89576040519150601f19603f3d011682016040523d82523d6000602084013e612e8e565b606091505b509150915081612ee5576040805162461bcd60e51b815260206004820181905260248201527f5361666545524332303a206c6f772d6c6576656c2063616c6c206661696c6564604482015290519081900360640190fd5b80511561284157808060200190516020811015612f0157600080fd5b50516128415760405162461bcd60e51b815260040180806020018281038252602a815260200180613496602a913960400191505060405180910390fd5b60008183612f8d5760405162461bcd60e51b815260206004820181815283516024840152835190928392604490910191908501908083836000831561244c578181015183820152602001612434565b506000838581612f9957fe5b0495945050505050565b6000600a815b818110156128415782612ffe576000612fc3611367611d32565b9050848110612fda57612fd5856127e1565b600193505b84811015612ffc57612feb816127e1565b612ff4816127ea565b612ffc612847565b505b600101612fa9565b61300e610e5b565b6001600160a01b031663852a12e3826040518263ffffffff1660e01b815260040180828152602001915050600060405180830381600087803b15801561305357600080fd5b505af1158015611580573d6000803e3d6000fd5b6040805160028082526060808301845292839291906020830190803683375050600a5482519293506001600160a01b0316918391506000906130a557fe5b6001600160a01b039283166020918202929092010152600b548251911690829060019081106130d057fe5b6001600160a01b0390921660209283029190910190910152905090565b6130f5610d40565b6001600160a01b03166338ed173986868686866040518663ffffffff1660e01b81526004018086815260200185815260200180602001846001600160a01b03168152602001838152602001828103825285818151815260200191508051906020019060200280838360005b83811015613178578181015183820152602001613160565b505050509050019650505050505050600060405180830381600087803b1580156131a157600080fd5b505af11580156131b5573d6000803e3d6000fd5b505050505050505050565b6131c861197c565b6001600160a01b0316630e752702826040518263ffffffff1660e01b815260040180828152602001915050600060405180830381600087803b15801561305357600080fd5b610d33816132cc565b6040805160028082526060808301845292839291906020830190803683375050600b5482519293506001600160a01b03169183915060009061325457fe5b6001600160a01b039283166020918202929092010152600a548251911690829060019081106130d057fe5b613287610e5b565b6001600160a01b031663a0712d68826040518263ffffffff1660e01b815260040180828152602001915050600060405180830381600087803b15801561305357600080fd5b60006132d661197c565b6001600160a01b031663c5ebeaec836040518263ffffffff1660e01b815260040180828152602001915050602060405180830381600087803b15801561331b57600080fd5b505af11580156124f9573d6000803e3d6000fdfe45524332303a207472616e7366657220746f20746865207a65726f206164647265737345524332303a206275726e20616d6f756e7420657863656564732062616c616e63654f776e61626c653a206e6577206f776e657220697320746865207a65726f206164647265737345524332303a20617070726f766520746f20746865207a65726f206164647265737345524332303a207472616e7366657220616d6f756e7420657863656564732062616c616e6365536166654d6174683a206d756c7469706c69636174696f6e206f766572666c6f7745524332303a207472616e7366657220616d6f756e74206578636565647320616c6c6f77616e636545524332303a206275726e2066726f6d20746865207a65726f206164647265737345524332303a207472616e736665722066726f6d20746865207a65726f206164647265737345524332303a20617070726f76652066726f6d20746865207a65726f20616464726573735361666545524332303a204552433230206f7065726174696f6e20646964206e6f7420737563636565645361666545524332303a20617070726f76652066726f6d206e6f6e2d7a65726f20746f206e6f6e2d7a65726f20616c6c6f77616e636545524332303a2064656372656173656420616c6c6f77616e63652062656c6f77207a65726fa2646970667358221220f7e27bdf8b2b840c72c4d1972bb7d49a58bc98ddcfce45dd475898d6928562cf64736f6c634300060c00335361666545524332303a204552433230206f7065726174696f6e20646964206e6f7420737563636565645361666545524332303a20617070726f76652066726f6d206e6f6e2d7a65726f20746f206e6f6e2d7a65726f20616c6c6f77616e6365",
  "bytecodeSha1": "da39a3ee5e6b4b0d3255bfef95601890afd80709",
  "compiler": {
    "evm_version": "istanbul",
    "optimizer": {
      "enabled": true,
      "runs": 200
    },
    "version": "0.6.12+commit.27d51765"
  },
  "contractName": "rvFUSDTScreamSpooky",
  "language": "Solidity",
  "natspec": {
    "kind": "dev",
    "methods": {
      "collatUpper()": {
        "notice": "default allocations, thresholds & fees"
      },
      "deployStrat()": {
        "notice": "function to deploy funds when reserves exceed reserve threshold (maximum is five percent)"
      },
      "farmAddress()": {
        "notice": "Spooky Addresses"
      },
      "farmPid()": {
        "notice": "LP contract for base & short token"
      },
      "rebalanceCollateral()": {
        "notice": "rebalances RoboVault strat position to within target collateral range "
      },
      "setKeeper(address)": {
        "notice": "keeper has ability to copmlete rebalancing functions & also deploy capital to strategy once reserves exceed some threshold"
      },
      "setStrategist(address)": {
        "notice": "update strategist -> this is the address that receives fees + can complete rebalancing and update strategy thresholds strategist can also exit leveraged position i.e. withdraw all pooled LP and repay outstanding debt moving vault funds to reserves"
      }
    },
    "version": 1
  },
  "opcodes": "PUSH1 0x80 PUSH1 0x40 MSTORE CALLVALUE DUP1 ISZERO PUSH2 0x10 JUMPI PUSH1 0x0 DUP1 REVERT JUMPDEST POP PUSH1 0x4 CALLDATASIZE LT PUSH2 0x407 JUMPI PUSH1 0x0 CALLDATALOAD PUSH1 0xE0 SHR DUP1 PUSH4 0x8F32D59B GT PUSH2 0x220 JUMPI DUP1 PUSH4 0xC2442F93 GT PUSH2 0x130 JUMPI DUP1 PUSH4 0xE6E7114B GT PUSH2 0xB8 JUMPI DUP1 PUSH4 0xF2FDE38B GT PUSH2 0x87 JUMPI DUP1 PUSH4 0xF2FDE38B EQ PUSH2 0x8E5 JUMPI DUP1 PUSH4 0xF8C1E75E EQ PUSH2 0x90B JUMPI DUP1 PUSH4 0xF8F079BB EQ PUSH2 0x913 JUMPI DUP1 PUSH4 0xF9DA3F75 EQ PUSH2 0x91B JUMPI DUP1 PUSH4 0xFEB6848A EQ PUSH2 0x923 JUMPI PUSH2 0x407 JUMP JUMPDEST DUP1 PUSH4 0xE6E7114B EQ PUSH2 0x8C5 JUMPI DUP1 PUSH4 0xEB61C72A EQ PUSH2 0x8CD JUMPI DUP1 PUSH4 0xECF70858 EQ PUSH2 0x8D5 JUMPI DUP1 PUSH4 0xF1A392DA EQ PUSH2 0x8DD JUMPI PUSH2 0x407 JUMP JUMPDEST DUP1 PUSH4 0xCEC10C11 GT PUSH2 0xFF JUMPI DUP1 PUSH4 0xCEC10C11 EQ PUSH2 0x841 JUMPI DUP1 PUSH4 0xD2D9A69D EQ PUSH2 0x86A JUMPI DUP1 PUSH4 0xDD62ED3E EQ PUSH2 0x887 JUMPI DUP1 PUSH4 0xDE5F6268 EQ PUSH2 0x8B5 JUMPI DUP1 PUSH4 0xE43E7B94 EQ PUSH2 0x8BD JUMPI PUSH2 0x407 JUMP JUMPDEST DUP1 PUSH4 0xC2442F93 EQ PUSH2 0x803 JUMPI DUP1 PUSH4 0xC3B49F3D EQ PUSH2 0x80B JUMPI DUP1 PUSH4 0xC7B9D530 EQ PUSH2 0x813 JUMPI DUP1 PUSH4 0xCAD20A29 EQ PUSH2 0x839 JUMPI PUSH2 0x407 JUMP JUMPDEST DUP1 PUSH4 0xACED1661 GT PUSH2 0x1B3 JUMPI DUP1 PUSH4 0xB574D287 GT PUSH2 0x182 JUMPI DUP1 PUSH4 0xB574D287 EQ PUSH2 0x790 JUMPI DUP1 PUSH4 0xB6B55F25 EQ PUSH2 0x7B3 JUMPI DUP1 PUSH4 0xBF428341 EQ PUSH2 0x7D0 JUMPI DUP1 PUSH4 0xC089F572 EQ PUSH2 0x7F3 JUMPI DUP1 PUSH4 0xC1E32A3D EQ PUSH2 0x7FB JUMPI PUSH2 0x407 JUMP JUMPDEST DUP1 PUSH4 0xACED1661 EQ PUSH2 0x770 JUMPI DUP1 PUSH4 0xAE263A1D EQ PUSH2 0x778 JUMPI DUP1 PUSH4 0xB2AD2F0F EQ PUSH2 0x780 JUMPI DUP1 PUSH4 0xB4AAFB60 EQ PUSH2 0x788 JUMPI PUSH2 0x407 JUMP JUMPDEST DUP1 PUSH4 0xA877CC55 GT PUSH2 0x1EF JUMPI DUP1 PUSH4 0xA877CC55 EQ PUSH2 0x72C JUMPI DUP1 PUSH4 0xA9059CBB EQ PUSH2 0x734 JUMPI DUP1 PUSH4 0xA9B0CA38 EQ PUSH2 0x760 JUMPI DUP1 PUSH4 0xA9C19C66 EQ PUSH2 0x768 JUMPI PUSH2 0x407 JUMP JUMPDEST DUP1 PUSH4 0x8F32D59B EQ PUSH2 0x6C7 JUMPI DUP1 PUSH4 0x94C04CED EQ PUSH2 0x6CF JUMPI DUP1 PUSH4 0x95D89B41 EQ PUSH2 0x6F8 JUMPI DUP1 PUSH4 0xA457C2D7 EQ PUSH2 0x700 JUMPI PUSH2 0x407 JUMP JUMPDEST DUP1 PUSH4 0x5627F7B5 GT PUSH2 0x31B JUMPI DUP1 PUSH4 0x77AF8CEB GT PUSH2 0x2AE JUMPI DUP1 PUSH4 0x827907B4 GT PUSH2 0x27D JUMPI DUP1 PUSH4 0x827907B4 EQ PUSH2 0x69F JUMPI DUP1 PUSH4 0x853828B6 EQ PUSH2 0x6A7 JUMPI DUP1 PUSH4 0x8AD56BFF EQ PUSH2 0x6AF JUMPI DUP1 PUSH4 0x8BC7E8C4 EQ PUSH2 0x6B7 JUMPI DUP1 PUSH4 0x8DA5CB5B EQ PUSH2 0x6BF JUMPI PUSH2 0x407 JUMP JUMPDEST DUP1 PUSH4 0x77AF8CEB EQ PUSH2 0x67F JUMPI DUP1 PUSH4 0x77C7B8FC EQ PUSH2 0x687 JUMPI DUP1 PUSH4 0x7845790C EQ PUSH2 0x68F JUMPI DUP1 PUSH4 0x81117FF2 EQ PUSH2 0x697 JUMPI PUSH2 0x407 JUMP JUMPDEST DUP1 PUSH4 0x70A08231 GT PUSH2 0x2EA JUMPI DUP1 PUSH4 0x70A08231 EQ PUSH2 0x623 JUMPI DUP1 PUSH4 0x7137EF99 EQ PUSH2 0x649 JUMPI DUP1 PUSH4 0x715018A6 EQ PUSH2 0x651 JUMPI DUP1 PUSH4 0x748747E6 EQ PUSH2 0x659 JUMPI PUSH2 0x407 JUMP JUMPDEST DUP1 PUSH4 0x5627F7B5 EQ PUSH2 0x603 JUMPI DUP1 PUSH4 0x668ECBF2 EQ PUSH2 0x60B JUMPI DUP1 PUSH4 0x68BDE41F EQ PUSH2 0x613 JUMPI DUP1 PUSH4 0x6C1A35BE EQ PUSH2 0x61B JUMPI PUSH2 0x407 JUMP JUMPDEST DUP1 PUSH4 0x313CE567 GT PUSH2 0x39E JUMPI DUP1 PUSH4 0x39BB9C24 GT PUSH2 0x36D JUMPI DUP1 PUSH4 0x39BB9C24 EQ PUSH2 0x5C6 JUMPI DUP1 PUSH4 0x3AD184E4 EQ PUSH2 0x5CE JUMPI DUP1 PUSH4 0x4D54E307 EQ PUSH2 0x5D6 JUMPI DUP1 PUSH4 0x51DA5473 EQ PUSH2 0x5F3 JUMPI DUP1 PUSH4 0x54B1A6D8 EQ PUSH2 0x5FB JUMPI PUSH2 0x407 JUMP JUMPDEST DUP1 PUSH4 0x313CE567 EQ PUSH2 0x56C JUMPI DUP1 PUSH4 0x3268CC56 EQ PUSH2 0x58A JUMPI DUP1 PUSH4 0x379AFCCC EQ PUSH2 0x592 JUMPI DUP1 PUSH4 0x39509351 EQ PUSH2 0x59A JUMPI PUSH2 0x407 JUMP JUMPDEST DUP1 PUSH4 0x1FE4A686 GT PUSH2 0x3DA JUMPI DUP1 PUSH4 0x1FE4A686 EQ PUSH2 0x4EB JUMPI DUP1 PUSH4 0x23B872DD EQ PUSH2 0x50F JUMPI DUP1 PUSH4 0x2CF4E4EE EQ PUSH2 0x545 JUMPI DUP1 PUSH4 0x2E1A7D4D EQ PUSH2 0x54D JUMPI PUSH2 0x407 JUMP JUMPDEST DUP1 PUSH4 0x6FDDE03 EQ PUSH2 0x40C JUMPI DUP1 PUSH4 0x95EA7B3 EQ PUSH2 0x489 JUMPI DUP1 PUSH4 0x11D1A392 EQ PUSH2 0x4C9 JUMPI DUP1 PUSH4 0x18160DDD EQ PUSH2 0x4E3 JUMPI JUMPDEST PUSH1 0x0 DUP1 REVERT JUMPDEST PUSH2 0x414 PUSH2 0x92B JUMP JUMPDEST PUSH1 0x40 DUP1 MLOAD PUSH1 0x20 DUP1 DUP3 MSTORE DUP4 MLOAD DUP2 DUP4 ADD MSTORE DUP4 MLOAD SWAP2 SWAP3 DUP4 SWAP3 SWAP1 DUP4 ADD SWAP2 DUP6 ADD SWAP1 DUP1 DUP4 DUP4 PUSH1 0x0 JUMPDEST DUP4 DUP2 LT ISZERO PUSH2 0x44E JUMPI DUP2 DUP2 ADD MLOAD DUP4 DUP3 ADD MSTORE PUSH1 0x20 ADD PUSH2 0x436 JUMP JUMPDEST POP POP POP POP SWAP1 POP SWAP1 DUP2 ADD SWAP1 PUSH1 0x1F AND DUP1 ISZERO PUSH2 0x47B JUMPI DUP1 DUP3 SUB DUP1 MLOAD PUSH1 0x1 DUP4 PUSH1 0x20 SUB PUSH2 0x100 EXP SUB NOT AND DUP2 MSTORE PUSH1 0x20 ADD SWAP2 POP JUMPDEST POP SWAP3 POP POP POP PUSH1 0x40 MLOAD DUP1 SWAP2 SUB SWAP1 RETURN JUMPDEST PUSH2 0x4B5 PUSH1 0x4 DUP1 CALLDATASIZE SUB PUSH1 0x40 DUP2 LT ISZERO PUSH2 0x49F JUMPI PUSH1 0x0 DUP1 REVERT JUMPDEST POP PUSH1 0x1 PUSH1 0x1 PUSH1 0xA0 SHL SUB DUP2 CALLDATALOAD AND SWAP1 PUSH1 0x20 ADD CALLDATALOAD PUSH2 0x9C1 JUMP JUMPDEST PUSH1 0x40 DUP1 MLOAD SWAP2 ISZERO ISZERO DUP3 MSTORE MLOAD SWAP1 DUP2 SWAP1 SUB PUSH1 0x20 ADD SWAP1 RETURN JUMPDEST PUSH2 0x4D1 PUSH2 0x9DF JUMP JUMPDEST PUSH1 0x40 DUP1 MLOAD SWAP2 DUP3 MSTORE MLOAD SWAP1 DUP2 SWAP1 SUB PUSH1 0x20 ADD SWAP1 RETURN JUMPDEST PUSH2 0x4D1 PUSH2 0xA8A JUMP JUMPDEST PUSH2 0x4F3 PUSH2 0xA90 JUMP JUMPDEST PUSH1 0x40 DUP1 MLOAD PUSH1 0x1 PUSH1 0x1 PUSH1 0xA0 SHL SUB SWAP1 SWAP3 AND DUP3 MSTORE MLOAD SWAP1 DUP2 SWAP1 SUB PUSH1 0x20 ADD SWAP1 RETURN JUMPDEST PUSH2 0x4B5 PUSH1 0x4 DUP1 CALLDATASIZE SUB PUSH1 0x60 DUP2 LT ISZERO PUSH2 0x525 JUMPI PUSH1 0x0 DUP1 REVERT JUMPDEST POP PUSH1 0x1 PUSH1 0x1 PUSH1 0xA0 SHL SUB DUP2 CALLDATALOAD DUP2 AND SWAP2 PUSH1 0x20 DUP2 ADD CALLDATALOAD SWAP1 SWAP2 AND SWAP1 PUSH1 0x40 ADD CALLDATALOAD PUSH2 0xA9F JUMP JUMPDEST PUSH2 0x4D1 PUSH2 0xB26 JUMP JUMPDEST PUSH2 0x56A PUSH1 0x4 DUP1 CALLDATASIZE SUB PUSH1 0x20 DUP2 LT ISZERO PUSH2 0x563 JUMPI PUSH1 0x0 DUP1 REVERT JUMPDEST POP CALLDATALOAD PUSH2 0xB38 JUMP JUMPDEST STOP JUMPDEST PUSH2 0x574 PUSH2 0xD37 JUMP JUMPDEST PUSH1 0x40 DUP1 MLOAD PUSH1 0xFF SWAP1 SWAP3 AND DUP3 MSTORE MLOAD SWAP1 DUP2 SWAP1 SUB PUSH1 0x20 ADD SWAP1 RETURN JUMPDEST PUSH2 0x4F3 PUSH2 0xD40 JUMP JUMPDEST PUSH2 0x56A PUSH2 0xD58 JUMP JUMPDEST PUSH2 0x4B5 PUSH1 0x4 DUP1 CALLDATASIZE SUB PUSH1 0x40 DUP2 LT ISZERO PUSH2 0x5B0 JUMPI PUSH1 0x0 DUP1 REVERT JUMPDEST POP PUSH1 0x1 PUSH1 0x1 PUSH1 0xA0 SHL SUB DUP2 CALLDATALOAD AND SWAP1 PUSH1 0x20 ADD CALLDATALOAD PUSH2 0xE07 JUMP JUMPDEST PUSH2 0x4D1 PUSH2 0xE55 JUMP JUMPDEST PUSH2 0x4F3 PUSH2 0xE5B JUMP JUMPDEST PUSH2 0x4D1 PUSH1 0x4 DUP1 CALLDATASIZE SUB PUSH1 0x20 DUP2 LT ISZERO PUSH2 0x5EC JUMPI PUSH1 0x0 DUP1 REVERT JUMPDEST POP CALLDATALOAD PUSH2 0xE73 JUMP JUMPDEST PUSH2 0x4D1 PUSH2 0xEA2 JUMP JUMPDEST PUSH2 0x4D1 PUSH2 0xED7 JUMP JUMPDEST PUSH2 0x4D1 PUSH2 0xEDD JUMP JUMPDEST PUSH2 0x4F3 PUSH2 0xF6A JUMP JUMPDEST PUSH2 0x4F3 PUSH2 0xF82 JUMP JUMPDEST PUSH2 0x4F3 PUSH2 0xF9A JUMP JUMPDEST PUSH2 0x4D1 PUSH1 0x4 DUP1 CALLDATASIZE SUB PUSH1 0x20 DUP2 LT ISZERO PUSH2 0x639 JUMPI PUSH1 0x0 DUP1 REVERT JUMPDEST POP CALLDATALOAD PUSH1 0x1 PUSH1 0x1 PUSH1 0xA0 SHL SUB AND PUSH2 0xFB2 JUMP JUMPDEST PUSH2 0x4D1 PUSH2 0xFCD JUMP JUMPDEST PUSH2 0x56A PUSH2 0x1008 JUMP JUMPDEST PUSH2 0x56A PUSH1 0x4 DUP1 CALLDATASIZE SUB PUSH1 0x20 DUP2 LT ISZERO PUSH2 0x66F JUMPI PUSH1 0x0 DUP1 REVERT JUMPDEST POP CALLDATALOAD PUSH1 0x1 PUSH1 0x1 PUSH1 0xA0 SHL SUB AND PUSH2 0x10AB JUMP JUMPDEST PUSH2 0x56A PUSH2 0x114C JUMP JUMPDEST PUSH2 0x4D1 PUSH2 0x121C JUMP JUMPDEST PUSH2 0x4D1 PUSH2 0x124D JUMP JUMPDEST PUSH2 0x56A PUSH2 0x12D5 JUMP JUMPDEST PUSH2 0x4D1 PUSH2 0x1588 JUMP JUMPDEST PUSH2 0x56A PUSH2 0x158D JUMP JUMPDEST PUSH2 0x4D1 PUSH2 0x15A6 JUMP JUMPDEST PUSH2 0x4D1 PUSH2 0x15F8 JUMP JUMPDEST PUSH2 0x4F3 PUSH2 0x15FE JUMP JUMPDEST PUSH2 0x4B5 PUSH2 0x160D JUMP JUMPDEST PUSH2 0x56A PUSH1 0x4 DUP1 CALLDATASIZE SUB PUSH1 0x60 DUP2 LT ISZERO PUSH2 0x6E5 JUMPI PUSH1 0x0 DUP1 REVERT JUMPDEST POP DUP1 CALLDATALOAD SWAP1 PUSH1 0x20 DUP2 ADD CALLDATALOAD SWAP1 PUSH1 0x40 ADD CALLDATALOAD PUSH2 0x1633 JUMP JUMPDEST PUSH2 0x414 PUSH2 0x169F JUMP JUMPDEST PUSH2 0x4B5 PUSH1 0x4 DUP1 CALLDATASIZE SUB PUSH1 0x40 DUP2 LT ISZERO PUSH2 0x716 JUMPI PUSH1 0x0 DUP1 REVERT JUMPDEST POP PUSH1 0x1 PUSH1 0x1 PUSH1 0xA0 SHL SUB DUP2 CALLDATALOAD AND SWAP1 PUSH1 0x20 ADD CALLDATALOAD PUSH2 0x1700 JUMP JUMPDEST PUSH2 0x56A PUSH2 0x1768 JUMP JUMPDEST PUSH2 0x4B5 PUSH1 0x4 DUP1 CALLDATASIZE SUB PUSH1 0x40 DUP2 LT ISZERO PUSH2 0x74A JUMPI PUSH1 0x0 DUP1 REVERT JUMPDEST POP PUSH1 0x1 PUSH1 0x1 PUSH1 0xA0 SHL SUB DUP2 CALLDATALOAD AND SWAP1 PUSH1 0x20 ADD CALLDATALOAD PUSH2 0x17AA JUMP JUMPDEST PUSH2 0x4D1 PUSH2 0x17BE JUMP JUMPDEST PUSH2 0x4D1 PUSH2 0x17C4 JUMP JUMPDEST PUSH2 0x4F3 PUSH2 0x1860 JUMP JUMPDEST PUSH2 0x56A PUSH2 0x186F JUMP JUMPDEST PUSH2 0x4F3 PUSH2 0x197C JUMP JUMPDEST PUSH2 0x4D1 PUSH2 0x1994 JUMP JUMPDEST PUSH2 0x56A PUSH1 0x4 DUP1 CALLDATASIZE SUB PUSH1 0x40 DUP2 LT ISZERO PUSH2 0x7A6 JUMPI PUSH1 0x0 DUP1 REVERT JUMPDEST POP DUP1 CALLDATALOAD SWAP1 PUSH1 0x20 ADD CALLDATALOAD PUSH2 0x199A JUMP JUMPDEST PUSH2 0x56A PUSH1 0x4 DUP1 CALLDATASIZE SUB PUSH1 0x20 DUP2 LT ISZERO PUSH2 0x7C9 JUMPI PUSH1 0x0 DUP1 REVERT JUMPDEST POP CALLDATALOAD PUSH2 0x19FE JUMP JUMPDEST PUSH2 0x56A PUSH1 0x4 DUP1 CALLDATASIZE SUB PUSH1 0x40 DUP2 LT ISZERO PUSH2 0x7E6 JUMPI PUSH1 0x0 DUP1 REVERT JUMPDEST POP DUP1 CALLDATALOAD SWAP1 PUSH1 0x20 ADD CALLDATALOAD PUSH2 0x1B9A JUMP JUMPDEST PUSH2 0x4D1 PUSH2 0x1BDF JUMP JUMPDEST PUSH2 0x4F3 PUSH2 0x1BE5 JUMP JUMPDEST PUSH2 0x4F3 PUSH2 0x1BFD JUMP JUMPDEST PUSH2 0x4D1 PUSH2 0x1C15 JUMP JUMPDEST PUSH2 0x56A PUSH1 0x4 DUP1 CALLDATASIZE SUB PUSH1 0x20 DUP2 LT ISZERO PUSH2 0x829 JUMPI PUSH1 0x0 DUP1 REVERT JUMPDEST POP CALLDATALOAD PUSH1 0x1 PUSH1 0x1 PUSH1 0xA0 SHL SUB AND PUSH2 0x1C91 JUMP JUMPDEST PUSH2 0x4D1 PUSH2 0x1D32 JUMP JUMPDEST PUSH2 0x56A PUSH1 0x4 DUP1 CALLDATASIZE SUB PUSH1 0x60 DUP2 LT ISZERO PUSH2 0x857 JUMPI PUSH1 0x0 DUP1 REVERT JUMPDEST POP DUP1 CALLDATALOAD SWAP1 PUSH1 0x20 DUP2 ADD CALLDATALOAD SWAP1 PUSH1 0x40 ADD CALLDATALOAD PUSH2 0x1D49 JUMP JUMPDEST PUSH2 0x56A PUSH1 0x4 DUP1 CALLDATASIZE SUB PUSH1 0x20 DUP2 LT ISZERO PUSH2 0x880 JUMPI PUSH1 0x0 DUP1 REVERT JUMPDEST POP CALLDATALOAD PUSH2 0x1DBA JUMP JUMPDEST PUSH2 0x4D1 PUSH1 0x4 DUP1 CALLDATASIZE SUB PUSH1 0x40 DUP2 LT ISZERO PUSH2 0x89D JUMPI PUSH1 0x0 DUP1 REVERT JUMPDEST POP PUSH1 0x1 PUSH1 0x1 PUSH1 0xA0 SHL SUB DUP2 CALLDATALOAD DUP2 AND SWAP2 PUSH1 0x20 ADD CALLDATALOAD AND PUSH2 0x1DFD JUMP JUMPDEST PUSH2 0x56A PUSH2 0x1E28 JUMP JUMPDEST PUSH2 0x4F3 PUSH2 0x1EAA JUMP JUMPDEST PUSH2 0x4D1 PUSH2 0x1EC2 JUMP JUMPDEST PUSH2 0x4D1 PUSH2 0x1ED9 JUMP JUMPDEST PUSH2 0x4D1 PUSH2 0x1EED JUMP JUMPDEST PUSH2 0x4D1 PUSH2 0x1EF3 JUMP JUMPDEST PUSH2 0x56A PUSH1 0x4 DUP1 CALLDATASIZE SUB PUSH1 0x20 DUP2 LT ISZERO PUSH2 0x8FB JUMPI PUSH1 0x0 DUP1 REVERT JUMPDEST POP CALLDATALOAD PUSH1 0x1 PUSH1 0x1 PUSH1 0xA0 SHL SUB AND PUSH2 0x1EF9 JUMP JUMPDEST PUSH2 0x4D1 PUSH2 0x1F5B JUMP JUMPDEST PUSH2 0x4D1 PUSH2 0x1F61 JUMP JUMPDEST PUSH2 0x4F3 PUSH2 0x1F67 JUMP JUMPDEST PUSH2 0x4D1 PUSH2 0x1F7F JUMP JUMPDEST PUSH1 0x5 DUP1 SLOAD PUSH1 0x40 DUP1 MLOAD PUSH1 0x20 PUSH1 0x1F PUSH1 0x2 PUSH1 0x0 NOT PUSH2 0x100 PUSH1 0x1 DUP9 AND ISZERO MUL ADD SWAP1 SWAP6 AND SWAP5 SWAP1 SWAP5 DIV SWAP4 DUP5 ADD DUP2 SWAP1 DIV DUP2 MUL DUP3 ADD DUP2 ADD SWAP1 SWAP3 MSTORE DUP3 DUP2 MSTORE PUSH1 0x60 SWAP4 SWAP1 SWAP3 SWAP1 SWAP2 DUP4 ADD DUP3 DUP3 DUP1 ISZERO PUSH2 0x9B7 JUMPI DUP1 PUSH1 0x1F LT PUSH2 0x98C JUMPI PUSH2 0x100 DUP1 DUP4 SLOAD DIV MUL DUP4 MSTORE SWAP2 PUSH1 0x20 ADD SWAP2 PUSH2 0x9B7 JUMP JUMPDEST DUP3 ADD SWAP2 SWAP1 PUSH1 0x0 MSTORE PUSH1 0x20 PUSH1 0x0 KECCAK256 SWAP1 JUMPDEST DUP2 SLOAD DUP2 MSTORE SWAP1 PUSH1 0x1 ADD SWAP1 PUSH1 0x20 ADD DUP1 DUP4 GT PUSH2 0x99A JUMPI DUP3 SWAP1 SUB PUSH1 0x1F AND DUP3 ADD SWAP2 JUMPDEST POP POP POP POP POP SWAP1 POP SWAP1 JUMP JUMPDEST PUSH1 0x0 PUSH2 0x9D5 PUSH2 0x9CE PUSH2 0x2114 JUMP JUMPDEST DUP5 DUP5 PUSH2 0x2118 JUMP JUMPDEST POP PUSH1 0x1 JUMPDEST SWAP3 SWAP2 POP POP JUMP JUMPDEST PUSH1 0xA SLOAD PUSH1 0x40 DUP1 MLOAD PUSH4 0x70A08231 PUSH1 0xE0 SHL DUP2 MSTORE ADDRESS PUSH1 0x4 DUP3 ADD MSTORE SWAP1 MLOAD PUSH1 0x0 SWAP3 DUP4 SWAP3 PUSH1 0x1 PUSH1 0x1 PUSH1 0xA0 SHL SUB SWAP1 SWAP2 AND SWAP2 PUSH4 0x70A08231 SWAP2 PUSH1 0x24 DUP1 DUP3 ADD SWAP3 PUSH1 0x20 SWAP3 SWAP1 SWAP2 SWAP1 DUP3 SWAP1 SUB ADD DUP2 DUP7 DUP1 EXTCODESIZE ISZERO DUP1 ISZERO PUSH2 0xA2F JUMPI PUSH1 0x0 DUP1 REVERT JUMPDEST POP GAS STATICCALL ISZERO DUP1 ISZERO PUSH2 0xA43 JUMPI RETURNDATASIZE PUSH1 0x0 DUP1 RETURNDATACOPY RETURNDATASIZE PUSH1 0x0 REVERT JUMPDEST POP POP POP POP PUSH1 0x40 MLOAD RETURNDATASIZE PUSH1 0x20 DUP2 LT ISZERO PUSH2 0xA59 JUMPI PUSH1 0x0 DUP1 REVERT JUMPDEST POP MLOAD SWAP1 POP PUSH1 0x0 PUSH2 0xA67 PUSH2 0xFCD JUMP JUMPDEST SWAP1 POP PUSH1 0x0 PUSH2 0xA82 DUP3 PUSH2 0xA7C DUP6 PUSH3 0xF4240 PUSH2 0x2204 JUMP JUMPDEST SWAP1 PUSH2 0x2264 JUMP JUMPDEST SWAP4 POP POP POP POP SWAP1 JUMP JUMPDEST PUSH1 0x4 SLOAD SWAP1 JUMP JUMPDEST PUSH1 0x12 SLOAD PUSH1 0x1 PUSH1 0x1 PUSH1 0xA0 SHL SUB AND DUP2 JUMP JUMPDEST PUSH1 0x0 PUSH2 0xAAC DUP5 DUP5 DUP5 PUSH2 0x22A6 JUMP JUMPDEST PUSH2 0xB1C DUP5 PUSH2 0xAB8 PUSH2 0x2114 JUMP JUMPDEST PUSH2 0xB17 DUP6 PUSH1 0x40 MLOAD DUP1 PUSH1 0x60 ADD PUSH1 0x40 MSTORE DUP1 PUSH1 0x28 DUP2 MSTORE PUSH1 0x20 ADD PUSH2 0x3404 PUSH1 0x28 SWAP2 CODECOPY PUSH1 0x1 PUSH1 0x1 PUSH1 0xA0 SHL SUB DUP11 AND PUSH1 0x0 SWAP1 DUP2 MSTORE PUSH1 0x3 PUSH1 0x20 MSTORE PUSH1 0x40 DUP2 KECCAK256 SWAP1 PUSH2 0xAF6 PUSH2 0x2114 JUMP JUMPDEST PUSH1 0x1 PUSH1 0x1 PUSH1 0xA0 SHL SUB AND DUP2 MSTORE PUSH1 0x20 DUP2 ADD SWAP2 SWAP1 SWAP2 MSTORE PUSH1 0x40 ADD PUSH1 0x0 KECCAK256 SLOAD SWAP2 SWAP1 PUSH2 0x23F8 JUMP JUMPDEST PUSH2 0x2118 JUMP JUMPDEST POP PUSH1 0x1 SWAP4 SWAP3 POP POP POP JUMP JUMPDEST PUSH1 0x0 DUP1 PUSH2 0xB32 ADDRESS PUSH2 0x248F JUMP JUMPDEST SWAP2 POP POP SWAP1 JUMP JUMPDEST PUSH1 0x0 DUP1 SLOAD PUSH1 0x1 ADD SWAP1 DUP2 SWAP1 SSTORE DUP2 PUSH2 0xB95 JUMPI PUSH1 0x40 DUP1 MLOAD PUSH3 0x461BCD PUSH1 0xE5 SHL DUP2 MSTORE PUSH1 0x20 PUSH1 0x4 DUP3 ADD MSTORE PUSH1 0x1F PUSH1 0x24 DUP3 ADD MSTORE PUSH32 0x7769746864726177206D7573742062652067726561746572207468616E203000 PUSH1 0x44 DUP3 ADD MSTORE SWAP1 MLOAD SWAP1 DUP2 SWAP1 SUB PUSH1 0x64 ADD SWAP1 REVERT JUMPDEST PUSH1 0x0 PUSH2 0xBA0 CALLER PUSH2 0xFB2 JUMP JUMPDEST SWAP1 POP DUP1 DUP4 GT ISZERO PUSH2 0xBEE JUMPI PUSH1 0x40 DUP1 MLOAD PUSH3 0x461BCD PUSH1 0xE5 SHL DUP2 MSTORE PUSH1 0x20 PUSH1 0x4 DUP3 ADD MSTORE PUSH1 0x14 PUSH1 0x24 DUP3 ADD MSTORE PUSH20 0x696E73756666696369656E742062616C616E6365 PUSH1 0x60 SHL PUSH1 0x44 DUP3 ADD MSTORE SWAP1 MLOAD SWAP1 DUP2 SWAP1 SUB PUSH1 0x64 ADD SWAP1 REVERT JUMPDEST PUSH1 0x0 PUSH2 0xBF8 PUSH2 0xFCD JUMP JUMPDEST SWAP1 POP PUSH1 0x0 PUSH2 0xC11 PUSH2 0xC07 PUSH2 0xA8A JUMP JUMPDEST PUSH2 0xA7C DUP5 DUP9 PUSH2 0x2204 JUMP JUMPDEST SWAP1 POP PUSH2 0xC1D CALLER DUP7 PUSH2 0x2517 JUMP JUMPDEST PUSH1 0xA SLOAD PUSH1 0x40 DUP1 MLOAD PUSH4 0x70A08231 PUSH1 0xE0 SHL DUP2 MSTORE ADDRESS PUSH1 0x4 DUP3 ADD MSTORE SWAP1 MLOAD PUSH1 0x0 SWAP3 PUSH1 0x1 PUSH1 0x1 PUSH1 0xA0 SHL SUB AND SWAP2 PUSH4 0x70A08231 SWAP2 PUSH1 0x24 DUP1 DUP4 ADD SWAP3 PUSH1 0x20 SWAP3 SWAP2 SWAP1 DUP3 SWAP1 SUB ADD DUP2 DUP7 DUP1 EXTCODESIZE ISZERO DUP1 ISZERO PUSH2 0xC68 JUMPI PUSH1 0x0 DUP1 REVERT JUMPDEST POP GAS STATICCALL ISZERO DUP1 ISZERO PUSH2 0xC7C JUMPI RETURNDATASIZE PUSH1 0x0 DUP1 RETURNDATACOPY RETURNDATASIZE PUSH1 0x0 REVERT JUMPDEST POP POP POP POP PUSH1 0x40 MLOAD RETURNDATASIZE PUSH1 0x20 DUP2 LT ISZERO PUSH2 0xC92 JUMPI PUSH1 0x0 DUP1 REVERT JUMPDEST POP MLOAD SWAP1 POP DUP2 DUP2 LT ISZERO PUSH2 0xCC2 JUMPI PUSH1 0x0 PUSH2 0xCA9 DUP4 PUSH2 0x2607 JUMP JUMPDEST SWAP1 POP PUSH2 0xCB5 DUP4 DUP3 PUSH2 0x2626 JUMP JUMPDEST SWAP3 POP PUSH2 0xCC0 DUP4 PUSH2 0x2668 JUMP JUMPDEST POP JUMPDEST PUSH1 0xA SLOAD PUSH2 0xCD9 SWAP1 PUSH1 0x1 PUSH1 0x1 PUSH1 0xA0 SHL SUB AND CALLER DUP5 PUSH2 0x2671 JUMP JUMPDEST POP POP POP POP PUSH1 0x0 SLOAD DUP2 EQ PUSH2 0xD33 JUMPI PUSH1 0x40 DUP1 MLOAD PUSH3 0x461BCD PUSH1 0xE5 SHL DUP2 MSTORE PUSH1 0x20 PUSH1 0x4 DUP3 ADD MSTORE PUSH1 0x1F PUSH1 0x24 DUP3 ADD MSTORE PUSH32 0x5265656E7472616E637947756172643A207265656E7472616E742063616C6C00 PUSH1 0x44 DUP3 ADD MSTORE SWAP1 MLOAD SWAP1 DUP2 SWAP1 SUB PUSH1 0x64 ADD SWAP1 REVERT JUMPDEST POP POP JUMP JUMPDEST PUSH1 0x7 SLOAD PUSH1 0xFF AND SWAP1 JUMP JUMPDEST PUSH20 0xF491E7B69E4244AD4002BC14E878A34207E38C29 SWAP1 JUMP JUMPDEST PUSH1 0x12 SLOAD PUSH1 0x1 PUSH1 0x1 PUSH1 0xA0 SHL SUB AND CALLER EQ DUP1 PUSH2 0xD89 JUMPI POP PUSH2 0xD74 PUSH2 0x15FE JUMP JUMPDEST PUSH1 0x1 PUSH1 0x1 PUSH1 0xA0 SHL SUB AND CALLER PUSH1 0x1 PUSH1 0x1 PUSH1 0xA0 SHL SUB AND EQ JUMPDEST PUSH2 0xD92 JUMPI PUSH1 0x0 DUP1 REVERT JUMPDEST PUSH2 0xDB1 PUSH2 0xD9D PUSH2 0xE5B JUMP JUMPDEST PUSH1 0xA SLOAD PUSH1 0x1 PUSH1 0x1 PUSH1 0xA0 SHL SUB AND SWAP1 PUSH1 0x0 PUSH2 0x1FCA JUMP JUMPDEST PUSH2 0xDD0 PUSH2 0xDBC PUSH2 0x197C JUMP JUMPDEST PUSH1 0xB SLOAD PUSH1 0x1 PUSH1 0x1 PUSH1 0xA0 SHL SUB AND SWAP1 PUSH1 0x0 PUSH2 0x1FCA JUMP JUMPDEST PUSH2 0xDDB PUSH2 0xD9D PUSH2 0xD40 JUMP JUMPDEST PUSH2 0xDE6 PUSH2 0xDBC PUSH2 0xD40 JUMP JUMPDEST PUSH2 0xE05 PUSH2 0xDF1 PUSH2 0xD40 JUMP JUMPDEST PUSH1 0xE SLOAD PUSH1 0x1 PUSH1 0x1 PUSH1 0xA0 SHL SUB AND SWAP1 PUSH1 0x0 PUSH2 0x1FCA JUMP JUMPDEST JUMP JUMPDEST PUSH1 0x0 PUSH2 0x9D5 PUSH2 0xE14 PUSH2 0x2114 JUMP JUMPDEST DUP5 PUSH2 0xB17 DUP6 PUSH1 0x3 PUSH1 0x0 PUSH2 0xE25 PUSH2 0x2114 JUMP JUMPDEST PUSH1 0x1 PUSH1 0x1 PUSH1 0xA0 SHL SUB SWAP1 DUP2 AND DUP3 MSTORE PUSH1 0x20 DUP1 DUP4 ADD SWAP4 SWAP1 SWAP4 MSTORE PUSH1 0x40 SWAP2 DUP3 ADD PUSH1 0x0 SWAP1 DUP2 KECCAK256 SWAP2 DUP13 AND DUP2 MSTORE SWAP3 MSTORE SWAP1 KECCAK256 SLOAD SWAP1 PUSH2 0x26C3 JUMP JUMPDEST PUSH1 0x8 SLOAD DUP2 JUMP JUMPDEST PUSH20 0x2224765BC8D54C21BB51B0951C80315E1C263F9 SWAP1 JUMP JUMPDEST PUSH1 0x0 DUP1 PUSH2 0xE7E PUSH2 0x271D JUMP JUMPDEST SWAP1 POP PUSH1 0x0 PUSH2 0xE8A PUSH2 0x15A6 JUMP JUMPDEST SWAP1 POP PUSH2 0xE9A DUP3 PUSH2 0xA7C DUP7 DUP5 PUSH2 0x2204 JUMP JUMPDEST SWAP5 SWAP4 POP POP POP POP JUMP JUMPDEST PUSH1 0x0 DUP1 PUSH2 0xEAD PUSH2 0x1D32 JUMP JUMPDEST SWAP1 POP PUSH1 0x0 PUSH2 0xEB9 PUSH2 0x17C4 JUMP JUMPDEST SWAP1 POP PUSH1 0x0 PUSH2 0xA82 PUSH2 0xECA DUP4 DUP6 PUSH2 0x2626 JUMP JUMPDEST PUSH2 0xA7C DUP5 PUSH3 0xF4240 PUSH2 0x2204 JUMP JUMPDEST PUSH1 0x9 SLOAD DUP2 JUMP JUMPDEST PUSH1 0xA SLOAD PUSH1 0x0 SWAP1 DUP2 SWAP1 PUSH1 0x1 PUSH1 0x1 PUSH1 0xA0 SHL SUB AND PUSH4 0x70A08231 PUSH2 0xEFB PUSH2 0xE5B JUMP JUMPDEST PUSH1 0x40 MLOAD DUP3 PUSH4 0xFFFFFFFF AND PUSH1 0xE0 SHL DUP2 MSTORE PUSH1 0x4 ADD DUP1 DUP3 PUSH1 0x1 PUSH1 0x1 PUSH1 0xA0 SHL SUB AND DUP2 MSTORE PUSH1 0x20 ADD SWAP2 POP POP PUSH1 0x20 PUSH1 0x40 MLOAD DUP1 DUP4 SUB DUP2 DUP7 DUP1 EXTCODESIZE ISZERO DUP1 ISZERO PUSH2 0xF38 JUMPI PUSH1 0x0 DUP1 REVERT JUMPDEST POP GAS STATICCALL ISZERO DUP1 ISZERO PUSH2 0xF4C JUMPI RETURNDATASIZE PUSH1 0x0 DUP1 RETURNDATACOPY RETURNDATASIZE PUSH1 0x0 REVERT JUMPDEST POP POP POP POP PUSH1 0x40 MLOAD RETURNDATASIZE PUSH1 0x20 DUP2 LT ISZERO PUSH2 0xF62 JUMPI PUSH1 0x0 DUP1 REVERT JUMPDEST POP MLOAD SWAP2 POP POP SWAP1 JUMP JUMPDEST PUSH20 0x30872E4FC4EDBFD7A352BFC2463EB4FAE9C09086 SWAP1 JUMP JUMPDEST PUSH20 0x260E596DABE3AFC463E75B6CC05D8C46ACACFB09 SWAP1 JUMP JUMPDEST PUSH20 0x5965E53AA80A0BCF1CD6DBDD72E6A9B2AA047410 SWAP1 JUMP JUMPDEST PUSH1 0x1 PUSH1 0x1 PUSH1 0xA0 SHL SUB AND PUSH1 0x0 SWAP1 DUP2 MSTORE PUSH1 0x2 PUSH1 0x20 MSTORE PUSH1 0x40 SWAP1 KECCAK256 SLOAD SWAP1 JUMP JUMPDEST PUSH1 0x0 DUP1 PUSH2 0xFD8 PUSH2 0x17C4 JUMP JUMPDEST SWAP1 POP PUSH1 0x0 PUSH2 0xFE4 PUSH2 0x1C15 JUMP JUMPDEST SWAP1 POP PUSH1 0x0 PUSH2 0xFF0 PUSH2 0x1D32 JUMP JUMPDEST SWAP1 POP PUSH1 0x0 PUSH2 0xFFC PUSH2 0x124D JUMP JUMPDEST SWAP3 SWAP1 SWAP4 ADD SUB ADD SWAP2 POP POP SWAP1 JUMP JUMPDEST PUSH2 0x1010 PUSH2 0x160D JUMP JUMPDEST PUSH2 0x1061 JUMPI PUSH1 0x40 DUP1 MLOAD PUSH3 0x461BCD PUSH1 0xE5 SHL DUP2 MSTORE PUSH1 0x20 PUSH1 0x4 DUP3 ADD DUP2 SWAP1 MSTORE PUSH1 0x24 DUP3 ADD MSTORE PUSH32 0x4F776E61626C653A2063616C6C6572206973206E6F7420746865206F776E6572 PUSH1 0x44 DUP3 ADD MSTORE SWAP1 MLOAD SWAP1 DUP2 SWAP1 SUB PUSH1 0x64 ADD SWAP1 REVERT JUMPDEST PUSH1 0x1 SLOAD PUSH1 0x40 MLOAD PUSH1 0x0 SWAP2 PUSH1 0x1 PUSH1 0x1 PUSH1 0xA0 SHL SUB AND SWAP1 PUSH32 0x8BE0079C531659141344CD1FD0A4F28419497F9722A3DAAFE3B4186F6B6457E0 SWAP1 DUP4 SWAP1 LOG3 PUSH1 0x1 DUP1 SLOAD PUSH1 0x1 PUSH1 0x1 PUSH1 0xA0 SHL SUB NOT AND SWAP1 SSTORE JUMP JUMPDEST PUSH1 0x12 SLOAD PUSH1 0x1 PUSH1 0x1 PUSH1 0xA0 SHL SUB AND CALLER EQ DUP1 PUSH2 0x10DC JUMPI POP PUSH2 0x10C7 PUSH2 0x15FE JUMP JUMPDEST PUSH1 0x1 PUSH1 0x1 PUSH1 0xA0 SHL SUB AND CALLER PUSH1 0x1 PUSH1 0x1 PUSH1 0xA0 SHL SUB AND EQ JUMPDEST PUSH2 0x10E5 JUMPI PUSH1 0x0 DUP1 REVERT JUMPDEST PUSH1 0x1 PUSH1 0x1 PUSH1 0xA0 SHL SUB DUP2 AND PUSH2 0x10F8 JUMPI PUSH1 0x0 DUP1 REVERT JUMPDEST PUSH1 0x13 DUP1 SLOAD PUSH1 0x1 PUSH1 0x1 PUSH1 0xA0 SHL SUB DUP4 AND PUSH1 0x1 PUSH1 0x1 PUSH1 0xA0 SHL SUB NOT SWAP1 SWAP2 AND DUP2 OR SWAP1 SWAP2 SSTORE PUSH1 0x40 DUP1 MLOAD SWAP2 DUP3 MSTORE MLOAD PUSH32 0x2F202DDB4A2E345F6323ED90F8FC8559D770A7ABBBEEE84DDE8ACA3351FE7154 SWAP2 DUP2 SWAP1 SUB PUSH1 0x20 ADD SWAP1 LOG1 POP JUMP JUMPDEST PUSH1 0x12 SLOAD PUSH1 0x1 PUSH1 0x1 PUSH1 0xA0 SHL SUB AND CALLER EQ DUP1 PUSH2 0x117D JUMPI POP PUSH2 0x1168 PUSH2 0x15FE JUMP JUMPDEST PUSH1 0x1 PUSH1 0x1 PUSH1 0xA0 SHL SUB AND CALLER PUSH1 0x1 PUSH1 0x1 PUSH1 0xA0 SHL SUB AND EQ JUMPDEST PUSH2 0x1186 JUMPI PUSH1 0x0 DUP1 REVERT JUMPDEST PUSH2 0x11A6 PUSH2 0x1191 PUSH2 0xE5B JUMP JUMPDEST PUSH1 0xA SLOAD PUSH1 0x1 PUSH1 0x1 PUSH1 0xA0 SHL SUB AND SWAP1 PUSH1 0x0 NOT PUSH2 0x1FCA JUMP JUMPDEST PUSH2 0x11C6 PUSH2 0x11B1 PUSH2 0x197C JUMP JUMPDEST PUSH1 0xB SLOAD PUSH1 0x1 PUSH1 0x1 PUSH1 0xA0 SHL SUB AND SWAP1 PUSH1 0x0 NOT PUSH2 0x1FCA JUMP JUMPDEST PUSH2 0x11D1 PUSH2 0x1191 PUSH2 0xD40 JUMP JUMPDEST PUSH2 0x11DC PUSH2 0x11B1 PUSH2 0xD40 JUMP JUMPDEST PUSH2 0x11FC PUSH2 0x11E7 PUSH2 0xD40 JUMP JUMPDEST PUSH1 0xE SLOAD PUSH1 0x1 PUSH1 0x1 PUSH1 0xA0 SHL SUB AND SWAP1 PUSH1 0x0 NOT PUSH2 0x1FCA JUMP JUMPDEST PUSH2 0xE05 PUSH2 0x1207 PUSH2 0xD40 JUMP JUMPDEST PUSH1 0x10 SLOAD PUSH1 0x1 PUSH1 0x1 PUSH1 0xA0 SHL SUB AND SWAP1 PUSH1 0x0 NOT PUSH2 0x1FCA JUMP JUMPDEST PUSH1 0x0 DUP1 PUSH2 0x1227 PUSH2 0xFCD JUMP JUMPDEST SWAP1 POP PUSH1 0x0 PUSH2 0x1233 PUSH2 0xA8A JUMP JUMPDEST SWAP1 POP PUSH2 0x1246 DUP2 PUSH2 0xA7C DUP5 PUSH3 0xF4240 PUSH2 0x2204 JUMP JUMPDEST SWAP3 POP POP POP SWAP1 JUMP JUMPDEST PUSH1 0xB SLOAD PUSH1 0x40 DUP1 MLOAD PUSH4 0x70A08231 PUSH1 0xE0 SHL DUP2 MSTORE ADDRESS PUSH1 0x4 DUP3 ADD MSTORE SWAP1 MLOAD PUSH1 0x0 SWAP3 PUSH2 0x12D0 SWAP3 PUSH1 0x1 PUSH1 0x1 PUSH1 0xA0 SHL SUB SWAP1 SWAP2 AND SWAP2 PUSH4 0x70A08231 SWAP2 PUSH1 0x24 DUP1 DUP3 ADD SWAP3 PUSH1 0x20 SWAP3 SWAP1 SWAP2 SWAP1 DUP3 SWAP1 SUB ADD DUP2 DUP7 DUP1 EXTCODESIZE ISZERO DUP1 ISZERO PUSH2 0x129F JUMPI PUSH1 0x0 DUP1 REVERT JUMPDEST POP GAS STATICCALL ISZERO DUP1 ISZERO PUSH2 0x12B3 JUMPI RETURNDATASIZE PUSH1 0x0 DUP1 RETURNDATACOPY RETURNDATASIZE PUSH1 0x0 REVERT JUMPDEST POP POP POP POP PUSH1 0x40 MLOAD RETURNDATASIZE PUSH1 0x20 DUP2 LT ISZERO PUSH2 0x12C9 JUMPI PUSH1 0x0 DUP1 REVERT JUMPDEST POP MLOAD PUSH2 0xE73 JUMP JUMPDEST SWAP1 POP SWAP1 JUMP JUMPDEST PUSH1 0x13 SLOAD PUSH1 0x1 PUSH1 0x1 PUSH1 0xA0 SHL SUB AND CALLER EQ DUP1 PUSH2 0x12F8 JUMPI POP PUSH1 0x12 SLOAD PUSH1 0x1 PUSH1 0x1 PUSH1 0xA0 SHL SUB AND CALLER EQ JUMPDEST DUP1 PUSH2 0x131B JUMPI POP PUSH2 0x1306 PUSH2 0x15FE JUMP JUMPDEST PUSH1 0x1 PUSH1 0x1 PUSH1 0xA0 SHL SUB AND CALLER PUSH1 0x1 PUSH1 0x1 PUSH1 0xA0 SHL SUB AND EQ JUMPDEST PUSH2 0x1324 JUMPI PUSH1 0x0 DUP1 REVERT JUMPDEST PUSH1 0x0 PUSH2 0x132E PUSH2 0x1D32 JUMP JUMPDEST SWAP1 POP PUSH1 0x0 PUSH2 0x133A PUSH2 0x17C4 JUMP JUMPDEST SWAP1 POP PUSH2 0x1344 PUSH2 0x276F JUMP JUMPDEST PUSH1 0x0 PUSH2 0x134E PUSH2 0x1EC2 JUMP JUMPDEST SWAP1 POP PUSH1 0x14 SLOAD DUP2 GT ISZERO PUSH2 0x13B4 JUMPI PUSH1 0x0 PUSH2 0x1396 PUSH2 0x1367 PUSH2 0x1D32 JUMP JUMPDEST PUSH2 0x1390 PUSH3 0xF4240 PUSH2 0xA7C PUSH1 0x8 SLOAD PUSH2 0x138A PUSH3 0xF4240 PUSH2 0xA7C PUSH3 0xB71B0 PUSH2 0x138A PUSH2 0x17C4 JUMP JUMPDEST SWAP1 PUSH2 0x2204 JUMP JUMPDEST SWAP1 PUSH2 0x2626 JUMP JUMPDEST SWAP1 POP PUSH2 0x13A1 DUP2 PUSH2 0x27E1 JUMP JUMPDEST PUSH2 0x13AA DUP2 PUSH2 0x27EA JUMP JUMPDEST PUSH2 0x13B2 PUSH2 0x2847 JUMP JUMPDEST POP JUMPDEST PUSH1 0x15 SLOAD DUP2 LT ISZERO PUSH2 0x1583 JUMPI PUSH1 0x0 PUSH2 0x13E7 PUSH3 0xF4240 PUSH2 0xA7C PUSH2 0x13D2 PUSH2 0x17C4 JUMP JUMPDEST PUSH2 0x138A PUSH2 0x13DD PUSH2 0x1EC2 JUMP JUMPDEST PUSH3 0xB71B0 SWAP1 PUSH2 0x2626 JUMP JUMPDEST SWAP1 POP PUSH1 0x0 PUSH2 0x13F4 DUP3 PUSH2 0x28F7 JUMP JUMPDEST PUSH1 0xB SLOAD PUSH1 0x40 DUP1 MLOAD PUSH4 0x70A08231 PUSH1 0xE0 SHL DUP2 MSTORE ADDRESS PUSH1 0x4 DUP3 ADD MSTORE SWAP1 MLOAD SWAP3 SWAP4 POP PUSH2 0x1477 SWAP3 PUSH1 0x1 PUSH1 0x1 PUSH1 0xA0 SHL SUB SWAP1 SWAP3 AND SWAP2 PUSH4 0x70A08231 SWAP2 PUSH1 0x24 DUP1 DUP3 ADD SWAP3 PUSH1 0x20 SWAP3 SWAP1 SWAP2 SWAP1 DUP3 SWAP1 SUB ADD DUP2 DUP7 DUP1 EXTCODESIZE ISZERO DUP1 ISZERO PUSH2 0x1446 JUMPI PUSH1 0x0 DUP1 REVERT JUMPDEST POP GAS STATICCALL ISZERO DUP1 ISZERO PUSH2 0x145A JUMPI RETURNDATASIZE PUSH1 0x0 DUP1 RETURNDATACOPY RETURNDATASIZE PUSH1 0x0 REVERT JUMPDEST POP POP POP POP PUSH1 0x40 MLOAD RETURNDATASIZE PUSH1 0x20 DUP2 LT ISZERO PUSH2 0x1470 JUMPI PUSH1 0x0 DUP1 REVERT JUMPDEST POP MLOAD PUSH2 0x292B JUMP JUMPDEST PUSH1 0xA SLOAD PUSH1 0x40 DUP1 MLOAD PUSH4 0x70A08231 PUSH1 0xE0 SHL DUP2 MSTORE ADDRESS PUSH1 0x4 DUP3 ADD MSTORE SWAP1 MLOAD PUSH1 0x1 PUSH1 0x1 PUSH1 0xA0 SHL SUB SWAP1 SWAP3 AND SWAP2 PUSH4 0x70A08231 SWAP2 PUSH1 0x24 DUP1 DUP3 ADD SWAP3 PUSH1 0x20 SWAP3 SWAP1 SWAP2 SWAP1 DUP3 SWAP1 SUB ADD DUP2 DUP7 DUP1 EXTCODESIZE ISZERO DUP1 ISZERO PUSH2 0x14C2 JUMPI PUSH1 0x0 DUP1 REVERT JUMPDEST POP GAS STATICCALL ISZERO DUP1 ISZERO PUSH2 0x14D6 JUMPI RETURNDATASIZE PUSH1 0x0 DUP1 RETURNDATACOPY RETURNDATASIZE PUSH1 0x0 REVERT JUMPDEST POP POP POP POP PUSH1 0x40 MLOAD RETURNDATASIZE PUSH1 0x20 DUP2 LT ISZERO PUSH2 0x14EC JUMPI PUSH1 0x0 DUP1 REVERT JUMPDEST POP MLOAD DUP3 LT ISZERO PUSH2 0x1503 JUMPI PUSH2 0x14FE DUP3 PUSH2 0x2978 JUMP JUMPDEST PUSH2 0x1580 JUMP JUMPDEST PUSH1 0xA SLOAD PUSH1 0x40 DUP1 MLOAD PUSH4 0x70A08231 PUSH1 0xE0 SHL DUP2 MSTORE ADDRESS PUSH1 0x4 DUP3 ADD MSTORE SWAP1 MLOAD PUSH2 0x1580 SWAP3 PUSH1 0x1 PUSH1 0x1 PUSH1 0xA0 SHL SUB AND SWAP2 PUSH4 0x70A08231 SWAP2 PUSH1 0x24 DUP1 DUP4 ADD SWAP3 PUSH1 0x20 SWAP3 SWAP2 SWAP1 DUP3 SWAP1 SUB ADD DUP2 DUP7 DUP1 EXTCODESIZE ISZERO DUP1 ISZERO PUSH2 0x154F JUMPI PUSH1 0x0 DUP1 REVERT JUMPDEST POP GAS STATICCALL ISZERO DUP1 ISZERO PUSH2 0x1563 JUMPI RETURNDATASIZE PUSH1 0x0 DUP1 RETURNDATACOPY RETURNDATASIZE PUSH1 0x0 REVERT JUMPDEST POP POP POP POP PUSH1 0x40 MLOAD RETURNDATASIZE PUSH1 0x20 DUP2 LT ISZERO PUSH2 0x1579 JUMPI PUSH1 0x0 DUP1 REVERT JUMPDEST POP MLOAD PUSH2 0x2978 JUMP JUMPDEST POP POP JUMPDEST POP POP POP JUMP JUMPDEST PUSH1 0x1 SWAP1 JUMP JUMPDEST PUSH1 0x0 PUSH2 0x1598 CALLER PUSH2 0xFB2 JUMP JUMPDEST SWAP1 POP PUSH2 0x15A3 DUP2 PUSH2 0xB38 JUMP JUMPDEST POP JUMP JUMPDEST PUSH1 0xA SLOAD PUSH1 0xC SLOAD PUSH1 0x40 DUP1 MLOAD PUSH4 0x70A08231 PUSH1 0xE0 SHL DUP2 MSTORE PUSH1 0x1 PUSH1 0x1 PUSH1 0xA0 SHL SUB SWAP3 DUP4 AND PUSH1 0x4 DUP3 ADD MSTORE SWAP1 MLOAD PUSH1 0x0 SWAP4 DUP5 SWAP4 AND SWAP2 PUSH4 0x70A08231 SWAP2 PUSH1 0x24 DUP1 DUP4 ADD SWAP3 PUSH1 0x20 SWAP3 SWAP2 SWAP1 DUP3 SWAP1 SUB ADD DUP2 DUP7 DUP1 EXTCODESIZE ISZERO DUP1 ISZERO PUSH2 0xF38 JUMPI PUSH1 0x0 DUP1 REVERT JUMPDEST PUSH1 0x18 SLOAD DUP2 JUMP JUMPDEST PUSH1 0x1 SLOAD PUSH1 0x1 PUSH1 0x1 PUSH1 0xA0 SHL SUB AND SWAP1 JUMP JUMPDEST PUSH1 0x1 SLOAD PUSH1 0x0 SWAP1 PUSH1 0x1 PUSH1 0x1 PUSH1 0xA0 SHL SUB AND PUSH2 0x1624 PUSH2 0x2114 JUMP JUMPDEST PUSH1 0x1 PUSH1 0x1 PUSH1 0xA0 SHL SUB AND EQ SWAP1 POP SWAP1 JUMP JUMPDEST PUSH1 0x12 SLOAD PUSH1 0x1 PUSH1 0x1 PUSH1 0xA0 SHL SUB AND CALLER EQ DUP1 PUSH2 0x1664 JUMPI POP PUSH2 0x164F PUSH2 0x15FE JUMP JUMPDEST PUSH1 0x1 PUSH1 0x1 PUSH1 0xA0 SHL SUB AND CALLER PUSH1 0x1 PUSH1 0x1 PUSH1 0xA0 SHL SUB AND EQ JUMPDEST PUSH2 0x166D JUMPI PUSH1 0x0 DUP1 REVERT JUMPDEST DUP2 PUSH3 0xB71B0 GT PUSH2 0x167C JUMPI PUSH1 0x0 DUP1 REVERT JUMPDEST DUP1 DUP3 LT ISZERO PUSH2 0x1689 JUMPI PUSH1 0x0 DUP1 REVERT JUMPDEST DUP3 DUP2 LT ISZERO PUSH2 0x1696 JUMPI PUSH1 0x0 DUP1 REVERT JUMPDEST POP PUSH1 0x14 SSTORE PUSH1 0x15 SSTORE JUMP JUMPDEST PUSH1 0x6 DUP1 SLOAD PUSH1 0x40 DUP1 MLOAD PUSH1 0x20 PUSH1 0x1F PUSH1 0x2 PUSH1 0x0 NOT PUSH2 0x100 PUSH1 0x1 DUP9 AND ISZERO MUL ADD SWAP1 SWAP6 AND SWAP5 SWAP1 SWAP5 DIV SWAP4 DUP5 ADD DUP2 SWAP1 DIV DUP2 MUL DUP3 ADD DUP2 ADD SWAP1 SWAP3 MSTORE DUP3 DUP2 MSTORE PUSH1 0x60 SWAP4 SWAP1 SWAP3 SWAP1 SWAP2 DUP4 ADD DUP3 DUP3 DUP1 ISZERO PUSH2 0x9B7 JUMPI DUP1 PUSH1 0x1F LT PUSH2 0x98C JUMPI PUSH2 0x100 DUP1 DUP4 SLOAD DIV MUL DUP4 MSTORE SWAP2 PUSH1 0x20 ADD SWAP2 PUSH2 0x9B7 JUMP JUMPDEST PUSH1 0x0 PUSH2 0x9D5 PUSH2 0x170D PUSH2 0x2114 JUMP JUMPDEST DUP5 PUSH2 0xB17 DUP6 PUSH1 0x40 MLOAD DUP1 PUSH1 0x60 ADD PUSH1 0x40 MSTORE DUP1 PUSH1 0x25 DUP2 MSTORE PUSH1 0x20 ADD PUSH2 0x34F6 PUSH1 0x25 SWAP2 CODECOPY PUSH1 0x3 PUSH1 0x0 PUSH2 0x1737 PUSH2 0x2114 JUMP JUMPDEST PUSH1 0x1 PUSH1 0x1 PUSH1 0xA0 SHL SUB SWAP1 DUP2 AND DUP3 MSTORE PUSH1 0x20 DUP1 DUP4 ADD SWAP4 SWAP1 SWAP4 MSTORE PUSH1 0x40 SWAP2 DUP3 ADD PUSH1 0x0 SWAP1 DUP2 KECCAK256 SWAP2 DUP14 AND DUP2 MSTORE SWAP3 MSTORE SWAP1 KECCAK256 SLOAD SWAP2 SWAP1 PUSH2 0x23F8 JUMP JUMPDEST PUSH1 0x12 SLOAD PUSH1 0x1 PUSH1 0x1 PUSH1 0xA0 SHL SUB AND CALLER EQ DUP1 PUSH2 0x1799 JUMPI POP PUSH2 0x1784 PUSH2 0x15FE JUMP JUMPDEST PUSH1 0x1 PUSH1 0x1 PUSH1 0xA0 SHL SUB AND CALLER PUSH1 0x1 PUSH1 0x1 PUSH1 0xA0 SHL SUB AND EQ JUMPDEST PUSH2 0x17A2 JUMPI PUSH1 0x0 DUP1 REVERT JUMPDEST PUSH2 0xE05 PUSH2 0x276F JUMP JUMPDEST PUSH1 0x0 PUSH2 0x9D5 PUSH2 0x17B7 PUSH2 0x2114 JUMP JUMPDEST DUP5 DUP5 PUSH2 0x22A6 JUMP JUMPDEST PUSH1 0x15 SLOAD DUP2 JUMP JUMPDEST PUSH1 0xF SLOAD PUSH1 0x40 DUP1 MLOAD PUSH4 0x70A08231 PUSH1 0xE0 SHL DUP2 MSTORE ADDRESS PUSH1 0x4 DUP3 ADD MSTORE SWAP1 MLOAD PUSH1 0x0 SWAP3 DUP4 SWAP3 PUSH1 0x1 PUSH1 0x1 PUSH1 0xA0 SHL SUB SWAP1 SWAP2 AND SWAP2 PUSH4 0x70A08231 SWAP2 PUSH1 0x24 DUP1 DUP3 ADD SWAP3 PUSH1 0x20 SWAP3 SWAP1 SWAP2 SWAP1 DUP3 SWAP1 SUB ADD DUP2 DUP7 DUP1 EXTCODESIZE ISZERO DUP1 ISZERO PUSH2 0x1814 JUMPI PUSH1 0x0 DUP1 REVERT JUMPDEST POP GAS STATICCALL ISZERO DUP1 ISZERO PUSH2 0x1828 JUMPI RETURNDATASIZE PUSH1 0x0 DUP1 RETURNDATACOPY RETURNDATASIZE PUSH1 0x0 REVERT JUMPDEST POP POP POP POP PUSH1 0x40 MLOAD RETURNDATASIZE PUSH1 0x20 DUP2 LT ISZERO PUSH2 0x183E JUMPI PUSH1 0x0 DUP1 REVERT JUMPDEST POP MLOAD SWAP1 POP PUSH2 0xB32 PUSH8 0xDE0B6B3A7640000 PUSH2 0xA7C PUSH2 0x1859 PUSH2 0x2981 JUMP JUMPDEST DUP5 SWAP1 PUSH2 0x2204 JUMP JUMPDEST PUSH1 0x13 SLOAD PUSH1 0x1 PUSH1 0x1 PUSH1 0xA0 SHL SUB AND DUP2 JUMP JUMPDEST PUSH1 0x13 SLOAD PUSH1 0x1 PUSH1 0x1 PUSH1 0xA0 SHL SUB AND CALLER EQ DUP1 PUSH2 0x1892 JUMPI POP PUSH1 0x12 SLOAD PUSH1 0x1 PUSH1 0x1 PUSH1 0xA0 SHL SUB AND CALLER EQ JUMPDEST DUP1 PUSH2 0x18B5 JUMPI POP PUSH2 0x18A0 PUSH2 0x15FE JUMP JUMPDEST PUSH1 0x1 PUSH1 0x1 PUSH1 0xA0 SHL SUB AND CALLER PUSH1 0x1 PUSH1 0x1 PUSH1 0xA0 SHL SUB AND EQ JUMPDEST PUSH2 0x18BE JUMPI PUSH1 0x0 DUP1 REVERT JUMPDEST PUSH2 0x18C6 PUSH2 0x276F JUMP JUMPDEST PUSH1 0xA SLOAD PUSH1 0x40 DUP1 MLOAD PUSH4 0x70A08231 PUSH1 0xE0 SHL DUP2 MSTORE ADDRESS PUSH1 0x4 DUP3 ADD MSTORE SWAP1 MLOAD PUSH1 0x0 SWAP3 PUSH1 0x1 PUSH1 0x1 PUSH1 0xA0 SHL SUB AND SWAP2 PUSH4 0x70A08231 SWAP2 PUSH1 0x24 DUP1 DUP4 ADD SWAP3 PUSH1 0x20 SWAP3 SWAP2 SWAP1 DUP3 SWAP1 SUB ADD DUP2 DUP7 DUP1 EXTCODESIZE ISZERO DUP1 ISZERO PUSH2 0x1911 JUMPI PUSH1 0x0 DUP1 REVERT JUMPDEST POP GAS STATICCALL ISZERO DUP1 ISZERO PUSH2 0x1925 JUMPI RETURNDATASIZE PUSH1 0x0 DUP1 RETURNDATACOPY RETURNDATASIZE PUSH1 0x0 REVERT JUMPDEST POP POP POP POP PUSH1 0x40 MLOAD RETURNDATASIZE PUSH1 0x20 DUP2 LT ISZERO PUSH2 0x193B JUMPI PUSH1 0x0 DUP1 REVERT JUMPDEST POP MLOAD SWAP1 POP PUSH1 0x0 PUSH2 0x1949 PUSH2 0xFCD JUMP JUMPDEST SWAP1 POP PUSH1 0x0 PUSH2 0x1969 PUSH3 0xF4240 PUSH2 0xA7C PUSH1 0x19 SLOAD DUP6 PUSH2 0x2204 SWAP1 SWAP2 SWAP1 PUSH4 0xFFFFFFFF AND JUMP JUMPDEST SWAP1 POP DUP1 DUP4 GT ISZERO PUSH2 0x1583 JUMPI PUSH2 0x1583 DUP2 PUSH2 0x29C3 JUMP JUMPDEST PUSH20 0x5AA53F03197E08C4851CAD8C92C7922DA5857E5D SWAP1 JUMP JUMPDEST PUSH1 0x1B SLOAD DUP2 JUMP JUMPDEST PUSH1 0x12 SLOAD PUSH1 0x1 PUSH1 0x1 PUSH1 0xA0 SHL SUB AND CALLER EQ DUP1 PUSH2 0x19CB JUMPI POP PUSH2 0x19B6 PUSH2 0x15FE JUMP JUMPDEST PUSH1 0x1 PUSH1 0x1 PUSH1 0xA0 SHL SUB AND CALLER PUSH1 0x1 PUSH1 0x1 PUSH1 0xA0 SHL SUB AND EQ JUMPDEST PUSH2 0x19D4 JUMPI PUSH1 0x0 DUP1 REVERT JUMPDEST PUSH2 0xC350 DUP3 GT ISZERO PUSH2 0x19E3 JUMPI PUSH1 0x0 DUP1 REVERT JUMPDEST PUSH3 0xB71B0 DUP2 GT ISZERO PUSH2 0x19F3 JUMPI PUSH1 0x0 DUP1 REVERT JUMPDEST PUSH1 0x19 SWAP2 SWAP1 SWAP2 SSTORE PUSH1 0x1B SSTORE JUMP JUMPDEST PUSH1 0x0 DUP1 SLOAD PUSH1 0x1 ADD SWAP1 DUP2 SWAP1 SSTORE DUP2 PUSH2 0x1A5B JUMPI PUSH1 0x40 DUP1 MLOAD PUSH3 0x461BCD PUSH1 0xE5 SHL DUP2 MSTORE PUSH1 0x20 PUSH1 0x4 DUP3 ADD MSTORE PUSH1 0x1E PUSH1 0x24 DUP3 ADD MSTORE PUSH32 0x6465706F736974206D7573742062652067726561746572207468616E20300000 PUSH1 0x44 DUP3 ADD MSTORE SWAP1 MLOAD SWAP1 DUP2 SWAP1 SUB PUSH1 0x64 ADD SWAP1 REVERT JUMPDEST PUSH1 0x1A SLOAD DUP3 GT ISZERO PUSH2 0x1A6A JUMPI PUSH1 0x0 DUP1 REVERT JUMPDEST PUSH1 0x0 PUSH2 0x1A74 PUSH2 0xFCD JUMP JUMPDEST PUSH1 0xA SLOAD PUSH1 0x40 DUP1 MLOAD PUSH4 0x23B872DD PUSH1 0xE0 SHL DUP2 MSTORE CALLER PUSH1 0x4 DUP3 ADD MSTORE ADDRESS PUSH1 0x24 DUP3 ADD MSTORE PUSH1 0x44 DUP2 ADD DUP8 SWAP1 MSTORE SWAP1 MLOAD SWAP3 SWAP4 POP PUSH1 0x1 PUSH1 0x1 PUSH1 0xA0 SHL SUB SWAP1 SWAP2 AND SWAP2 PUSH4 0x23B872DD SWAP2 PUSH1 0x64 DUP1 DUP3 ADD SWAP3 PUSH1 0x20 SWAP3 SWAP1 SWAP2 SWAP1 DUP3 SWAP1 SUB ADD DUP2 PUSH1 0x0 DUP8 DUP1 EXTCODESIZE ISZERO DUP1 ISZERO PUSH2 0x1AD1 JUMPI PUSH1 0x0 DUP1 REVERT JUMPDEST POP GAS CALL ISZERO DUP1 ISZERO PUSH2 0x1AE5 JUMPI RETURNDATASIZE PUSH1 0x0 DUP1 RETURNDATACOPY RETURNDATASIZE PUSH1 0x0 REVERT JUMPDEST POP POP POP POP PUSH1 0x40 MLOAD RETURNDATASIZE PUSH1 0x20 DUP2 LT ISZERO PUSH2 0x1AFB JUMPI PUSH1 0x0 DUP1 REVERT JUMPDEST POP PUSH1 0x0 SWAP1 POP PUSH2 0x1B08 PUSH2 0xA8A JUMP JUMPDEST PUSH2 0x1B1F JUMPI PUSH2 0x1B18 DUP5 PUSH2 0x2710 PUSH2 0x2204 JUMP JUMPDEST SWAP1 POP PUSH2 0x1B38 JUMP JUMPDEST PUSH2 0x1B35 DUP3 PUSH2 0xA7C PUSH2 0x1B2E PUSH2 0xA8A JUMP JUMPDEST DUP8 SWAP1 PUSH2 0x2204 JUMP JUMPDEST SWAP1 POP JUMPDEST PUSH2 0x1B42 CALLER DUP3 PUSH2 0x2B6E JUMP JUMPDEST POP POP PUSH1 0x0 SLOAD DUP2 EQ PUSH2 0xD33 JUMPI PUSH1 0x40 DUP1 MLOAD PUSH3 0x461BCD PUSH1 0xE5 SHL DUP2 MSTORE PUSH1 0x20 PUSH1 0x4 DUP3 ADD MSTORE PUSH1 0x1F PUSH1 0x24 DUP3 ADD MSTORE PUSH32 0x5265656E7472616E637947756172643A207265656E7472616E742063616C6C00 PUSH1 0x44 DUP3 ADD MSTORE SWAP1 MLOAD SWAP1 DUP2 SWAP1 SUB PUSH1 0x64 ADD SWAP1 REVERT JUMPDEST PUSH1 0x12 SLOAD PUSH1 0x1 PUSH1 0x1 PUSH1 0xA0 SHL SUB AND CALLER EQ DUP1 PUSH2 0x1BCB JUMPI POP PUSH2 0x1BB6 PUSH2 0x15FE JUMP JUMPDEST PUSH1 0x1 PUSH1 0x1 PUSH1 0xA0 SHL SUB AND CALLER PUSH1 0x1 PUSH1 0x1 PUSH1 0xA0 SHL SUB AND EQ JUMPDEST PUSH2 0x1BD4 JUMPI PUSH1 0x0 DUP1 REVERT JUMPDEST PUSH1 0x8 SWAP2 SWAP1 SWAP2 SSTORE PUSH1 0x9 SSTORE JUMP JUMPDEST PUSH1 0x16 SLOAD DUP2 JUMP JUMPDEST PUSH20 0xEC7178F4C41F346B2721907F5CF7628E388A7A58 SWAP1 JUMP JUMPDEST PUSH20 0x841FAD6EAE12C286D1FD18D1D525DFFA75C7EFFE SWAP1 JUMP JUMPDEST PUSH1 0xA SLOAD PUSH1 0x40 DUP1 MLOAD PUSH4 0x70A08231 PUSH1 0xE0 SHL DUP2 MSTORE ADDRESS PUSH1 0x4 DUP3 ADD MSTORE SWAP1 MLOAD PUSH1 0x0 SWAP3 PUSH1 0x1 PUSH1 0x1 PUSH1 0xA0 SHL SUB AND SWAP2 PUSH4 0x70A08231 SWAP2 PUSH1 0x24 DUP1 DUP4 ADD SWAP3 PUSH1 0x20 SWAP3 SWAP2 SWAP1 DUP3 SWAP1 SUB ADD DUP2 DUP7 DUP1 EXTCODESIZE ISZERO DUP1 ISZERO PUSH2 0x1C60 JUMPI PUSH1 0x0 DUP1 REVERT JUMPDEST POP GAS STATICCALL ISZERO DUP1 ISZERO PUSH2 0x1C74 JUMPI RETURNDATASIZE PUSH1 0x0 DUP1 RETURNDATACOPY RETURNDATASIZE PUSH1 0x0 REVERT JUMPDEST POP POP POP POP PUSH1 0x40 MLOAD RETURNDATASIZE PUSH1 0x20 DUP2 LT ISZERO PUSH2 0x1C8A JUMPI PUSH1 0x0 DUP1 REVERT JUMPDEST POP MLOAD SWAP1 POP SWAP1 JUMP JUMPDEST PUSH1 0x12 SLOAD PUSH1 0x1 PUSH1 0x1 PUSH1 0xA0 SHL SUB AND CALLER EQ DUP1 PUSH2 0x1CC2 JUMPI POP PUSH2 0x1CAD PUSH2 0x15FE JUMP JUMPDEST PUSH1 0x1 PUSH1 0x1 PUSH1 0xA0 SHL SUB AND CALLER PUSH1 0x1 PUSH1 0x1 PUSH1 0xA0 SHL SUB AND EQ JUMPDEST PUSH2 0x1CCB JUMPI PUSH1 0x0 DUP1 REVERT JUMPDEST PUSH1 0x1 PUSH1 0x1 PUSH1 0xA0 SHL SUB DUP2 AND PUSH2 0x1CDE JUMPI PUSH1 0x0 DUP1 REVERT JUMPDEST PUSH1 0x12 DUP1 SLOAD PUSH1 0x1 PUSH1 0x1 PUSH1 0xA0 SHL SUB DUP4 AND PUSH1 0x1 PUSH1 0x1 PUSH1 0xA0 SHL SUB NOT SWAP1 SWAP2 AND DUP2 OR SWAP1 SWAP2 SSTORE PUSH1 0x40 DUP1 MLOAD SWAP2 DUP3 MSTORE MLOAD PUSH32 0x352ECECAE6D7D1E6D26BCF2C549DFD55BE1637E9B22DC0CF3B71DDB36097A6B4 SWAP2 DUP2 SWAP1 SUB PUSH1 0x20 ADD SWAP1 LOG1 POP JUMP JUMPDEST PUSH1 0x0 DUP1 PUSH2 0x1D3E ADDRESS PUSH2 0x248F JUMP JUMPDEST SWAP1 POP PUSH2 0xB32 DUP2 PUSH2 0xE73 JUMP JUMPDEST PUSH1 0x12 SLOAD PUSH1 0x1 PUSH1 0x1 PUSH1 0xA0 SHL SUB AND CALLER EQ DUP1 PUSH2 0x1D7A JUMPI POP PUSH2 0x1D65 PUSH2 0x15FE JUMP JUMPDEST PUSH1 0x1 PUSH1 0x1 PUSH1 0xA0 SHL SUB AND CALLER PUSH1 0x1 PUSH1 0x1 PUSH1 0xA0 SHL SUB AND EQ JUMPDEST PUSH2 0x1D83 JUMPI PUSH1 0x0 DUP1 REVERT JUMPDEST PUSH2 0x1388 DUP4 GT ISZERO PUSH2 0x1D92 JUMPI PUSH1 0x0 DUP1 REVERT JUMPDEST PUSH2 0xC350 DUP3 GT ISZERO PUSH2 0x1DA1 JUMPI PUSH1 0x0 DUP1 REVERT JUMPDEST PUSH3 0x186A0 DUP2 GT ISZERO PUSH2 0x1DB1 JUMPI PUSH1 0x0 DUP1 REVERT JUMPDEST POP PUSH1 0x16 SSTORE PUSH1 0x18 SSTORE JUMP JUMPDEST PUSH1 0x12 SLOAD PUSH1 0x1 PUSH1 0x1 PUSH1 0xA0 SHL SUB AND CALLER EQ DUP1 PUSH2 0x1DEB JUMPI POP PUSH2 0x1DD6 PUSH2 0x15FE JUMP JUMPDEST PUSH1 0x1 PUSH1 0x1 PUSH1 0xA0 SHL SUB AND CALLER PUSH1 0x1 PUSH1 0x1 PUSH1 0xA0 SHL SUB AND EQ JUMPDEST PUSH2 0x1DF4 JUMPI PUSH1 0x0 DUP1 REVERT JUMPDEST PUSH2 0x15A3 DUP2 PUSH2 0x2668 JUMP JUMPDEST PUSH1 0x1 PUSH1 0x1 PUSH1 0xA0 SHL SUB SWAP2 DUP3 AND PUSH1 0x0 SWAP1 DUP2 MSTORE PUSH1 0x3 PUSH1 0x20 SWAP1 DUP2 MSTORE PUSH1 0x40 DUP1 DUP4 KECCAK256 SWAP4 SWAP1 SWAP5 AND DUP3 MSTORE SWAP2 SWAP1 SWAP2 MSTORE KECCAK256 SLOAD SWAP1 JUMP JUMPDEST PUSH1 0xA SLOAD PUSH1 0x40 DUP1 MLOAD PUSH4 0x70A08231 PUSH1 0xE0 SHL DUP2 MSTORE CALLER PUSH1 0x4 DUP3 ADD MSTORE SWAP1 MLOAD PUSH1 0x0 SWAP3 PUSH1 0x1 PUSH1 0x1 PUSH1 0xA0 SHL SUB AND SWAP2 PUSH4 0x70A08231 SWAP2 PUSH1 0x24 DUP1 DUP4 ADD SWAP3 PUSH1 0x20 SWAP3 SWAP2 SWAP1 DUP3 SWAP1 SUB ADD DUP2 DUP7 DUP1 EXTCODESIZE ISZERO DUP1 ISZERO PUSH2 0x1E73 JUMPI PUSH1 0x0 DUP1 REVERT JUMPDEST POP GAS STATICCALL ISZERO DUP1 ISZERO PUSH2 0x1E87 JUMPI RETURNDATASIZE PUSH1 0x0 DUP1 RETURNDATACOPY RETURNDATASIZE PUSH1 0x0 REVERT JUMPDEST POP POP POP POP PUSH1 0x40 MLOAD RETURNDATASIZE PUSH1 0x20 DUP2 LT ISZERO PUSH2 0x1E9D JUMPI PUSH1 0x0 DUP1 REVERT JUMPDEST POP MLOAD SWAP1 POP PUSH2 0x15A3 DUP2 PUSH2 0x19FE JUMP JUMPDEST PUSH20 0xE0654C8E6FD4D733349AC7E09F6F23DA256BF475 SWAP1 JUMP JUMPDEST PUSH1 0x0 DUP1 PUSH2 0x1ECD PUSH2 0x1D32 JUMP JUMPDEST SWAP1 POP PUSH1 0x0 PUSH2 0xA67 PUSH2 0x17C4 JUMP JUMPDEST PUSH1 0x0 DUP1 PUSH2 0xB32 PUSH2 0x1EE7 PUSH2 0x1588 JUMP JUMPDEST ADDRESS PUSH2 0x2C54 JUMP JUMPDEST PUSH1 0x1A SLOAD DUP2 JUMP JUMPDEST PUSH1 0x17 SLOAD DUP2 JUMP JUMPDEST PUSH2 0x1F01 PUSH2 0x160D JUMP JUMPDEST PUSH2 0x1F52 JUMPI PUSH1 0x40 DUP1 MLOAD PUSH3 0x461BCD PUSH1 0xE5 SHL DUP2 MSTORE PUSH1 0x20 PUSH1 0x4 DUP3 ADD DUP2 SWAP1 MSTORE PUSH1 0x24 DUP3 ADD MSTORE PUSH32 0x4F776E61626C653A2063616C6C6572206973206E6F7420746865206F776E6572 PUSH1 0x44 DUP3 ADD MSTORE SWAP1 MLOAD SWAP1 DUP2 SWAP1 SUB PUSH1 0x64 ADD SWAP1 REVERT JUMPDEST PUSH2 0x15A3 DUP2 PUSH2 0x2CE5 JUMP JUMPDEST PUSH1 0x14 SLOAD DUP2 JUMP JUMPDEST PUSH1 0x19 SLOAD DUP2 JUMP JUMPDEST PUSH20 0x2B2929E785374C651A81A63878AB22742656DCDD SWAP1 JUMP JUMPDEST PUSH1 0xB SLOAD PUSH1 0x40 DUP1 MLOAD PUSH4 0x70A08231 PUSH1 0xE0 SHL DUP2 MSTORE ADDRESS PUSH1 0x4 DUP3 ADD MSTORE SWAP1 MLOAD PUSH1 0x0 SWAP3 PUSH1 0x1 PUSH1 0x1 PUSH1 0xA0 SHL SUB AND SWAP2 PUSH4 0x70A08231 SWAP2 PUSH1 0x24 DUP1 DUP4 ADD SWAP3 PUSH1 0x20 SWAP3 SWAP2 SWAP1 DUP3 SWAP1 SUB ADD DUP2 DUP7 DUP1 EXTCODESIZE ISZERO DUP1 ISZERO PUSH2 0x1C60 JUMPI PUSH1 0x0 DUP1 REVERT JUMPDEST DUP1 ISZERO DUP1 PUSH2 0x2050 JUMPI POP PUSH1 0x40 DUP1 MLOAD PUSH4 0x6EB1769F PUSH1 0xE1 SHL DUP2 MSTORE ADDRESS PUSH1 0x4 DUP3 ADD MSTORE PUSH1 0x1 PUSH1 0x1 PUSH1 0xA0 SHL SUB DUP5 DUP2 AND PUSH1 0x24 DUP4 ADD MSTORE SWAP2 MLOAD SWAP2 DUP6 AND SWAP2 PUSH4 0xDD62ED3E SWAP2 PUSH1 0x44 DUP1 DUP3 ADD SWAP3 PUSH1 0x20 SWAP3 SWAP1 SWAP2 SWAP1 DUP3 SWAP1 SUB ADD DUP2 DUP7 DUP1 EXTCODESIZE ISZERO DUP1 ISZERO PUSH2 0x2022 JUMPI PUSH1 0x0 DUP1 REVERT JUMPDEST POP GAS STATICCALL ISZERO DUP1 ISZERO PUSH2 0x2036 JUMPI RETURNDATASIZE PUSH1 0x0 DUP1 RETURNDATACOPY RETURNDATASIZE PUSH1 0x0 REVERT JUMPDEST POP POP POP POP PUSH1 0x40 MLOAD RETURNDATASIZE PUSH1 0x20 DUP2 LT ISZERO PUSH2 0x204C JUMPI PUSH1 0x0 DUP1 REVERT JUMPDEST POP MLOAD ISZERO JUMPDEST PUSH2 0x208B JUMPI PUSH1 0x40 MLOAD PUSH3 0x461BCD PUSH1 0xE5 SHL DUP2 MSTORE PUSH1 0x4 ADD DUP1 DUP1 PUSH1 0x20 ADD DUP3 DUP2 SUB DUP3 MSTORE PUSH1 0x36 DUP2 MSTORE PUSH1 0x20 ADD DUP1 PUSH2 0x34C0 PUSH1 0x36 SWAP2 CODECOPY PUSH1 0x40 ADD SWAP2 POP POP PUSH1 0x40 MLOAD DUP1 SWAP2 SUB SWAP1 REVERT JUMPDEST PUSH1 0x40 DUP1 MLOAD PUSH1 0x1 PUSH1 0x1 PUSH1 0xA0 SHL SUB DUP5 AND PUSH1 0x24 DUP3 ADD MSTORE PUSH1 0x44 DUP1 DUP3 ADD DUP5 SWAP1 MSTORE DUP3 MLOAD DUP1 DUP4 SUB SWAP1 SWAP2 ADD DUP2 MSTORE PUSH1 0x64 SWAP1 SWAP2 ADD SWAP1 SWAP2 MSTORE PUSH1 0x20 DUP2 ADD DUP1 MLOAD PUSH1 0x1 PUSH1 0x1 PUSH1 0xE0 SHL SUB AND PUSH4 0x95EA7B3 PUSH1 0xE0 SHL OR SWAP1 MSTORE PUSH2 0x1583 SWAP1 DUP5 SWAP1 PUSH2 0x2D86 JUMP JUMPDEST PUSH1 0x0 DUP2 EXTCODEHASH PUSH32 0xC5D2460186F7233C927E7DB2DCC703C0E500B653CA82273B7BFAD8045D85A470 DUP2 ISZERO DUP1 ISZERO SWAP1 PUSH2 0xE9A JUMPI POP EQ ISZERO SWAP3 SWAP2 POP POP JUMP JUMPDEST CALLER SWAP1 JUMP JUMPDEST PUSH1 0x1 PUSH1 0x1 PUSH1 0xA0 SHL SUB DUP4 AND PUSH2 0x215D JUMPI PUSH1 0x40 MLOAD PUSH3 0x461BCD PUSH1 0xE5 SHL DUP2 MSTORE PUSH1 0x4 ADD DUP1 DUP1 PUSH1 0x20 ADD DUP3 DUP2 SUB DUP3 MSTORE PUSH1 0x24 DUP2 MSTORE PUSH1 0x20 ADD DUP1 PUSH2 0x3472 PUSH1 0x24 SWAP2 CODECOPY PUSH1 0x40 ADD SWAP2 POP POP PUSH1 0x40 MLOAD DUP1 SWAP2 SUB SWAP1 REVERT JUMPDEST PUSH1 0x1 PUSH1 0x1 PUSH1 0xA0 SHL SUB DUP3 AND PUSH2 0x21A2 JUMPI PUSH1 0x40 MLOAD PUSH3 0x461BCD PUSH1 0xE5 SHL DUP2 MSTORE PUSH1 0x4 ADD DUP1 DUP1 PUSH1 0x20 ADD DUP3 DUP2 SUB DUP3 MSTORE PUSH1 0x22 DUP2 MSTORE PUSH1 0x20 ADD DUP1 PUSH2 0x339B PUSH1 0x22 SWAP2 CODECOPY PUSH1 0x40 ADD SWAP2 POP POP PUSH1 0x40 MLOAD DUP1 SWAP2 SUB SWAP1 REVERT JUMPDEST PUSH1 0x1 PUSH1 0x1 PUSH1 0xA0 SHL SUB DUP1 DUP5 AND PUSH1 0x0 DUP2 DUP2 MSTORE PUSH1 0x3 PUSH1 0x20 SWAP1 DUP2 MSTORE PUSH1 0x40 DUP1 DUP4 KECCAK256 SWAP5 DUP8 AND DUP1 DUP5 MSTORE SWAP5 DUP3 MSTORE SWAP2 DUP3 SWAP1 KECCAK256 DUP6 SWAP1 SSTORE DUP2 MLOAD DUP6 DUP2 MSTORE SWAP2 MLOAD PUSH32 0x8C5BE1E5EBEC7D5BD14F71427D1E84F3DD0314C0F7B2291E5B200AC8C7C3B925 SWAP3 DUP2 SWAP1 SUB SWAP1 SWAP2 ADD SWAP1 LOG3 POP POP POP JUMP JUMPDEST PUSH1 0x0 DUP3 PUSH2 0x2213 JUMPI POP PUSH1 0x0 PUSH2 0x9D9 JUMP JUMPDEST DUP3 DUP3 MUL DUP3 DUP5 DUP3 DUP2 PUSH2 0x2220 JUMPI INVALID JUMPDEST DIV EQ PUSH2 0x225D JUMPI PUSH1 0x40 MLOAD PUSH3 0x461BCD PUSH1 0xE5 SHL DUP2 MSTORE PUSH1 0x4 ADD DUP1 DUP1 PUSH1 0x20 ADD DUP3 DUP2 SUB DUP3 MSTORE PUSH1 0x21 DUP2 MSTORE PUSH1 0x20 ADD DUP1 PUSH2 0x33E3 PUSH1 0x21 SWAP2 CODECOPY PUSH1 0x40 ADD SWAP2 POP POP PUSH1 0x40 MLOAD DUP1 SWAP2 SUB SWAP1 REVERT JUMPDEST SWAP4 SWAP3 POP POP POP JUMP JUMPDEST PUSH1 0x0 PUSH2 0x225D DUP4 DUP4 PUSH1 0x40 MLOAD DUP1 PUSH1 0x40 ADD PUSH1 0x40 MSTORE DUP1 PUSH1 0x1A DUP2 MSTORE PUSH1 0x20 ADD PUSH32 0x536166654D6174683A206469766973696F6E206279207A65726F000000000000 DUP2 MSTORE POP PUSH2 0x2F3E JUMP JUMPDEST PUSH1 0x1 PUSH1 0x1 PUSH1 0xA0 SHL SUB DUP4 AND PUSH2 0x22EB JUMPI PUSH1 0x40 MLOAD PUSH3 0x461BCD PUSH1 0xE5 SHL DUP2 MSTORE PUSH1 0x4 ADD DUP1 DUP1 PUSH1 0x20 ADD DUP3 DUP2 SUB DUP3 MSTORE PUSH1 0x25 DUP2 MSTORE PUSH1 0x20 ADD DUP1 PUSH2 0x344D PUSH1 0x25 SWAP2 CODECOPY PUSH1 0x40 ADD SWAP2 POP POP PUSH1 0x40 MLOAD DUP1 SWAP2 SUB SWAP1 REVERT JUMPDEST PUSH1 0x1 PUSH1 0x1 PUSH1 0xA0 SHL SUB DUP3 AND PUSH2 0x2330 JUMPI PUSH1 0x40 MLOAD PUSH3 0x461BCD PUSH1 0xE5 SHL DUP2 MSTORE PUSH1 0x4 ADD DUP1 DUP1 PUSH1 0x20 ADD DUP3 DUP2 SUB DUP3 MSTORE PUSH1 0x23 DUP2 MSTORE PUSH1 0x20 ADD DUP1 PUSH2 0x3330 PUSH1 0x23 SWAP2 CODECOPY PUSH1 0x40 ADD SWAP2 POP POP PUSH1 0x40 MLOAD DUP1 SWAP2 SUB SWAP1 REVERT JUMPDEST PUSH2 0x236D DUP2 PUSH1 0x40 MLOAD DUP1 PUSH1 0x60 ADD PUSH1 0x40 MSTORE DUP1 PUSH1 0x26 DUP2 MSTORE PUSH1 0x20 ADD PUSH2 0x33BD PUSH1 0x26 SWAP2 CODECOPY PUSH1 0x1 PUSH1 0x1 PUSH1 0xA0 SHL SUB DUP7 AND PUSH1 0x0 SWAP1 DUP2 MSTORE PUSH1 0x2 PUSH1 0x20 MSTORE PUSH1 0x40 SWAP1 KECCAK256 SLOAD SWAP2 SWAP1 PUSH2 0x23F8 JUMP JUMPDEST PUSH1 0x1 PUSH1 0x1 PUSH1 0xA0 SHL SUB DUP1 DUP6 AND PUSH1 0x0 SWAP1 DUP2 MSTORE PUSH1 0x2 PUSH1 0x20 MSTORE PUSH1 0x40 DUP1 DUP3 KECCAK256 SWAP4 SWAP1 SWAP4 SSTORE SWAP1 DUP5 AND DUP2 MSTORE KECCAK256 SLOAD PUSH2 0x239C SWAP1 DUP3 PUSH2 0x26C3 JUMP JUMPDEST PUSH1 0x1 PUSH1 0x1 PUSH1 0xA0 SHL SUB DUP1 DUP5 AND PUSH1 0x0 DUP2 DUP2 MSTORE PUSH1 0x2 PUSH1 0x20 SWAP1 DUP2 MSTORE PUSH1 0x40 SWAP2 DUP3 SWAP1 KECCAK256 SWAP5 SWAP1 SWAP5 SSTORE DUP1 MLOAD DUP6 DUP2 MSTORE SWAP1 MLOAD SWAP2 SWAP4 SWAP3 DUP8 AND SWAP3 PUSH32 0xDDF252AD1BE2C89B69C2B068FC378DAA952BA7F163C4A11628F55A4DF523B3EF SWAP3 SWAP2 DUP3 SWAP1 SUB ADD SWAP1 LOG3 POP POP POP JUMP JUMPDEST PUSH1 0x0 DUP2 DUP5 DUP5 GT ISZERO PUSH2 0x2487 JUMPI PUSH1 0x40 MLOAD PUSH3 0x461BCD PUSH1 0xE5 SHL DUP2 MSTORE PUSH1 0x4 ADD DUP1 DUP1 PUSH1 0x20 ADD DUP3 DUP2 SUB DUP3 MSTORE DUP4 DUP2 DUP2 MLOAD DUP2 MSTORE PUSH1 0x20 ADD SWAP2 POP DUP1 MLOAD SWAP1 PUSH1 0x20 ADD SWAP1 DUP1 DUP4 DUP4 PUSH1 0x0 JUMPDEST DUP4 DUP2 LT ISZERO PUSH2 0x244C JUMPI DUP2 DUP2 ADD MLOAD DUP4 DUP3 ADD MSTORE PUSH1 0x20 ADD PUSH2 0x2434 JUMP JUMPDEST POP POP POP POP SWAP1 POP SWAP1 DUP2 ADD SWAP1 PUSH1 0x1F AND DUP1 ISZERO PUSH2 0x2479 JUMPI DUP1 DUP3 SUB DUP1 MLOAD PUSH1 0x1 DUP4 PUSH1 0x20 SUB PUSH2 0x100 EXP SUB NOT AND DUP2 MSTORE PUSH1 0x20 ADD SWAP2 POP JUMPDEST POP SWAP3 POP POP POP PUSH1 0x40 MLOAD DUP1 SWAP2 SUB SWAP1 REVERT JUMPDEST POP POP POP SWAP1 SUB SWAP1 JUMP JUMPDEST PUSH1 0x0 PUSH2 0x2499 PUSH2 0x197C JUMP JUMPDEST PUSH1 0x1 PUSH1 0x1 PUSH1 0xA0 SHL SUB AND PUSH4 0x95DD9193 DUP4 PUSH1 0x40 MLOAD DUP3 PUSH4 0xFFFFFFFF AND PUSH1 0xE0 SHL DUP2 MSTORE PUSH1 0x4 ADD DUP1 DUP3 PUSH1 0x1 PUSH1 0x1 PUSH1 0xA0 SHL SUB AND DUP2 MSTORE PUSH1 0x20 ADD SWAP2 POP POP PUSH1 0x20 PUSH1 0x40 MLOAD DUP1 DUP4 SUB DUP2 DUP7 DUP1 EXTCODESIZE ISZERO DUP1 ISZERO PUSH2 0x24E5 JUMPI PUSH1 0x0 DUP1 REVERT JUMPDEST POP GAS STATICCALL ISZERO DUP1 ISZERO PUSH2 0x24F9 JUMPI RETURNDATASIZE PUSH1 0x0 DUP1 RETURNDATACOPY RETURNDATASIZE PUSH1 0x0 REVERT JUMPDEST POP POP POP POP PUSH1 0x40 MLOAD RETURNDATASIZE PUSH1 0x20 DUP2 LT ISZERO PUSH2 0x250F JUMPI PUSH1 0x0 DUP1 REVERT JUMPDEST POP MLOAD SWAP3 SWAP2 POP POP JUMP JUMPDEST PUSH1 0x1 PUSH1 0x1 PUSH1 0xA0 SHL SUB DUP3 AND PUSH2 0x255C JUMPI PUSH1 0x40 MLOAD PUSH3 0x461BCD PUSH1 0xE5 SHL DUP2 MSTORE PUSH1 0x4 ADD DUP1 DUP1 PUSH1 0x20 ADD DUP3 DUP2 SUB DUP3 MSTORE PUSH1 0x21 DUP2 MSTORE PUSH1 0x20 ADD DUP1 PUSH2 0x342C PUSH1 0x21 SWAP2 CODECOPY PUSH1 0x40 ADD SWAP2 POP POP PUSH1 0x40 MLOAD DUP1 SWAP2 SUB SWAP1 REVERT JUMPDEST PUSH2 0x2599 DUP2 PUSH1 0x40 MLOAD DUP1 PUSH1 0x60 ADD PUSH1 0x40 MSTORE DUP1 PUSH1 0x22 DUP2 MSTORE PUSH1 0x20 ADD PUSH2 0x3353 PUSH1 0x22 SWAP2 CODECOPY PUSH1 0x1 PUSH1 0x1 PUSH1 0xA0 SHL SUB DUP6 AND PUSH1 0x0 SWAP1 DUP2 MSTORE PUSH1 0x2 PUSH1 0x20 MSTORE PUSH1 0x40 SWAP1 KECCAK256 SLOAD SWAP2 SWAP1 PUSH2 0x23F8 JUMP JUMPDEST PUSH1 0x1 PUSH1 0x1 PUSH1 0xA0 SHL SUB DUP4 AND PUSH1 0x0 SWAP1 DUP2 MSTORE PUSH1 0x2 PUSH1 0x20 MSTORE PUSH1 0x40 SWAP1 KECCAK256 SSTORE PUSH1 0x4 SLOAD PUSH2 0x25BF SWAP1 DUP3 PUSH2 0x2626 JUMP JUMPDEST PUSH1 0x4 SSTORE PUSH1 0x40 DUP1 MLOAD DUP3 DUP2 MSTORE SWAP1 MLOAD PUSH1 0x0 SWAP2 PUSH1 0x1 PUSH1 0x1 PUSH1 0xA0 SHL SUB DUP6 AND SWAP2 PUSH32 0xDDF252AD1BE2C89B69C2B068FC378DAA952BA7F163C4A11628F55A4DF523B3EF SWAP2 DUP2 SWAP1 SUB PUSH1 0x20 ADD SWAP1 LOG3 POP POP JUMP JUMPDEST PUSH1 0x0 DUP1 PUSH2 0x225D PUSH3 0xF4240 PUSH2 0xA7C PUSH1 0x18 SLOAD DUP7 PUSH2 0x2204 SWAP1 SWAP2 SWAP1 PUSH4 0xFFFFFFFF AND JUMP JUMPDEST PUSH1 0x0 PUSH2 0x225D DUP4 DUP4 PUSH1 0x40 MLOAD DUP1 PUSH1 0x40 ADD PUSH1 0x40 MSTORE DUP1 PUSH1 0x1E DUP2 MSTORE PUSH1 0x20 ADD PUSH32 0x536166654D6174683A207375627472616374696F6E206F766572666C6F770000 DUP2 MSTORE POP PUSH2 0x23F8 JUMP JUMPDEST PUSH2 0x15A3 DUP2 PUSH2 0x2FA3 JUMP JUMPDEST PUSH1 0x40 DUP1 MLOAD PUSH1 0x1 PUSH1 0x1 PUSH1 0xA0 SHL SUB DUP5 AND PUSH1 0x24 DUP3 ADD MSTORE PUSH1 0x44 DUP1 DUP3 ADD DUP5 SWAP1 MSTORE DUP3 MLOAD DUP1 DUP4 SUB SWAP1 SWAP2 ADD DUP2 MSTORE PUSH1 0x64 SWAP1 SWAP2 ADD SWAP1 SWAP2 MSTORE PUSH1 0x20 DUP2 ADD DUP1 MLOAD PUSH1 0x1 PUSH1 0x1 PUSH1 0xE0 SHL SUB AND PUSH4 0xA9059CBB PUSH1 0xE0 SHL OR SWAP1 MSTORE PUSH2 0x1583 SWAP1 DUP5 SWAP1 PUSH2 0x2D86 JUMP JUMPDEST PUSH1 0x0 DUP3 DUP3 ADD DUP4 DUP2 LT ISZERO PUSH2 0x225D JUMPI PUSH1 0x40 DUP1 MLOAD PUSH3 0x461BCD PUSH1 0xE5 SHL DUP2 MSTORE PUSH1 0x20 PUSH1 0x4 DUP3 ADD MSTORE PUSH1 0x1B PUSH1 0x24 DUP3 ADD MSTORE PUSH32 0x536166654D6174683A206164646974696F6E206F766572666C6F770000000000 PUSH1 0x44 DUP3 ADD MSTORE SWAP1 MLOAD SWAP1 DUP2 SWAP1 SUB PUSH1 0x64 ADD SWAP1 REVERT JUMPDEST PUSH1 0xB SLOAD PUSH1 0xC SLOAD PUSH1 0x40 DUP1 MLOAD PUSH4 0x70A08231 PUSH1 0xE0 SHL DUP2 MSTORE PUSH1 0x1 PUSH1 0x1 PUSH1 0xA0 SHL SUB SWAP3 DUP4 AND PUSH1 0x4 DUP3 ADD MSTORE SWAP1 MLOAD PUSH1 0x0 SWAP4 DUP5 SWAP4 AND SWAP2 PUSH4 0x70A08231 SWAP2 PUSH1 0x24 DUP1 DUP4 ADD SWAP3 PUSH1 0x20 SWAP3 SWAP2 SWAP1 DUP3 SWAP1 SUB ADD DUP2 DUP7 DUP1 EXTCODESIZE ISZERO DUP1 ISZERO PUSH2 0xF38 JUMPI PUSH1 0x0 DUP1 REVERT JUMPDEST PUSH1 0x0 PUSH2 0x2786 PUSH1 0x17 SLOAD TIMESTAMP PUSH2 0x2626 SWAP1 SWAP2 SWAP1 PUSH4 0xFFFFFFFF AND JUMP JUMPDEST SWAP1 POP PUSH1 0x0 PUSH2 0x279E PUSH1 0x3C PUSH2 0x138A DUP2 DUP2 PUSH2 0x16D PUSH1 0x18 PUSH2 0x2204 JUMP JUMPDEST SWAP1 POP PUSH1 0x0 PUSH2 0x27C5 DUP3 PUSH2 0xA7C PUSH3 0xF4240 PUSH2 0xA7C PUSH2 0x27B8 PUSH2 0xA8A JUMP JUMPDEST PUSH1 0x16 SLOAD PUSH2 0x138A SWAP1 DUP11 PUSH2 0x2204 JUMP JUMPDEST SWAP1 POP PUSH2 0x27D8 PUSH2 0x27D2 PUSH2 0x15FE JUMP JUMPDEST DUP3 PUSH2 0x2B6E JUMP JUMPDEST POP POP TIMESTAMP PUSH1 0x17 SSTORE POP JUMP JUMPDEST PUSH2 0x15A3 DUP2 PUSH2 0x3006 JUMP JUMPDEST PUSH1 0x0 PUSH2 0x27F4 PUSH2 0x271D JUMP JUMPDEST SWAP1 POP PUSH1 0x0 PUSH2 0x2800 PUSH2 0x15A6 JUMP JUMPDEST SWAP1 POP PUSH1 0x0 PUSH2 0x2828 PUSH3 0xF4240 PUSH2 0xA7C DUP5 PUSH2 0xA7C PUSH1 0x8 SLOAD PUSH2 0x138A DUP10 DUP12 PUSH2 0x2204 SWAP1 SWAP2 SWAP1 PUSH4 0xFFFFFFFF AND JUMP JUMPDEST SWAP1 POP PUSH2 0x2841 DUP5 DUP3 PUSH2 0x2837 PUSH2 0x3067 JUMP JUMPDEST ADDRESS TIMESTAMP PUSH1 0x78 ADD PUSH2 0x30ED JUMP JUMPDEST POP POP POP POP JUMP JUMPDEST PUSH1 0xB SLOAD PUSH1 0x40 DUP1 MLOAD PUSH4 0x70A08231 PUSH1 0xE0 SHL DUP2 MSTORE ADDRESS PUSH1 0x4 DUP3 ADD MSTORE SWAP1 MLOAD PUSH1 0x0 SWAP3 PUSH1 0x1 PUSH1 0x1 PUSH1 0xA0 SHL SUB AND SWAP2 PUSH4 0x70A08231 SWAP2 PUSH1 0x24 DUP1 DUP4 ADD SWAP3 PUSH1 0x20 SWAP3 SWAP2 SWAP1 DUP3 SWAP1 SUB ADD DUP2 DUP7 DUP1 EXTCODESIZE ISZERO DUP1 ISZERO PUSH2 0x2892 JUMPI PUSH1 0x0 DUP1 REVERT JUMPDEST POP GAS STATICCALL ISZERO DUP1 ISZERO PUSH2 0x28A6 JUMPI RETURNDATASIZE PUSH1 0x0 DUP1 RETURNDATACOPY RETURNDATASIZE PUSH1 0x0 REVERT JUMPDEST POP POP POP POP PUSH1 0x40 MLOAD RETURNDATASIZE PUSH1 0x20 DUP2 LT ISZERO PUSH2 0x28BC JUMPI PUSH1 0x0 DUP1 REVERT JUMPDEST POP MLOAD SWAP1 POP DUP1 PUSH2 0x28CB JUMPI POP PUSH2 0xE05 JUMP JUMPDEST PUSH1 0x0 PUSH2 0x28D6 ADDRESS PUSH2 0x248F JUMP JUMPDEST SWAP1 POP DUP1 DUP3 LT ISZERO PUSH2 0x28EE JUMPI PUSH2 0x28E9 DUP3 PUSH2 0x31C0 JUMP JUMPDEST PUSH2 0xD33 JUMP JUMPDEST PUSH2 0xD33 DUP2 PUSH2 0x31C0 JUMP JUMPDEST PUSH1 0x0 DUP1 PUSH2 0x2902 PUSH2 0x271D JUMP JUMPDEST SWAP1 POP PUSH1 0x0 PUSH2 0x290E PUSH2 0x15A6 JUMP JUMPDEST SWAP1 POP PUSH1 0x0 PUSH2 0x2920 DUP3 PUSH2 0xA7C DUP8 DUP7 PUSH2 0x2204 JUMP JUMPDEST SWAP1 POP PUSH2 0xE9A DUP2 PUSH2 0x320D JUMP JUMPDEST PUSH1 0x0 PUSH2 0x2935 PUSH2 0x271D JUMP JUMPDEST SWAP1 POP PUSH1 0x0 PUSH2 0x2941 PUSH2 0x15A6 JUMP JUMPDEST SWAP1 POP PUSH1 0x0 PUSH2 0x2969 DUP4 PUSH2 0xA7C PUSH3 0xF4240 PUSH2 0xA7C PUSH1 0x8 SLOAD PUSH2 0x138A DUP9 DUP12 PUSH2 0x2204 SWAP1 SWAP2 SWAP1 PUSH4 0xFFFFFFFF AND JUMP JUMPDEST SWAP1 POP PUSH2 0x2841 DUP5 DUP3 PUSH2 0x2837 PUSH2 0x3216 JUMP JUMPDEST PUSH2 0x15A3 DUP2 PUSH2 0x327F JUMP JUMPDEST PUSH1 0x0 PUSH2 0x298B PUSH2 0xE5B JUMP JUMPDEST PUSH1 0x1 PUSH1 0x1 PUSH1 0xA0 SHL SUB AND PUSH4 0x182DF0F5 PUSH1 0x40 MLOAD DUP2 PUSH4 0xFFFFFFFF AND PUSH1 0xE0 SHL DUP2 MSTORE PUSH1 0x4 ADD PUSH1 0x20 PUSH1 0x40 MLOAD DUP1 DUP4 SUB DUP2 DUP7 DUP1 EXTCODESIZE ISZERO DUP1 ISZERO PUSH2 0x1C60 JUMPI PUSH1 0x0 DUP1 REVERT JUMPDEST PUSH1 0x5 PUSH1 0x0 DUP1 JUMPDEST DUP3 DUP2 LT ISZERO PUSH2 0x2ADF JUMPI PUSH1 0xA SLOAD PUSH1 0x40 DUP1 MLOAD PUSH4 0x70A08231 PUSH1 0xE0 SHL DUP2 MSTORE ADDRESS PUSH1 0x4 DUP3 ADD MSTORE SWAP1 MLOAD PUSH1 0x0 SWAP3 PUSH1 0x1 PUSH1 0x1 PUSH1 0xA0 SHL SUB AND SWAP2 PUSH4 0x70A08231 SWAP2 PUSH1 0x24 DUP1 DUP4 ADD SWAP3 PUSH1 0x20 SWAP3 SWAP2 SWAP1 DUP3 SWAP1 SUB ADD DUP2 DUP7 DUP1 EXTCODESIZE ISZERO DUP1 ISZERO PUSH2 0x2A1C JUMPI PUSH1 0x0 DUP1 REVERT JUMPDEST POP GAS STATICCALL ISZERO DUP1 ISZERO PUSH2 0x2A30 JUMPI RETURNDATASIZE PUSH1 0x0 DUP1 RETURNDATACOPY RETURNDATASIZE PUSH1 0x0 REVERT JUMPDEST POP POP POP POP PUSH1 0x40 MLOAD RETURNDATASIZE PUSH1 0x20 DUP2 LT ISZERO PUSH2 0x2A46 JUMPI PUSH1 0x0 DUP1 REVERT JUMPDEST POP MLOAD SWAP1 POP PUSH2 0x2A54 DUP2 DUP7 PUSH2 0x2626 JUMP JUMPDEST SWAP3 POP PUSH2 0x2A5F DUP4 PUSH2 0x2978 JUMP JUMPDEST PUSH1 0x0 PUSH2 0x2A7D PUSH3 0xF4240 PUSH2 0xA7C PUSH1 0x1B SLOAD DUP8 PUSH2 0x2204 SWAP1 SWAP2 SWAP1 PUSH4 0xFFFFFFFF AND JUMP JUMPDEST SWAP1 POP PUSH2 0x2A88 DUP2 PUSH2 0x28F7 JUMP JUMPDEST POP PUSH1 0xB SLOAD PUSH1 0x40 DUP1 MLOAD PUSH4 0x70A08231 PUSH1 0xE0 SHL DUP2 MSTORE ADDRESS PUSH1 0x4 DUP3 ADD MSTORE SWAP1 MLOAD PUSH2 0x2AD5 SWAP3 PUSH1 0x1 PUSH1 0x1 PUSH1 0xA0 SHL SUB AND SWAP2 PUSH4 0x70A08231 SWAP2 PUSH1 0x24 DUP1 DUP4 ADD SWAP3 PUSH1 0x20 SWAP3 SWAP2 SWAP1 DUP3 SWAP1 SUB ADD DUP2 DUP7 DUP1 EXTCODESIZE ISZERO DUP1 ISZERO PUSH2 0x1446 JUMPI PUSH1 0x0 DUP1 REVERT JUMPDEST POP POP PUSH1 0x1 ADD PUSH2 0x29C9 JUMP JUMPDEST POP PUSH1 0xA SLOAD PUSH1 0x40 DUP1 MLOAD PUSH4 0x70A08231 PUSH1 0xE0 SHL DUP2 MSTORE ADDRESS PUSH1 0x4 DUP3 ADD MSTORE SWAP1 MLOAD PUSH1 0x0 SWAP3 PUSH1 0x1 PUSH1 0x1 PUSH1 0xA0 SHL SUB AND SWAP2 PUSH4 0x70A08231 SWAP2 PUSH1 0x24 DUP1 DUP4 ADD SWAP3 PUSH1 0x20 SWAP3 SWAP2 SWAP1 DUP3 SWAP1 SUB ADD DUP2 DUP7 DUP1 EXTCODESIZE ISZERO DUP1 ISZERO PUSH2 0x2B2B JUMPI PUSH1 0x0 DUP1 REVERT JUMPDEST POP GAS STATICCALL ISZERO DUP1 ISZERO PUSH2 0x2B3F JUMPI RETURNDATASIZE PUSH1 0x0 DUP1 RETURNDATACOPY RETURNDATASIZE PUSH1 0x0 REVERT JUMPDEST POP POP POP POP PUSH1 0x40 MLOAD RETURNDATASIZE PUSH1 0x20 DUP2 LT ISZERO PUSH2 0x2B55 JUMPI PUSH1 0x0 DUP1 REVERT JUMPDEST POP MLOAD SWAP1 POP PUSH2 0x2B63 DUP2 DUP6 PUSH2 0x2626 JUMP JUMPDEST SWAP2 POP PUSH2 0x2841 DUP3 PUSH2 0x2978 JUMP JUMPDEST PUSH1 0x1 PUSH1 0x1 PUSH1 0xA0 SHL SUB DUP3 AND PUSH2 0x2BC9 JUMPI PUSH1 0x40 DUP1 MLOAD PUSH3 0x461BCD PUSH1 0xE5 SHL DUP2 MSTORE PUSH1 0x20 PUSH1 0x4 DUP3 ADD MSTORE PUSH1 0x1F PUSH1 0x24 DUP3 ADD MSTORE PUSH32 0x45524332303A206D696E7420746F20746865207A65726F206164647265737300 PUSH1 0x44 DUP3 ADD MSTORE SWAP1 MLOAD SWAP1 DUP2 SWAP1 SUB PUSH1 0x64 ADD SWAP1 REVERT JUMPDEST PUSH1 0x4 SLOAD PUSH2 0x2BD6 SWAP1 DUP3 PUSH2 0x26C3 JUMP JUMPDEST PUSH1 0x4 SSTORE PUSH1 0x1 PUSH1 0x1 PUSH1 0xA0 SHL SUB DUP3 AND PUSH1 0x0 SWAP1 DUP2 MSTORE PUSH1 0x2 PUSH1 0x20 MSTORE PUSH1 0x40 SWAP1 KECCAK256 SLOAD PUSH2 0x2BFC SWAP1 DUP3 PUSH2 0x26C3 JUMP JUMPDEST PUSH1 0x1 PUSH1 0x1 PUSH1 0xA0 SHL SUB DUP4 AND PUSH1 0x0 DUP2 DUP2 MSTORE PUSH1 0x2 PUSH1 0x20 SWAP1 DUP2 MSTORE PUSH1 0x40 DUP1 DUP4 KECCAK256 SWAP5 SWAP1 SWAP5 SSTORE DUP4 MLOAD DUP6 DUP2 MSTORE SWAP4 MLOAD SWAP3 SWAP4 SWAP2 SWAP3 PUSH32 0xDDF252AD1BE2C89B69C2B068FC378DAA952BA7F163C4A11628F55A4DF523B3EF SWAP3 DUP2 SWAP1 SUB SWAP1 SWAP2 ADD SWAP1 LOG3 POP POP JUMP JUMPDEST PUSH1 0x0 PUSH2 0x2C5E PUSH2 0x1F67 JUMP JUMPDEST PUSH1 0x1 PUSH1 0x1 PUSH1 0xA0 SHL SUB AND PUSH4 0x93F1A40B DUP5 DUP5 PUSH1 0x40 MLOAD DUP4 PUSH4 0xFFFFFFFF AND PUSH1 0xE0 SHL DUP2 MSTORE PUSH1 0x4 ADD DUP1 DUP4 DUP2 MSTORE PUSH1 0x20 ADD DUP3 PUSH1 0x1 PUSH1 0x1 PUSH1 0xA0 SHL SUB AND DUP2 MSTORE PUSH1 0x20 ADD SWAP3 POP POP POP PUSH1 0x20 PUSH1 0x40 MLOAD DUP1 DUP4 SUB DUP2 DUP7 DUP1 EXTCODESIZE ISZERO DUP1 ISZERO PUSH2 0x2CB2 JUMPI PUSH1 0x0 DUP1 REVERT JUMPDEST POP GAS STATICCALL ISZERO DUP1 ISZERO PUSH2 0x2CC6 JUMPI RETURNDATASIZE PUSH1 0x0 DUP1 RETURNDATACOPY RETURNDATASIZE PUSH1 0x0 REVERT JUMPDEST POP POP POP POP PUSH1 0x40 MLOAD RETURNDATASIZE PUSH1 0x20 DUP2 LT ISZERO PUSH2 0x2CDC JUMPI PUSH1 0x0 DUP1 REVERT JUMPDEST POP MLOAD SWAP4 SWAP3 POP POP POP JUMP JUMPDEST PUSH1 0x1 PUSH1 0x1 PUSH1 0xA0 SHL SUB DUP2 AND PUSH2 0x2D2A JUMPI PUSH1 0x40 MLOAD PUSH3 0x461BCD PUSH1 0xE5 SHL DUP2 MSTORE PUSH1 0x4 ADD DUP1 DUP1 PUSH1 0x20 ADD DUP3 DUP2 SUB DUP3 MSTORE PUSH1 0x26 DUP2 MSTORE PUSH1 0x20 ADD DUP1 PUSH2 0x3375 PUSH1 0x26 SWAP2 CODECOPY PUSH1 0x40 ADD SWAP2 POP POP PUSH1 0x40 MLOAD DUP1 SWAP2 SUB SWAP1 REVERT JUMPDEST PUSH1 0x1 SLOAD PUSH1 0x40 MLOAD PUSH1 0x1 PUSH1 0x1 PUSH1 0xA0 SHL SUB DUP1 DUP5 AND SWAP3 AND SWAP1 PUSH32 0x8BE0079C531659141344CD1FD0A4F28419497F9722A3DAAFE3B4186F6B6457E0 SWAP1 PUSH1 0x0 SWAP1 LOG3 PUSH1 0x1 DUP1 SLOAD PUSH1 0x1 PUSH1 0x1 PUSH1 0xA0 SHL SUB NOT AND PUSH1 0x1 PUSH1 0x1 PUSH1 0xA0 SHL SUB SWAP3 SWAP1 SWAP3 AND SWAP2 SWAP1 SWAP2 OR SWAP1 SSTORE JUMP JUMPDEST PUSH2 0x2D98 DUP3 PUSH1 0x1 PUSH1 0x1 PUSH1 0xA0 SHL SUB AND PUSH2 0x20DD JUMP JUMPDEST PUSH2 0x2DE9 JUMPI PUSH1 0x40 DUP1 MLOAD PUSH3 0x461BCD PUSH1 0xE5 SHL DUP2 MSTORE PUSH1 0x20 PUSH1 0x4 DUP3 ADD MSTORE PUSH1 0x1F PUSH1 0x24 DUP3 ADD MSTORE PUSH32 0x5361666545524332303A2063616C6C20746F206E6F6E2D636F6E747261637400 PUSH1 0x44 DUP3 ADD MSTORE SWAP1 MLOAD SWAP1 DUP2 SWAP1 SUB PUSH1 0x64 ADD SWAP1 REVERT JUMPDEST PUSH1 0x0 PUSH1 0x60 DUP4 PUSH1 0x1 PUSH1 0x1 PUSH1 0xA0 SHL SUB AND DUP4 PUSH1 0x40 MLOAD DUP1 DUP3 DUP1 MLOAD SWAP1 PUSH1 0x20 ADD SWAP1 DUP1 DUP4 DUP4 JUMPDEST PUSH1 0x20 DUP4 LT PUSH2 0x2E27 JUMPI DUP1 MLOAD DUP3 MSTORE PUSH1 0x1F NOT SWAP1 SWAP3 ADD SWAP2 PUSH1 0x20 SWAP2 DUP3 ADD SWAP2 ADD PUSH2 0x2E08 JUMP JUMPDEST PUSH1 0x1 DUP4 PUSH1 0x20 SUB PUSH2 0x100 EXP SUB DUP1 NOT DUP3 MLOAD AND DUP2 DUP5 MLOAD AND DUP1 DUP3 OR DUP6 MSTORE POP POP POP POP POP POP SWAP1 POP ADD SWAP2 POP POP PUSH1 0x0 PUSH1 0x40 MLOAD DUP1 DUP4 SUB DUP2 PUSH1 0x0 DUP7 GAS CALL SWAP2 POP POP RETURNDATASIZE DUP1 PUSH1 0x0 DUP2 EQ PUSH2 0x2E89 JUMPI PUSH1 0x40 MLOAD SWAP2 POP PUSH1 0x1F NOT PUSH1 0x3F RETURNDATASIZE ADD AND DUP3 ADD PUSH1 0x40 MSTORE RETURNDATASIZE DUP3 MSTORE RETURNDATASIZE PUSH1 0x0 PUSH1 0x20 DUP5 ADD RETURNDATACOPY PUSH2 0x2E8E JUMP JUMPDEST PUSH1 0x60 SWAP2 POP JUMPDEST POP SWAP2 POP SWAP2 POP DUP2 PUSH2 0x2EE5 JUMPI PUSH1 0x40 DUP1 MLOAD PUSH3 0x461BCD PUSH1 0xE5 SHL DUP2 MSTORE PUSH1 0x20 PUSH1 0x4 DUP3 ADD DUP2 SWAP1 MSTORE PUSH1 0x24 DUP3 ADD MSTORE PUSH32 0x5361666545524332303A206C6F772D6C6576656C2063616C6C206661696C6564 PUSH1 0x44 DUP3 ADD MSTORE SWAP1 MLOAD SWAP1 DUP2 SWAP1 SUB PUSH1 0x64 ADD SWAP1 REVERT JUMPDEST DUP1 MLOAD ISZERO PUSH2 0x2841 JUMPI DUP1 DUP1 PUSH1 0x20 ADD SWAP1 MLOAD PUSH1 0x20 DUP2 LT ISZERO PUSH2 0x2F01 JUMPI PUSH1 0x0 DUP1 REVERT JUMPDEST POP MLOAD PUSH2 0x2841 JUMPI PUSH1 0x40 MLOAD PUSH3 0x461BCD PUSH1 0xE5 SHL DUP2 MSTORE PUSH1 0x4 ADD DUP1 DUP1 PUSH1 0x20 ADD DUP3 DUP2 SUB DUP3 MSTORE PUSH1 0x2A DUP2 MSTORE PUSH1 0x20 ADD DUP1 PUSH2 0x3496 PUSH1 0x2A SWAP2 CODECOPY PUSH1 0x40 ADD SWAP2 POP POP PUSH1 0x40 MLOAD DUP1 SWAP2 SUB SWAP1 REVERT JUMPDEST PUSH1 0x0 DUP2 DUP4 PUSH2 0x2F8D JUMPI PUSH1 0x40 MLOAD PUSH3 0x461BCD PUSH1 0xE5 SHL DUP2 MSTORE PUSH1 0x20 PUSH1 0x4 DUP3 ADD DUP2 DUP2 MSTORE DUP4 MLOAD PUSH1 0x24 DUP5 ADD MSTORE DUP4 MLOAD SWAP1 SWAP3 DUP4 SWAP3 PUSH1 0x44 SWAP1 SWAP2 ADD SWAP2 SWAP1 DUP6 ADD SWAP1 DUP1 DUP4 DUP4 PUSH1 0x0 DUP4 ISZERO PUSH2 0x244C JUMPI DUP2 DUP2 ADD MLOAD DUP4 DUP3 ADD MSTORE PUSH1 0x20 ADD PUSH2 0x2434 JUMP JUMPDEST POP PUSH1 0x0 DUP4 DUP6 DUP2 PUSH2 0x2F99 JUMPI INVALID JUMPDEST DIV SWAP6 SWAP5 POP POP POP POP POP JUMP JUMPDEST PUSH1 0x0 PUSH1 0xA DUP2 JUMPDEST DUP2 DUP2 LT ISZERO PUSH2 0x2841 JUMPI DUP3 PUSH2 0x2FFE JUMPI PUSH1 0x0 PUSH2 0x2FC3 PUSH2 0x1367 PUSH2 0x1D32 JUMP JUMPDEST SWAP1 POP DUP5 DUP2 LT PUSH2 0x2FDA JUMPI PUSH2 0x2FD5 DUP6 PUSH2 0x27E1 JUMP JUMPDEST PUSH1 0x1 SWAP4 POP JUMPDEST DUP5 DUP2 LT ISZERO PUSH2 0x2FFC JUMPI PUSH2 0x2FEB DUP2 PUSH2 0x27E1 JUMP JUMPDEST PUSH2 0x2FF4 DUP2 PUSH2 0x27EA JUMP JUMPDEST PUSH2 0x2FFC PUSH2 0x2847 JUMP JUMPDEST POP JUMPDEST PUSH1 0x1 ADD PUSH2 0x2FA9 JUMP JUMPDEST PUSH2 0x300E PUSH2 0xE5B JUMP JUMPDEST PUSH1 0x1 PUSH1 0x1 PUSH1 0xA0 SHL SUB AND PUSH4 0x852A12E3 DUP3 PUSH1 0x40 MLOAD DUP3 PUSH4 0xFFFFFFFF AND PUSH1 0xE0 SHL DUP2 MSTORE PUSH1 0x4 ADD DUP1 DUP3 DUP2 MSTORE PUSH1 0x20 ADD SWAP2 POP POP PUSH1 0x0 PUSH1 0x40 MLOAD DUP1 DUP4 SUB DUP2 PUSH1 0x0 DUP8 DUP1 EXTCODESIZE ISZERO DUP1 ISZERO PUSH2 0x3053 JUMPI PUSH1 0x0 DUP1 REVERT JUMPDEST POP GAS CALL ISZERO DUP1 ISZERO PUSH2 0x1580 JUMPI RETURNDATASIZE PUSH1 0x0 DUP1 RETURNDATACOPY RETURNDATASIZE PUSH1 0x0 REVERT JUMPDEST PUSH1 0x40 DUP1 MLOAD PUSH1 0x2 DUP1 DUP3 MSTORE PUSH1 0x60 DUP1 DUP4 ADD DUP5 MSTORE SWAP3 DUP4 SWAP3 SWAP2 SWAP1 PUSH1 0x20 DUP4 ADD SWAP1 DUP1 CALLDATASIZE DUP4 CALLDATACOPY POP POP PUSH1 0xA SLOAD DUP3 MLOAD SWAP3 SWAP4 POP PUSH1 0x1 PUSH1 0x1 PUSH1 0xA0 SHL SUB AND SWAP2 DUP4 SWAP2 POP PUSH1 0x0 SWAP1 PUSH2 0x30A5 JUMPI INVALID JUMPDEST PUSH1 0x1 PUSH1 0x1 PUSH1 0xA0 SHL SUB SWAP3 DUP4 AND PUSH1 0x20 SWAP2 DUP3 MUL SWAP3 SWAP1 SWAP3 ADD ADD MSTORE PUSH1 0xB SLOAD DUP3 MLOAD SWAP2 AND SWAP1 DUP3 SWAP1 PUSH1 0x1 SWAP1 DUP2 LT PUSH2 0x30D0 JUMPI INVALID JUMPDEST PUSH1 0x1 PUSH1 0x1 PUSH1 0xA0 SHL SUB SWAP1 SWAP3 AND PUSH1 0x20 SWAP3 DUP4 MUL SWAP2 SWAP1 SWAP2 ADD SWAP1 SWAP2 ADD MSTORE SWAP1 POP SWAP1 JUMP JUMPDEST PUSH2 0x30F5 PUSH2 0xD40 JUMP JUMPDEST PUSH1 0x1 PUSH1 0x1 PUSH1 0xA0 SHL SUB AND PUSH4 0x38ED1739 DUP7 DUP7 DUP7 DUP7 DUP7 PUSH1 0x40 MLOAD DUP7 PUSH4 0xFFFFFFFF AND PUSH1 0xE0 SHL DUP2 MSTORE PUSH1 0x4 ADD DUP1 DUP7 DUP2 MSTORE PUSH1 0x20 ADD DUP6 DUP2 MSTORE PUSH1 0x20 ADD DUP1 PUSH1 0x20 ADD DUP5 PUSH1 0x1 PUSH1 0x1 PUSH1 0xA0 SHL SUB AND DUP2 MSTORE PUSH1 0x20 ADD DUP4 DUP2 MSTORE PUSH1 0x20 ADD DUP3 DUP2 SUB DUP3 MSTORE DUP6 DUP2 DUP2 MLOAD DUP2 MSTORE PUSH1 0x20 ADD SWAP2 POP DUP1 MLOAD SWAP1 PUSH1 0x20 ADD SWAP1 PUSH1 0x20 MUL DUP1 DUP4 DUP4 PUSH1 0x0 JUMPDEST DUP4 DUP2 LT ISZERO PUSH2 0x3178 JUMPI DUP2 DUP2 ADD MLOAD DUP4 DUP3 ADD MSTORE PUSH1 0x20 ADD PUSH2 0x3160 JUMP JUMPDEST POP POP POP POP SWAP1 POP ADD SWAP7 POP POP POP POP POP POP POP PUSH1 0x0 PUSH1 0x40 MLOAD DUP1 DUP4 SUB DUP2 PUSH1 0x0 DUP8 DUP1 EXTCODESIZE ISZERO DUP1 ISZERO PUSH2 0x31A1 JUMPI PUSH1 0x0 DUP1 REVERT JUMPDEST POP GAS CALL ISZERO DUP1 ISZERO PUSH2 0x31B5 JUMPI RETURNDATASIZE PUSH1 0x0 DUP1 RETURNDATACOPY RETURNDATASIZE PUSH1 0x0 REVERT JUMPDEST POP POP POP POP POP POP POP POP POP JUMP JUMPDEST PUSH2 0x31C8 PUSH2 0x197C JUMP JUMPDEST PUSH1 0x1 PUSH1 0x1 PUSH1 0xA0 SHL SUB AND PUSH4 0xE752702 DUP3 PUSH1 0x40 MLOAD DUP3 PUSH4 0xFFFFFFFF AND PUSH1 0xE0 SHL DUP2 MSTORE PUSH1 0x4 ADD DUP1 DUP3 DUP2 MSTORE PUSH1 0x20 ADD SWAP2 POP POP PUSH1 0x0 PUSH1 0x40 MLOAD DUP1 DUP4 SUB DUP2 PUSH1 0x0 DUP8 DUP1 EXTCODESIZE ISZERO DUP1 ISZERO PUSH2 0x3053 JUMPI PUSH1 0x0 DUP1 REVERT JUMPDEST PUSH2 0xD33 DUP2 PUSH2 0x32CC JUMP JUMPDEST PUSH1 0x40 DUP1 MLOAD PUSH1 0x2 DUP1 DUP3 MSTORE PUSH1 0x60 DUP1 DUP4 ADD DUP5 MSTORE SWAP3 DUP4 SWAP3 SWAP2 SWAP1 PUSH1 0x20 DUP4 ADD SWAP1 DUP1 CALLDATASIZE DUP4 CALLDATACOPY POP POP PUSH1 0xB SLOAD DUP3 MLOAD SWAP3 SWAP4 POP PUSH1 0x1 PUSH1 0x1 PUSH1 0xA0 SHL SUB AND SWAP2 DUP4 SWAP2 POP PUSH1 0x0 SWAP1 PUSH2 0x3254 JUMPI INVALID JUMPDEST PUSH1 0x1 PUSH1 0x1 PUSH1 0xA0 SHL SUB SWAP3 DUP4 AND PUSH1 0x20 SWAP2 DUP3 MUL SWAP3 SWAP1 SWAP3 ADD ADD MSTORE PUSH1 0xA SLOAD DUP3 MLOAD SWAP2 AND SWAP1 DUP3 SWAP1 PUSH1 0x1 SWAP1 DUP2 LT PUSH2 0x30D0 JUMPI INVALID JUMPDEST PUSH2 0x3287 PUSH2 0xE5B JUMP JUMPDEST PUSH1 0x1 PUSH1 0x1 PUSH1 0xA0 SHL SUB AND PUSH4 0xA0712D68 DUP3 PUSH1 0x40 MLOAD DUP3 PUSH4 0xFFFFFFFF AND PUSH1 0xE0 SHL DUP2 MSTORE PUSH1 0x4 ADD DUP1 DUP3 DUP2 MSTORE PUSH1 0x20 ADD SWAP2 POP POP PUSH1 0x0 PUSH1 0x40 MLOAD DUP1 DUP4 SUB DUP2 PUSH1 0x0 DUP8 DUP1 EXTCODESIZE ISZERO DUP1 ISZERO PUSH2 0x3053 JUMPI PUSH1 0x0 DUP1 REVERT JUMPDEST PUSH1 0x0 PUSH2 0x32D6 PUSH2 0x197C JUMP JUMPDEST PUSH1 0x1 PUSH1 0x1 PUSH1 0xA0 SHL SUB AND PUSH4 0xC5EBEAEC DUP4 PUSH1 0x40 MLOAD DUP3 PUSH4 0xFFFFFFFF AND PUSH1 0xE0 SHL DUP2 MSTORE PUSH1 0x4 ADD DUP1 DUP3 DUP2 MSTORE PUSH1 0x20 ADD SWAP2 POP POP PUSH1 0x20 PUSH1 0x40 MLOAD DUP1 DUP4 SUB DUP2 PUSH1 0x0 DUP8 DUP1 EXTCODESIZE ISZERO DUP1 ISZERO PUSH2 0x331B JUMPI PUSH1 0x0 DUP1 REVERT JUMPDEST POP GAS CALL ISZERO DUP1 ISZERO PUSH2 0x24F9 JUMPI RETURNDATASIZE PUSH1 0x0 DUP1 RETURNDATACOPY RETURNDATASIZE PUSH1 0x0 REVERT INVALID GASLIMIT MSTORE NUMBER ORIGIN ADDRESS GASPRICE KECCAK256 PUSH21 0x72616E7366657220746F20746865207A65726F2061 PUSH5 0x6472657373 GASLIMIT MSTORE NUMBER ORIGIN ADDRESS GASPRICE KECCAK256 PUSH3 0x75726E KECCAK256 PUSH2 0x6D6F PUSH22 0x6E7420657863656564732062616C616E63654F776E61 PUSH3 0x6C653A KECCAK256 PUSH15 0x6577206F776E657220697320746865 KECCAK256 PUSH27 0x65726F206164647265737345524332303A20617070726F76652074 PUSH16 0x20746865207A65726F20616464726573 PUSH20 0x45524332303A207472616E7366657220616D6F75 PUSH15 0x7420657863656564732062616C616E PUSH4 0x65536166 PUSH6 0x4D6174683A20 PUSH14 0x756C7469706C69636174696F6E20 PUSH16 0x766572666C6F7745524332303A207472 PUSH2 0x6E73 PUSH7 0x657220616D6F75 PUSH15 0x74206578636565647320616C6C6F77 PUSH2 0x6E63 PUSH6 0x45524332303A KECCAK256 PUSH3 0x75726E KECCAK256 PUSH7 0x726F6D20746865 KECCAK256 PUSH27 0x65726F206164647265737345524332303A207472616E7366657220 PUSH7 0x726F6D20746865 KECCAK256 PUSH27 0x65726F206164647265737345524332303A20617070726F76652066 PUSH19 0x6F6D20746865207A65726F2061646472657373 MSTORE8 PUSH2 0x6665 GASLIMIT MSTORE NUMBER ORIGIN ADDRESS GASPRICE KECCAK256 GASLIMIT MSTORE NUMBER ORIGIN ADDRESS KECCAK256 PUSH16 0x7065726174696F6E20646964206E6F74 KECCAK256 PUSH20 0x7563636565645361666545524332303A20617070 PUSH19 0x6F76652066726F6D206E6F6E2D7A65726F2074 PUSH16 0x206E6F6E2D7A65726F20616C6C6F7761 PUSH15 0x636545524332303A20646563726561 PUSH20 0x656420616C6C6F77616E63652062656C6F77207A PUSH6 0x726FA2646970 PUSH7 0x7358221220F7E2 PUSH28 0xDF8B2B840C72C4D1972BB7D49A58BC98DDCFCE45DD475898D6928562 0xCF PUSH5 0x736F6C6343 STOP MOD 0xC STOP CALLER ",
  "sha1": "136d4a70b2d0cc5a24ac3dc1eb56d1a2f8f51abd",
  "source": "// SPDX-License-Identifier: MIT\npragma solidity ^0.6.12;\nimport \"../farms/spooky.sol\";\nimport \"../lenders/scream.sol\";\nimport \"../token.sol\";\nimport \"../vaultHelpers.sol\";\n\ncontract ScreamFUSDT is Scream {\n    function lendPlatform() public view override returns (address) {\n        return 0x02224765BC8D54C21BB51b0951c80315E1c263F9;\n    }\n}\n\ncontract SpookyFUSDT is Spooky {\n    function farmLP() public view override returns (address) {\n        return 0x5965E53aa80a0bcF1CD6dbDd72e6A9b2AA047410;\n    }\n    function farmPid() public view override returns (uint256) {\n        return 1;\n    }\n}\n    \ncontract rvFUSDTScreamSpooky is ERC20, ERC20Detailed, ScreamFUSDT, SpookyFUSDT, RoboController {\n    using SafeMath for uint256;\n    address constant FUSDT = 0x049d68029688eAbF473097a2fC38ef61633A3C7A;\n    address constant WFTM = 0x21be370D5312f44cB42ce377BC9b8a0cEF1A4C83;\n\n    constructor() public \n        ERC20Detailed(\"Robo Vault FUSDT Scream Spooky\", \"rvFUSDTa\", 6)\n        RoboController(FUSDT, WFTM)\n    {}\n}",
  "sourcePath": "contracts/vaults/FUSDTScreamSpooky.sol",
  "type": "contract"
}