{
  "abi": [
    {
      "inputs": [],
      "name": "borrowPlatform",
      "outputs": [
        {
          "internalType": "address",
          "name": "",
          "type": "address"
        }
      ],
      "stateMutability": "view",
      "type": "function"
    },
    {
      "inputs": [],
      "name": "compLpAddress",
      "outputs": [
        {
          "internalType": "address",
          "name": "",
          "type": "address"
        }
      ],
      "stateMutability": "view",
      "type": "function"
    },
    {
      "inputs": [],
      "name": "compTokenAddress",
      "outputs": [
        {
          "internalType": "address",
          "name": "",
          "type": "address"
        }
      ],
      "stateMutability": "view",
      "type": "function"
    },
    {
      "inputs": [],
      "name": "comptrollerAddress",
      "outputs": [
        {
          "internalType": "address",
          "name": "",
          "type": "address"
        }
      ],
      "stateMutability": "view",
      "type": "function"
    },
    {
      "inputs": [],
      "name": "lendPlatform",
      "outputs": [
        {
          "internalType": "address",
          "name": "",
          "type": "address"
        }
      ],
      "stateMutability": "view",
      "type": "function"
    }
  ],
  "bytecode": "608060405234801561001057600080fd5b5061014e806100206000396000f3fe608060405234801561001057600080fd5b50600436106100575760003560e01c80633ad184e41461005c578063668ecbf21461008057806368bde41f14610088578063b2ad2f0f14610090578063e43e7b9414610098575b600080fd5b6100646100a0565b604080516001600160a01b039092168252519081900360200190f35b6100646100b8565b6100646100d0565b6100646100e8565b610064610100565b73e45ac34e528907d0a0239ab5db507688070b20bf90565b7330872e4fc4edbfd7a352bfc2463eb4fae9c0908690565b73260e596dabe3afc463e75b6cc05d8c46acacfb0990565b735aa53f03197e08c4851cad8c92c7922da5857e5d90565b73e0654c8e6fd4d733349ac7e09f6f23da256bf4759056fea2646970667358221220e7aa8abeb9a920b890462ccd8f97781e673fd2c27def2e61a2618c373404e8b064736f6c634300060c0033",
  "bytecodeSha1": "685c6f1e364569ea43a1a928a09fe336aab5df48",
  "compiler": {
    "evm_version": "istanbul",
    "optimizer": {
      "enabled": true,
      "runs": 200
    },
    "version": "0.6.12+commit.27d51765"
  },
  "contractName": "ScreamUSDC",
  "language": "Solidity",
  "natspec": {
    "kind": "dev",
    "methods": {},
    "version": 1
  },
  "opcodes": "PUSH1 0x80 PUSH1 0x40 MSTORE CALLVALUE DUP1 ISZERO PUSH2 0x10 JUMPI PUSH1 0x0 DUP1 REVERT JUMPDEST POP PUSH1 0x4 CALLDATASIZE LT PUSH2 0x57 JUMPI PUSH1 0x0 CALLDATALOAD PUSH1 0xE0 SHR DUP1 PUSH4 0x3AD184E4 EQ PUSH2 0x5C JUMPI DUP1 PUSH4 0x668ECBF2 EQ PUSH2 0x80 JUMPI DUP1 PUSH4 0x68BDE41F EQ PUSH2 0x88 JUMPI DUP1 PUSH4 0xB2AD2F0F EQ PUSH2 0x90 JUMPI DUP1 PUSH4 0xE43E7B94 EQ PUSH2 0x98 JUMPI JUMPDEST PUSH1 0x0 DUP1 REVERT JUMPDEST PUSH2 0x64 PUSH2 0xA0 JUMP JUMPDEST PUSH1 0x40 DUP1 MLOAD PUSH1 0x1 PUSH1 0x1 PUSH1 0xA0 SHL SUB SWAP1 SWAP3 AND DUP3 MSTORE MLOAD SWAP1 DUP2 SWAP1 SUB PUSH1 0x20 ADD SWAP1 RETURN JUMPDEST PUSH2 0x64 PUSH2 0xB8 JUMP JUMPDEST PUSH2 0x64 PUSH2 0xD0 JUMP JUMPDEST PUSH2 0x64 PUSH2 0xE8 JUMP JUMPDEST PUSH2 0x64 PUSH2 0x100 JUMP JUMPDEST PUSH20 0xE45AC34E528907D0A0239AB5DB507688070B20BF SWAP1 JUMP JUMPDEST PUSH20 0x30872E4FC4EDBFD7A352BFC2463EB4FAE9C09086 SWAP1 JUMP JUMPDEST PUSH20 0x260E596DABE3AFC463E75B6CC05D8C46ACACFB09 SWAP1 JUMP JUMPDEST PUSH20 0x5AA53F03197E08C4851CAD8C92C7922DA5857E5D SWAP1 JUMP JUMPDEST PUSH20 0xE0654C8E6FD4D733349AC7E09F6F23DA256BF475 SWAP1 JUMP INVALID LOG2 PUSH5 0x6970667358 0x22 SLT KECCAK256 0xE7 0xAA DUP11 0xBE 0xB9 0xA9 KECCAK256 0xB8 SWAP1 CHAINID 0x2C 0xCD DUP16 SWAP8 PUSH25 0x1E673FD2C27DEF2E61A2618C373404E8B064736F6C63430006 0xC STOP CALLER ",
  "sha1": "99ec45aa093f87ac362c23c77611fbfbd04c1c29",
  "source": "// SPDX-License-Identifier: MIT\npragma solidity ^0.6.12;\nimport \"../farms/spooky.sol\";\nimport \"../lenders/scream.sol\";\nimport \"../token.sol\";\nimport \"../vaultHelpers.sol\";\n\ncontract ScreamUSDC is Scream {\n    function lendPlatform() public view override returns (address) {\n        return 0xE45Ac34E528907d0A0239ab5Db507688070B20bf;\n    }\n}\n\ncontract SpookyUSDC is Spooky {\n    function farmLP() public view override returns (address) {\n        return 0x2b4C76d0dc16BE1C31D4C1DC53bF9B45987Fc75c;\n    }\n    function farmPid() public view override returns (uint256) {\n        return 2;\n    }\n}\n    \ncontract leverageTest is ERC20, ERC20Detailed, ScreamUSDC, SpookyUSDC, RoboController {\n    using SafeMath for uint256;\n    address constant USDC = 0x04068DA6C83AFCFA0e13ba15A6696662335D5B75;\n    address constant WFTM = 0x21be370D5312f44cB42ce377BC9b8a0cEF1A4C83;\n    string constant baseSymbol = \"USDC\";\n    string constant shortSymbol = \"FTM\";\n\n    constructor() public \n        ERC20Detailed(\"LEVERAGETEST\", \"test\", 8)\n        RoboController(USDC, WFTM)\n    {}\n}",
  "sourcePath": "contracts/vaults/USDCScreamSpooky.sol",
  "type": "contract"
}