{
  "abi": [
    {
      "inputs": [],
      "name": "farmAddress",
      "outputs": [
        {
          "internalType": "address",
          "name": "",
          "type": "address"
        }
      ],
      "stateMutability": "view",
      "type": "function"
    },
    {
      "inputs": [],
      "name": "farmLP",
      "outputs": [
        {
          "internalType": "address",
          "name": "",
          "type": "address"
        }
      ],
      "stateMutability": "view",
      "type": "function"
    },
    {
      "inputs": [],
      "name": "farmPid",
      "outputs": [
        {
          "internalType": "uint256",
          "name": "",
          "type": "uint256"
        }
      ],
      "stateMutability": "view",
      "type": "function"
    },
    {
      "inputs": [],
      "name": "farmToken",
      "outputs": [
        {
          "internalType": "address",
          "name": "",
          "type": "address"
        }
      ],
      "stateMutability": "view",
      "type": "function"
    },
    {
      "inputs": [],
      "name": "farmTokenLp",
      "outputs": [
        {
          "internalType": "address",
          "name": "",
          "type": "address"
        }
      ],
      "stateMutability": "view",
      "type": "function"
    },
    {
      "inputs": [],
      "name": "routerAddress",
      "outputs": [
        {
          "internalType": "address",
          "name": "",
          "type": "address"
        }
      ],
      "stateMutability": "view",
      "type": "function"
    }
  ],
  "bytecode": "608060405234801561001057600080fd5b50610178806100206000396000f3fe608060405234801561001057600080fd5b50600436106100625760003560e01c80633268cc56146100675780636c1a35be1461008b578063827907b414610093578063c1e32a3d146100ad578063c2442f93146100b5578063f9da3f75146100bd575b600080fd5b61006f6100c5565b604080516001600160a01b039092168252519081900360200190f35b61006f6100dd565b61009b6100f5565b60408051918252519081900360200190f35b61006f6100fa565b61006f610112565b61006f61012a565b73f491e7b69e4244ad4002bc14e878a34207e38c2990565b732b4c76d0dc16be1c31d4c1dc53bf9b45987fc75c90565b600290565b73ec7178f4c41f346b2721907f5cf7628e388a7a5890565b73841fad6eae12c286d1fd18d1d525dffa75c7effe90565b732b2929e785374c651a81a63878ab22742656dcdd9056fea2646970667358221220fe9145d92673f8ff367c7599962b28fe908aa2b263240d3cc471b7d9587e351a64736f6c634300060c0033",
  "bytecodeSha1": "1c6c290966860d09e0f9354244a962ff0bbdfc12",
  "compiler": {
    "evm_version": "istanbul",
    "optimizer": {
      "enabled": true,
      "runs": 200
    },
    "version": "0.6.12+commit.27d51765"
  },
  "contractName": "SpookyUSDC",
  "language": "Solidity",
  "natspec": {
    "kind": "dev",
    "methods": {
      "farmAddress()": {
        "notice": "Spooky Addresses"
      },
      "farmPid()": {
        "notice": "LP contract for base & short token"
      }
    },
    "version": 1
  },
  "opcodes": "PUSH1 0x80 PUSH1 0x40 MSTORE CALLVALUE DUP1 ISZERO PUSH2 0x10 JUMPI PUSH1 0x0 DUP1 REVERT JUMPDEST POP PUSH1 0x4 CALLDATASIZE LT PUSH2 0x62 JUMPI PUSH1 0x0 CALLDATALOAD PUSH1 0xE0 SHR DUP1 PUSH4 0x3268CC56 EQ PUSH2 0x67 JUMPI DUP1 PUSH4 0x6C1A35BE EQ PUSH2 0x8B JUMPI DUP1 PUSH4 0x827907B4 EQ PUSH2 0x93 JUMPI DUP1 PUSH4 0xC1E32A3D EQ PUSH2 0xAD JUMPI DUP1 PUSH4 0xC2442F93 EQ PUSH2 0xB5 JUMPI DUP1 PUSH4 0xF9DA3F75 EQ PUSH2 0xBD JUMPI JUMPDEST PUSH1 0x0 DUP1 REVERT JUMPDEST PUSH2 0x6F PUSH2 0xC5 JUMP JUMPDEST PUSH1 0x40 DUP1 MLOAD PUSH1 0x1 PUSH1 0x1 PUSH1 0xA0 SHL SUB SWAP1 SWAP3 AND DUP3 MSTORE MLOAD SWAP1 DUP2 SWAP1 SUB PUSH1 0x20 ADD SWAP1 RETURN JUMPDEST PUSH2 0x6F PUSH2 0xDD JUMP JUMPDEST PUSH2 0x9B PUSH2 0xF5 JUMP JUMPDEST PUSH1 0x40 DUP1 MLOAD SWAP2 DUP3 MSTORE MLOAD SWAP1 DUP2 SWAP1 SUB PUSH1 0x20 ADD SWAP1 RETURN JUMPDEST PUSH2 0x6F PUSH2 0xFA JUMP JUMPDEST PUSH2 0x6F PUSH2 0x112 JUMP JUMPDEST PUSH2 0x6F PUSH2 0x12A JUMP JUMPDEST PUSH20 0xF491E7B69E4244AD4002BC14E878A34207E38C29 SWAP1 JUMP JUMPDEST PUSH20 0x2B4C76D0DC16BE1C31D4C1DC53BF9B45987FC75C SWAP1 JUMP JUMPDEST PUSH1 0x2 SWAP1 JUMP JUMPDEST PUSH20 0xEC7178F4C41F346B2721907F5CF7628E388A7A58 SWAP1 JUMP JUMPDEST PUSH20 0x841FAD6EAE12C286D1FD18D1D525DFFA75C7EFFE SWAP1 JUMP JUMPDEST PUSH20 0x2B2929E785374C651A81A63878AB22742656DCDD SWAP1 JUMP INVALID LOG2 PUSH5 0x6970667358 0x22 SLT KECCAK256 INVALID SWAP2 GASLIMIT 0xD9 0x26 PUSH20 0xF8FF367C7599962B28FE908AA2B263240D3CC471 0xB7 0xD9 PC PUSH31 0x351A64736F6C634300060C0033000000000000000000000000000000000000 ",
  "sha1": "99ec45aa093f87ac362c23c77611fbfbd04c1c29",
  "source": "// SPDX-License-Identifier: MIT\npragma solidity ^0.6.12;\nimport \"../farms/spooky.sol\";\nimport \"../lenders/scream.sol\";\nimport \"../token.sol\";\nimport \"../vaultHelpers.sol\";\n\ncontract ScreamUSDC is Scream {\n    function lendPlatform() public view override returns (address) {\n        return 0xE45Ac34E528907d0A0239ab5Db507688070B20bf;\n    }\n}\n\ncontract SpookyUSDC is Spooky {\n    function farmLP() public view override returns (address) {\n        return 0x2b4C76d0dc16BE1C31D4C1DC53bF9B45987Fc75c;\n    }\n    function farmPid() public view override returns (uint256) {\n        return 2;\n    }\n}\n    \ncontract leverageTest is ERC20, ERC20Detailed, ScreamUSDC, SpookyUSDC, RoboController {\n    using SafeMath for uint256;\n    address constant USDC = 0x04068DA6C83AFCFA0e13ba15A6696662335D5B75;\n    address constant WFTM = 0x21be370D5312f44cB42ce377BC9b8a0cEF1A4C83;\n    string constant baseSymbol = \"USDC\";\n    string constant shortSymbol = \"FTM\";\n\n    constructor() public \n        ERC20Detailed(\"LEVERAGETEST\", \"test\", 8)\n        RoboController(USDC, WFTM)\n    {}\n}",
  "sourcePath": "contracts/vaults/USDCScreamSpooky.sol",
  "type": "contract"
}